{"abi":[{"type":"constructor","inputs":[{"name":"_dashToken","type":"address","internalType":"address"},{"name":"_factory","type":"address","internalType":"address"},{"name":"_feeCollector","type":"address","internalType":"address"},{"name":"initialOwner","type":"address","internalType":"address"}],"stateMutability":"nonpayable"},{"type":"receive","stateMutability":"payable"},{"type":"function","name":"MAX_HOPS","inputs":[],"outputs":[{"name":"","type":"uint256","internalType":"uint256"}],"stateMutability":"view"},{"type":"function","name":"MAX_SLIPPAGE","inputs":[],"outputs":[{"name":"","type":"uint256","internalType":"uint256"}],"stateMutability":"view"},{"type":"function","name":"MIN_SPLIT_AMOUNT","inputs":[],"outputs":[{"name":"","type":"uint256","internalType":"uint256"}],"stateMutability":"view"},{"type":"function","name":"PRICE_IMPACT_THRESHOLD","inputs":[],"outputs":[{"name":"","type":"uint256","internalType":"uint256"}],"stateMutability":"view"},{"type":"function","name":"addExternalDEX","inputs":[{"name":"name","type":"bytes32","internalType":"bytes32"},{"name":"router","type":"address","internalType":"address"},{"name":"enabled","type":"bool","internalType":"bool"},{"name":"fee","type":"uint256","internalType":"uint256"},{"name":"gasEstimate","type":"uint256","internalType":"uint256"}],"outputs":[],"stateMutability":"nonpayable"},{"type":"function","name":"cancelLimitOrder","inputs":[{"name":"orderId","type":"bytes32","internalType":"bytes32"}],"outputs":[],"stateMutability":"nonpayable"},{"type":"function","name":"createLimitOrder","inputs":[{"name":"tokenIn","type":"address","internalType":"address"},{"name":"tokenOut","type":"address","internalType":"address"},{"name":"amountIn","type":"uint256","internalType":"uint256"},{"name":"minAmountOut","type":"uint256","internalType":"uint256"},{"name":"deadline","type":"uint256","internalType":"uint256"}],"outputs":[{"name":"orderId","type":"bytes32","internalType":"bytes32"}],"stateMutability":"nonpayable"},{"type":"function","name":"dashToken","inputs":[],"outputs":[{"name":"","type":"address","internalType":"contract DashToken"}],"stateMutability":"view"},{"type":"function","name":"dexNames","inputs":[{"name":"","type":"uint256","internalType":"uint256"}],"outputs":[{"name":"","type":"bytes32","internalType":"bytes32"}],"stateMutability":"view"},{"type":"function","name":"emergencyWithdraw","inputs":[{"name":"token","type":"address","internalType":"address"},{"name":"amount","type":"uint256","internalType":"uint256"}],"outputs":[],"stateMutability":"nonpayable"},{"type":"function","name":"executeLimitOrder","inputs":[{"name":"orderId","type":"bytes32","internalType":"bytes32"}],"outputs":[],"stateMutability":"nonpayable"},{"type":"function","name":"externalDEXs","inputs":[{"name":"","type":"bytes32","internalType":"bytes32"}],"outputs":[{"name":"router","type":"address","internalType":"address"},{"name":"enabled","type":"bool","internalType":"bool"},{"name":"fee","type":"uint256","internalType":"uint256"},{"name":"gasEstimate","type":"uint256","internalType":"uint256"}],"stateMutability":"view"},{"type":"function","name":"factory","inputs":[],"outputs":[{"name":"","type":"address","internalType":"contract PoolFactory"}],"stateMutability":"view"},{"type":"function","name":"feeCollector","inputs":[],"outputs":[{"name":"","type":"address","internalType":"address"}],"stateMutability":"view"},{"type":"function","name":"gasSubsidy","inputs":[],"outputs":[{"name":"","type":"uint256","internalType":"uint256"}],"stateMutability":"view"},{"type":"function","name":"getAmountOut","inputs":[{"name":"amountIn","type":"uint256","internalType":"uint256"},{"name":"tokenIn","type":"address","internalType":"address"},{"name":"tokenOut","type":"address","internalType":"address"}],"outputs":[{"name":"amountOut","type":"uint256","internalType":"uint256"},{"name":"bestRoute","type":"tuple","internalType":"struct MultiPoolRouter.Route","components":[{"name":"path","type":"address[]","internalType":"address[]"},{"name":"pools","type":"address[]","internalType":"address[]"},{"name":"expectedOutput","type":"uint256","internalType":"uint256"},{"name":"gasEstimate","type":"uint256","internalType":"uint256"},{"name":"timestamp","type":"uint256","internalType":"uint256"},{"name":"routeData","type":"bytes","internalType":"bytes"}]}],"stateMutability":"view"},{"type":"function","name":"getLimitOrder","inputs":[{"name":"orderId","type":"bytes32","internalType":"bytes32"}],"outputs":[{"name":"","type":"tuple","internalType":"struct MultiPoolRouter.LimitOrder","components":[{"name":"user","type":"address","internalType":"address"},{"name":"tokenIn","type":"address","internalType":"address"},{"name":"tokenOut","type":"address","internalType":"address"},{"name":"amountIn","type":"uint256","internalType":"uint256"},{"name":"minAmountOut","type":"uint256","internalType":"uint256"},{"name":"deadline","type":"uint256","internalType":"uint256"},{"name":"isActive","type":"bool","internalType":"bool"},{"name":"createdAt","type":"uint256","internalType":"uint256"}]}],"stateMutability":"view"},{"type":"function","name":"getUserOrders","inputs":[{"name":"user","type":"address","internalType":"address"}],"outputs":[{"name":"","type":"bytes32[]","internalType":"bytes32[]"}],"stateMutability":"view"},{"type":"function","name":"limitOrders","inputs":[{"name":"","type":"bytes32","internalType":"bytes32"}],"outputs":[{"name":"user","type":"address","internalType":"address"},{"name":"tokenIn","type":"address","internalType":"address"},{"name":"tokenOut","type":"address","internalType":"address"},{"name":"amountIn","type":"uint256","internalType":"uint256"},{"name":"minAmountOut","type":"uint256","internalType":"uint256"},{"name":"deadline","type":"uint256","internalType":"uint256"},{"name":"isActive","type":"bool","internalType":"bool"},{"name":"createdAt","type":"uint256","internalType":"uint256"}],"stateMutability":"view"},{"type":"function","name":"mevProtectionDelay","inputs":[],"outputs":[{"name":"","type":"uint256","internalType":"uint256"}],"stateMutability":"view"},{"type":"function","name":"multiRouteSwap","inputs":[{"name":"amountIn","type":"uint256","internalType":"uint256"},{"name":"amountOutMin","type":"uint256","internalType":"uint256"},{"name":"tokenIn","type":"address","internalType":"address"},{"name":"tokenOut","type":"address","internalType":"address"},{"name":"maxRoutes","type":"uint256","internalType":"uint256"},{"name":"to","type":"address","internalType":"address"},{"name":"deadline","type":"uint256","internalType":"uint256"}],"outputs":[{"name":"totalAmountOut","type":"uint256","internalType":"uint256"}],"stateMutability":"payable"},{"type":"function","name":"orderNonce","inputs":[],"outputs":[{"name":"","type":"uint256","internalType":"uint256"}],"stateMutability":"view"},{"type":"function","name":"owner","inputs":[],"outputs":[{"name":"","type":"address","internalType":"address"}],"stateMutability":"view"},{"type":"function","name":"paused","inputs":[],"outputs":[{"name":"","type":"bool","internalType":"bool"}],"stateMutability":"view"},{"type":"function","name":"protocolFee","inputs":[],"outputs":[{"name":"","type":"uint256","internalType":"uint256"}],"stateMutability":"view"},{"type":"function","name":"renounceOwnership","inputs":[],"outputs":[],"stateMutability":"nonpayable"},{"type":"function","name":"routeCacheExpiry","inputs":[],"outputs":[{"name":"","type":"uint256","internalType":"uint256"}],"stateMutability":"view"},{"type":"function","name":"savedRoutes","inputs":[{"name":"","type":"address","internalType":"address"},{"name":"","type":"address","internalType":"address"},{"name":"","type":"uint256","internalType":"uint256"}],"outputs":[{"name":"expectedOutput","type":"uint256","internalType":"uint256"},{"name":"gasEstimate","type":"uint256","internalType":"uint256"},{"name":"timestamp","type":"uint256","internalType":"uint256"},{"name":"routeData","type":"bytes","internalType":"bytes"}],"stateMutability":"view"},{"type":"function","name":"setMEVProtectionDelay","inputs":[{"name":"newDelay","type":"uint256","internalType":"uint256"}],"outputs":[],"stateMutability":"nonpayable"},{"type":"function","name":"setPaused","inputs":[{"name":"paused","type":"bool","internalType":"bool"}],"outputs":[],"stateMutability":"nonpayable"},{"type":"function","name":"setProtocolFee","inputs":[{"name":"newFee","type":"uint256","internalType":"uint256"}],"outputs":[],"stateMutability":"nonpayable"},{"type":"function","name":"swapExactTokensForTokens","inputs":[{"name":"amountIn","type":"uint256","internalType":"uint256"},{"name":"amountOutMin","type":"uint256","internalType":"uint256"},{"name":"path","type":"address[]","internalType":"address[]"},{"name":"to","type":"address","internalType":"address"},{"name":"deadline","type":"uint256","internalType":"uint256"}],"outputs":[{"name":"amounts","type":"uint256[]","internalType":"uint256[]"}],"stateMutability":"payable"},{"type":"function","name":"swapTokensForExactTokens","inputs":[{"name":"amountOut","type":"uint256","internalType":"uint256"},{"name":"amountInMax","type":"uint256","internalType":"uint256"},{"name":"path","type":"address[]","internalType":"address[]"},{"name":"to","type":"address","internalType":"address"},{"name":"deadline","type":"uint256","internalType":"uint256"}],"outputs":[{"name":"amounts","type":"uint256[]","internalType":"uint256[]"}],"stateMutability":"payable"},{"type":"function","name":"transferOwnership","inputs":[{"name":"newOwner","type":"address","internalType":"address"}],"outputs":[],"stateMutability":"nonpayable"},{"type":"function","name":"userOrders","inputs":[{"name":"","type":"address","internalType":"address"},{"name":"","type":"uint256","internalType":"uint256"}],"outputs":[{"name":"","type":"bytes32","internalType":"bytes32"}],"stateMutability":"view"},{"type":"event","name":"ExternalDEXUpdated","inputs":[{"name":"name","type":"bytes32","indexed":true,"internalType":"bytes32"},{"name":"router","type":"address","indexed":false,"internalType":"address"},{"name":"enabled","type":"bool","indexed":false,"internalType":"bool"}],"anonymous":false},{"type":"event","name":"LimitOrderCreated","inputs":[{"name":"orderId","type":"bytes32","indexed":true,"internalType":"bytes32"},{"name":"user","type":"address","indexed":true,"internalType":"address"},{"name":"tokenIn","type":"address","indexed":true,"internalType":"address"},{"name":"tokenOut","type":"address","indexed":false,"internalType":"address"},{"name":"amountIn","type":"uint256","indexed":false,"internalType":"uint256"},{"name":"minAmountOut","type":"uint256","indexed":false,"internalType":"uint256"}],"anonymous":false},{"type":"event","name":"LimitOrderExecuted","inputs":[{"name":"orderId","type":"bytes32","indexed":true,"internalType":"bytes32"},{"name":"executor","type":"address","indexed":true,"internalType":"address"},{"name":"amountOut","type":"uint256","indexed":false,"internalType":"uint256"},{"name":"executorReward","type":"uint256","indexed":false,"internalType":"uint256"}],"anonymous":false},{"type":"event","name":"MultiSwapExecuted","inputs":[{"name":"user","type":"address","indexed":true,"internalType":"address"},{"name":"tokenIn","type":"address","indexed":true,"internalType":"address"},{"name":"tokenOut","type":"address","indexed":true,"internalType":"address"},{"name":"amountIn","type":"uint256","indexed":false,"internalType":"uint256"},{"name":"amountOut","type":"uint256","indexed":false,"internalType":"uint256"},{"name":"routes","type":"tuple[]","indexed":false,"internalType":"struct MultiPoolRouter.Route[]","components":[{"name":"path","type":"address[]","internalType":"address[]"},{"name":"pools","type":"address[]","internalType":"address[]"},{"name":"expectedOutput","type":"uint256","internalType":"uint256"},{"name":"gasEstimate","type":"uint256","internalType":"uint256"},{"name":"timestamp","type":"uint256","internalType":"uint256"},{"name":"routeData","type":"bytes","internalType":"bytes"}]},{"name":"gasUsed","type":"uint256","indexed":false,"internalType":"uint256"}],"anonymous":false},{"type":"event","name":"OwnershipTransferred","inputs":[{"name":"previousOwner","type":"address","indexed":true,"internalType":"address"},{"name":"newOwner","type":"address","indexed":true,"internalType":"address"}],"anonymous":false},{"type":"event","name":"Paused","inputs":[{"name":"account","type":"address","indexed":false,"internalType":"address"}],"anonymous":false},{"type":"event","name":"SwapExecuted","inputs":[{"name":"user","type":"address","indexed":true,"internalType":"address"},{"name":"tokenIn","type":"address","indexed":true,"internalType":"address"},{"name":"tokenOut","type":"address","indexed":true,"internalType":"address"},{"name":"amountIn","type":"uint256","indexed":false,"internalType":"uint256"},{"name":"amountOut","type":"uint256","indexed":false,"internalType":"uint256"},{"name":"path","type":"address[]","indexed":false,"internalType":"address[]"},{"name":"gasUsed","type":"uint256","indexed":false,"internalType":"uint256"}],"anonymous":false},{"type":"event","name":"Unpaused","inputs":[{"name":"account","type":"address","indexed":false,"internalType":"address"}],"anonymous":false},{"type":"error","name":"EnforcedPause","inputs":[]},{"type":"error","name":"ExceedsMaxHops","inputs":[]},{"type":"error","name":"ExcessiveSlippage","inputs":[]},{"type":"error","name":"ExpectedPause","inputs":[]},{"type":"error","name":"ExpiredDeadline","inputs":[]},{"type":"error","name":"InsufficientBalance","inputs":[]},{"type":"error","name":"InsufficientOutputAmount","inputs":[]},{"type":"error","name":"InvalidOrder","inputs":[]},{"type":"error","name":"InvalidPath","inputs":[]},{"type":"error","name":"MEVProtectionActive","inputs":[]},{"type":"error","name":"NoValidRoute","inputs":[]},{"type":"error","name":"OrderNotActive","inputs":[]},{"type":"error","name":"OwnableInvalidOwner","inputs":[{"name":"owner","type":"address","internalType":"address"}]},{"type":"error","name":"OwnableUnauthorizedAccount","inputs":[{"name":"account","type":"address","internalType":"address"}]},{"type":"error","name":"ReentrancyGuardReentrantCall","inputs":[]},{"type":"error","name":"SafeERC20FailedOperation","inputs":[{"name":"token","type":"address","internalType":"address"}]}],"bytecode":{"object":"0x60c06040523461035657604051601f61346638819003918201601f19168301916001600160401b038311848410176102ff578084926080946040528339810103126103565761004d8161035a565b6100596020830161035a565b90610072606061006b6040860161035a565b940161035a565b60015f556001600160a01b0316801561034357600180546001600160a01b0319811683179091556001600160a01b03167f8be0079c531659141344cd1fd0a4f28419497f9722a3daafe3b4186f6b6457e05f80a361012c60059081556001600b55600c556032600e556001600160a01b03908116608090815291811660a052600d80546001600160a01b03191693909116929092179091556040519081016001600160401b038111828210176102ff57604090815273111111125421ca6dc452d289314280a0f8842a658252600160208084019182525f92840183815262030d406060860190815264062929c86960db1b8552600290925293517f8f4116c5ebf0f8f301af5b8bf59e55940913d2da592e03f466404f5f29f3d6868054935160ff60a01b90151560a01b166001600160a01b039092166001600160a81b0319909416939093171790915591517f8f4116c5ebf0f8f301af5b8bf59e55940913d2da592e03f466404f5f29f3d6875590517f8f4116c5ebf0f8f301af5b8bf59e55940913d2da592e03f466404f5f29f3d6885560035490805b828110610313575b50156102ba575b6040805173111111125421ca6dc452d289314280a0f8842a6581526001602082015264062929c86960db1b917f4a9802500dbca2f1d7151fd2f9b249d1f43214b689d960778cf0bf67264429be91a26040516130cb908161039b8239608051818181610b8c01528181611446015261238b015260a05181818161091701528181610c93015281816113e60152818161233801528181612da70152612f570152f35b680100000000000000008110156102ff578060016102db920160035561036e565b81545f1960039290921b91821b191664062929c86960db1b90911b1790555f610219565b634e487b7160e01b5f52604160045260245ffd5b61031c8161036e565b64062929c86960db1b91549060031b1c146103395760010161020a565b505060015f610212565b631e4fbdf760e01b5f525f60045260245ffd5b5f80fd5b51906001600160a01b038216820361035657565b6003548110156103865760035f5260205f2001905f90565b634e487b7160e01b5f52603260045260245ffdfe608080604052600436101561001c575b50361561001a575f80fd5b005b5f3560e01c908163165dfdf914611df65750806316c38b3c14611d2d57806316f8de8914611d105780631899b05014611cf457806338ed173914611ad75780634584eff614611a33578063544e2755146113335780635c975abb1461130e5780635e1e6325146112b757806363c69f08146112035780636c10a314146111e6578063715018a61461118b578063787dce3d1461112e5780637968d4e0146111115780637b8c162914610f8f5780637f33cba114610f73578063856652e914610f2a5780638803dbee14610bf357806388a02f2314610bbb57806388c8ec9514610b775780638c51222e14610b5c5780638da5cb5b14610b345780638ee272af146109c857806395ccea671461098b578063b0e21e8a1461096e578063c415b95c14610946578063c45a015514610902578063ca697db41461086e578063d033f15014610749578063d212799814610728578063de1b983b1461041f578063eda4ad951461026c578063f183019b1461024f578063f2fde38b146101c95763f9759518146101a9575f61000f565b346101c5575f3660031901126101c55760206040516113888152f35b5f80fd5b346101c55760203660031901126101c5576101e2611e76565b6101ea612274565b6001600160a01b0316801561023c57600180546001600160a01b0319811683179091556001600160a01b03167f8be0079c531659141344cd1fd0a4f28419497f9722a3daafe3b4186f6b6457e05f80a3005b631e4fbdf760e01b5f525f60045260245ffd5b346101c5575f3660031901126101c5576020600b54604051908152f35b346101c55760203660031901126101c55760043561028861229b565b6102906122b9565b805f52600660205260405f209060068201916102af60ff8454166121d9565b600581015442116103ea57600181015460028201805460038401549193926102e59183916001600160a01b0391821691166122f6565b60408101516004840154116103af57915461030b926001600160a01b0390911691612690565b80515f19810190811161039b57610321916121c5565b51926103e88404918261036f575b5060ff19815416905560405192835260208301527f798b37efdb8e64c63beca49a6f38ac447bca5be1812f5c27331507a56a9e9c7b60403393a360015f55005b5490936103949183919061038f90839033906001600160a01b0316612a85565b61213f565b928461032f565b634e487b7160e01b5f52601160045260245ffd5b60405162461bcd60e51b8152602060048201526013602482015272125394d551919250d251539517d3d555141555606a1b6044820152606490fd5b60405162461bcd60e51b815260206004820152600d60248201526c13d491115497d1561412549151609a1b6044820152606490fd5b346101c55760a03660031901126101c557610438611e76565b610440611e60565b60443591608435919060643561045461229b565b6001600160a01b038281169390811692908484146106f057861515806106e7575b156106b057428611156106785760085461048e81612248565b6008556040519160208301933360601b85526001600160601b03199060601b1660348401526001600160601b03199060601b16604883015287605c830152607c820152607c81526104e0609c8261207b565b519020936104f086303387612ba8565b6007604051916104ff8361205e565b33835260208301908682526040840190868252606085018a8152608086019087825260a0870192835260c08701936001855260e08801954287528c5f52600660205260405f209860018060a01b039060018060a01b03905116166001600160601b0360a01b8a541617895560018060a01b03905116600189019060018060a01b03166001600160601b0360a01b82541617905560018060a01b03905116600288019060018060a01b03166001600160601b0360a01b825416179055516003870155516004860155516005850155600684019051151560ff8019835416911617905551910155335f52600760205260405f2094855495600160401b8710156106645786610612916001602099018155612011565b81549060031b9087821b915f19901b1916179055604051928352858301526040820152827f7603cff60dc3d7d1025c12f1b8ade67aa4b048ccf2c115ac624b5cbfdfe9759460603393a4604051908152f35b634e487b7160e01b5f52604160045260245ffd5b60405162461bcd60e51b815260206004820152601060248201526f494e56414c49445f444541444c494e4560801b6044820152606490fd5b60405162461bcd60e51b815260206004820152600f60248201526e494e56414c49445f414d4f554e545360881b6044820152606490fd5b50821515610475565b60405162461bcd60e51b815260206004820152601060248201526f4944454e544943414c5f544f4b454e5360801b6044820152606490fd5b346101c55760203660031901126101c557610741612274565b600435600b55005b346101c55760203660031901126101c5575f60e06040516107698161205e565b8281528260208201528260408201528260608201528260808201528260a08201528260c082015201526004355f52600660205261010060405f206040516107af8161205e565b60018060a01b038254169182825260018060a01b036001820154166020830190815260018060a01b03600283015416604084019081526003830154606085019081526004840154916080860192835260058501549360a0870194855260e0600760ff6006890154169760c08a0198151589520154970196875260405197885260018060a01b03905116602088015260018060a01b0390511660408701525160608601525160808501525160a084015251151560c08301525160e0820152f35b346101c55760203660031901126101c5576004355f52600660205261010060405f2060018060a01b038154169060018060a01b036001820154169060018060a01b036002820154166003820154600483015490600584015492600760ff60068701541695015495604051978852602088015260408701526060860152608085015260a0840152151560c083015260e0820152f35b346101c5575f3660031901126101c5576040517f00000000000000000000000000000000000000000000000000000000000000006001600160a01b03168152602090f35b346101c5575f3660031901126101c557600d546040516001600160a01b039091168152602090f35b346101c5575f3660031901126101c5576020600c54604051908152f35b346101c55760403660031901126101c55761001a6109a7611e76565b6109af612274565b600154602435916001600160a01b039182169116612a85565b346101c55760603660031901126101c5576109e1611e76565b6109e9611e60565b6044359160018060a01b03165f52600460205260405f209060018060a01b03165f5260205260405f2080548210156101c5575f52600660205f20910201600281015460038201549160056004820154910190604051915f908054908160011c91600181168015610b2a575b602084108114610b1657838752908115610aef5750600114610aab575b505090610a8483610aa79493038361207b565b604051948594855260208501526040840152608060608401526080830190611f75565b0390f35b5f9081526020812094939250905b808210610ad35750919250908201602001610a8483610a71565b9192936001816020925483858901015201910190939291610ab9565b60ff191660208088019190915292151560051b86019092019250610a849150849050610a71565b634e487b7160e01b5f52602260045260245ffd5b92607f1692610a54565b346101c5575f3660031901126101c5576001546040516001600160a01b039091168152602090f35b346101c5575f3660031901126101c557602060405160048152f35b346101c5575f3660031901126101c5576040517f00000000000000000000000000000000000000000000000000000000000000006001600160a01b03168152602090f35b346101c55760203660031901126101c5576004356003548110156101c557610be4602091611ff9565b90549060031b1c604051908152f35b610c1d610bff36611e8c565b610c0d96919493959661229b565b610c156122b9565b42111561209d565b600281101580610f1f575b610c31906120e0565b8015610f0b57610c408461212b565b915f1982019582871161039b57610c60610c5b88858961211b565b61212b565b60405163e6a4390560e01b81526001600160a01b03808716600483015282166024820152909190602081806044810103817f00000000000000000000000000000000000000000000000000000000000000006001600160a01b03165afa908115610e49575f91610edc575b506001600160a01b03168015610ea557604051630240bc6b60e21b815295606087600481855afa968715610e4957610d6e976020955f925f92610e66575b506001600160a01b03908116931692909210916001600160701b03918315610e5d57828116935b15610e54575016905b604051634a386df560e11b81526004810194909452602484015260448301523360648301529094859190829081906084820190565b03915afa928315610e49575f93610e15575b508211610dd757610dbc610dc793610db684610dc294610db0610c5b610aa79b610da98c61212b565b938c61211b565b906122f6565b84612690565b9361212b565b612a4f565b60015f5560405191829182611f00565b60405162461bcd60e51b8152602060048201526016602482015275115610d154d4d2559157d25394155517d05353d5539560521b6044820152606490fd5b9092506020813d602011610e41575b81610e316020938361207b565b810103126101c557519186610d80565b3d9150610e24565b6040513d5f823e3d90fd5b90501690610d39565b82821693610d30565b6001600160701b039350610e9391925060603d606011610e9e575b610e8b818361207b565b810190612b72565b509092909190610d09565b503d610e81565b60405162461bcd60e51b815260206004820152600f60248201526e504f4f4c5f4e4f545f45584953545360881b6044820152606490fd5b610efe915060203d602011610f04575b610ef6818361207b565b8101906122d7565b89610ccb565b503d610eec565b634e487b7160e01b5f52603260045260245ffd5b506005811115610c28565b346101c55760403660031901126101c557610f43611e76565b6001600160a01b03165f908152600760205260409020805460243591908210156101c557602091610be491612011565b346101c5575f3660031901126101c557602060405161012c8152f35b346101c55760a03660031901126101c557600435610fab611e60565b604435908115158092036101c557610fc1612274565b60405190610fce82612042565b6001600160a01b0390811680835260208084018581526064356040808701918252608435606088019081525f8a815260029586905291822097518854945160ff60a01b90151560a01b1697166001600160a81b03199094169390931795909517865551600186015551930192909255600354815b8181106110e7575b505015611084575b6040907f4a9802500dbca2f1d7151fd2f9b249d1f43214b689d960778cf0bf67264429be9282519182526020820152a2005b60035490600160401b821015610664577f4a9802500dbca2f1d7151fd2f9b249d1f43214b689d960778cf0bf67264429be926110ca836001604095016003556003612011565b81549060031b9087821b915f19901b191617905592509050611052565b856110f182611ff9565b90549060031b1c1461110557600101611042565b5050506001848061104a565b346101c5575f3660031901126101c5576020600554604051908152f35b346101c55760203660031901126101c55760043561114a612274565b6064811161115757600c55005b60405162461bcd60e51b815260206004820152600c60248201526b08c8a8abea89e9ebe90928e960a31b6044820152606490fd5b346101c5575f3660031901126101c5576111a3612274565b600180546001600160a01b031981169091555f906001600160a01b03167f8be0079c531659141344cd1fd0a4f28419497f9722a3daafe3b4186f6b6457e08280a3005b346101c5575f3660031901126101c5576020600e54604051908152f35b346101c55760203660031901126101c5576001600160a01b03611224611e76565b165f52600760205260405f20604051806020835491828152019081935f5260205f20905f5b8181106112a1575050508161125f91038261207b565b604051918291602083019060208452518091526040830191905f5b818110611288575050500390f35b825184528594506020938401939092019160010161127a565b8254845260209093019260019283019201611249565b346101c55760603660031901126101c5576112ed6112d3611e60565b6112db611e4a565b6112e3612218565b50600435916122f6565b6040810151610aa76040519283928352604060208401526040830190611f99565b346101c5575f3660031901126101c557602060ff60015460a01c166040519015158152f35b60e03660031901126101c55760043561134a611e4a565b6064356001600160a01b0381168082036101c55760a4359260843592906001600160a01b03851685036101c55761137f61229b565b6113876122b9565b5f6113964260c435101561209d565b6103e887106119ee57600485116119b7576113b085612add565b60405163e6a4390560e01b81526001600160a01b038085166004830152851660248201525f9591929190602081806044810103817f00000000000000000000000000000000000000000000000000000000000000006001600160a01b03165afa908115610e49575f91611998575b506001600160a01b03811615158061198f575b6118e8575b506001600160a01b0384811692907f0000000000000000000000000000000000000000000000000000000000000000168a8985831415806118de575b806118d5575b61180a575b5050505f98600354995b8a811080611801575b156115e25761149e81611ff9565b90549060031b1c5f5260026020528b60405f208b604051926114bf84612042565b82546001600160a01b038116855260a01c60ff161515602085018190526001840154604086015260029390930154606085019081529261150c575b5050505061150790612248565b611487565b6115319161151991612256565b61271061152a604086015183612a3c565b049061213f565b8061153f575b508b8e6114fa565b91839b91611507946115d99461157561156d8f8f9061155d91612d11565b95516001600160a01b0316612d5c565b935192611ff9565b90549060031b1c926040519360208501526020845261159560408561207b565b604051946115a286612026565b855260208501526040840152606083015242608083015260a08201526115c8828a6121c5565b526115d381896121c5565b50612248565b98908d80611537565b508a95929394886115f281612add565b915f5b8281106117d7575050508051156117a0576116108151612b2c565b9661161c825182612256565b955f5b835181101561163d5780886116366001938d6121c5565b520161161f565b50876116676116586116528c9a875190612a3c565b8561213f565b6116618a612198565b516120d3565b61167089612198565b525f5b84518110156116e257611686818a6121c5565b51611694575b600101611673565b956116b5866116a3898c6121c5565b516116ae8a896121c5565b5190612690565b805190915f19820191821161039b576116d36116da926001946121c5565b51906120d3565b96905061168c565b5082936116f9879489610dc260243588101561214c565b5a604051956080870190875285602088015260806040880152825180915260a0870190602060a08260051b8a01019401915f905b8282106117745750505050857f6cd9e02d7ac098775c96e2213ab6257ae6d1b5e297d2df812e1ec50b8214b1b791606060209801528033930390a460015f55604051908152f35b909192946020806117926001938d609f199082030186528951611f99565b97019201920190929161172d565b60405162461bcd60e51b815260206004820152600f60248201526e4e4f5f56414c49445f524f5554455360881b6044820152606490fd5b806117e4600192846121c5565b516117ef82876121c5565b526117fa81866121c5565b50016115f5565b50898910611490565b611818839161181f93612256565b8989612d80565b8061182d575b508a8961147d565b906118cd92989161184a8961184381858c612eb6565b938a612f0b565b906040519161188b8361187d602082016060906020815260086020820152670444153485f484f560c41b60408201520190565b03601f19810185528461207b565b6040519361189885612026565b8452602084015260408301526203d090606083015242608083015260a08201526118c282876121c5565b526115d381866121c5565b958a80611825565b50808a10611478565b5082851415611472565b909550886119156118f98787612d11565b92878761190f8c61190985612d5c565b96612256565b92612bec565b604051916119458361187d602082016060906020815260066020820152651112549150d560d21b60408201520190565b6040519361195285612026565b845260208401526040830152620249f0606083015242608083015260a082015261197b83612198565b5261198582612198565b5060019489611436565b50871515611431565b6119b1915060203d602011610f0457610ef6818361207b565b8a61141e565b60405162461bcd60e51b815260206004820152600f60248201526e544f4f5f4d414e595f524f5554455360881b6044820152606490fd5b60405162461bcd60e51b815260206004820152601a60248201527f414d4f554e545f544f4f5f534d414c4c5f464f525f53504c49540000000000006044820152606490fd5b346101c55760203660031901126101c5576004355f90815260066020526040902080546001600160a01b03163303611aa057611a966006820191611a7a60ff8454166121d9565b60018101546003909101549033906001600160a01b0316612a85565b805460ff19169055005b60405162461bcd60e51b815260206004820152600f60248201526e2727aa2fa7a92222a92fa7aba722a960891b6044820152606490fd5b611af1611ae336611e8c565b610c0d96919293959661229b565b600282101580611ce9575b611b05906120e0565b335f52600a60205260405f20805490611b1d82612248565b905560405160208101913360601b8352603482015260348152611b4160548261207b565b519020805f526009602052611b5d60405f2054600b54906120d3565b4310611cac575f5260096020524360405f20558115610f0b57611b7f8461212b565b905f1983019383851161039b57611bb2611ba588611bb895610db0610c5b8a8a8d61211b565b916040830151101561214c565b86612690565b92611bc685610dc28361212b565b611bdd610c5b611bd58361212b565b94848461211b565b9484515f19810190811161039b57611bf590866121c5565b5192805a9260405195608087019187526020870152608060408701525260a0840192905f905b808210611c76575050506060830152610aa7946001600160a01b0390811693169133917f91295d89f83e558ee53b4be4f00a45442cdf1ae6e1744f517392a5ca3c926f99919081900390a460015f5560405191829182611f00565b91939091908435906001600160a01b03821682036101c5576001600160a01b039091168152602090810194019160010190611c1b565b60405162461bcd60e51b81526020600482015260156024820152744d45565f50524f54454354494f4e5f41435449564560581b6044820152606490fd5b506005821115611afc565b346101c5575f3660031901126101c55760206040516103e88152f35b346101c5575f3660031901126101c5576020600854604051908152f35b346101c55760203660031901126101c55760043580151581036101c557611d52612274565b15611da057611d5f61229b565b6001805460ff60a01b1916600160a01b1790556040513381527f62e78cea01bee320cd4e420270b5ea74000d11b0c9f74754ebdbfc544b05a25890602090a1005b60015460ff8160a01c1615611de75760ff60a01b19166001556040513381527f5db9ee0a495bf2e6ff9c91a7834c1ba4fdd244a5e8aa4e537bd38aeae4b073aa90602090a1005b638dfc202b60e01b5f5260045ffd5b346101c55760203660031901126101c5576080906004355f52600260205260405f2080549060ff600260018301549201549260018060a01b038116855260a01c161515602084015260408301526060820152f35b604435906001600160a01b03821682036101c557565b602435906001600160a01b03821682036101c557565b600435906001600160a01b03821682036101c557565b9060a06003198301126101c557600435916024359160443567ffffffffffffffff81116101c557826023820112156101c55780600401359267ffffffffffffffff84116101c55760248460051b830101116101c55760240191906064356001600160a01b03811681036101c5579060843590565b60206040818301928281528451809452019201905f5b818110611f235750505090565b8251845260209384019390920191600101611f16565b90602080835192838152019201905f5b818110611f565750505090565b82516001600160a01b0316845260209384019390920191600101611f49565b805180835260209291819084018484015e5f828201840152601f01601f1916010190565b611ff69160a0611fc7611fb5845160c0855260c0850190611f39565b60208501518482036020860152611f39565b9260408101516040840152606081015160608401526080810151608084015201519060a0818403910152611f75565b90565b600354811015610f0b5760035f5260205f2001905f90565b8054821015610f0b575f5260205f2001905f90565b60c0810190811067ffffffffffffffff82111761066457604052565b6080810190811067ffffffffffffffff82111761066457604052565b610100810190811067ffffffffffffffff82111761066457604052565b90601f8019910116810190811067ffffffffffffffff82111761066457604052565b156120a457565b60405162461bcd60e51b81526020600482015260076024820152661156141254915160ca1b6044820152606490fd5b9190820180921161039b57565b156120e757565b60405162461bcd60e51b815260206004820152600c60248201526b0929cac82989288bea082a8960a31b6044820152606490fd5b9190811015610f0b5760051b0190565b356001600160a01b03811681036101c55790565b9190820391821161039b57565b1561215357565b60405162461bcd60e51b815260206004820152601a60248201527f494e53554646494349454e545f4f55545055545f414d4f554e540000000000006044820152606490fd5b805115610f0b5760200190565b805160011015610f0b5760400190565b805160021015610f0b5760600190565b8051821015610f0b5760209160051b010190565b156121e057565b60405162461bcd60e51b815260206004820152601060248201526f4f524445525f4e4f545f41435449564560801b6044820152606490fd5b6040519061222582612026565b606060a0838281528260208201525f60408201525f838201525f60808201520152565b5f19811461039b5760010190565b8115612260570490565b634e487b7160e01b5f52601260045260245ffd5b6001546001600160a01b0316330361228857565b63118cdaa760e01b5f523360045260245ffd5b60ff60015460a01c166122aa57565b63d93c066560e01b5f5260045ffd5b60025f54146122c85760025f55565b633ee5aeb560e01b5f5260045ffd5b908160209103126101c557516001600160a01b03811681036101c55790565b90929192612302612218565b60405163e6a4390560e01b81526001600160a01b0380851660048301528316602482015290945f939091602081806044810103817f00000000000000000000000000000000000000000000000000000000000000006001600160a01b03165afa908115610e49575f91612671575b506001600160a01b0381166125d9575b506001600160a01b037f00000000000000000000000000000000000000000000000000000000000000008116908216811415806125c6575b612527575b50600354925f5b84811061240d575050505050156123d757565b60405162461bcd60e51b815260206004820152600e60248201526d4e4f5f56414c49445f524f55544560901b6044820152606490fd5b61241681611ff9565b90549060031b1c5f52600260205260405f2060405161243481612042565b81546001600160a01b038116825260a01c60ff1615156020820181905260018301546040830152600292909201546060820190815291612479575b50506001016123c4565b61249461271061248d604084015189612a3c565b048761213f565b918883116124a3575b5061246f565b929950909650600191876124c96124ba8688612d11565b93858060a01b03905116612d5c565b9151906124d58c611ff9565b90549060031b1c92604051936020850152602084526124f560408561207b565b6040519461250286612026565b855260208501526040840152606083015242608083015260a082015297905f8061249d565b61253381848685612d80565b90858211612542575b506123bd565b91965093508361255e8461255781858b612eb6565b9389612f0b565b90604051916125918361187d602082016060906020815260086020820152670444153485f484f560c41b60408201520190565b6040519361259e85612026565b8452602084015260408301526203d090606083015242608083015260a0820152945f8061253c565b506001600160a01b0384168114156123b8565b6125e583858484612bec565b90816125f2575b50612380565b91965093508361260b6126058589612d11565b92612d5c565b906040519161263c8361187d602082016060906020815260066020820152651112549150d560d21b60408201520190565b6040519361264985612026565b845260208401526040830152620249f0606083015242608083015260a0820152945f806125ec565b61268a915060203d602011610f0457610ef6818361207b565b5f612370565b90606060a08201516020818051810103126101c55760200151651112549150d560d21b81036127ce57505090604051926126cb60608561207b565b600284526040366020860137816126e185612198565b5282516001600160a01b03906126f690612198565b511661271c83602086019260018060a01b036127128551612198565b5116903390612ba8565b516001600160a01b039061272f90612198565b5193519316926001600160a01b039061274790612198565b51169261012c42019384421161039b575f60209461277b60405197889687958694630a9e24b160e01b865260048601613045565b03925af1908115610e49575f9161279c575b50612797826121a5565b52905b565b90506020813d6020116127c6575b816127b76020938361207b565b810103126101c557515f61278d565b3d91506127aa565b670444153485f484f560c41b036129bf57506127eb815151612b2c565b92826127f685612198565b5281516001600160a01b039061280b90612198565b51169161282884602083019460018060a01b036127128751612198565b82516001600160a01b039061283c90612198565b51169260018060a01b036128508351612198565b51169461012c42019586421161039b57612889956020925f8993604051998a9586948593630a9e24b160e01b8552309160048601613045565b03925af18015610e49575f9061298c575b602094506128a7876121a5565b5281516128e5906001600160a01b03906128c0906121a5565b511660018060a01b036128d384516121a5565b51166128de896121a5565b5191612a85565b516001600160a01b03906128f8906121a5565b5116905f612905876121a5565b5191516001600160a01b039061291a906121a5565b51604051630a9e24b160e01b81529788968795869461293e94169060048601613045565b03925af1908115610e49575f9161295a575b50612797826121b5565b90506020813d602011612984575b816129756020938361207b565b810103126101c557515f612950565b3d9150612968565b506020843d6020116129b7575b816129a66020938361207b565b810103126101c5576020935161289a565b3d9150612999565b92611ff69291604051946129d3818761207b565b60028652601f1901366020870137826129eb86612198565b52612a1f604082019384516129ff886121a5565b5282516001600160a01b0390612a1490612198565b511630903390612ba8565b516001600160a01b0390612a32906121a5565b5116915191612a85565b8181029291811591840414171561039b57565b90612a6061271091600c5490612a3c565b0480612a6a575050565b600d5461279a926001600160a01b0391821691339116612ba8565b60405163a9059cbb60e01b60208201526001600160a01b03909216602483015260448083019390935291815261279a91612ac060648361207b565b613073565b67ffffffffffffffff81116106645760051b60200190565b90612ae782612ac5565b612af4604051918261207b565b8281528092612b05601f1991612ac5565b01905f5b828110612b1557505050565b602090612b20612218565b82828501015201612b09565b90612b3682612ac5565b612b43604051918261207b565b8281528092612b54601f1991612ac5565b0190602036910137565b51906001600160701b03821682036101c557565b908160609103126101c557612b8681612b5e565b916040612b9560208401612b5e565b92015163ffffffff811681036101c55790565b6040516323b872dd60e01b60208201526001600160a01b03928316602482015292909116604483015260648083019390935291815261279a91612ac060848361207b565b604051630240bc6b60e21b815293916001600160a01b0390911690606085600481855afa948515610e4957612c8c956020955f925f92612ce2575b506001600160a01b03908116931692909210916001600160701b03918315612cd957828116935b15612cd0575016905b60405163caced41b60e01b81526004810194909452602484015260448301523360648301529092839190829081906084820190565b03915afa908115610e49575f91612ca1575090565b90506020813d602011612cc8575b81612cbc6020938361207b565b810103126101c5575190565b3d9150612caf565b90501690612c57565b82821693612c4e565b6001600160701b039350612d0691925060603d606011610e9e57610e8b818361207b565b509092909190612c27565b9190612d4d604051612d2460608261207b565b6002815260403660208301378094612d3b82612198565b6001600160a01b0390911690526121a5565b6001600160a01b039091169052565b9060405191612d6c60408461207b565b6001835260203681850137612d4d83612198565b60405163e6a4390560e01b81526001600160a01b03828116600483015285811660248301527f000000000000000000000000000000000000000000000000000000000000000016949390602081604481895afa908115610e49575f91612e97575b5060405163e6a4390560e01b81526001600160a01b0386811660048301528516602482015295602090879060449082905afa958615610e49575f96612e76575b506001600160a01b038116158015612e65575b612e5b57612e43928591612bec565b918215612e5357611ff693612bec565b505050505f90565b5050505050505f90565b506001600160a01b03861615612e34565b612e9091965060203d602011610f0457610ef6818361207b565b945f612e21565b612eb0915060203d602011610f0457610ef6818361207b565b5f612de1565b929190612d4d9060405190612ecc60808361207b565b6003825260603660208401378195612ee383612198565b6001600160a01b039091169052612ef9826121a5565b6001600160a01b0390911690526121b5565b9291612f8860405191612f1f60608461207b565b60028352604036602085013760405163e6a4390560e01b81526001600160a01b039687166004820152868516602482015292958693927f000000000000000000000000000000000000000000000000000000000000000090911690602090849081906044820190565b0381845afa948515610e4957612fe7956020945f91613028575b50612fac86612198565b6001600160a01b03918216905260405163e6a4390560e01b815291811660048301529290921660248301529093849190829081906044820190565b03915afa918215610e49575f92613003575b50612d4d906121a5565b612d4d9192506130219060203d602011610f0457610ef6818361207b565b9190612ff9565b61303f9150853d8711610f0457610ef6818361207b565b5f612fa2565b9081525f60208201526001600160a01b03918216604082015291166060820152608081019190915260a00190565b905f602091828151910182855af115610e49575f513d6130c257506001600160a01b0381163b155b6130a25750565b635274afe760e01b5f9081526001600160a01b0391909116600452602490fd5b6001141561309b56","linkReferences":{}},"methodIdentifiers":{"MAX_HOPS()":"8c51222e","MAX_SLIPPAGE()":"f9759518","MIN_SPLIT_AMOUNT()":"1899b050","PRICE_IMPACT_THRESHOLD()":"7f33cba1","addExternalDEX(bytes32,address,bool,uint256,uint256)":"7b8c1629","cancelLimitOrder(bytes32)":"4584eff6","createLimitOrder(address,address,uint256,uint256,uint256)":"de1b983b","dashToken()":"88c8ec95","dexNames(uint256)":"88a02f23","emergencyWithdraw(address,uint256)":"95ccea67","executeLimitOrder(bytes32)":"eda4ad95","externalDEXs(bytes32)":"165dfdf9","factory()":"c45a0155","feeCollector()":"c415b95c","gasSubsidy()":"6c10a314","getAmountOut(uint256,address,address)":"5e1e6325","getLimitOrder(bytes32)":"d033f150","getUserOrders(address)":"63c69f08","limitOrders(bytes32)":"ca697db4","mevProtectionDelay()":"f183019b","multiRouteSwap(uint256,uint256,address,address,uint256,address,uint256)":"544e2755","orderNonce()":"16f8de89","owner()":"8da5cb5b","paused()":"5c975abb","protocolFee()":"b0e21e8a","renounceOwnership()":"715018a6","routeCacheExpiry()":"7968d4e0","savedRoutes(address,address,uint256)":"8ee272af","setMEVProtectionDelay(uint256)":"d2127998","setPaused(bool)":"16c38b3c","setProtocolFee(uint256)":"787dce3d","swapExactTokensForTokens(uint256,uint256,address[],address,uint256)":"38ed1739","swapTokensForExactTokens(uint256,uint256,address[],address,uint256)":"8803dbee","transferOwnership(address)":"f2fde38b","userOrders(address,uint256)":"856652e9"},"id":99}