{"abi":[{"type":"constructor","inputs":[{"name":"_dashToken","type":"address","internalType":"contract DashToken"},{"name":"_dashPool","type":"address","internalType":"contract SimpleLiquidityPool"},{"name":"_feeCollector","type":"address","internalType":"address"},{"name":"initialOwner","type":"address","internalType":"address"}],"stateMutability":"nonpayable"},{"type":"receive","stateMutability":"payable"},{"type":"function","name":"FEE_DENOMINATOR","inputs":[],"outputs":[{"name":"","type":"uint256","internalType":"uint256"}],"stateMutability":"view"},{"type":"function","name":"MAX_SLIPPAGE","inputs":[],"outputs":[{"name":"","type":"uint256","internalType":"uint256"}],"stateMutability":"view"},{"type":"function","name":"MIN_AMOUNT_OUT","inputs":[],"outputs":[{"name":"","type":"uint256","internalType":"uint256"}],"stateMutability":"view"},{"type":"function","name":"addAggregator","inputs":[{"name":"name","type":"bytes32","internalType":"bytes32"},{"name":"contractAddr","type":"address","internalType":"address"},{"name":"enabled","type":"bool","internalType":"bool"},{"name":"fee","type":"uint256","internalType":"uint256"},{"name":"maxSlippage","type":"uint256","internalType":"uint256"}],"outputs":[],"stateMutability":"nonpayable"},{"type":"function","name":"aggregatorNames","inputs":[{"name":"","type":"uint256","internalType":"uint256"}],"outputs":[{"name":"","type":"bytes32","internalType":"bytes32"}],"stateMutability":"view"},{"type":"function","name":"aggregators","inputs":[{"name":"","type":"bytes32","internalType":"bytes32"}],"outputs":[{"name":"contractAddress","type":"address","internalType":"address"},{"name":"enabled","type":"bool","internalType":"bool"},{"name":"fee","type":"uint256","internalType":"uint256"},{"name":"maxSlippage","type":"uint256","internalType":"uint256"}],"stateMutability":"view"},{"type":"function","name":"authorizedCallers","inputs":[{"name":"","type":"address","internalType":"address"}],"outputs":[{"name":"","type":"bool","internalType":"bool"}],"stateMutability":"view"},{"type":"function","name":"burnRate","inputs":[],"outputs":[{"name":"","type":"uint256","internalType":"uint256"}],"stateMutability":"view"},{"type":"function","name":"cachedRoutes","inputs":[{"name":"","type":"address","internalType":"address"},{"name":"","type":"address","internalType":"address"}],"outputs":[{"name":"expectedOutput","type":"uint256","internalType":"uint256"},{"name":"gasEstimate","type":"uint256","internalType":"uint256"},{"name":"data","type":"bytes","internalType":"bytes"}],"stateMutability":"view"},{"type":"function","name":"dailyVolume","inputs":[{"name":"","type":"address","internalType":"address"}],"outputs":[{"name":"","type":"uint256","internalType":"uint256"}],"stateMutability":"view"},{"type":"function","name":"dashPool","inputs":[],"outputs":[{"name":"","type":"address","internalType":"contract SimpleLiquidityPool"}],"stateMutability":"view"},{"type":"function","name":"dashToken","inputs":[],"outputs":[{"name":"","type":"address","internalType":"contract DashToken"}],"stateMutability":"view"},{"type":"function","name":"emergencyWithdraw","inputs":[{"name":"token","type":"address","internalType":"address"},{"name":"amount","type":"uint256","internalType":"uint256"}],"outputs":[],"stateMutability":"nonpayable"},{"type":"function","name":"feeCollector","inputs":[],"outputs":[{"name":"","type":"address","internalType":"address"}],"stateMutability":"view"},{"type":"function","name":"getAggregators","inputs":[],"outputs":[{"name":"names","type":"bytes32[]","internalType":"bytes32[]"}],"stateMutability":"view"},{"type":"function","name":"getAmountOut","inputs":[{"name":"tokenIn","type":"address","internalType":"address"},{"name":"tokenOut","type":"address","internalType":"address"},{"name":"amountIn","type":"uint256","internalType":"uint256"}],"outputs":[{"name":"amountOut","type":"uint256","internalType":"uint256"},{"name":"routeId","type":"bytes32","internalType":"bytes32"}],"stateMutability":"view"},{"type":"function","name":"getRouteCache","inputs":[{"name":"tokenIn","type":"address","internalType":"address"},{"name":"tokenOut","type":"address","internalType":"address"}],"outputs":[{"name":"","type":"tuple","internalType":"struct DashSmartRouter.RouteInfo","components":[{"name":"path","type":"address[]","internalType":"address[]"},{"name":"exchanges","type":"address[]","internalType":"address[]"},{"name":"fees","type":"uint256[]","internalType":"uint256[]"},{"name":"expectedOutput","type":"uint256","internalType":"uint256"},{"name":"gasEstimate","type":"uint256","internalType":"uint256"},{"name":"data","type":"bytes","internalType":"bytes"}]}],"stateMutability":"view"},{"type":"function","name":"isAuthorized","inputs":[{"name":"caller","type":"address","internalType":"address"}],"outputs":[{"name":"","type":"bool","internalType":"bool"}],"stateMutability":"view"},{"type":"function","name":"lastBlockUsed","inputs":[{"name":"","type":"bytes32","internalType":"bytes32"}],"outputs":[{"name":"","type":"uint256","internalType":"uint256"}],"stateMutability":"view"},{"type":"function","name":"lastVolumeReset","inputs":[{"name":"","type":"address","internalType":"address"}],"outputs":[{"name":"","type":"uint256","internalType":"uint256"}],"stateMutability":"view"},{"type":"function","name":"maxDailyVolumePerUser","inputs":[],"outputs":[{"name":"","type":"uint256","internalType":"uint256"}],"stateMutability":"view"},{"type":"function","name":"mevProtectionDelay","inputs":[],"outputs":[{"name":"","type":"uint256","internalType":"uint256"}],"stateMutability":"view"},{"type":"function","name":"owner","inputs":[],"outputs":[{"name":"","type":"address","internalType":"address"}],"stateMutability":"view"},{"type":"function","name":"paused","inputs":[],"outputs":[{"name":"","type":"bool","internalType":"bool"}],"stateMutability":"view"},{"type":"function","name":"protocolFee","inputs":[],"outputs":[{"name":"","type":"uint256","internalType":"uint256"}],"stateMutability":"view"},{"type":"function","name":"renounceOwnership","inputs":[],"outputs":[],"stateMutability":"nonpayable"},{"type":"function","name":"routeCacheExpiry","inputs":[],"outputs":[{"name":"","type":"uint256","internalType":"uint256"}],"stateMutability":"view"},{"type":"function","name":"setAuthorizedCaller","inputs":[{"name":"caller","type":"address","internalType":"address"},{"name":"authorized","type":"bool","internalType":"bool"}],"outputs":[],"stateMutability":"nonpayable"},{"type":"function","name":"setBurnRate","inputs":[{"name":"newRate","type":"uint256","internalType":"uint256"}],"outputs":[],"stateMutability":"nonpayable"},{"type":"function","name":"setPaused","inputs":[{"name":"paused","type":"bool","internalType":"bool"}],"outputs":[],"stateMutability":"nonpayable"},{"type":"function","name":"setProtocolFee","inputs":[{"name":"newFee","type":"uint256","internalType":"uint256"}],"outputs":[],"stateMutability":"nonpayable"},{"type":"function","name":"swapExactTokensForTokens","inputs":[{"name":"params","type":"tuple","internalType":"struct DashSmartRouter.SwapParams","components":[{"name":"tokenIn","type":"address","internalType":"address"},{"name":"tokenOut","type":"address","internalType":"address"},{"name":"amountIn","type":"uint256","internalType":"uint256"},{"name":"amountOutMin","type":"uint256","internalType":"uint256"},{"name":"to","type":"address","internalType":"address"},{"name":"deadline","type":"uint256","internalType":"uint256"},{"name":"routeData","type":"bytes","internalType":"bytes"}]}],"outputs":[{"name":"amountOut","type":"uint256","internalType":"uint256"}],"stateMutability":"payable"},{"type":"function","name":"swapMultiHop","inputs":[{"name":"path","type":"address[]","internalType":"address[]"},{"name":"amountIn","type":"uint256","internalType":"uint256"},{"name":"amountOutMin","type":"uint256","internalType":"uint256"},{"name":"to","type":"address","internalType":"address"},{"name":"deadline","type":"uint256","internalType":"uint256"}],"outputs":[{"name":"amounts","type":"uint256[]","internalType":"uint256[]"}],"stateMutability":"payable"},{"type":"function","name":"swapViaAggregator","inputs":[{"name":"aggregatorName","type":"bytes32","internalType":"bytes32"},{"name":"params","type":"tuple","internalType":"struct DashSmartRouter.SwapParams","components":[{"name":"tokenIn","type":"address","internalType":"address"},{"name":"tokenOut","type":"address","internalType":"address"},{"name":"amountIn","type":"uint256","internalType":"uint256"},{"name":"amountOutMin","type":"uint256","internalType":"uint256"},{"name":"to","type":"address","internalType":"address"},{"name":"deadline","type":"uint256","internalType":"uint256"},{"name":"routeData","type":"bytes","internalType":"bytes"}]},{"name":"routeData","type":"bytes","internalType":"bytes"}],"outputs":[{"name":"amountOut","type":"uint256","internalType":"uint256"}],"stateMutability":"payable"},{"type":"function","name":"tokenPriorityScore","inputs":[{"name":"","type":"address","internalType":"address"}],"outputs":[{"name":"","type":"uint256","internalType":"uint256"}],"stateMutability":"view"},{"type":"function","name":"transferOwnership","inputs":[{"name":"newOwner","type":"address","internalType":"address"}],"outputs":[],"stateMutability":"nonpayable"},{"type":"function","name":"updateAggregator","inputs":[{"name":"name","type":"bytes32","internalType":"bytes32"},{"name":"enabled","type":"bool","internalType":"bool"}],"outputs":[],"stateMutability":"nonpayable"},{"type":"function","name":"updateLimits","inputs":[{"name":"newMaxDailyVolume","type":"uint256","internalType":"uint256"},{"name":"newMEVDelay","type":"uint256","internalType":"uint256"},{"name":"newCacheExpiry","type":"uint256","internalType":"uint256"}],"outputs":[],"stateMutability":"nonpayable"},{"type":"event","name":"AggregatorUpdated","inputs":[{"name":"name","type":"bytes32","indexed":true,"internalType":"bytes32"},{"name":"contractAddr","type":"address","indexed":false,"internalType":"address"},{"name":"enabled","type":"bool","indexed":false,"internalType":"bool"}],"anonymous":false},{"type":"event","name":"FeeCollected","inputs":[{"name":"token","type":"address","indexed":true,"internalType":"address"},{"name":"amount","type":"uint256","indexed":false,"internalType":"uint256"},{"name":"burned","type":"uint256","indexed":false,"internalType":"uint256"}],"anonymous":false},{"type":"event","name":"OwnershipTransferred","inputs":[{"name":"previousOwner","type":"address","indexed":true,"internalType":"address"},{"name":"newOwner","type":"address","indexed":true,"internalType":"address"}],"anonymous":false},{"type":"event","name":"Paused","inputs":[{"name":"account","type":"address","indexed":false,"internalType":"address"}],"anonymous":false},{"type":"event","name":"RouteOptimized","inputs":[{"name":"tokenIn","type":"address","indexed":true,"internalType":"address"},{"name":"tokenOut","type":"address","indexed":true,"internalType":"address"},{"name":"routeId","type":"bytes32","indexed":false,"internalType":"bytes32"},{"name":"expectedOutput","type":"uint256","indexed":false,"internalType":"uint256"},{"name":"gasEstimate","type":"uint256","indexed":false,"internalType":"uint256"}],"anonymous":false},{"type":"event","name":"SwapExecuted","inputs":[{"name":"user","type":"address","indexed":true,"internalType":"address"},{"name":"tokenIn","type":"address","indexed":true,"internalType":"address"},{"name":"tokenOut","type":"address","indexed":true,"internalType":"address"},{"name":"amountIn","type":"uint256","indexed":false,"internalType":"uint256"},{"name":"amountOut","type":"uint256","indexed":false,"internalType":"uint256"},{"name":"routeId","type":"bytes32","indexed":false,"internalType":"bytes32"},{"name":"gasUsed","type":"uint256","indexed":false,"internalType":"uint256"}],"anonymous":false},{"type":"event","name":"Unpaused","inputs":[{"name":"account","type":"address","indexed":false,"internalType":"address"}],"anonymous":false},{"type":"error","name":"DailyVolumeExceeded","inputs":[]},{"type":"error","name":"DeadlineExpired","inputs":[]},{"type":"error","name":"EnforcedPause","inputs":[]},{"type":"error","name":"ExpectedPause","inputs":[]},{"type":"error","name":"InsufficientOutput","inputs":[]},{"type":"error","name":"InvalidAggregator","inputs":[]},{"type":"error","name":"InvalidRoute","inputs":[]},{"type":"error","name":"MEVProtectionActive","inputs":[]},{"type":"error","name":"OwnableInvalidOwner","inputs":[{"name":"owner","type":"address","internalType":"address"}]},{"type":"error","name":"OwnableUnauthorizedAccount","inputs":[{"name":"account","type":"address","internalType":"address"}]},{"type":"error","name":"ReentrancyGuardReentrantCall","inputs":[]},{"type":"error","name":"SafeERC20FailedOperation","inputs":[{"name":"token","type":"address","internalType":"address"}]},{"type":"error","name":"SlippageExceeded","inputs":[]},{"type":"error","name":"UnauthorizedCaller","inputs":[]}],"bytecode":{"object":"0x60c0604052600a60045561138860065561012c600955683635c9adc5dea00000600d556001600f55348015610032575f5ffd5b5060405161374b38038061374b833981016040819052610051916102ab565b60015f55806001600160a01b03811661008357604051631e4fbdf760e01b81525f600482015260240160405180910390fd5b61008c8161010e565b506001600160a01b0384811660805283811660a052600580546001600160a01b0319169184169190911790556100e464062929c86960db1b73111111125421ca6dc452d289314280a0f8842a6560015f6107d061015f565b6001600160a01b03165f908152600a60205260409020805460ff191660011790555061031b915050565b600180546001600160a01b038381166001600160a01b0319831681179093556040519116919082907f8be0079c531659141344cd1fd0a4f28419497f9722a3daafe3b4186f6b6457e0905f90a35050565b604080516080810182526001600160a01b0380871682528515156020808401918252838501878152606085018781525f8c81526002938490529687209551865494511515600160a01b026001600160a81b0319909516951694909417929092178455905160018401559051910155805b60035481101561020c5786600382815481106101ed576101ed610307565b905f5260205f20015403610204576001915061020c565b6001016101cf565b508061024757600380546001810182555f919091527fc2575a0e9e593c00f959f8c92f12db2869c3395a3b0502d05e2516446f71f85b018690555b604080516001600160a01b0387168152851515602082015287917f197d0ef4f55dcc47206d3620df3b2c6f6b9bd5e50838d1dccf97c74bebf5637b910160405180910390a2505050505050565b6001600160a01b03811681146102a8575f5ffd5b50565b5f5f5f5f608085870312156102be575f5ffd5b84516102c981610294565b60208601519094506102da81610294565b60408601519093506102eb81610294565b60608601519092506102fc81610294565b939692955090935050565b634e487b7160e01b5f52603260045260245ffd5b60805160a0516133ad61039e5f395f81816105e0015281816118c1015281816118ef015281816124ac0152818161278f01528181612859015261299101525f818161052601528181611ecf01528181611f22015281816123bc0152818161241c01528181612477015281816126ca0152818161270a015261295601526133ad5ff3fe608060405260043610610220575f3560e01c80638b14faf01161011e578063d5427ce7116100a8578063f183019b1161006d578063f183019b146106fb578063f2fde38b14610710578063f97595181461072f578063fab2f49614610744578063fe9fbb8014610759575f5ffd5b8063d5427ce714610676578063d73792a914610689578063da6c74cb1461069e578063e5b0ea7f146106b1578063ea5ebd1e146106dc575f5ffd5b8063a8d19020116100ee578063a8d19020146105cf578063b0b52e3514610602578063b0e21e8a1461062d578063bed9985014610642578063c415b95c14610657575f5ffd5b80638b14faf0146105605780638da5cb5b14610574578063936cf44f1461059157806395ccea67146105b0575f5ffd5b80636aa29949116101aa5780637968d4e01161016f5780637968d4e0146104a15780637ee7f7d1146104b6578063800ebd6b146104d757806383e5529e146104ea57806388c8ec9514610515575f5ffd5b80636aa29949146103a75780637103353e146103d5578063715018a61461044f57806377345fe914610463578063787dce3d14610482575f5ffd5b8063407ea14a116101f0578063407ea14a146102bf578063454bbd29146102f85780634aa0665214610317578063536fff6c1461034b5780635c975abb14610389575f5ffd5b806316c38b3c1461022b578063189d165e1461024c57806323f8e3411461026b57806336a0f8a5146102a0575f5ffd5b3661022757005b5f5ffd5b348015610236575f5ffd5b5061024a610245366004612b50565b610790565b005b348015610257575f5ffd5b5061024a610266366004612b69565b6107b1565b348015610276575f5ffd5b5061028a610285366004612b96565b610809565b6040516102979190612c38565b60405180910390f35b3480156102ab575f5ffd5b5061024a6102ba366004612ce9565b610a29565b3480156102ca575f5ffd5b506102ea6102d9366004612d12565b60086020525f908152604090205481565b604051908152602001610297565b348015610303575f5ffd5b5061024a610312366004612d2b565b610a3f565b348015610322575f5ffd5b50610336610331366004612d53565b610a71565b60408051928352602083019190915201610297565b348015610356575f5ffd5b50610379610365366004612d12565b600a6020525f908152604090205460ff1681565b6040519015158152602001610297565b348015610394575f5ffd5b50600154600160a01b900460ff16610379565b3480156103b2575f5ffd5b506103c66103c1366004612b96565b610abd565b60405161029793929190612d8d565b3480156103e0575f5ffd5b506104256103ef366004612b69565b600260208190525f91825260409091208054600182015491909201546001600160a01b03831692600160a01b900460ff16919084565b604080516001600160a01b0390951685529215156020850152918301526060820152608001610297565b34801561045a575f5ffd5b5061024a610b75565b34801561046e575f5ffd5b5061024a61047d366004612dab565b610b88565b34801561048d575f5ffd5b5061024a61049c366004612b69565b610ba4565b3480156104ac575f5ffd5b506102ea60095481565b3480156104c1575f5ffd5b506104ca610bf1565b6040516102979190612df5565b6104ca6104e5366004612e37565b610c47565b3480156104f5575f5ffd5b506102ea610504366004612d12565b600c6020525f908152604090205481565b348015610520575f5ffd5b506105487f000000000000000000000000000000000000000000000000000000000000000081565b6040516001600160a01b039091168152602001610297565b34801561056b575f5ffd5b506102ea600181565b34801561057f575f5ffd5b506001546001600160a01b0316610548565b34801561059c575f5ffd5b5061024a6105ab366004612ed2565b610faa565b3480156105bb575f5ffd5b5061024a6105ca366004612ef3565b611082565b3480156105da575f5ffd5b506105487f000000000000000000000000000000000000000000000000000000000000000081565b34801561060d575f5ffd5b506102ea61061c366004612b69565b600e6020525f908152604090205481565b348015610638575f5ffd5b506102ea60045481565b34801561064d575f5ffd5b506102ea60065481565b348015610662575f5ffd5b50600554610548906001600160a01b031681565b6102ea610684366004612f2b565b6110fe565b348015610694575f5ffd5b506102ea61271081565b6102ea6106ac366004612f5d565b611364565b3480156106bc575f5ffd5b506102ea6106cb366004612d12565b600b6020525f908152604090205481565b3480156106e7575f5ffd5b506102ea6106f6366004612b69565b6114fa565b348015610706575f5ffd5b506102ea600f5481565b34801561071b575f5ffd5b5061024a61072a366004612d12565b611519565b34801561073a575f5ffd5b506102ea61138881565b34801561074f575f5ffd5b506102ea600d5481565b348015610764575f5ffd5b50610379610773366004612d12565b6001600160a01b03165f908152600a602052604090205460ff1690565b610798611553565b80156107a9576107a6611580565b50565b6107a66115e0565b6107b9611553565b6127108111156108045760405162461bcd60e51b8152602060048201526011602482015270496e76616c6964206275726e207261746560781b60448201526064015b60405180910390fd5b600655565b6108406040518060c001604052806060815260200160608152602001606081526020015f81526020015f8152602001606081525090565b6001600160a01b038084165f9081526007602090815260408083209386168352928152908290208251815460e09381028201840190945260c0810184815290939192849284918401828280156108bd57602002820191905f5260205f20905b81546001600160a01b0316815260019091019060200180831161089f575b505050505081526020016001820180548060200260200160405190810160405280929190818152602001828054801561091d57602002820191905f5260205f20905b81546001600160a01b031681526001909101906020018083116108ff575b505050505081526020016002820180548060200260200160405190810160405280929190818152602001828054801561097357602002820191905f5260205f20905b81548152602001906001019080831161095f575b5050505050815260200160038201548152602001600482015481526020016005820180546109a090612ffa565b80601f01602080910402602001604051908101604052809291908181526020018280546109cc90612ffa565b8015610a175780601f106109ee57610100808354040283529160200191610a17565b820191905f5260205f20905b8154815290600101906020018083116109fa57829003601f168201915b50505050508152505090505b92915050565b610a31611553565b600d92909255600f55600955565b610a47611553565b6001600160a01b03919091165f908152600a60205260409020805460ff1916911515919091179055565b5f5f5f610a7f86868661161c565b90508060600151815f0151604051602001610a9a919061302c565b604051602081830303815290604052805190602001209250925050935093915050565b6007602052815f5260405f20602052805f5260405f205f9150915050806003015490806004015490806005018054610af490612ffa565b80601f0160208091040260200160405190810160405280929190818152602001828054610b2090612ffa565b8015610b6b5780601f10610b4257610100808354040283529160200191610b6b565b820191905f5260205f20905b815481529060010190602001808311610b4e57829003601f168201915b5050505050905083565b610b7d611553565b610b865f611b3a565b565b610b90611553565b610b9d8585858585611b8b565b5050505050565b610bac611553565b6064811115610bec5760405162461bcd60e51b815260206004820152600c60248201526b08ccaca40e8dede40d0d2ced60a31b60448201526064016107fb565b600455565b60606003805480602002602001604051908101604052809291908181526020018280548015610c3d57602002820191905f5260205f20905b815481526020019060010190808311610c29575b5050505050905090565b6060610c51611cc0565b610c59611ceb565b6002861015610c995760405162461bcd60e51b815260206004820152600c60248201526b092dcecc2d8d2c840e0c2e8d60a31b60448201526064016107fb565b81421115610cdf5760405162461bcd60e51b8152602060048201526013602482015272151c985b9cd858dd1a5bdb88195e1c1a5c9959606a1b60448201526064016107fb565b8567ffffffffffffffff811115610cf857610cf861306c565b604051908082528060200260200182016040528015610d21578160200160208202803683370190505b50905084815f81518110610d3757610d37613080565b60209081029190910101525f5b610d4f6001886130a8565b811015610ef0575f610dd1898984818110610d6c57610d6c613080565b9050602002016020810190610d819190612d12565b8a8a610d8e8660016130bb565b818110610d9d57610d9d613080565b9050602002016020810190610db29190612d12565b858581518110610dc457610dc4613080565b602002602001015161161c565b90505f6040518060e001604052808b8b86818110610df157610df1613080565b9050602002016020810190610e069190612d12565b6001600160a01b031681526020018b8b610e218760016130bb565b818110610e3057610e30613080565b9050602002016020810190610e459190612d12565b6001600160a01b03168152602001858581518110610e6557610e65613080565b602002602001015181526020016001815260200160028c8c9050610e8991906130a8565b8514610e955730610e97565b875b6001600160a01b031681526020018681526020018360a001518152509050610ebf8183611d13565b84610ecb8560016130bb565b81518110610edb57610edb613080565b60209081029190910101525050600101610d44565b50838160018351610f0191906130a8565b81518110610f1157610f11613080565b60200260200101511015610f675760405162461bcd60e51b815260206004820152601960248201527f496e73756666696369656e742066696e616c206f75747075740000000000000060448201526064016107fb565b610f9787875f818110610f7c57610f7c613080565b9050602002016020810190610f919190612d12565b86611e7e565b610fa060015f55565b9695505050505050565b610fb2611553565b5f828152600260205260409020546001600160a01b031661100c5760405162461bcd60e51b81526020600482015260146024820152731059d9dc9959d85d1bdc881b9bdd08199bdd5b9960621b60448201526064016107fb565b5f828152600260209081526040918290208054841515600160a01b810260ff60a01b198316811790935584516001600160a01b03938416939092169290921781529182015283917f197d0ef4f55dcc47206d3620df3b2c6f6b9bd5e50838d1dccf97c74bebf5637b910160405180910390a25050565b61108a611553565b6001600160a01b0382166110d4576001546040516001600160a01b039091169082156108fc029083905f818181858888f193505050501580156110cf573d5f5f3e3d5ffd5b505050565b6110fa6110e96001546001600160a01b031690565b6001600160a01b0384169083611fed565b5050565b5f611107611cc0565b61110f611ceb565b8160a001354211156111595760405162461bcd60e51b8152602060048201526013602482015272151c985b9cd858dd1a5bdb88195e1c1a5c9959606a1b60448201526064016107fb565b5f8260400135116111a35760405162461bcd60e51b8152602060048201526014602482015273125b9d985b1a59081a5b9c1d5d08185b5bdd5b9d60621b60448201526064016107fb565b5f82436040516020016111b792919061313f565b6040516020818303038152906040528051906020012090506111d88161204c565b6111f33360408501356111ee6020870187612d12565b6120c0565b5f61121e6112046020860186612d12565b6112146040870160208801612d12565b866040013561161c565b90508360600135816060015110156112785760405162461bcd60e51b815260206004820152601a60248201527f496e73756666696369656e74206f757470757420616d6f756e7400000000000060448201526064016107fb565b61128a611284856132a1565b82611d13565b92506112a661129c6020860186612d12565b8560400135611e7e565b6112b66040850160208601612d12565b6001600160a01b03166112cc6020860186612d12565b6001600160a01b0316336001600160a01b03167fc475cd387f04dfb8ccf2e43b44bcce6fe4565a76bc61c6755aa0f389b1cbd86f876040013587865f015160405160200161131a919061302c565b604051602081830303815290604052805190602001205a60408051948552602085019390935291830152606082015260800160405180910390a4505061135f60015f55565b919050565b5f61136d611cc0565b611375611ceb565b5f85815260026020818152604092839020835160808101855281546001600160a01b0381168252600160a01b900460ff1615159281018390526001820154948101949094529091015460608301526114085760405162461bcd60e51b81526020600482015260166024820152751059d9dc9959d85d1bdc881b9bdd08195b98589b195960521b60448201526064016107fb565b61145081611415876132a1565b86868080601f0160208091040260200160405190810160405280939291908181526020018383808284375f920191909152506121d692505050565b915061146c6114626020870187612d12565b8660400135611e7e565b61147c6040860160208701612d12565b6001600160a01b03166114926020870187612d12565b6001600160a01b0316337fc475cd387f04dfb8ccf2e43b44bcce6fe4565a76bc61c6755aa0f389b1cbd86f6040890135868b5a60408051948552602085019390935291830152606082015260800160405180910390a4506114f260015f55565b949350505050565b60038181548110611509575f80fd5b5f91825260209091200154905081565b611521611553565b6001600160a01b03811661154a57604051631e4fbdf760e01b81525f60048201526024016107fb565b6107a681611b3a565b6001546001600160a01b03163314610b865760405163118cdaa760e01b81523360048201526024016107fb565b611588611cc0565b6001805460ff60a01b1916600160a01b1790557f62e78cea01bee320cd4e420270b5ea74000d11b0c9f74754ebdbfc544b05a2586115c33390565b6040516001600160a01b03909116815260200160405180910390a1565b6115e861238f565b6001805460ff60a01b191690557f5db9ee0a495bf2e6ff9c91a7834c1ba4fdd244a5e8aa4e537bd38aeae4b073aa336115c3565b6116536040518060c001604052806060815260200160608152602001606081526020015f81526020015f8152602001606081525090565b6001600160a01b038085165f90815260076020908152604080832093871683529281528282208351815460e09381028201840190955260c0810185815293949093919284929184918401828280156116d257602002820191905f5260205f20905b81546001600160a01b031681526001909101906020018083116116b4575b505050505081526020016001820180548060200260200160405190810160405280929190818152602001828054801561173257602002820191905f5260205f20905b81546001600160a01b03168152600190910190602001808311611714575b505050505081526020016002820180548060200260200160405190810160405280929190818152602001828054801561178857602002820191905f5260205f20905b815481526020019060010190808311611774575b5050505050815260200160038201548152602001600482015481526020016005820180546117b590612ffa565b80601f01602080910402602001604051908101604052809291908181526020018280546117e190612ffa565b801561182c5780601f106118035761010080835404028352916020019161182c565b820191905f5260205f20905b81548152906001019060200180831161180f57829003601f168201915b50505050508152505090505f816060015111801561186c57506009546001600160a01b0386165f908152600c602052604090205461186a90426130a8565b105b15611878579050611b33565b5f8061188487876123b9565b156119c7575f611895888888612456565b9050828111156119c5578092506040518060c001604052806118b78a8a61251e565b81526020016118e57f00000000000000000000000000000000000000000000000000000000000000006125ab565b81526020016119727f00000000000000000000000000000000000000000000000000000000000000006001600160a01b0316633d18651e6040518163ffffffff1660e01b8152600401602060405180830381865afa158015611949573d5f5f3e3d5ffd5b505050506040513d601f19601f8201168201806040525081019061196d9190613335565b612605565b8152602001828152602001620249f081526020016040516020016119b0906020808252600690820152654e415449564560d01b604082015260600190565b60405160208183030381529060405281525094505b505b5f5b600354811015611ae8575f600382815481106119e7576119e7613080565b5f9182526020808320909101548083526002808352604093849020845160808101865281546001600160a01b038116825260ff600160a01b909104161515948101859052600182015495810195909552015460608401529250611a4b575050611ae0565b5f611a58828c8c8c61264b565b905085811115611adc578095508294506040518060c00160405280611a7d8d8d61251e565b8152602001611a8e845f01516125ab565b8152602001611aa08460400151612605565b815260200182815260200162030d40815260200184604051602001611ac791815260200190565b60405160208183030381529060405281525097505b5050505b6001016119c9565b505f8211611b2f5760405162461bcd60e51b8152602060048201526014602482015273139bc81d985b1a59081c9bdd5d1948199bdd5b9960621b60448201526064016107fb565b5050505b9392505050565b600180546001600160a01b038381166001600160a01b0319831681179093556040519116919082907f8be0079c531659141344cd1fd0a4f28419497f9722a3daafe3b4186f6b6457e0905f90a35050565b604080516080810182526001600160a01b0380871682528515156020808401918252838501878152606085018781525f8c81526002938490529687209551865494511515600160a01b026001600160a81b0319909516951694909417929092178455905160018401559051910155805b600354811015611c38578660038281548110611c1957611c19613080565b905f5260205f20015403611c305760019150611c38565b600101611bfb565b5080611c7357600380546001810182555f919091527fc2575a0e9e593c00f959f8c92f12db2869c3395a3b0502d05e2516446f71f85b018690555b604080516001600160a01b0387168152851515602082015287917f197d0ef4f55dcc47206d3620df3b2c6f6b9bd5e50838d1dccf97c74bebf5637b910160405180910390a2505050505050565b600154600160a01b900460ff1615610b865760405163d93c066560e01b815260040160405180910390fd5b60025f5403611d0d57604051633ee5aeb560e01b815260040160405180910390fd5b60025f55565b81515f906001600160a01b0316611d70578260400151341015611d6b5760405162461bcd60e51b815260206004820152601060248201526f092dce6eaccccd2c6d2cadce8408aa8960831b60448201526064016107fb565b611d90565b60408301518351611d90916001600160a01b039091169033903090612675565b5f8260a00151806020019051810190611da99190613335565b905080654e415449564560d01b03611dcb57611dc4846126b4565b9150611e2f565b5f81815260026020818152604092839020835160808101855281546001600160a01b0381168252600160a01b900460ff16151592810192909252600181015493820193909352910154606082015260a0840151611e2b90829087906121d6565b9250505b8360600151821015611e775760405162461bcd60e51b815260206004820152601160248201527014db1a5c1c1859d948195e18d959591959607a1b60448201526064016107fb565b5092915050565b5f61271060045483611e90919061334c565b611e9a9190613363565b905080156110cf575f61271060065483611eb4919061334c565b611ebe9190613363565b90505f611ecb82846130a8565b90507f00000000000000000000000000000000000000000000000000000000000000006001600160a01b0316856001600160a01b031603611fa2578115611f82576040516301a1535d60e11b8152600481018390527f00000000000000000000000000000000000000000000000000000000000000006001600160a01b031690630342a6ba906024015f604051808303815f87803b158015611f6b575f5ffd5b505af1158015611f7d573d5f5f3e3d5ffd5b505050505b8015611fa257600554611fa2906001600160a01b03878116911683611fed565b60408051848152602081018490526001600160a01b038716917f108516ddcf5ba43cea6bb2cd5ff6d59ac196c1c86ccb9178332b9dd72d1ca561910160405180910390a25050505050565b6040516001600160a01b038381166024830152604482018390526110cf91859182169063a9059cbb906064015b604051602081830303815290604052915060e01b6020820180516001600160e01b0383818316178352505050506128e7565b600f545f828152600e60205260409020544391612068916130bb565b11156120ae5760405162461bcd60e51b81526020600482015260156024820152744d45562070726f74656374696f6e2061637469766560581b60448201526064016107fb565b5f908152600e60205260409020439055565b6001600160a01b0383165f908152600c60205260409020546120e590620151806130bb565b4210612113576001600160a01b0383165f908152600b60209081526040808320839055600c90915290204290555b5f6001600160a01b038216156121325761212d8284612953565b612134565b825b600d546001600160a01b0386165f908152600b60205260409020549192509061215e9083906130bb565b11156121a45760405162461bcd60e51b815260206004820152601560248201527411185a5b1e481d9bdb1d5b5948195e18d959591959605a1b60448201526064016107fb565b6001600160a01b0384165f908152600b6020526040812080548392906121cb9084906130bb565b909155505050505050565b60208201515f9081906001600160a01b03161561226457602084015160808501516040516370a0823160e01b81526001600160a01b0391821660048201529116906370a0823190602401602060405180830381865afa15801561223b573d5f5f3e3d5ffd5b505050506040513d601f19601f8201168201806040525081019061225f9190613335565b612274565b83608001516001600160a01b0316315b84519091506001600160a01b0316156122a5578451604085015185516122a5926001600160a01b0390911691612a4d565b6122ae84612adc565b60208501519092505f906001600160a01b03161561233d57602085015160808601516040516370a0823160e01b81526001600160a01b0391821660048201529116906370a0823190602401602060405180830381865afa158015612314573d5f5f3e3d5ffd5b505050506040513d601f19601f820116820180604052508101906123389190613335565b61234d565b84608001516001600160a01b0316315b905061235982826130a8565b85519093506001600160a01b0316156123865785518551612386916001600160a01b03909116905f612a4d565b50509392505050565b600154600160a01b900460ff16610b8657604051638dfc202b60e01b815260040160405180910390fd5b5f7f00000000000000000000000000000000000000000000000000000000000000006001600160a01b0316836001600160a01b031614801561240257506001600160a01b038216155b80611b3357506001600160a01b038316158015611b3357507f00000000000000000000000000000000000000000000000000000000000000006001600160a01b0316826001600160a01b0316149392505050565b604051634adf8a8160e11b8152600481018290526001600160a01b038481167f0000000000000000000000000000000000000000000000000000000000000000821614602483018190523360448401525f9290917f000000000000000000000000000000000000000000000000000000000000000016906395bf150290606401602060405180830381865afa1580156124f1573d5f5f3e3d5ffd5b505050506040513d601f19601f820116820180604052508101906125159190613335565b95945050505050565b604080516002808252606080830184529260208301908036833701905050905082815f8151811061255157612551613080565b60200260200101906001600160a01b031690816001600160a01b031681525050818160018151811061258557612585613080565b60200260200101906001600160a01b031690816001600160a01b03168152505092915050565b6040805160018082528183019092526060916020808301908036833701905050905081815f815181106125e0576125e0613080565b60200260200101906001600160a01b031690816001600160a01b031681525050919050565b6040805160018082528183019092526060916020808301908036833701905050905081815f8151811061263a5761263a613080565b602002602001018181525050919050565b5f612710856040015161271061266191906130a8565b61266b908461334c565b6125159190613363565b6040516001600160a01b0384811660248301528381166044830152606482018390526126ae9186918216906323b872dd9060840161201a565b50505050565b80515f906001600160a01b0316158061270157507f00000000000000000000000000000000000000000000000000000000000000006001600160a01b0316825f01516001600160a01b0316145b156128ce5781517f00000000000000000000000000000000000000000000000000000000000000006001600160a01b03908116911614806128045760408381015160608501518551608087015160a08801519451630a9e24b160e01b81526004810185905260248101939093526001600160a01b0391821660448401528116606483015260848201939093527f000000000000000000000000000000000000000000000000000000000000000090921691630a9e24b1919060a40160206040518083038185885af11580156127d8573d5f5f3e3d5ffd5b50505050506040513d601f19601f820116820180604052508101906127fd9190613335565b91506128c8565b60408381015160608501518551608087015160a08801519451630a9e24b160e01b8152600481019490945260248401929092526001600160a01b039081166044840152908116606483015260848201929092527f000000000000000000000000000000000000000000000000000000000000000090911690630a9e24b19060a4016020604051808303815f875af11580156128a1573d5f5f3e3d5ffd5b505050506040513d601f19601f820116820180604052508101906128c59190613335565b91505b50919050565b60405163427282e960e11b815260040160405180910390fd5b5f5f60205f8451602086015f885af180612906576040513d5f823e3d81fd5b50505f513d9150811561291d57806001141561292a565b6001600160a01b0384163b155b156126ae57604051635274afe760e01b81526001600160a01b03851660048201526024016107fb565b5f7f00000000000000000000000000000000000000000000000000000000000000006001600160a01b0316836001600160a01b0316036128c8575f5f7f00000000000000000000000000000000000000000000000000000000000000006001600160a01b0316630902f1ac6040518163ffffffff1660e01b8152600401606060405180830381865afa1580156129eb573d5f5f3e3d5ffd5b505050506040513d601f19601f82011682018060405250810190612a0f9190613382565b50915091505f82118015612a2257505f81115b15612a455781612a32828661334c565b612a3c9190613363565b92505050610a23565b505050919050565b604080516001600160a01b038416602482015260448082018490528251808303909101815260649091019091526020810180516001600160e01b031663095ea7b360e01b179052612a9e8482612afc565b6126ae576040516001600160a01b0384811660248301525f6044830152612ad291869182169063095ea7b39060640161201a565b6126ae84826128e7565b5f6103e882604001516103e7612af2919061334c565b610a239190613363565b5f5f5f5f60205f8651602088015f8a5af192503d91505f519050828015610fa057508115612b2d5780600114610fa0565b50505050506001600160a01b03163b151590565b8035801515811461135f575f5ffd5b5f60208284031215612b60575f5ffd5b611b3382612b41565b5f60208284031215612b79575f5ffd5b5035919050565b80356001600160a01b038116811461135f575f5ffd5b5f5f60408385031215612ba7575f5ffd5b612bb083612b80565b9150612bbe60208401612b80565b90509250929050565b5f8151808452602084019350602083015f5b82811015612c005781516001600160a01b0316865260209586019590910190600101612bd9565b5093949350505050565b5f81518084528060208401602086015e5f602082860101526020601f19601f83011685010191505092915050565b602081525f825160c06020840152612c5360e0840182612bc7565b90506020840151601f19848303016040850152612c708282612bc7565b6040860151858203601f190160608701528051808352602091820194505f93509101905b80831015612cb75783518252602082019150602084019350600183019250612c94565b5060608601516080860152608086015160a086015260a08601519250601f198582030160c0860152610fa08184612c0a565b5f5f5f60608486031215612cfb575f5ffd5b505081359360208301359350604090920135919050565b5f60208284031215612d22575f5ffd5b611b3382612b80565b5f5f60408385031215612d3c575f5ffd5b612d4583612b80565b9150612bbe60208401612b41565b5f5f5f60608486031215612d65575f5ffd5b612d6e84612b80565b9250612d7c60208501612b80565b929592945050506040919091013590565b838152826020820152606060408201525f6125156060830184612c0a565b5f5f5f5f5f60a08688031215612dbf575f5ffd5b85359450612dcf60208701612b80565b9350612ddd60408701612b41565b94979396509394606081013594506080013592915050565b602080825282518282018190525f918401906040840190835b81811015612e2c578351835260209384019390920191600101612e0e565b509095945050505050565b5f5f5f5f5f5f60a08789031215612e4c575f5ffd5b863567ffffffffffffffff811115612e62575f5ffd5b8701601f81018913612e72575f5ffd5b803567ffffffffffffffff811115612e88575f5ffd5b8960208260051b8401011115612e9c575f5ffd5b602091820197509550870135935060408701359250612ebd60608801612b80565b95989497509295919493608090920135925050565b5f5f60408385031215612ee3575f5ffd5b82359150612bbe60208401612b41565b5f5f60408385031215612f04575f5ffd5b612f0d83612b80565b946020939093013593505050565b5f60e082840312156128c8575f5ffd5b5f60208284031215612f3b575f5ffd5b813567ffffffffffffffff811115612f51575f5ffd5b6114f284828501612f1b565b5f5f5f5f60608587031215612f70575f5ffd5b84359350602085013567ffffffffffffffff811115612f8d575f5ffd5b612f9987828801612f1b565b935050604085013567ffffffffffffffff811115612fb5575f5ffd5b8501601f81018713612fc5575f5ffd5b803567ffffffffffffffff811115612fdb575f5ffd5b876020828401011115612fec575f5ffd5b949793965060200194505050565b600181811c9082168061300e57607f821691505b6020821081036128c857634e487b7160e01b5f52602260045260245ffd5b602080825282518282018190525f918401906040840190835b81811015612e2c5783516001600160a01b0316835260209384019390920191600101613045565b634e487b7160e01b5f52604160045260245ffd5b634e487b7160e01b5f52603260045260245ffd5b634e487b7160e01b5f52601160045260245ffd5b81810381811115610a2357610a23613094565b80820180821115610a2357610a23613094565b5f5f8335601e198436030181126130e3575f5ffd5b830160208101925035905067ffffffffffffffff811115613102575f5ffd5b803603821315613110575f5ffd5b9250929050565b81835281816020850137505f828201602090810191909152601f909101601f19169091010190565b604081526001600160a01b0361315484612b80565b1660408201526001600160a01b0361316e60208501612b80565b1660608281019190915260408401356080808401919091529084013560a08301525f906001600160a01b03906131a5908601612b80565b1660c08381019190915260a085013560e08401526131c5908501856130ce565b60e06101008501526131dc61012085018284613117565b925050508260208301529392505050565b60405160e0810167ffffffffffffffff811182821017156132105761321061306c565b60405290565b5f82601f830112613225575f5ffd5b813567ffffffffffffffff81111561323f5761323f61306c565b604051601f8201601f19908116603f0116810167ffffffffffffffff8111828210171561326e5761326e61306c565b604052818152838201602001851015613285575f5ffd5b816020850160208301375f918101602001919091529392505050565b5f60e082360312156132b1575f5ffd5b6132b96131ed565b6132c283612b80565b81526132d060208401612b80565b602082015260408381013590820152606080840135908201526132f560808401612b80565b608082015260a0838101359082015260c083013567ffffffffffffffff81111561331d575f5ffd5b61332936828601613216565b60c08301525092915050565b5f60208284031215613345575f5ffd5b5051919050565b8082028115828204841417610a2357610a23613094565b5f8261337d57634e487b7160e01b5f52601260045260245ffd5b500490565b5f5f5f60608486031215613394575f5ffd5b505081516020830151604090930151909492935091905056","linkReferences":{}},"methodIdentifiers":{"FEE_DENOMINATOR()":"d73792a9","MAX_SLIPPAGE()":"f9759518","MIN_AMOUNT_OUT()":"8b14faf0","addAggregator(bytes32,address,bool,uint256,uint256)":"77345fe9","aggregatorNames(uint256)":"ea5ebd1e","aggregators(bytes32)":"7103353e","authorizedCallers(address)":"536fff6c","burnRate()":"bed99850","cachedRoutes(address,address)":"6aa29949","dailyVolume(address)":"e5b0ea7f","dashPool()":"a8d19020","dashToken()":"88c8ec95","emergencyWithdraw(address,uint256)":"95ccea67","feeCollector()":"c415b95c","getAggregators()":"7ee7f7d1","getAmountOut(address,address,uint256)":"4aa06652","getRouteCache(address,address)":"23f8e341","isAuthorized(address)":"fe9fbb80","lastBlockUsed(bytes32)":"b0b52e35","lastVolumeReset(address)":"83e5529e","maxDailyVolumePerUser()":"fab2f496","mevProtectionDelay()":"f183019b","owner()":"8da5cb5b","paused()":"5c975abb","protocolFee()":"b0e21e8a","renounceOwnership()":"715018a6","routeCacheExpiry()":"7968d4e0","setAuthorizedCaller(address,bool)":"454bbd29","setBurnRate(uint256)":"189d165e","setPaused(bool)":"16c38b3c","setProtocolFee(uint256)":"787dce3d","swapExactTokensForTokens((address,address,uint256,uint256,address,uint256,bytes))":"d5427ce7","swapMultiHop(address[],uint256,uint256,address,uint256)":"800ebd6b","swapViaAggregator(bytes32,(address,address,uint256,uint256,address,uint256,bytes),bytes)":"da6c74cb","tokenPriorityScore(address)":"407ea14a","transferOwnership(address)":"f2fde38b","updateAggregator(bytes32,bool)":"936cf44f","updateLimits(uint256,uint256,uint256)":"36a0f8a5"},"id":35}