{"abi":[{"type":"constructor","inputs":[{"name":"_dashToken","type":"address","internalType":"contract DashToken"},{"name":"_dashPool","type":"address","internalType":"contract SimpleLiquidityPool"},{"name":"_feeCollector","type":"address","internalType":"address"},{"name":"initialOwner","type":"address","internalType":"address"}],"stateMutability":"nonpayable"},{"type":"receive","stateMutability":"payable"},{"type":"function","name":"FEE_DENOMINATOR","inputs":[],"outputs":[{"name":"","type":"uint256","internalType":"uint256"}],"stateMutability":"view"},{"type":"function","name":"MAX_SLIPPAGE","inputs":[],"outputs":[{"name":"","type":"uint256","internalType":"uint256"}],"stateMutability":"view"},{"type":"function","name":"MIN_AMOUNT_OUT","inputs":[],"outputs":[{"name":"","type":"uint256","internalType":"uint256"}],"stateMutability":"view"},{"type":"function","name":"addAggregator","inputs":[{"name":"name","type":"bytes32","internalType":"bytes32"},{"name":"contractAddr","type":"address","internalType":"address"},{"name":"enabled","type":"bool","internalType":"bool"},{"name":"fee","type":"uint256","internalType":"uint256"},{"name":"maxSlippage","type":"uint256","internalType":"uint256"}],"outputs":[],"stateMutability":"nonpayable"},{"type":"function","name":"aggregatorNames","inputs":[{"name":"","type":"uint256","internalType":"uint256"}],"outputs":[{"name":"","type":"bytes32","internalType":"bytes32"}],"stateMutability":"view"},{"type":"function","name":"aggregators","inputs":[{"name":"","type":"bytes32","internalType":"bytes32"}],"outputs":[{"name":"contractAddress","type":"address","internalType":"address"},{"name":"enabled","type":"bool","internalType":"bool"},{"name":"fee","type":"uint256","internalType":"uint256"},{"name":"maxSlippage","type":"uint256","internalType":"uint256"}],"stateMutability":"view"},{"type":"function","name":"authorizedCallers","inputs":[{"name":"","type":"address","internalType":"address"}],"outputs":[{"name":"","type":"bool","internalType":"bool"}],"stateMutability":"view"},{"type":"function","name":"burnRate","inputs":[],"outputs":[{"name":"","type":"uint256","internalType":"uint256"}],"stateMutability":"view"},{"type":"function","name":"cachedRoutes","inputs":[{"name":"","type":"address","internalType":"address"},{"name":"","type":"address","internalType":"address"}],"outputs":[{"name":"expectedOutput","type":"uint256","internalType":"uint256"},{"name":"gasEstimate","type":"uint256","internalType":"uint256"},{"name":"data","type":"bytes","internalType":"bytes"}],"stateMutability":"view"},{"type":"function","name":"dailyVolume","inputs":[{"name":"","type":"address","internalType":"address"}],"outputs":[{"name":"","type":"uint256","internalType":"uint256"}],"stateMutability":"view"},{"type":"function","name":"dashPool","inputs":[],"outputs":[{"name":"","type":"address","internalType":"contract SimpleLiquidityPool"}],"stateMutability":"view"},{"type":"function","name":"dashToken","inputs":[],"outputs":[{"name":"","type":"address","internalType":"contract DashToken"}],"stateMutability":"view"},{"type":"function","name":"emergencyWithdraw","inputs":[{"name":"token","type":"address","internalType":"address"},{"name":"amount","type":"uint256","internalType":"uint256"}],"outputs":[],"stateMutability":"nonpayable"},{"type":"function","name":"feeCollector","inputs":[],"outputs":[{"name":"","type":"address","internalType":"address"}],"stateMutability":"view"},{"type":"function","name":"getAggregators","inputs":[],"outputs":[{"name":"names","type":"bytes32[]","internalType":"bytes32[]"}],"stateMutability":"view"},{"type":"function","name":"getAmountOut","inputs":[{"name":"tokenIn","type":"address","internalType":"address"},{"name":"tokenOut","type":"address","internalType":"address"},{"name":"amountIn","type":"uint256","internalType":"uint256"}],"outputs":[{"name":"amountOut","type":"uint256","internalType":"uint256"},{"name":"routeId","type":"bytes32","internalType":"bytes32"}],"stateMutability":"view"},{"type":"function","name":"getRouteCache","inputs":[{"name":"tokenIn","type":"address","internalType":"address"},{"name":"tokenOut","type":"address","internalType":"address"}],"outputs":[{"name":"","type":"tuple","internalType":"struct DashSmartRouter.RouteInfo","components":[{"name":"path","type":"address[]","internalType":"address[]"},{"name":"exchanges","type":"address[]","internalType":"address[]"},{"name":"fees","type":"uint256[]","internalType":"uint256[]"},{"name":"expectedOutput","type":"uint256","internalType":"uint256"},{"name":"gasEstimate","type":"uint256","internalType":"uint256"},{"name":"data","type":"bytes","internalType":"bytes"}]}],"stateMutability":"view"},{"type":"function","name":"isAuthorized","inputs":[{"name":"caller","type":"address","internalType":"address"}],"outputs":[{"name":"","type":"bool","internalType":"bool"}],"stateMutability":"view"},{"type":"function","name":"lastBlockUsed","inputs":[{"name":"","type":"bytes32","internalType":"bytes32"}],"outputs":[{"name":"","type":"uint256","internalType":"uint256"}],"stateMutability":"view"},{"type":"function","name":"lastVolumeReset","inputs":[{"name":"","type":"address","internalType":"address"}],"outputs":[{"name":"","type":"uint256","internalType":"uint256"}],"stateMutability":"view"},{"type":"function","name":"maxDailyVolumePerUser","inputs":[],"outputs":[{"name":"","type":"uint256","internalType":"uint256"}],"stateMutability":"view"},{"type":"function","name":"mevProtectionDelay","inputs":[],"outputs":[{"name":"","type":"uint256","internalType":"uint256"}],"stateMutability":"view"},{"type":"function","name":"owner","inputs":[],"outputs":[{"name":"","type":"address","internalType":"address"}],"stateMutability":"view"},{"type":"function","name":"paused","inputs":[],"outputs":[{"name":"","type":"bool","internalType":"bool"}],"stateMutability":"view"},{"type":"function","name":"protocolFee","inputs":[],"outputs":[{"name":"","type":"uint256","internalType":"uint256"}],"stateMutability":"view"},{"type":"function","name":"renounceOwnership","inputs":[],"outputs":[],"stateMutability":"nonpayable"},{"type":"function","name":"routeCacheExpiry","inputs":[],"outputs":[{"name":"","type":"uint256","internalType":"uint256"}],"stateMutability":"view"},{"type":"function","name":"setAuthorizedCaller","inputs":[{"name":"caller","type":"address","internalType":"address"},{"name":"authorized","type":"bool","internalType":"bool"}],"outputs":[],"stateMutability":"nonpayable"},{"type":"function","name":"setBurnRate","inputs":[{"name":"newRate","type":"uint256","internalType":"uint256"}],"outputs":[],"stateMutability":"nonpayable"},{"type":"function","name":"setPaused","inputs":[{"name":"paused","type":"bool","internalType":"bool"}],"outputs":[],"stateMutability":"nonpayable"},{"type":"function","name":"setProtocolFee","inputs":[{"name":"newFee","type":"uint256","internalType":"uint256"}],"outputs":[],"stateMutability":"nonpayable"},{"type":"function","name":"swapExactTokensForTokens","inputs":[{"name":"params","type":"tuple","internalType":"struct DashSmartRouter.SwapParams","components":[{"name":"tokenIn","type":"address","internalType":"address"},{"name":"tokenOut","type":"address","internalType":"address"},{"name":"amountIn","type":"uint256","internalType":"uint256"},{"name":"amountOutMin","type":"uint256","internalType":"uint256"},{"name":"to","type":"address","internalType":"address"},{"name":"deadline","type":"uint256","internalType":"uint256"},{"name":"routeData","type":"bytes","internalType":"bytes"}]}],"outputs":[{"name":"amountOut","type":"uint256","internalType":"uint256"}],"stateMutability":"payable"},{"type":"function","name":"swapMultiHop","inputs":[{"name":"path","type":"address[]","internalType":"address[]"},{"name":"amountIn","type":"uint256","internalType":"uint256"},{"name":"amountOutMin","type":"uint256","internalType":"uint256"},{"name":"to","type":"address","internalType":"address"},{"name":"deadline","type":"uint256","internalType":"uint256"}],"outputs":[{"name":"amounts","type":"uint256[]","internalType":"uint256[]"}],"stateMutability":"payable"},{"type":"function","name":"swapViaAggregator","inputs":[{"name":"aggregatorName","type":"bytes32","internalType":"bytes32"},{"name":"params","type":"tuple","internalType":"struct DashSmartRouter.SwapParams","components":[{"name":"tokenIn","type":"address","internalType":"address"},{"name":"tokenOut","type":"address","internalType":"address"},{"name":"amountIn","type":"uint256","internalType":"uint256"},{"name":"amountOutMin","type":"uint256","internalType":"uint256"},{"name":"to","type":"address","internalType":"address"},{"name":"deadline","type":"uint256","internalType":"uint256"},{"name":"routeData","type":"bytes","internalType":"bytes"}]},{"name":"routeData","type":"bytes","internalType":"bytes"}],"outputs":[{"name":"amountOut","type":"uint256","internalType":"uint256"}],"stateMutability":"payable"},{"type":"function","name":"tokenPriorityScore","inputs":[{"name":"","type":"address","internalType":"address"}],"outputs":[{"name":"","type":"uint256","internalType":"uint256"}],"stateMutability":"view"},{"type":"function","name":"transferOwnership","inputs":[{"name":"newOwner","type":"address","internalType":"address"}],"outputs":[],"stateMutability":"nonpayable"},{"type":"function","name":"updateAggregator","inputs":[{"name":"name","type":"bytes32","internalType":"bytes32"},{"name":"enabled","type":"bool","internalType":"bool"}],"outputs":[],"stateMutability":"nonpayable"},{"type":"function","name":"updateLimits","inputs":[{"name":"newMaxDailyVolume","type":"uint256","internalType":"uint256"},{"name":"newMEVDelay","type":"uint256","internalType":"uint256"},{"name":"newCacheExpiry","type":"uint256","internalType":"uint256"}],"outputs":[],"stateMutability":"nonpayable"},{"type":"event","name":"AggregatorUpdated","inputs":[{"name":"name","type":"bytes32","indexed":true,"internalType":"bytes32"},{"name":"contractAddr","type":"address","indexed":false,"internalType":"address"},{"name":"enabled","type":"bool","indexed":false,"internalType":"bool"}],"anonymous":false},{"type":"event","name":"FeeCollected","inputs":[{"name":"token","type":"address","indexed":true,"internalType":"address"},{"name":"amount","type":"uint256","indexed":false,"internalType":"uint256"},{"name":"burned","type":"uint256","indexed":false,"internalType":"uint256"}],"anonymous":false},{"type":"event","name":"OwnershipTransferred","inputs":[{"name":"previousOwner","type":"address","indexed":true,"internalType":"address"},{"name":"newOwner","type":"address","indexed":true,"internalType":"address"}],"anonymous":false},{"type":"event","name":"Paused","inputs":[{"name":"account","type":"address","indexed":false,"internalType":"address"}],"anonymous":false},{"type":"event","name":"RouteOptimized","inputs":[{"name":"tokenIn","type":"address","indexed":true,"internalType":"address"},{"name":"tokenOut","type":"address","indexed":true,"internalType":"address"},{"name":"routeId","type":"bytes32","indexed":false,"internalType":"bytes32"},{"name":"expectedOutput","type":"uint256","indexed":false,"internalType":"uint256"},{"name":"gasEstimate","type":"uint256","indexed":false,"internalType":"uint256"}],"anonymous":false},{"type":"event","name":"SwapExecuted","inputs":[{"name":"user","type":"address","indexed":true,"internalType":"address"},{"name":"tokenIn","type":"address","indexed":true,"internalType":"address"},{"name":"tokenOut","type":"address","indexed":true,"internalType":"address"},{"name":"amountIn","type":"uint256","indexed":false,"internalType":"uint256"},{"name":"amountOut","type":"uint256","indexed":false,"internalType":"uint256"},{"name":"routeId","type":"bytes32","indexed":false,"internalType":"bytes32"},{"name":"gasUsed","type":"uint256","indexed":false,"internalType":"uint256"}],"anonymous":false},{"type":"event","name":"Unpaused","inputs":[{"name":"account","type":"address","indexed":false,"internalType":"address"}],"anonymous":false},{"type":"error","name":"DailyVolumeExceeded","inputs":[]},{"type":"error","name":"DeadlineExpired","inputs":[]},{"type":"error","name":"EnforcedPause","inputs":[]},{"type":"error","name":"ExpectedPause","inputs":[]},{"type":"error","name":"InsufficientOutput","inputs":[]},{"type":"error","name":"InvalidAggregator","inputs":[]},{"type":"error","name":"InvalidRoute","inputs":[]},{"type":"error","name":"MEVProtectionActive","inputs":[]},{"type":"error","name":"OwnableInvalidOwner","inputs":[{"name":"owner","type":"address","internalType":"address"}]},{"type":"error","name":"OwnableUnauthorizedAccount","inputs":[{"name":"account","type":"address","internalType":"address"}]},{"type":"error","name":"ReentrancyGuardReentrantCall","inputs":[]},{"type":"error","name":"SafeERC20FailedOperation","inputs":[{"name":"token","type":"address","internalType":"address"}]},{"type":"error","name":"SlippageExceeded","inputs":[]},{"type":"error","name":"UnauthorizedCaller","inputs":[]}],"bytecode":{"object":"0x60c06040523461038c57604051601f61304238819003918201601f19168301916001600160401b038311848410176103355780849260809460405283398101031261038c578051906001600160a01b038216820361038c5760208101516001600160a01b038116810361038c57610084606061007d60408501610390565b9301610390565b60015f556001600160a01b031692831561037957600180546001600160a01b03198116861790915584906001600160a01b03167f8be0079c531659141344cd1fd0a4f28419497f9722a3daafe3b4186f6b6457e05f80a3600a60045561138860065561012c600955683635c9adc5dea00000600d556001600f5560805260a05260018060a01b031660018060a01b031960055416176005556040516080810181811060018060401b0382111761033557604090815273111111125421ca6dc452d289314280a0f8842a658252600160208084019182525f9284018381526107d06060860190815264062929c86960db1b8552600290925293517f8f4116c5ebf0f8f301af5b8bf59e55940913d2da592e03f466404f5f29f3d6868054935160ff60a01b90151560a01b166001600160a01b039092166001600160a81b0319909416939093171790915591517f8f4116c5ebf0f8f301af5b8bf59e55940913d2da592e03f466404f5f29f3d6875590517f8f4116c5ebf0f8f301af5b8bf59e55940913d2da592e03f466404f5f29f3d6885560035490805b828110610349575b50156102f0575b506040805173111111125421ca6dc452d289314280a0f8842a6581526001602082015264062929c86960db1b917f197d0ef4f55dcc47206d3620df3b2c6f6b9bd5e50838d1dccf97c74bebf5637b91a25f52600a60205260405f20600160ff19825416179055604051612c7190816103d18239608051818181610d7e01528181611e1101528181612276015281816124860152818161279301526129fe015260a051818181610b8e01528181611fef015281816122fb015281816124020152612a470152f35b680100000000000000008110156103355780600161031192016003556103a4565b81545f1960039290921b91821b191664062929c86960db1b90911b1790555f61022a565b634e487b7160e01b5f52604160045260245ffd5b610352816103a4565b64062929c86960db1b91549060031b1c1461036f5760010161021b565b505060015f610223565b631e4fbdf760e01b5f525f60045260245ffd5b5f80fd5b51906001600160a01b038216820361038c57565b6003548110156103bc5760035f5260205f2001905f90565b634e487b7160e01b5f52603260045260245ffdfe6080604052600436101561001a575b3615610018575f80fd5b005b5f3560e01c806316c38b3c146117f4578063189d165e1461179157806323f8e3411461160357806336a0f8a5146115d6578063407ea14a1461159e578063454bbd291461154e5780634aa06652146114f5578063536fff6c146101c15780635c975abb146114d05780636aa299491461144e5780637103353e146113f7578063715018a61461139c57806377345fe914611201578063787dce3d146111a45780637968d4e0146111875780637ee7f7d1146110d1578063800ebd6b14610de557806383e5529e14610dad57806388c8ec9514610d695780638b14faf014610d4e5780638da5cb5b14610d26578063936cf44f14610c3757806395ccea6714610bbd578063a8d1902014610b79578063b0b52e3514610b4f578063b0e21e8a14610b32578063bed9985014610b15578063c415b95c14610aed578063d5427ce7146106fb578063d73792a9146106df578063da6c74cb1461034e578063e5b0ea7f14610316578063ea5ebd1e146102de578063f183019b146102c1578063f2fde38b1461023b578063f97595181461021f578063fab2f496146102025763fe9fbb800361000e575b346101fe5760203660031901126101fe576001600160a01b036101e26118cc565b165f52600a602052602060ff60405f2054166040519015158152f35b5f80fd5b346101fe575f3660031901126101fe576020600d54604051908152f35b346101fe575f3660031901126101fe5760206040516113888152f35b346101fe5760203660031901126101fe576102546118cc565b61025c611d1f565b6001600160a01b031680156102ae57600180546001600160a01b0319811683179091556001600160a01b03167f8be0079c531659141344cd1fd0a4f28419497f9722a3daafe3b4186f6b6457e05f80a3005b631e4fbdf760e01b5f525f60045260245ffd5b346101fe575f3660031901126101fe576020600f54604051908152f35b346101fe5760203660031901126101fe576004356003548110156101fe57610307602091611aaa565b90549060031b1c604051908152f35b346101fe5760203660031901126101fe576001600160a01b036103376118cc565b165f52600b602052602060405f2054604051908152f35b60603660031901126101fe576004356024356001600160401b0381116101fe57806004019060e060031982360301126101fe57604435926001600160401b0384116101fe57366023850112156101fe578360040135926001600160401b0384116101fe5736602485870101116101fe576103c66121c7565b6103ce6121e5565b815f52600260205260405f2094604051956103e887611987565b80546001600160a01b038116885260a01c60ff161580156020890152600182015460408901526002919091015460608801526106a1576104379061042c3684611c82565b956024369201611c3d565b506020840180519095906001600160a01b031680610631575060808501516001600160a01b031631955b85516001600160a01b03168061060f575b506040860151806103e78102046103e714901517156105fb57516001600160a01b031680610579575060808501516020966104b6916001600160a01b031631611bff565b94516001600160a01b03168061055b575b50507fc475cd387f04dfb8ccf2e43b44bcce6fe4565a76bc61c6755aa0f389b1cbd86f61051760246105106104fb85611c1c565b9461050b60448901358097612750565b611c1c565b9501611c1c565b5a604080519485526020850188905284019490945260608301939093526001600160a01b039283169390921691339180608081015b0390a460015f55604051908152f35b9051610572916001600160a01b0390911690612b00565b85806104c7565b602060018060a01b036080880151166024604051809481936370a0823160e01b835260048301525afa9081156105f0575f916105bd575b506020966104b691611bff565b90506020813d6020116105e8575b816105d8602093836119bd565b810103126101fe575160206105b0565b3d91506105cb565b6040513d5f823e3d90fd5b634e487b7160e01b5f52601160045260245ffd5b8251604088015161062b9290916001600160a01b031690612bb2565b87610472565b602060018060a01b036080880151166024604051809481936370a0823160e01b835260048301525afa9081156105f0575f9161066f575b5095610461565b90506020813d602011610699575b8161068a602093836119bd565b810103126101fe575187610668565b3d915061067d565b60405162461bcd60e51b81526020600482015260166024820152751059d9dc9959d85d1bdc881b9bdd08195b98589b195960521b6044820152606490fd5b346101fe575f3660031901126101fe5760206040516127108152f35b60203660031901126101fe576004356001600160401b0381116101fe578060040181360360e06003198201126101fe576107336121c7565b61073b6121e5565b60a483013561074c81421115611b85565b6044840135938415610ab157604080516020810191825290916001600160a01b03610776876118f8565b16606083015260248101946001600160a01b03610792876118f8565b16608084015260a08301889052606482013560c08401819052946001600160a01b036107c0608485016118f8565b1660e085015261010084015260c482013590602219018112156101fe5701602460048201359101906001600160401b0381116101fe5780360382136101fe578281610160926108419460e061012085015281610140850152848401375f838284010152436040830152601f801991011681010301601f1981018352826119bd565b519020805f52600e60205260405f205461085f4391600f5490611c30565b11610a74575f52600e6020524360405f205561087a83611c1c565b335f52600c60205260405f20546201518081018091116105fb57421015610a53575b846001600160a01b038216610a455790505b335f52600b6020526108c48160405f2054611c30565b600d5410610a0857335f52600b6020526108e360405f20918254611c30565b9055610901846108f285611c1c565b6108fb85611c1c565b90611d46565b906060820151106109c3576020937fc475cd387f04dfb8ccf2e43b44bcce6fe4565a76bc61c6755aa0f389b1cbd86f61096261095c61094985610944368a611c82565b612203565b9661050b8561095783611c1c565b612750565b94611c1c565b9251604051610986816109788a82019485611b43565b03601f1981018352826119bd565b519020925a604080519485526020850188905284019490945260608301939093526001600160a01b0392831693909216913391806080810161054c565b60405162461bcd60e51b815260206004820152601a60248201527f496e73756666696369656e74206f757470757420616d6f756e740000000000006044820152606490fd5b60405162461bcd60e51b815260206004820152601560248201527411185a5b1e481d9bdb1d5b5948195e18d959591959605a1b6044820152606490fd5b610a4e916129fc565b6108ae565b335f52600b6020525f6040812055335f52600c6020524260405f205561089c565b60405162461bcd60e51b81526020600482015260156024820152744d45562070726f74656374696f6e2061637469766560581b6044820152606490fd5b60405162461bcd60e51b8152602060048201526014602482015273125b9d985b1a59081a5b9c1d5d08185b5bdd5b9d60621b6044820152606490fd5b346101fe575f3660031901126101fe576005546040516001600160a01b039091168152602090f35b346101fe575f3660031901126101fe576020600654604051908152f35b346101fe575f3660031901126101fe576020600454604051908152f35b346101fe5760203660031901126101fe576004355f52600e602052602060405f2054604051908152f35b346101fe575f3660031901126101fe576040517f00000000000000000000000000000000000000000000000000000000000000006001600160a01b03168152602090f35b346101fe5760403660031901126101fe57610bd66118cc565b60243590610be2611d1f565b6001600160a01b031680610c1e57506001545f918291829182916001600160a01b0316828215610c15575bf1156105f057005b506108fc610c0d565b60015461001892916001600160a01b03909116906128bc565b346101fe5760403660031901126101fe57600435610c536118bd565b610c5b611d1f565b5f828152600260205260409020546001600160a01b031615610cea575f82815260026020908152604091829020805460ff60a01b94151560a081901b9590951660ff60a01b1982161790915582516001600160a01b039091168152908101929092527f197d0ef4f55dcc47206d3620df3b2c6f6b9bd5e50838d1dccf97c74bebf5637b9190819081015b0390a2005b60405162461bcd60e51b81526020600482015260146024820152731059d9dc9959d85d1bdc881b9bdd08199bdd5b9960621b6044820152606490fd5b346101fe575f3660031901126101fe576001546040516001600160a01b039091168152602090f35b346101fe575f3660031901126101fe57602060405160018152f35b346101fe575f3660031901126101fe576040517f00000000000000000000000000000000000000000000000000000000000000006001600160a01b03168152602090f35b346101fe5760203660031901126101fe576001600160a01b03610dce6118cc565b165f52600c602052602060405f2054604051908152f35b60a03660031901126101fe576004356001600160401b0381116101fe57366023820112156101fe578060040135906001600160401b0382116101fe576024810190602436918460051b0101116101fe57602435916064356001600160a01b03811681036101fe57608435610e576121c7565b610e5f6121e5565b6002831061109d57610e7681949394421115611b85565b610e7f84611bc7565b92610e8d60405194856119bd565b848452610e9985611bc7565b602085019590601f190136873786610eb086611bde565b526001198101818111975f1983018381119892949291905f8a5b6105fb5781811015610fc657610ee461050b828888611c0c565b90600181018082116105fb578b8e88610f4085610f3a61050b878f610f3461050b86838a9f610f2e908e610f27858f61050b8c88610f2193611c0c565b92611beb565b5191611d46565b9a611c0c565b9b611c0c565b94611beb565b51916105fb57600195610fb6938f8f90948f95610faf968a145f14610fbe57905b60a08601519360405195610f74876119a2565b8c8060a01b031686528b8060a01b031660208601526040850152896060850152898060a01b0316608084015260a083015260c0820152612203565b918d611beb565b52018a610eca565b503090610f61565b898486858984515f1981019081116105fb57610fe56044359187611beb565b5110611058571561104457610ffe906109578593611c1c565b60015f55604051918291602083019060208452518091526040830191905f5b81811061102b575050500390f35b825184528594506020938401939092019160010161101d565b634e487b7160e01b5f52603260045260245ffd5b60405162461bcd60e51b815260206004820152601960248201527f496e73756666696369656e742066696e616c206f7574707574000000000000006044820152606490fd5b60405162461bcd60e51b815260206004820152600c60248201526b092dcecc2d8d2c840e0c2e8d60a31b6044820152606490fd5b346101fe575f3660031901126101fe576040518060206003549283815201809260035f527fc2575a0e9e593c00f959f8c92f12db2869c3395a3b0502d05e2516446f71f85b905f5b818110611171575050508161112f9103826119bd565b604051918291602083019060208452518091526040830191905f5b818110611158575050500390f35b825184528594506020938401939092019160010161114a565b8254845260209093019260019283019201611119565b346101fe575f3660031901126101fe576020600954604051908152f35b346101fe5760203660031901126101fe576004356111c0611d1f565b606481116111cd57600455005b60405162461bcd60e51b815260206004820152600c60248201526b08ccaca40e8dede40d0d2ced60a31b6044820152606490fd5b346101fe5760a03660031901126101fe5760043561121d6118e2565b6044358015158082036101fe57611232611d1f565b60026040519161124183611987565b6001600160a01b03858116845260208085019283526064356040808701918252608435606088019081525f8b81529387905292209551865494516001600160a81b031990951693169290921792151560a01b60ff60a01b1692909217845551600184015551910155600354915f805b848110611374575b5015611305575b604080516001600160a01b03909216825291151560208201527f197d0ef4f55dcc47206d3620df3b2c6f6b9bd5e50838d1dccf97c74bebf5637b92509081908101610ce5565b68010000000000000000831015611360576113478360017f197d0ef4f55dcc47206d3620df3b2c6f6b9bd5e50838d1dccf97c74bebf5637b9501600355611aaa565b81549060031b9086821b915f19901b19161790556112bf565b634e487b7160e01b5f52604160045260245ffd5b8561137e82611aaa565b90549060031b1c14611392576001016112b0565b50506001856112b8565b346101fe575f3660031901126101fe576113b4611d1f565b600180546001600160a01b031981169091555f906001600160a01b03167f8be0079c531659141344cd1fd0a4f28419497f9722a3daafe3b4186f6b6457e08280a3005b346101fe5760203660031901126101fe576004355f526002602052608060405f20805490600260018201549101549060ff6040519360018060a01b038116855260a01c161515602084015260408301526060820152f35b346101fe5760403660031901126101fe576114676118cc565b61146f6118e2565b9060018060a01b03165f52600760205260405f209060018060a01b03165f5260205260405f2060038101546114cc6114ae6005600485015494016119de565b60405193849384526020840152606060408401526060830190611948565b0390f35b346101fe575f3660031901126101fe57602060ff60015460a01c166040519015158152f35b346101fe5760603660031901126101fe5760406115246115136118cc565b61151b6118e2565b60443591611d46565b60608101519051825161153f81610978602082019485611b43565b51902082519182526020820152f35b346101fe5760403660031901126101fe576115676118cc565b61156f6118bd565b90611578611d1f565b60018060a01b03165f52600a60205260405f209060ff8019835416911515161790555f80f35b346101fe5760203660031901126101fe576001600160a01b036115bf6118cc565b165f526008602052602060405f2054604051908152f35b346101fe5760603660031901126101fe576115ef611d1f565b600435600d55602435600f55604435600955005b346101fe5760403660031901126101fe5761161c6118cc565b6116246118e2565b9061162d611ac2565b5060018060a01b03165f52600760205260405f209060018060a01b03165f5260205260405f2060405161165f8161196c565b61166882611af2565b815261167660018301611af2565b602082019081526002830192604051808560208297549384815201905f5260205f20925f5b8181106117785750506116b0925003856119bd565b604083019384526003810154606084019081526117166116de600560048501549460808801958652016119de565b9360a0860194855261170360405196602088525160c0602089015260e088019061190c565b9051868203601f1901604088015261190c565b945194601f19858203016060860152602080875192838152019601905f5b8181106117625786806114cc8a8989895160808601525160a085015251601f198483030160c0850152611948565b8251885260209788019790920191600101611734565b845483526001948501948994506020909301920161169b565b346101fe5760203660031901126101fe576004356117ad611d1f565b61271081116117bb57600655005b60405162461bcd60e51b8152602060048201526011602482015270496e76616c6964206275726e207261746560781b6044820152606490fd5b346101fe5760203660031901126101fe5760043580151581036101fe57611819611d1f565b15611867576118266121c7565b6001805460ff60a01b1916600160a01b1790556040513381527f62e78cea01bee320cd4e420270b5ea74000d11b0c9f74754ebdbfc544b05a25890602090a1005b60015460ff8160a01c16156118ae5760ff60a01b19166001556040513381527f5db9ee0a495bf2e6ff9c91a7834c1ba4fdd244a5e8aa4e537bd38aeae4b073aa90602090a1005b638dfc202b60e01b5f5260045ffd5b6024359081151582036101fe57565b600435906001600160a01b03821682036101fe57565b602435906001600160a01b03821682036101fe57565b35906001600160a01b03821682036101fe57565b90602080835192838152019201905f5b8181106119295750505090565b82516001600160a01b031684526020938401939092019160010161191c565b805180835260209291819084018484015e5f828201840152601f01601f1916010190565b60c081019081106001600160401b0382111761136057604052565b608081019081106001600160401b0382111761136057604052565b60e081019081106001600160401b0382111761136057604052565b90601f801991011681019081106001600160401b0382111761136057604052565b90604051915f8154908160011c9260018316928315611aa0575b602085108414611a8c578487528693908115611a6a5750600114611a26575b50611a24925003836119bd565b565b90505f9291925260205f20905f915b818310611a4e575050906020611a24928201015f611a17565b6020919350806001915483858901015201910190918492611a35565b905060209250611a2494915060ff191682840152151560051b8201015f611a17565b634e487b7160e01b5f52602260045260245ffd5b93607f16936119f8565b6003548110156110445760035f5260205f2001905f90565b60405190611acf8261196c565b606060a0838281528260208201528260408201525f838201525f60808201520152565b90604051918281549182825260208201905f5260205f20925f5b818110611b21575050611a24925003836119bd565b84546001600160a01b0316835260019485019487945060209093019201611b0c565b60206040818301928281528451809452019201905f5b818110611b665750505090565b82516001600160a01b0316845260209384019390920191600101611b59565b15611b8c57565b60405162461bcd60e51b8152602060048201526013602482015272151c985b9cd858dd1a5bdb88195e1c1a5c9959606a1b6044820152606490fd5b6001600160401b0381116113605760051b60200190565b8051156110445760200190565b80518210156110445760209160051b010190565b919082039182116105fb57565b91908110156110445760051b0190565b356001600160a01b03811681036101fe5790565b919082018092116105fb57565b9291926001600160401b0382116113605760405191611c66601f8201601f1916602001846119bd565b8294818452818301116101fe578281602093845f960137010152565b919060e0838203126101fe5760405190611c9b826119a2565b8193611ca6816118f8565b8352611cb4602082016118f8565b60208401526040810135604084015260608101356060840152611cd9608082016118f8565b608084015260a081013560a084015260c0810135906001600160401b0382116101fe570181601f820112156101fe5760c091816020611d1a93359101611c3d565b910152565b6001546001600160a01b03163303611d3357565b63118cdaa760e01b5f523360045260245ffd5b91611d4f611ac2565b9260018060a01b03811692835f52600760205260405f2060018060a01b0382165f5260205260405f2060405190611d858261196c565b611d8e81611af2565b8252611d9c60018201611af2565b602083015260028101604051808260208294549384815201905f5260205f20925f5b8181106121ae575050611dd3925003826119bd565b6040830152611dfa60056003830154926060850193845260048101546080860152016119de565b60a08301525115158061218e575b61218557505f937f00000000000000000000000000000000000000000000000000000000000000006001600160a01b03168082149182919082612173575b821561214f575b5050611fcb575b50600354915f5b838110611eab57505050505015611e6f5790565b60405162461bcd60e51b8152602060048201526014602482015273139bc81d985b1a59081c9bdd5d1948199bdd5b9960621b6044820152606490fd5b611eb481611aaa565b90549060031b1c805f52600260205260405f209060405190611ed582611987565b82546001600160a01b038116835260a01c60ff161580156020840152600184015460408401818152600290950154606085015290611fbf576127100361271081116105fb57611f27612710918a61273d565b04898111611f3e575b505050506001905b01611e5b565b6001949a5080919293995098611f70611f69611f5a89896128f8565b95878060a01b0390511661294a565b915161297d565b9060405193602085015260208452611f896040856119bd565b60405194611f968661196c565b855260208501526040840152606083015262030d40608083015260a082015296905f8080611f30565b50505050600190611f38565b604051634adf8a8160e11b81526004810185905260248101919091523360448201527f00000000000000000000000000000000000000000000000000000000000000006001600160a01b031690602081606481855afa9081156105f0575f9161211d575b508061203c575b50611e54565b9195509350809361204d86846128f8565b916004602061205b8461294a565b9360405192838092631e8c328f60e11b82525afa80156105f0575f906120e9575b612086915061297d565b6040519260208085015260066040850152654e415449564560d01b6060850152606084526120b56080856119bd565b604051946120c28661196c565b8552602085015260408401526060830152620249f0608083015260a0820152935f80612036565b506020813d602011612115575b81612103602093836119bd565b810103126101fe57612086905161207c565b3d91506120f6565b90506020813d602011612147575b81612138602093836119bd565b810103126101fe57515f61202f565b3d915061212b565b15915081612160575b505f80611e4d565b6001600160a01b0384161490505f612158565b6001600160a01b038516159250611e46565b94505050505090565b50845f52600c6020526121a560405f205442611bff565b60095411611e08565b8454835260019485019486945060209093019201611dbe565b60ff60015460a01c166121d657565b63d93c066560e01b5f5260045ffd5b60025f54146121f45760025f55565b633ee5aeb560e01b5f5260045ffd5b8051909291906001600160a01b0316806126f55750604083015134106126bd5760a0905b01516020818051810103126101fe5760200151654e415449564560d01b81036124b7575081516001600160a01b03168015908115612484575b50156124755781516001600160a01b03908116907f00000000000000000000000000000000000000000000000000000000000000001681146123a7575060408281015160608401518451608086015160a08701519451630a9e24b160e01b81526004810185905260248101939093526001600160a01b03918216604484015281166064830152608482019390935291602091839160a49183917f0000000000000000000000000000000000000000000000000000000000000000165af180156105f0575f90612374575b606091505b925b0151821061233b57565b60405162461bcd60e51b815260206004820152601160248201527014db1a5c1c1859d948195e18d959591959607a1b6044820152606490fd5b506020813d60201161239f575b8161238e602093836119bd565b810103126101fe576060905161232a565b3d9150612381565b6040838101516060850151608086015160a08701519351630a9e24b160e01b8152600481019390935260248301919091526001600160a01b039384166044830152909216606483015260848201526020818060a4810103815f7f00000000000000000000000000000000000000000000000000000000000000006001600160a01b03165af180156105f0575f90612442575b6060915061232f565b506020813d60201161246d575b8161245c602093836119bd565b810103126101fe5760609051612439565b3d915061244f565b63427282e960e11b5f5260045ffd5b7f00000000000000000000000000000000000000000000000000000000000000006001600160a01b03161490505f612260565b5f52600260205260405f206002604051916124d183611987565b60ff815460018060a01b038116855260a01c16151560208401526001810154604084015201546060820152602083019060018060a01b0382511680155f1461264d575060808401516001600160a01b031631915b84516001600160a01b03168061262b575b506040850151806103e78102046103e714901517156105fb57516001600160a01b0316806125b45750608084015160609261257a916001600160a01b031631611bff565b84519091906001600160a01b031680612596575b505092612331565b90516125ad916001600160a01b0390911690612b00565b5f8061258e565b602060018060a01b036080870151166024604051809481936370a0823160e01b835260048301525afa9081156105f0575f916125f8575b5060609261257a91611bff565b90506020813d602011612623575b81612613602093836119bd565b810103126101fe575160606125eb565b3d9150612606565b825160408701516126479290916001600160a01b031690612bb2565b5f612536565b602060018060a01b036080870151166024604051809481936370a0823160e01b835260048301525afa9081156105f0575f9161268b575b5091612525565b90506020813d6020116126b5575b816126a6602093836119bd565b810103126101fe57515f612684565b3d9150612699565b60405162461bcd60e51b815260206004820152601060248201526f092dce6eaccccd2c6d2cadce8408aa8960831b6044820152606490fd5b9061273860a092604086015190604051916323b872dd60e01b60208401523360248401523060448401526064830152606482526127336084836119bd565b6129a4565b612227565b818102929181159184041417156105fb57565b90612761612710916004549061273d565b048061276b575050565b61271061277a6006548361273d565b046127858183611bff565b6001600160a01b03938416937f0000000000000000000000000000000000000000000000000000000000000000168481146127ef575b50507f108516ddcf5ba43cea6bb2cd5ff6d59ac196c1c86ccb9178332b9dd72d1ca5619160409182519182526020820152a2565b82612849575b5091604091837f108516ddcf5ba43cea6bb2cd5ff6d59ac196c1c86ccb9178332b9dd72d1ca5619461282c575b50918193506127bb565b60055461284391906001600160a01b0316876128bc565b5f612822565b929091833b156101fe575f80946024604051809781936301a1535d60e11b83528660048401525af19283156105f0577f108516ddcf5ba43cea6bb2cd5ff6d59ac196c1c86ccb9178332b9dd72d1ca561946040946128ac575b50919350916127f5565b5f6128b6916119bd565b5f6128a2565b60405163a9059cbb60e01b60208201526001600160a01b03929092166024830152604480830193909352918152611a24916127336064836119bd565b91906040516129086060826119bd565b600281526040366020830137809361291f82611bde565b6001600160a01b039091169052805160011015611044576001600160a01b0390911660409190910152565b906040519161295a6040846119bd565b600183526020368185013761296e83611bde565b6001600160a01b039091169052565b906040519161298d6040846119bd565b60018352602036818501376129a183611bde565b52565b905f602091828151910182855af1156105f0575f513d6129f357506001600160a01b0381163b155b6129d35750565b635274afe760e01b5f9081526001600160a01b0391909116600452602490fd5b600114156129cc565b7f00000000000000000000000000000000000000000000000000000000000000006001600160a01b03908116911614612a325790565b604051630240bc6b60e21b81526060816004817f00000000000000000000000000000000000000000000000000000000000000006001600160a01b03165afa80156105f0575f915f91612ac7575b50811590811580612abe575b612a965750505090565b612aa191929361273d565b90612aaa570490565b634e487b7160e01b5f52601260045260245ffd5b50801515612a8c565b9150506060813d606011612af8575b81612ae3606093836119bd565b810103126101fe57602081519101515f612a80565b3d9150612ad6565b6040519060205f8184019463095ea7b360e01b865260018060a01b03169485602486015281604486015260448552612b396064866119bd565b84519082855af15f513d82612b8d575b505015612b5557505050565b612733611a24936040519063095ea7b360e01b602083015260248201525f604482015260448152612b876064826119bd565b826129a4565b909150612baa57506001600160a01b0381163b15155b5f80612b49565b600114612ba3565b60405163095ea7b360e01b60208083019182526001600160a01b0385166024840152604480840196909652948252929390925f90612bf16064866119bd565b84519082855af15f513d82612c4c575b505015612c0d57505050565b60405163095ea7b360e01b60208201526001600160a01b0390931660248401525f6044808501919091528352611a249261273390612b876064826119bd565b909150612c6957506001600160a01b0381163b15155b5f80612c01565b600114612c6256","linkReferences":{}},"methodIdentifiers":{"FEE_DENOMINATOR()":"d73792a9","MAX_SLIPPAGE()":"f9759518","MIN_AMOUNT_OUT()":"8b14faf0","addAggregator(bytes32,address,bool,uint256,uint256)":"77345fe9","aggregatorNames(uint256)":"ea5ebd1e","aggregators(bytes32)":"7103353e","authorizedCallers(address)":"536fff6c","burnRate()":"bed99850","cachedRoutes(address,address)":"6aa29949","dailyVolume(address)":"e5b0ea7f","dashPool()":"a8d19020","dashToken()":"88c8ec95","emergencyWithdraw(address,uint256)":"95ccea67","feeCollector()":"c415b95c","getAggregators()":"7ee7f7d1","getAmountOut(address,address,uint256)":"4aa06652","getRouteCache(address,address)":"23f8e341","isAuthorized(address)":"fe9fbb80","lastBlockUsed(bytes32)":"b0b52e35","lastVolumeReset(address)":"83e5529e","maxDailyVolumePerUser()":"fab2f496","mevProtectionDelay()":"f183019b","owner()":"8da5cb5b","paused()":"5c975abb","protocolFee()":"b0e21e8a","renounceOwnership()":"715018a6","routeCacheExpiry()":"7968d4e0","setAuthorizedCaller(address,bool)":"454bbd29","setBurnRate(uint256)":"189d165e","setPaused(bool)":"16c38b3c","setProtocolFee(uint256)":"787dce3d","swapExactTokensForTokens((address,address,uint256,uint256,address,uint256,bytes))":"d5427ce7","swapMultiHop(address[],uint256,uint256,address,uint256)":"800ebd6b","swapViaAggregator(bytes32,(address,address,uint256,uint256,address,uint256,bytes),bytes)":"da6c74cb","tokenPriorityScore(address)":"407ea14a","transferOwnership(address)":"f2fde38b","updateAggregator(bytes32,bool)":"936cf44f","updateLimits(uint256,uint256,uint256)":"36a0f8a5"},"id":97}