{"abi":[{"type":"constructor","inputs":[{"name":"initialOwner","type":"address","internalType":"address"},{"name":"treasury","type":"address","internalType":"address"}],"stateMutability":"nonpayable"},{"type":"function","name":"BRONZE_TIER","inputs":[],"outputs":[{"name":"","type":"uint256","internalType":"uint256"}],"stateMutability":"view"},{"type":"function","name":"CLOCK_MODE","inputs":[],"outputs":[{"name":"","type":"string","internalType":"string"}],"stateMutability":"view"},{"type":"function","name":"DOMAIN_SEPARATOR","inputs":[],"outputs":[{"name":"","type":"bytes32","internalType":"bytes32"}],"stateMutability":"view"},{"type":"function","name":"GOLD_TIER","inputs":[],"outputs":[{"name":"","type":"uint256","internalType":"uint256"}],"stateMutability":"view"},{"type":"function","name":"INITIAL_SUPPLY","inputs":[],"outputs":[{"name":"","type":"uint256","internalType":"uint256"}],"stateMutability":"view"},{"type":"function","name":"MAX_SUPPLY","inputs":[],"outputs":[{"name":"","type":"uint256","internalType":"uint256"}],"stateMutability":"view"},{"type":"function","name":"PLATINUM_TIER","inputs":[],"outputs":[{"name":"","type":"uint256","internalType":"uint256"}],"stateMutability":"view"},{"type":"function","name":"SILVER_TIER","inputs":[],"outputs":[{"name":"","type":"uint256","internalType":"uint256"}],"stateMutability":"view"},{"type":"function","name":"addMinter","inputs":[{"name":"minter","type":"address","internalType":"address"}],"outputs":[],"stateMutability":"nonpayable"},{"type":"function","name":"allowance","inputs":[{"name":"owner","type":"address","internalType":"address"},{"name":"spender","type":"address","internalType":"address"}],"outputs":[{"name":"","type":"uint256","internalType":"uint256"}],"stateMutability":"view"},{"type":"function","name":"approve","inputs":[{"name":"spender","type":"address","internalType":"address"},{"name":"value","type":"uint256","internalType":"uint256"}],"outputs":[{"name":"","type":"bool","internalType":"bool"}],"stateMutability":"nonpayable"},{"type":"function","name":"balanceOf","inputs":[{"name":"account","type":"address","internalType":"address"}],"outputs":[{"name":"","type":"uint256","internalType":"uint256"}],"stateMutability":"view"},{"type":"function","name":"burn","inputs":[{"name":"value","type":"uint256","internalType":"uint256"}],"outputs":[],"stateMutability":"nonpayable"},{"type":"function","name":"burnFees","inputs":[{"name":"amount","type":"uint256","internalType":"uint256"}],"outputs":[],"stateMutability":"nonpayable"},{"type":"function","name":"burnFrom","inputs":[{"name":"account","type":"address","internalType":"address"},{"name":"value","type":"uint256","internalType":"uint256"}],"outputs":[],"stateMutability":"nonpayable"},{"type":"function","name":"burnRate","inputs":[],"outputs":[{"name":"","type":"uint256","internalType":"uint256"}],"stateMutability":"view"},{"type":"function","name":"checkpoints","inputs":[{"name":"account","type":"address","internalType":"address"},{"name":"pos","type":"uint32","internalType":"uint32"}],"outputs":[{"name":"","type":"tuple","internalType":"struct Checkpoints.Checkpoint208","components":[{"name":"_key","type":"uint48","internalType":"uint48"},{"name":"_value","type":"uint208","internalType":"uint208"}]}],"stateMutability":"view"},{"type":"function","name":"clock","inputs":[],"outputs":[{"name":"","type":"uint48","internalType":"uint48"}],"stateMutability":"view"},{"type":"function","name":"decimals","inputs":[],"outputs":[{"name":"","type":"uint8","internalType":"uint8"}],"stateMutability":"view"},{"type":"function","name":"delegate","inputs":[{"name":"delegatee","type":"address","internalType":"address"}],"outputs":[],"stateMutability":"nonpayable"},{"type":"function","name":"delegateBySig","inputs":[{"name":"delegatee","type":"address","internalType":"address"},{"name":"nonce","type":"uint256","internalType":"uint256"},{"name":"expiry","type":"uint256","internalType":"uint256"},{"name":"v","type":"uint8","internalType":"uint8"},{"name":"r","type":"bytes32","internalType":"bytes32"},{"name":"s","type":"bytes32","internalType":"bytes32"}],"outputs":[],"stateMutability":"nonpayable"},{"type":"function","name":"delegates","inputs":[{"name":"account","type":"address","internalType":"address"}],"outputs":[{"name":"","type":"address","internalType":"address"}],"stateMutability":"view"},{"type":"function","name":"eip712Domain","inputs":[],"outputs":[{"name":"fields","type":"bytes1","internalType":"bytes1"},{"name":"name","type":"string","internalType":"string"},{"name":"version","type":"string","internalType":"string"},{"name":"chainId","type":"uint256","internalType":"uint256"},{"name":"verifyingContract","type":"address","internalType":"address"},{"name":"salt","type":"bytes32","internalType":"bytes32"},{"name":"extensions","type":"uint256[]","internalType":"uint256[]"}],"stateMutability":"view"},{"type":"function","name":"getFeeDiscount","inputs":[{"name":"user","type":"address","internalType":"address"}],"outputs":[{"name":"discount","type":"uint256","internalType":"uint256"}],"stateMutability":"view"},{"type":"function","name":"getPastTotalSupply","inputs":[{"name":"timepoint","type":"uint256","internalType":"uint256"}],"outputs":[{"name":"","type":"uint256","internalType":"uint256"}],"stateMutability":"view"},{"type":"function","name":"getPastVotes","inputs":[{"name":"account","type":"address","internalType":"address"},{"name":"timepoint","type":"uint256","internalType":"uint256"}],"outputs":[{"name":"","type":"uint256","internalType":"uint256"}],"stateMutability":"view"},{"type":"function","name":"getStakingTier","inputs":[{"name":"user","type":"address","internalType":"address"}],"outputs":[{"name":"tier","type":"uint8","internalType":"uint8"}],"stateMutability":"view"},{"type":"function","name":"getTokenInfo","inputs":[],"outputs":[{"name":"_totalSupply","type":"uint256","internalType":"uint256"},{"name":"_maxSupply","type":"uint256","internalType":"uint256"},{"name":"_totalStaked","type":"uint256","internalType":"uint256"},{"name":"_totalBurned","type":"uint256","internalType":"uint256"},{"name":"_burnRate","type":"uint256","internalType":"uint256"},{"name":"_stakingEnabled","type":"bool","internalType":"bool"}],"stateMutability":"view"},{"type":"function","name":"getVotes","inputs":[{"name":"account","type":"address","internalType":"address"}],"outputs":[{"name":"","type":"uint256","internalType":"uint256"}],"stateMutability":"view"},{"type":"function","name":"minimumStakingPeriod","inputs":[],"outputs":[{"name":"","type":"uint256","internalType":"uint256"}],"stateMutability":"view"},{"type":"function","name":"mint","inputs":[{"name":"to","type":"address","internalType":"address"},{"name":"amount","type":"uint256","internalType":"uint256"}],"outputs":[],"stateMutability":"nonpayable"},{"type":"function","name":"minters","inputs":[{"name":"","type":"address","internalType":"address"}],"outputs":[{"name":"","type":"bool","internalType":"bool"}],"stateMutability":"view"},{"type":"function","name":"name","inputs":[],"outputs":[{"name":"","type":"string","internalType":"string"}],"stateMutability":"view"},{"type":"function","name":"nonces","inputs":[{"name":"owner","type":"address","internalType":"address"}],"outputs":[{"name":"","type":"uint256","internalType":"uint256"}],"stateMutability":"view"},{"type":"function","name":"numCheckpoints","inputs":[{"name":"account","type":"address","internalType":"address"}],"outputs":[{"name":"","type":"uint32","internalType":"uint32"}],"stateMutability":"view"},{"type":"function","name":"owner","inputs":[],"outputs":[{"name":"","type":"address","internalType":"address"}],"stateMutability":"view"},{"type":"function","name":"pause","inputs":[],"outputs":[],"stateMutability":"nonpayable"},{"type":"function","name":"paused","inputs":[],"outputs":[{"name":"","type":"bool","internalType":"bool"}],"stateMutability":"view"},{"type":"function","name":"permit","inputs":[{"name":"owner","type":"address","internalType":"address"},{"name":"spender","type":"address","internalType":"address"},{"name":"value","type":"uint256","internalType":"uint256"},{"name":"deadline","type":"uint256","internalType":"uint256"},{"name":"v","type":"uint8","internalType":"uint8"},{"name":"r","type":"bytes32","internalType":"bytes32"},{"name":"s","type":"bytes32","internalType":"bytes32"}],"outputs":[],"stateMutability":"nonpayable"},{"type":"function","name":"removeMinter","inputs":[{"name":"minter","type":"address","internalType":"address"}],"outputs":[],"stateMutability":"nonpayable"},{"type":"function","name":"renounceOwnership","inputs":[],"outputs":[],"stateMutability":"nonpayable"},{"type":"function","name":"setBurnRate","inputs":[{"name":"newRate","type":"uint256","internalType":"uint256"}],"outputs":[],"stateMutability":"nonpayable"},{"type":"function","name":"setMinimumStakingPeriod","inputs":[{"name":"period","type":"uint256","internalType":"uint256"}],"outputs":[],"stateMutability":"nonpayable"},{"type":"function","name":"setStakingEnabled","inputs":[{"name":"enabled","type":"bool","internalType":"bool"}],"outputs":[],"stateMutability":"nonpayable"},{"type":"function","name":"stake","inputs":[{"name":"amount","type":"uint256","internalType":"uint256"}],"outputs":[],"stateMutability":"nonpayable"},{"type":"function","name":"stakedBalance","inputs":[{"name":"","type":"address","internalType":"address"}],"outputs":[{"name":"","type":"uint256","internalType":"uint256"}],"stateMutability":"view"},{"type":"function","name":"stakingEnabled","inputs":[],"outputs":[{"name":"","type":"bool","internalType":"bool"}],"stateMutability":"view"},{"type":"function","name":"stakingTimestamp","inputs":[{"name":"","type":"address","internalType":"address"}],"outputs":[{"name":"","type":"uint256","internalType":"uint256"}],"stateMutability":"view"},{"type":"function","name":"symbol","inputs":[],"outputs":[{"name":"","type":"string","internalType":"string"}],"stateMutability":"view"},{"type":"function","name":"totalBurned","inputs":[],"outputs":[{"name":"","type":"uint256","internalType":"uint256"}],"stateMutability":"view"},{"type":"function","name":"totalStaked","inputs":[],"outputs":[{"name":"","type":"uint256","internalType":"uint256"}],"stateMutability":"view"},{"type":"function","name":"totalSupply","inputs":[],"outputs":[{"name":"","type":"uint256","internalType":"uint256"}],"stateMutability":"view"},{"type":"function","name":"transfer","inputs":[{"name":"to","type":"address","internalType":"address"},{"name":"value","type":"uint256","internalType":"uint256"}],"outputs":[{"name":"","type":"bool","internalType":"bool"}],"stateMutability":"nonpayable"},{"type":"function","name":"transferFrom","inputs":[{"name":"from","type":"address","internalType":"address"},{"name":"to","type":"address","internalType":"address"},{"name":"value","type":"uint256","internalType":"uint256"}],"outputs":[{"name":"","type":"bool","internalType":"bool"}],"stateMutability":"nonpayable"},{"type":"function","name":"transferOwnership","inputs":[{"name":"newOwner","type":"address","internalType":"address"}],"outputs":[],"stateMutability":"nonpayable"},{"type":"function","name":"unpause","inputs":[],"outputs":[],"stateMutability":"nonpayable"},{"type":"function","name":"unstake","inputs":[{"name":"amount","type":"uint256","internalType":"uint256"}],"outputs":[],"stateMutability":"nonpayable"},{"type":"event","name":"Approval","inputs":[{"name":"owner","type":"address","indexed":true,"internalType":"address"},{"name":"spender","type":"address","indexed":true,"internalType":"address"},{"name":"value","type":"uint256","indexed":false,"internalType":"uint256"}],"anonymous":false},{"type":"event","name":"BurnRateUpdated","inputs":[{"name":"oldRate","type":"uint256","indexed":false,"internalType":"uint256"},{"name":"newRate","type":"uint256","indexed":false,"internalType":"uint256"}],"anonymous":false},{"type":"event","name":"DelegateChanged","inputs":[{"name":"delegator","type":"address","indexed":true,"internalType":"address"},{"name":"fromDelegate","type":"address","indexed":true,"internalType":"address"},{"name":"toDelegate","type":"address","indexed":true,"internalType":"address"}],"anonymous":false},{"type":"event","name":"DelegateVotesChanged","inputs":[{"name":"delegate","type":"address","indexed":true,"internalType":"address"},{"name":"previousVotes","type":"uint256","indexed":false,"internalType":"uint256"},{"name":"newVotes","type":"uint256","indexed":false,"internalType":"uint256"}],"anonymous":false},{"type":"event","name":"EIP712DomainChanged","inputs":[],"anonymous":false},{"type":"event","name":"MinterAdded","inputs":[{"name":"minter","type":"address","indexed":true,"internalType":"address"}],"anonymous":false},{"type":"event","name":"MinterRemoved","inputs":[{"name":"minter","type":"address","indexed":true,"internalType":"address"}],"anonymous":false},{"type":"event","name":"OwnershipTransferred","inputs":[{"name":"previousOwner","type":"address","indexed":true,"internalType":"address"},{"name":"newOwner","type":"address","indexed":true,"internalType":"address"}],"anonymous":false},{"type":"event","name":"Paused","inputs":[{"name":"account","type":"address","indexed":false,"internalType":"address"}],"anonymous":false},{"type":"event","name":"Staked","inputs":[{"name":"user","type":"address","indexed":true,"internalType":"address"},{"name":"amount","type":"uint256","indexed":false,"internalType":"uint256"},{"name":"timestamp","type":"uint256","indexed":false,"internalType":"uint256"}],"anonymous":false},{"type":"event","name":"StakingStatusChanged","inputs":[{"name":"enabled","type":"bool","indexed":false,"internalType":"bool"}],"anonymous":false},{"type":"event","name":"TokensBurned","inputs":[{"name":"amount","type":"uint256","indexed":false,"internalType":"uint256"},{"name":"burner","type":"address","indexed":true,"internalType":"address"}],"anonymous":false},{"type":"event","name":"Transfer","inputs":[{"name":"from","type":"address","indexed":true,"internalType":"address"},{"name":"to","type":"address","indexed":true,"internalType":"address"},{"name":"value","type":"uint256","indexed":false,"internalType":"uint256"}],"anonymous":false},{"type":"event","name":"Unpaused","inputs":[{"name":"account","type":"address","indexed":false,"internalType":"address"}],"anonymous":false},{"type":"event","name":"Unstaked","inputs":[{"name":"user","type":"address","indexed":true,"internalType":"address"},{"name":"amount","type":"uint256","indexed":false,"internalType":"uint256"},{"name":"timestamp","type":"uint256","indexed":false,"internalType":"uint256"}],"anonymous":false},{"type":"error","name":"CheckpointUnorderedInsertion","inputs":[]},{"type":"error","name":"ECDSAInvalidSignature","inputs":[]},{"type":"error","name":"ECDSAInvalidSignatureLength","inputs":[{"name":"length","type":"uint256","internalType":"uint256"}]},{"type":"error","name":"ECDSAInvalidSignatureS","inputs":[{"name":"s","type":"bytes32","internalType":"bytes32"}]},{"type":"error","name":"ERC20ExceededSafeSupply","inputs":[{"name":"increasedSupply","type":"uint256","internalType":"uint256"},{"name":"cap","type":"uint256","internalType":"uint256"}]},{"type":"error","name":"ERC20InsufficientAllowance","inputs":[{"name":"spender","type":"address","internalType":"address"},{"name":"allowance","type":"uint256","internalType":"uint256"},{"name":"needed","type":"uint256","internalType":"uint256"}]},{"type":"error","name":"ERC20InsufficientBalance","inputs":[{"name":"sender","type":"address","internalType":"address"},{"name":"balance","type":"uint256","internalType":"uint256"},{"name":"needed","type":"uint256","internalType":"uint256"}]},{"type":"error","name":"ERC20InvalidApprover","inputs":[{"name":"approver","type":"address","internalType":"address"}]},{"type":"error","name":"ERC20InvalidReceiver","inputs":[{"name":"receiver","type":"address","internalType":"address"}]},{"type":"error","name":"ERC20InvalidSender","inputs":[{"name":"sender","type":"address","internalType":"address"}]},{"type":"error","name":"ERC20InvalidSpender","inputs":[{"name":"spender","type":"address","internalType":"address"}]},{"type":"error","name":"ERC2612ExpiredSignature","inputs":[{"name":"deadline","type":"uint256","internalType":"uint256"}]},{"type":"error","name":"ERC2612InvalidSigner","inputs":[{"name":"signer","type":"address","internalType":"address"},{"name":"owner","type":"address","internalType":"address"}]},{"type":"error","name":"ERC5805FutureLookup","inputs":[{"name":"timepoint","type":"uint256","internalType":"uint256"},{"name":"clock","type":"uint48","internalType":"uint48"}]},{"type":"error","name":"ERC6372InconsistentClock","inputs":[]},{"type":"error","name":"EnforcedPause","inputs":[]},{"type":"error","name":"ExceedsMaxSupply","inputs":[]},{"type":"error","name":"ExpectedPause","inputs":[]},{"type":"error","name":"InsufficientStakedBalance","inputs":[]},{"type":"error","name":"InvalidAccountNonce","inputs":[{"name":"account","type":"address","internalType":"address"},{"name":"currentNonce","type":"uint256","internalType":"uint256"}]},{"type":"error","name":"InvalidBurnRate","inputs":[]},{"type":"error","name":"InvalidShortString","inputs":[]},{"type":"error","name":"NotAuthorizedMinter","inputs":[]},{"type":"error","name":"OwnableInvalidOwner","inputs":[{"name":"owner","type":"address","internalType":"address"}]},{"type":"error","name":"OwnableUnauthorizedAccount","inputs":[{"name":"account","type":"address","internalType":"address"}]},{"type":"error","name":"ReentrancyGuardReentrantCall","inputs":[]},{"type":"error","name":"SafeCastOverflowedUintDowncast","inputs":[{"name":"bits","type":"uint8","internalType":"uint8"},{"name":"value","type":"uint256","internalType":"uint256"}]},{"type":"error","name":"StakingDisabled","inputs":[]},{"type":"error","name":"StakingPeriodNotMet","inputs":[]},{"type":"error","name":"StringTooLong","inputs":[{"name":"str","type":"string","internalType":"string"}]},{"type":"error","name":"VotesExpiredSignature","inputs":[{"name":"expiry","type":"uint256","internalType":"uint256"}]},{"type":"error","name":"ZeroAmount","inputs":[]}],"bytecode":{"object":"0x6101606040523461009357604061384f803803809161001d826100ab565b61016039126100935761004261003161010b565b61003c610180610122565b9061019b565b60405161299c9081610e73823960805181611ece015260a05181611f8b015260c05181611e98015260e05181611f1d01526101005181611f4301526101205181610ef301526101405181610f1c0152f35b5f80fd5b634e487b7160e01b5f52604160045260245ffd5b610160601f91909101601f19168101906001600160401b038211908210176100d257604052565b610097565b601f909101601f19168101906001600160401b038211908210176100d257604052565b604051906101096040836100d7565b565b61016051906001600160a01b038216820361009357565b51906001600160a01b038216820361009357565b604051906101456040836100d7565b60048252565b6040519061015a6040836100d7565b60018252565b6040519061016f6040836100d7565b601382527f446173682050726f746f636f6c20546f6b656e000000000000000000000000006020830152565b6101a3610160565b6101ab610160565b906101b4610136565b906308882a6960e31b60208301526101ca61014b565b603160f81b60208201908152845190949193916001600160401b0382116100d2576101ff826101fa6003546103c7565b6103ff565b602090601f83116001146103405791806102339261023b95945f92610335575b50508160011b915f199060031b1c19161790565b60035561049e565b610244816106cb565b61012052610251826107c0565b610140526020815191012060e052519020610100524660a0526102726108b2565b6080523060c0526001600160a01b03811691821561032157816102d56102ee9261029e6102fb95610683565b6102a86001600c55565b6102ba600160ff196011541617601155565b6102c662093a80601255565b6102d060c8601455565b610577565b6001600160a01b03165f908152600f6020526040902090565b805460ff19166001179055565b7f6ae172837ea30b801fbfcdd4108aa1d5bf8ff775444fd70256b44e6bf3dfc3f65f80a2565b631e4fbdf760e01b5f90815260045260245ffd5b015190505f8061021f565b60035f52601f19831691907fc2575a0e9e593c00f959f8c92f12db2869c3395a3b0502d05e2516446f71f85b925f5b8181106103af575091600193918561023b97969410610397575b505050811b0160035561049e565b01515f1960f88460031b161c191690555f8080610389565b9293602060018192878601518155019501930161036f565b90600182811c921680156103f5575b60208310146103e157565b634e487b7160e01b5f52602260045260245ffd5b91607f16916103d6565b601f811161040b575050565b60035f5260205f20906020601f840160051c83019310610445575b601f0160051c01905b81811061043a575050565b5f815560010161042f565b9091508190610426565b601f821161045c57505050565b5f5260205f20906020601f840160051c83019310610494575b601f0160051c01905b818110610489575050565b5f815560010161047e565b9091508190610475565b80519091906001600160401b0381116100d2576104c7816104c06004546103c7565b600461044f565b602092601f82116001146104fb576104f6929382915f926103355750508160011b915f199060031b1c19161790565b600455565b60045f52601f198216937f8a35acfbc15ff81a39ae7d344fd709f28e8600b4aa8c65c6b64bfe7fe36bd19b915f5b86811061055f5750836001959610610547575b505050811b01600455565b01515f1960f88460031b161c191690555f808061053c565b91926020600181928685015181550194019201610529565b6001600160a01b03811680156106705760ff600b5460a01c16610661576105b46105af6b033b2e3c9fd0803ce800000060025461098f565b600255565b6001600160a01b0382165f9081526020819052604090206b033b2e3c9fd0803ce800000081540190555f7fddf252ad1be2c89b69c2b068fc378daa952ba7f163c4a11628f55a4df523b3ef6040518061061e6b033b2e3c9fd0803ce8000000829190602083019252565b0390a36002546001600160d01b039081811161064c5750506b033b2e3c9fd0803ce8000000610109916109a1565b630e58ae9360e11b5f5260045260245260445ffd5b63d93c066560e01b5f5260045ffd5b63ec442f0560e01b5f525f60045260245ffd5b600b80546001600160a01b039283166001600160a01b0319821681179092559091167f8be0079c531659141344cd1fd0a4f28419497f9722a3daafe3b4186f6b6457e05f80a3565b908151602081105f146106e65750906106e390610910565b90565b6001600160401b0381116100d25761070a816107036005546103c7565b600561044f565b602092601f821160011461074157610739929382915f926103355750508160011b915f199060031b1c19161790565b60055560ff90565b60055f52601f198216937f036b6384b5eca791c62761152d0c79bb0604c104a5fb6f4eb0703f3154bb3db0915f5b8681106107a85750836001959610610790575b505050811b0160055560ff90565b01515f1960f88460031b161c191690555f8080610782565b9192602060018192868501518155019401920161076f565b908151602081105f146107d85750906106e390610910565b6001600160401b0381116100d2576107fc816107f56006546103c7565b600661044f565b602092601f82116001146108335761082b929382915f926103355750508160011b915f199060031b1c19161790565b60065560ff90565b60065f52601f198216937ff652222313e28459528d920b65115c16c04f3efc82aaedc97be59f3f377c0d3f915f5b86811061089a5750836001959610610882575b505050811b0160065560ff90565b01515f1960f88460031b161c191690555f8080610874565b91926020600181928685015181550194019201610861565b60e051610100516040519060208201927f8b73c3c69bb8fe3d512ecc4cf759cc79239f7b179b0ffacaa9a75d522b39400f8452604083015260608201524660808201523060a082015260a0815261090a60c0826100d7565b51902090565b601f81511161093b57602081519101516020821061092c571790565b5f198260200360031b1b161790565b604460209160405192839163305a27a960e01b83528160048401528051918291826024860152018484015e5f828201840152601f01601f19168101030190fd5b634e487b7160e01b5f52601160045260245ffd5b9190820180921161099c57565b61097b565b906109ab81610aa0565b9165ffffffffffff4311610a8857600a5480610a5257506109e56109d5610109945f5b6001610e16565b65ffffffffffff4316600a610d40565b50506001600160a01b03168015610a3a575b60086020527f5eff886ea0ce6ca488a3d6e336d6c0f75f46d19b42c06ce5ee98e42c96d256c7545f9182526040909120546001600160a01b039081169116610bcf565b610a4b610a4683610aa0565b610ad1565b50506109f7565b92835f1981011161099c57600a5f525f51602061380f5f395f51905f5290930154610109936109e5916109d5919060301c6109ce565b6306dfcc6560e41b5f5260306004524360245260445ffd5b6001600160d01b038111610aba576001600160d01b031690565b6306dfcc6560e41b5f5260d060045260245260445ffd5b65ffffffffffff4311610a8857600a5480610afb57506109d5610af7915f5b6002610e16565b9091565b805f1981011161099c57600a5f525f51602061380f5f395f51905f520154610af7916109d59160301c610af0565b65ffffffffffff4311610a8857805480610b5d5750610b4d610af7925f6002610e16565b9065ffffffffffff431690610d40565b805f1981011161099c575f82815260209020015f190154610af792610b4d9160301c610af0565b65ffffffffffff4311610a8857805480610ba85750610b4d610af7925f6001610e16565b805f1981011161099c575f82815260209020015f190154610af792610b4d9160301c6109ce565b6001600160a01b03808316939291908116908185141580610cc2575b610bf7575b5050505050565b81610c68575b505082610c0c575b8080610bf0565b6001600160a01b03165f9081526009602052604090205f51602061382f5f395f51905f5291610c4591610c3f9091610aa0565b90610b84565b604080516001600160d01b039384168152919092166020820152a25f8080610c05565b6001600160a01b03165f9081526009602052604090205f51602061382f5f395f51905f5290610ca090610c9a86610aa0565b90610b29565b604080516001600160d01b039384168152919092166020820152a25f80610bfd565b50831515610beb565b5f1981019190821161099c57565b908154680100000000000000008110156100d25760018101808455811015610d2c575f9283526020928390208251929093015160301b65ffffffffffff191665ffffffffffff9290921691909117910155565b634e487b7160e01b5f52603260045260245ffd5b80549293928015610dec57610d57610d6291610ccb565b825f5260205f200190565b8054603081901c9365ffffffffffff91821692918116808411610ddd57879303610da95750610da592509065ffffffffffff82549181199060301b169116179055565b9190565b915050610da591610dc9610dbb6100fa565b65ffffffffffff9093168352565b6001600160d01b0386166020830152610cd9565b632520601d60e01b5f5260045ffd5b5090610e1191610dfd610dbb6100fa565b6001600160d01b0385166020830152610cd9565b5f9190565b91909180600114610e5857600214610e3c57634e487b7160e01b5f52605160045260245ffd5b6001600160d01b039081169181169190910390811161099c5790565b506001600160d01b039182169082160190811161099c579056fe60806040526004361015610011575f80fd5b5f3560e01c80630342a6ba146103a457806306fdde031461039f578063095ea7b31461039a57806312aa29211461039557806318160ddd14610390578063189d165e1461038b5780631cfff51b1461038657806323b872dd14610381578063246d95ca1461037c5780632e17de78146103775780632ff2e9dc146103725780633092afd51461036d578063313ce5671461036857806332cb6b0c146103635780633644e5151461035e5780633a46b1a8146103595780633f4ba83a1461035457806340c10f191461034f57806340d1c0f21461034a57806342966c68146103455780634bf5d7e914610340578063587cde1e1461033b57806358f2360e146103365780635c19a95c146103315780635c975abb1461032c57806360217267146103275780636fcfff451461032257806370a082311461031d578063715018a61461031857806379cc6790146103135780637ebed54c1461030e5780637ecebe0014610309578063817b1cd2146103045780638456cb59146102ff57806384b0196e146102fa5780638da5cb5b146102f55780638e539e8c146102f05780638f0794fe146102eb57806391ddadf4146102e6578063926f82c5146102e157806395d89b41146102dc578063983b2d56146102d75780639ab24eb0146102d2578063a694fc3a146102cd578063a8a82fd7146102c8578063a9059cbb146102c3578063abb1dc44146102be578063b7fa7cfc146102b9578063bce8567e146102b4578063bed99850146102af578063c3cda520146102aa578063d505accf146102a5578063d89135cd146102a0578063dd62ed3e1461029b578063f1127ed814610296578063f2fde38b146102915763f46eccc41461028c575f80fd5b6118a9565b611823565b611771565b61171a565b6116fd565b6115d9565b6114ca565b61148d565b61142b565b611408565b6113b2565b61138c565b61135e565b61129a565b611253565b6111eb565b611146565b611122565b6110f7565b6110bf565b611000565b610fd8565b610edb565b610e7a565b610e5d565b610e25565b610e08565b610dd8565b610d7d565b610d45565b610ce3565b610cab565b610c86565b610c64565b610c41565b610c01565b610b71565b610b54565b610b30565b610a18565b6109aa565b6108c5565b6108a3565b61087d565b610862565b6107fd565b6107d7565b6106e1565b6106c0565b610688565b610666565b6105f5565b6105d8565b6105b4565b610583565b61047d565b3461044157602036600319011261044157600435335f908152600f602052604090205460ff1615610432578015610423576103e96103e482601354611908565b601355565b6103f38130611b5d565b60405190815233907f63706707d038997d2210eb026bb1339397deab463921538a81bb98e69ee54ca890602090a2005b631f2a200560e01b5f5260045ffd5b63019a5d1d60e71b5f5260045ffd5b5f80fd5b805180835260209291819084018484015e5f828201840152601f01601f1916010190565b90602061047a928181520190610445565b90565b34610441575f366003190112610441576040515f60035461049d81611915565b808452906001811690811561053357506001146104d5575b6104d1836104c581850382611a03565b60405191829182610469565b0390f35b60035f9081527fc2575a0e9e593c00f959f8c92f12db2869c3395a3b0502d05e2516446f71f85b939250905b808210610519575090915081016020016104c56104b5565b919260018160209254838588010152019101909291610501565b60ff191660208086019190915291151560051b840190910191506104c590506104b5565b600435906001600160a01b038216820361044157565b602435906001600160a01b038216820361044157565b34610441576040366003190112610441576105a961059f610557565b60243590336120e8565b602060405160018152f35b34610441575f36600319011261044157602060405169021e19e0c9bab24000008152f35b34610441575f366003190112610441576020600254604051908152f35b3461044157602036600319011261044157600435610611611ca0565b61138881116106575760148054908290556040805191825260208201929092527f1e82634fb6c2c1adcdab0d277a3b1c270c8ee77953fb82e3bc5146794afe67f29190a1005b634a41f87560e01b5f5260045ffd5b34610441575f36600319011261044157602060ff601154166040519015158152f35b34610441576060366003190112610441576105a96106a4610557565b6106ac61056d565b604435916106bb833383611cc7565b611d95565b34610441576020366003190112610441576004356106dc611ca0565b601255005b34610441576020366003190112610441576004356106fd611e75565b801561042357335f908152600d60205260409020819054106107c857335f908152600e602052604090205460125461073491611908565b42106107b957335f908152600d60205260409020610753828254611a33565b905561076961076482601054611a33565b601055565b610774813330611d95565b6040805191825242602083015233917f7fc4727e062e336010f2c282598ef5f14facb3de68cf8195c2f23e1454b2b74e91819081015b0390a26107b76001600c55565b005b63508bb1f560e01b5f5260045ffd5b6345a5c39960e11b5f5260045ffd5b34610441575f3660031901126104415760206040516b033b2e3c9fd0803ce80000008152f35b3461044157602036600319011261044157610816610557565b61081e611ca0565b6001600160a01b03165f818152600f60205260408120805460ff191690557fe94479a9f7e1952cc78f2d6baab678adc1b772d936c6583def489e524cb666929080a2005b34610441575f36600319011261044157602060405160128152f35b34610441575f3660031901126104415760206040516b204fce5e3e250261100000008152f35b34610441575f3660031901126104415760206108bd611e95565b604051908152f35b34610441576040366003190112610441576108de610557565b6001600160a01b03165f9081526009602052604090206108ff602435611fb1565b8154905f829160058411610952575b610919935084612308565b908161093757505060205f5b6040516001600160d01b039091168152f35b610942602092611a25565b905f52815f20015460301c610925565b919261095d816121aa565b81039081116109a55761091993855f5265ffffffffffff8260205f2001541665ffffffffffff8516105f1461099357509161090e565b92915061099f906118fa565b9061090e565b6118e6565b34610441575f366003190112610441576109c2611ca0565b600b5460ff8160a01c1615610a095760ff60a01b1916600b556040513381527f5db9ee0a495bf2e6ff9c91a7834c1ba4fdd244a5e8aa4e537bd38aeae4b073aa90602090a1005b638dfc202b60e01b5f5260045ffd5b3461044157604036600319011261044157610a31610557565b602435335f52600f60205260ff60405f20541615610432576002548181018091116109a5576b204fce5e3e2502611000000010610b21576001600160a01b0382168015610b0e57610a80612095565b610a94610a8f83600254611908565b600255565b6001600160a01b0383165f90815260208181526040808320805486019055518481527fddf252ad1be2c89b69c2b068fc378daa952ba7f163c4a11628f55a4df523b3ef9190a3600254916001600160d01b03808411610af7576107b7838361277c565b630e58ae9360e11b5f52600484905260245260445ffd5b63ec442f0560e01b5f525f60045260245ffd5b63c30436e960e01b5f5260045ffd5b34610441575f36600319011261044157602060405169152d02c7e14af68000008152f35b34610441576020366003190112610441576107b760043533611b5d565b34610441575f36600319011261044157610b8a4361215d565b65ffffffffffff80610b9b4361215d565b16911603610bf2576104d1604051610bb4604082611a03565b601d81527f6d6f64653d626c6f636b6e756d6265722666726f6d3d64656661756c740000006020820152604051918291602083526020830190610445565b6301bfc1c560e61b5f5260045ffd5b34610441576020366003190112610441576001600160a01b03610c22610557565b165f526008602052602060018060a01b0360405f205416604051908152f35b34610441575f366003190112610441576020604051683635c9adc5dea000008152f35b34610441576020366003190112610441576107b7610c80610557565b33611fea565b34610441575f36600319011261044157602060ff600b5460a01c166040519015158152f35b34610441576020366003190112610441576001600160a01b03610ccc610557565b165f52600d602052602060405f2054604051908152f35b34610441576020366003190112610441576001600160a01b03610d04610557565b165f52600960205260405f205463ffffffff8111610d2e5760405163ffffffff9091168152602090f35b6306dfcc6560e41b5f52602060045260245260445ffd5b346104415760203660031901126104415760206108bd610d63610557565b6001600160a01b03165f9081526020819052604090205490565b34610441575f36600319011261044157610d95611ca0565b600b80546001600160a01b031981169091555f906001600160a01b03167f8be0079c531659141344cd1fd0a4f28419497f9722a3daafe3b4186f6b6457e08280a3005b34610441576040366003190112610441576107b7610df4610557565b60243590610e03823383611cc7565b611b5d565b34610441575f366003190112610441576020601254604051908152f35b34610441576020366003190112610441576001600160a01b03610e46610557565b165f526007602052602060405f2054604051908152f35b34610441575f366003190112610441576020601054604051908152f35b34610441575f36600319011261044157610e92611ca0565b610e9a612095565b600b805460ff60a01b1916600160a01b1790556040513381527f62e78cea01bee320cd4e420270b5ea74000d11b0c9f74754ebdbfc544b05a25890602090a1005b34610441575f36600319011261044157610f7f610f177f000000000000000000000000000000000000000000000000000000000000000061248e565b610f407f00000000000000000000000000000000000000000000000000000000000000006124ee565b6020604051610f4f8282611a03565b5f815281610f8d81830194601f198301368737604051978897600f60f81b895260e0858a015260e0890190610445565b908782036040890152610445565b914660608701523060808701525f60a087015285830360c087015251918281520192915f5b828110610fc157505050500390f35b835185528695509381019392810192600101610fb2565b34610441575f36600319011261044157600b546040516001600160a01b039091168152602090f35b346104415760203660031901126104415761101c600435611fb1565b600a54905f82916005841161106b575b6110389350600a612308565b8061104957506040515f8152602090f35b611066611057602092611a25565b600a5f52825f20015460301c90565b610925565b9192611076816121aa565b81039081116109a55761103893600a5f5265ffffffffffff8260205f2001541665ffffffffffff8516105f146110ad57509161102c565b9291506110b9906118fa565b9061102c565b34610441576020366003190112610441576001600160a01b036110e0610557565b165f52600e602052602060405f2054604051908152f35b34610441575f3660031901126104415760206111124361215d565b65ffffffffffff60405191168152f35b34610441575f36600319011261044157602060405169d3c21bcecceda10000008152f35b34610441575f366003190112610441576040515f60045461116681611915565b8084529060018116908115610533575060011461118d576104d1836104c581850382611a03565b60045f9081527f8a35acfbc15ff81a39ae7d344fd709f28e8600b4aa8c65c6b64bfe7fe36bd19b939250905b8082106111d1575090915081016020016104c56104b5565b9192600181602092548385880101520191019092916111b9565b3461044157602036600319011261044157611204610557565b61120c611ca0565b6001600160a01b03165f818152600f60205260408120805460ff191660011790557f6ae172837ea30b801fbfcdd4108aa1d5bf8ff775444fd70256b44e6bf3dfc3f69080a2005b34610441576020366003190112610441576001600160a01b03611274610557565b165f526009602052602060018060d01b0361129160405f2061206b565b16604051908152f35b34610441576020366003190112610441576004356112b6612095565b6112be611e75565b60115460ff161561134f578015610423576112da813033611d95565b335f908152600d602052604090206112f3828254611908565b9055335f908152600e6020526040902042905561131561076482601054611908565b6040805191825242602083015233917f1449c6dd7851abc30abf37f57715f492010519147cc2652fbc38202c18a6ee9091819081016107aa565b6343e2e81560e11b5f5260045ffd5b3461044157602036600319011261044157602061138161137c610557565b611a51565b60ff60405191168152f35b34610441576040366003190112610441576105a96113a8610557565b6024359033611d95565b34610441575f3660031901126104415760c06002546010546013546014549060ff60115416926040519485526b204fce5e3e250261100000006020860152604085015260608401526080830152151560a0820152f35b346104415760203660031901126104415760206108bd611426610557565b611ac9565b34610441576020366003190112610441576004358015158091036104415760207f8d2382069f9b9c6cbe24a294ec111217f32f20524e7099bc8882d7af51a61e1c91611475611ca0565b60ff196011541660ff821617601155604051908152a1005b34610441575f366003190112610441576020601454604051908152f35b6064359060ff8216820361044157565b6084359060ff8216820361044157565b346104415760c0366003190112610441576114e3610557565b602435906044356114f26114aa565b6084359060a435928042116115c75791611577939161156961156e9460405160208101917fe48329057bfd03d55e49b547132e39cffd9c1820ad7b9d4c5307691425d15adf835260018060a01b038a1660408301528a606083015260808201526080815261156160a082611a03565b5190206120b3565b612525565b909291926125d0565b6001600160a01b0381165f9081526007602052604090208054600181019091558093036115a8576107b79250611fea565b90506301d4b62360e61b5f5260018060a01b031660045260245260445ffd5b632341d78760e11b5f5260045260245ffd5b346104415760e0366003190112610441576115f2610557565b6115fa61056d565b604435906064359261160a6114ba565b60a43560c435908642116116ea576001600160a01b0384165f9081526007602052604090208054600181019091556116af93906116aa909860405160208101917f6e71edae12b1b97f4d1f60370fef10105fa2faae0126114a169c64845d6126c9835260018060a01b0389169b8c604084015260018060a01b038b1660608401528b608084015260a083015260c082015260c0815261156160e082611a03565b6120d9565b936001600160a01b038516036116c9576107b793506120e8565b6325c0072360e11b5f526001600160a01b038085166004521660245260445ffd5b8663313c898160e11b5f5260045260245ffd5b34610441575f366003190112610441576020601354604051908152f35b34610441576040366003190112610441576020611768611738610557565b61174061056d565b6001600160a01b039182165f9081526001855260408082209290931681526020919091522090565b54604051908152f35b346104415760403660031901126104415761178a610557565b6024359063ffffffff82168203610441576104d1916117d9916117ab611b45565b506117b4611b45565b506001600160a01b03165f9081526009602052604090206117d3611b45565b5061264c565b50604051906117e7826119e2565b5465ffffffffffff811680835260309190911c60209283019081526040805192835290516001600160d01b031692820192909252918291820190565b346104415760203660031901126104415761183c610557565b611844611ca0565b6001600160a01b0316801561189657600b80546001600160a01b0319811683179091556001600160a01b03167f8be0079c531659141344cd1fd0a4f28419497f9722a3daafe3b4186f6b6457e05f80a3005b631e4fbdf760e01b5f525f60045260245ffd5b34610441576020366003190112610441576001600160a01b036118ca610557565b165f52600f602052602060ff60405f2054166040519015158152f35b634e487b7160e01b5f52601160045260245ffd5b90600182018092116109a557565b919082018092116109a557565b90600182811c92168015611943575b602083101461192f57565b634e487b7160e01b5f52602260045260245ffd5b91607f1691611924565b5f929181549161195c83611915565b80835292600181169081156119b1575060011461197857505050565b5f9081526020812093945091925b838310611997575060209250010190565b600181602092949394548385870101520191019190611986565b915050602093945060ff929192191683830152151560051b010190565b634e487b7160e01b5f52604160045260245ffd5b6040810190811067ffffffffffffffff8211176119fe57604052565b6119ce565b90601f8019910116810190811067ffffffffffffffff8211176119fe57604052565b5f198101919082116109a557565b919082039182116109a557565b60405190611a4f604083611a03565b565b6001600160a01b03165f908152600d602052604090205469d3c21bcecceda1000000811015611ac35769152d02c7e14af6800000811015611abd5769021e19e0c9bab2400000811015611ab757683635c9adc5dea000001115611ab2575f90565b600190565b50600290565b50600390565b50600490565b6001600160a01b03165f908152600d602052604090205469d3c21bcecceda1000000811015611b3e5769152d02c7e14af6800000811015611b375769021e19e0c9bab2400000811015611b3057683635c9adc5dea000001115611b2a575f90565b6101f490565b506103e890565b506109c490565b5061138890565b60405190611b52826119e2565b5f6020838281520152565b6001600160a01b038116908115611c8d57611b76612095565b6001600160a01b0381165f90815260208190526040902054838110611c685790611bb784611a4f959493039160018060a01b03165f525f60205260405f2090565b5581600254036002555f817fddf252ad1be2c89b69c2b068fc378daa952ba7f163c4a11628f55a4df523b3ef60405180602081018782520390a38015611c50575b611c09611c0483612675565b612747565b50505f908152600860205260408120549080527f5eff886ea0ce6ca488a3d6e336d6c0f75f46d19b42c06ce5ee98e42c96d256c7546001600160a01b03908116911661236c565b611c61611c5c83612675565b612712565b5050611bf8565b63391434e360e21b5f526001600160a01b03909116600452602452604482905260645ffd5b634b637e8f60e11b5f525f60045260245ffd5b600b546001600160a01b03163303611cb457565b63118cdaa760e01b5f523360045260245ffd5b6001600160a01b039081165f81815260016020908152604080832094861683529390529190912091929091545f198110611d02575b50505050565b818110611d74578215611d61576001600160a01b03841615611d4e57611d44925f526001602052039160405f209060018060a01b03165f5260205260405f2090565b555f808080611cfc565b634a1406b160e11b5f525f60045260245ffd5b63e602df0560e01b5f525f60045260245ffd5b83637dc7a0d960e11b5f5260018060a01b031660045260245260445260645ffd5b6001600160a01b038116939291908415611c8d576001600160a01b0382168015610b0e57611dc1612095565b6001600160a01b0382165f9081526020819052604090205495848710611e4f5784611a4f969703611e018460018060a01b03165f525f60205260405f2090565b556001600160a01b0384165f908152602081815260409182902080548801905590518681527fddf252ad1be2c89b69c2b068fc378daa952ba7f163c4a11628f55a4df523b3ef9190a36127f5565b63391434e360e21b5f526001600160a01b0383166004526024879052604485905260645ffd5b6002600c5414611e86576002600c55565b633ee5aeb560e01b5f5260045ffd5b307f00000000000000000000000000000000000000000000000000000000000000006001600160a01b03161480611f88575b15611ef0577f000000000000000000000000000000000000000000000000000000000000000090565b60405160208101907f8b73c3c69bb8fe3d512ecc4cf759cc79239f7b179b0ffacaa9a75d522b39400f82527f000000000000000000000000000000000000000000000000000000000000000060408201527f000000000000000000000000000000000000000000000000000000000000000060608201524660808201523060a082015260a08152611f8260c082611a03565b51902090565b507f00000000000000000000000000000000000000000000000000000000000000004614611ec7565b65ffffffffffff611fc14361215d565b1680821015611fd4575061047a9061215d565b90637669fc0f60e11b5f5260045260245260445ffd5b6001600160a01b038181165f81815260086020526040812080548685166001600160a01b031982168117909255611a4f969416946120659390928691907f3134e8a2e6d97e929a7e54011ea5485d7d196dd5f0ba4d4ef95803e8e3fc257f9080a46001600160a01b03165f9081526020819052604090205490565b9161236c565b805490816120795750505f90565b815f198101116109a5575f525f199060205f2001015460301c90565b60ff600b5460a01c166120a457565b63d93c066560e01b5f5260045ffd5b6042906120be611e95565b906040519161190160f01b8352600283015260228201522090565b9161047a939161156e93612525565b6001600160a01b0316908115611d61576001600160a01b038116928315611d4e57806121507f8c5be1e5ebec7d5bd14f71427d1e84f3dd0314c0f7b2291e5b200ac8c7c3b92593855f52600160205260405f209060018060a01b03165f5260205260405f2090565b55604051908152602090a3565b65ffffffffffff81116121755765ffffffffffff1690565b6306dfcc6560e41b5f52603060045260245260445ffd5b8115612196570490565b634e487b7160e01b5f52601260045260245ffd5b600181111561047a57806001600160801b8210156122cb575b61227161226761225d61225361224961223f61222e6122789760048a600160401b61227d9c10156122be575b6401000000008110156122b1575b620100008110156122a4575b610100811015612297575b601081101561228a575b1015612282575b60030260011c90565b612238818b61218c565b0160011c90565b612238818a61218c565b612238818961218c565b612238818861218c565b612238818761218c565b612238818661218c565b809361218c565b821190565b900390565b60011b612225565b60041c9160021b9161221e565b60081c9160041b91612214565b60101c9160081b91612209565b60201c9160101b916121fd565b60401c9160201b916121ef565b505061227d61227861227161226761225d61225361224961223f61222e6122f28a60801c90565b9850600160401b97506121c39650505050505050565b91905b8382106123185750505090565b9091928083169080841860011c82018092116109a557845f5265ffffffffffff8260205f2001541665ffffffffffff8416105f1461235a5750925b919061230b565b939250612366906118fa565b91612353565b6001600160a01b03808316939291908116908185141580612485575b612394575b5050505050565b81612418575b5050826123a9575b808061238d565b6001600160a01b03165f9081526009602052604090207fdec2bacdd2f05b59de34da9b523dff8be42e5e38e818c82fdb0bae774387a724916123f5916123ef9091612675565b906126de565b604080516001600160d01b039384168152919092166020820152a25f80806123a2565b6001600160a01b03165f9081526009602052604090207fdec2bacdd2f05b59de34da9b523dff8be42e5e38e818c82fdb0bae774387a724906124639061245d86612675565b906126a6565b604080516001600160d01b039384168152919092166020820152a25f8061239a565b50831515612388565b60ff81146124d45760ff811690601f82116124c557604051916124b2604084611a03565b6020808452838101919036833783525290565b632cd44ac360e21b5f5260045ffd5b5060405161047a816124e781600561194d565b0382611a03565b60ff81146125125760ff811690601f82116124c557604051916124b2604084611a03565b5060405161047a816124e781600661194d565b91907f7fffffffffffffffffffffffffffffff5d576e7357a4501ddfe92f46681b20a084116125a7579160209360809260ff5f9560405194855216868401526040830152606082015282805260015afa1561259c575f516001600160a01b0381161561259257905f905f90565b505f906001905f90565b6040513d5f823e3d90fd5b5050505f9160039190565b600411156125bc57565b634e487b7160e01b5f52602160045260245ffd5b6125d9816125b2565b806125e2575050565b6125eb816125b2565b600181036126025763f645eedf60e01b5f5260045ffd5b61260b816125b2565b60028103612626575063fce698f760e01b5f5260045260245ffd5b806126326003926125b2565b1461263a5750565b6335e2f38360e21b5f5260045260245ffd5b8054821015612661575f5260205f2001905f90565b634e487b7160e01b5f52603260045260245ffd5b6001600160d01b03811161268f576001600160d01b031690565b6306dfcc6560e41b5f5260d060045260245260445ffd5b906126b04361215d565b906126ba8361206b565b6001600160d01b0391821690821603919082116109a5576126da926128c6565b9091565b906126e84361215d565b906126f28361206b565b6001600160d01b0391821690821601919082116109a5576126da926128c6565b61271b4361215d565b90612726600a61206b565b6001600160d01b03918216908216019081116109a5576126da91600a6128c6565b6127504361215d565b9061275b600a61206b565b6001600160d01b03918216908216039081116109a5576126da91600a6128c6565b90611a4f9161278d611c5c83612675565b50506001600160a01b031680156127e2575b60086020527f5eff886ea0ce6ca488a3d6e336d6c0f75f46d19b42c06ce5ee98e42c96d256c7545f9182526040909120546001600160a01b03908116911661236c565b6127ee611c0483612675565b505061279f565b611a4f92916001600160a01b03909116908115612858575b6001600160a01b0316908115612845575b5f90815260086020526040808220549282529020546001600160a01b03908116911661236c565b612851611c0484612675565b505061281e565b612864611c5c84612675565b505061280d565b8054600160401b8110156119fe576128889160018201815561264c565b6128b357815160209092015160301b65ffffffffffff191665ffffffffffff92909216919091179055565b634e487b7160e01b5f525f60045260245ffd5b80549293928015612972576128dd6128e891611a25565b825f5260205f200190565b8054603081901c9365ffffffffffff918216929181168084116129635787930361292f575061292b92509065ffffffffffff82549181199060301b169116179055565b9190565b91505061292b9161294f612941611a40565b65ffffffffffff9093168352565b6001600160d01b038616602083015261286b565b632520601d60e01b5f5260045ffd5b509061299791612983612941611a40565b6001600160d01b038516602083015261286b565b5f919056c65a7bb8d6351c1cf70c95a316cc6a92839c986682d98bc35f958f4883f9d2a7dec2bacdd2f05b59de34da9b523dff8be42e5e38e818c82fdb0bae774387a724","linkReferences":{}},"methodIdentifiers":{"BRONZE_TIER()":"58f2360e","CLOCK_MODE()":"4bf5d7e9","DOMAIN_SEPARATOR()":"3644e515","GOLD_TIER()":"40d1c0f2","INITIAL_SUPPLY()":"2ff2e9dc","MAX_SUPPLY()":"32cb6b0c","PLATINUM_TIER()":"926f82c5","SILVER_TIER()":"12aa2921","addMinter(address)":"983b2d56","allowance(address,address)":"dd62ed3e","approve(address,uint256)":"095ea7b3","balanceOf(address)":"70a08231","burn(uint256)":"42966c68","burnFees(uint256)":"0342a6ba","burnFrom(address,uint256)":"79cc6790","burnRate()":"bed99850","checkpoints(address,uint32)":"f1127ed8","clock()":"91ddadf4","decimals()":"313ce567","delegate(address)":"5c19a95c","delegateBySig(address,uint256,uint256,uint8,bytes32,bytes32)":"c3cda520","delegates(address)":"587cde1e","eip712Domain()":"84b0196e","getFeeDiscount(address)":"b7fa7cfc","getPastTotalSupply(uint256)":"8e539e8c","getPastVotes(address,uint256)":"3a46b1a8","getStakingTier(address)":"a8a82fd7","getTokenInfo()":"abb1dc44","getVotes(address)":"9ab24eb0","minimumStakingPeriod()":"7ebed54c","mint(address,uint256)":"40c10f19","minters(address)":"f46eccc4","name()":"06fdde03","nonces(address)":"7ecebe00","numCheckpoints(address)":"6fcfff45","owner()":"8da5cb5b","pause()":"8456cb59","paused()":"5c975abb","permit(address,address,uint256,uint256,uint8,bytes32,bytes32)":"d505accf","removeMinter(address)":"3092afd5","renounceOwnership()":"715018a6","setBurnRate(uint256)":"189d165e","setMinimumStakingPeriod(uint256)":"246d95ca","setStakingEnabled(bool)":"bce8567e","stake(uint256)":"a694fc3a","stakedBalance(address)":"60217267","stakingEnabled()":"1cfff51b","stakingTimestamp(address)":"8f0794fe","symbol()":"95d89b41","totalBurned()":"d89135cd","totalStaked()":"817b1cd2","totalSupply()":"18160ddd","transfer(address,uint256)":"a9059cbb","transferFrom(address,address,uint256)":"23b872dd","transferOwnership(address)":"f2fde38b","unpause()":"3f4ba83a","unstake(uint256)":"2e17de78"},"id":103}