{"abi":[{"type":"constructor","inputs":[{"name":"initialOwner","type":"address","internalType":"address"},{"name":"treasury","type":"address","internalType":"address"}],"stateMutability":"nonpayable"},{"type":"function","name":"BRONZE_TIER","inputs":[],"outputs":[{"name":"","type":"uint256","internalType":"uint256"}],"stateMutability":"view"},{"type":"function","name":"CLOCK_MODE","inputs":[],"outputs":[{"name":"","type":"string","internalType":"string"}],"stateMutability":"view"},{"type":"function","name":"DOMAIN_SEPARATOR","inputs":[],"outputs":[{"name":"","type":"bytes32","internalType":"bytes32"}],"stateMutability":"view"},{"type":"function","name":"GOLD_TIER","inputs":[],"outputs":[{"name":"","type":"uint256","internalType":"uint256"}],"stateMutability":"view"},{"type":"function","name":"INITIAL_SUPPLY","inputs":[],"outputs":[{"name":"","type":"uint256","internalType":"uint256"}],"stateMutability":"view"},{"type":"function","name":"MAX_SUPPLY","inputs":[],"outputs":[{"name":"","type":"uint256","internalType":"uint256"}],"stateMutability":"view"},{"type":"function","name":"PLATINUM_TIER","inputs":[],"outputs":[{"name":"","type":"uint256","internalType":"uint256"}],"stateMutability":"view"},{"type":"function","name":"SILVER_TIER","inputs":[],"outputs":[{"name":"","type":"uint256","internalType":"uint256"}],"stateMutability":"view"},{"type":"function","name":"addMinter","inputs":[{"name":"minter","type":"address","internalType":"address"}],"outputs":[],"stateMutability":"nonpayable"},{"type":"function","name":"allowance","inputs":[{"name":"owner","type":"address","internalType":"address"},{"name":"spender","type":"address","internalType":"address"}],"outputs":[{"name":"","type":"uint256","internalType":"uint256"}],"stateMutability":"view"},{"type":"function","name":"approve","inputs":[{"name":"spender","type":"address","internalType":"address"},{"name":"value","type":"uint256","internalType":"uint256"}],"outputs":[{"name":"","type":"bool","internalType":"bool"}],"stateMutability":"nonpayable"},{"type":"function","name":"balanceOf","inputs":[{"name":"account","type":"address","internalType":"address"}],"outputs":[{"name":"","type":"uint256","internalType":"uint256"}],"stateMutability":"view"},{"type":"function","name":"burn","inputs":[{"name":"value","type":"uint256","internalType":"uint256"}],"outputs":[],"stateMutability":"nonpayable"},{"type":"function","name":"burnFees","inputs":[{"name":"amount","type":"uint256","internalType":"uint256"}],"outputs":[],"stateMutability":"nonpayable"},{"type":"function","name":"burnFrom","inputs":[{"name":"account","type":"address","internalType":"address"},{"name":"value","type":"uint256","internalType":"uint256"}],"outputs":[],"stateMutability":"nonpayable"},{"type":"function","name":"burnRate","inputs":[],"outputs":[{"name":"","type":"uint256","internalType":"uint256"}],"stateMutability":"view"},{"type":"function","name":"checkpoints","inputs":[{"name":"account","type":"address","internalType":"address"},{"name":"pos","type":"uint32","internalType":"uint32"}],"outputs":[{"name":"","type":"tuple","internalType":"struct Checkpoints.Checkpoint208","components":[{"name":"_key","type":"uint48","internalType":"uint48"},{"name":"_value","type":"uint208","internalType":"uint208"}]}],"stateMutability":"view"},{"type":"function","name":"clock","inputs":[],"outputs":[{"name":"","type":"uint48","internalType":"uint48"}],"stateMutability":"view"},{"type":"function","name":"decimals","inputs":[],"outputs":[{"name":"","type":"uint8","internalType":"uint8"}],"stateMutability":"view"},{"type":"function","name":"delegate","inputs":[{"name":"delegatee","type":"address","internalType":"address"}],"outputs":[],"stateMutability":"nonpayable"},{"type":"function","name":"delegateBySig","inputs":[{"name":"delegatee","type":"address","internalType":"address"},{"name":"nonce","type":"uint256","internalType":"uint256"},{"name":"expiry","type":"uint256","internalType":"uint256"},{"name":"v","type":"uint8","internalType":"uint8"},{"name":"r","type":"bytes32","internalType":"bytes32"},{"name":"s","type":"bytes32","internalType":"bytes32"}],"outputs":[],"stateMutability":"nonpayable"},{"type":"function","name":"delegates","inputs":[{"name":"account","type":"address","internalType":"address"}],"outputs":[{"name":"","type":"address","internalType":"address"}],"stateMutability":"view"},{"type":"function","name":"eip712Domain","inputs":[],"outputs":[{"name":"fields","type":"bytes1","internalType":"bytes1"},{"name":"name","type":"string","internalType":"string"},{"name":"version","type":"string","internalType":"string"},{"name":"chainId","type":"uint256","internalType":"uint256"},{"name":"verifyingContract","type":"address","internalType":"address"},{"name":"salt","type":"bytes32","internalType":"bytes32"},{"name":"extensions","type":"uint256[]","internalType":"uint256[]"}],"stateMutability":"view"},{"type":"function","name":"getFeeDiscount","inputs":[{"name":"user","type":"address","internalType":"address"}],"outputs":[{"name":"discount","type":"uint256","internalType":"uint256"}],"stateMutability":"view"},{"type":"function","name":"getPastTotalSupply","inputs":[{"name":"timepoint","type":"uint256","internalType":"uint256"}],"outputs":[{"name":"","type":"uint256","internalType":"uint256"}],"stateMutability":"view"},{"type":"function","name":"getPastVotes","inputs":[{"name":"account","type":"address","internalType":"address"},{"name":"timepoint","type":"uint256","internalType":"uint256"}],"outputs":[{"name":"","type":"uint256","internalType":"uint256"}],"stateMutability":"view"},{"type":"function","name":"getStakingTier","inputs":[{"name":"user","type":"address","internalType":"address"}],"outputs":[{"name":"tier","type":"uint8","internalType":"uint8"}],"stateMutability":"view"},{"type":"function","name":"getTokenInfo","inputs":[],"outputs":[{"name":"_totalSupply","type":"uint256","internalType":"uint256"},{"name":"_maxSupply","type":"uint256","internalType":"uint256"},{"name":"_totalStaked","type":"uint256","internalType":"uint256"},{"name":"_totalBurned","type":"uint256","internalType":"uint256"},{"name":"_burnRate","type":"uint256","internalType":"uint256"},{"name":"_stakingEnabled","type":"bool","internalType":"bool"}],"stateMutability":"view"},{"type":"function","name":"getVotes","inputs":[{"name":"account","type":"address","internalType":"address"}],"outputs":[{"name":"","type":"uint256","internalType":"uint256"}],"stateMutability":"view"},{"type":"function","name":"minimumStakingPeriod","inputs":[],"outputs":[{"name":"","type":"uint256","internalType":"uint256"}],"stateMutability":"view"},{"type":"function","name":"mint","inputs":[{"name":"to","type":"address","internalType":"address"},{"name":"amount","type":"uint256","internalType":"uint256"}],"outputs":[],"stateMutability":"nonpayable"},{"type":"function","name":"minters","inputs":[{"name":"","type":"address","internalType":"address"}],"outputs":[{"name":"","type":"bool","internalType":"bool"}],"stateMutability":"view"},{"type":"function","name":"name","inputs":[],"outputs":[{"name":"","type":"string","internalType":"string"}],"stateMutability":"view"},{"type":"function","name":"nonces","inputs":[{"name":"owner","type":"address","internalType":"address"}],"outputs":[{"name":"","type":"uint256","internalType":"uint256"}],"stateMutability":"view"},{"type":"function","name":"numCheckpoints","inputs":[{"name":"account","type":"address","internalType":"address"}],"outputs":[{"name":"","type":"uint32","internalType":"uint32"}],"stateMutability":"view"},{"type":"function","name":"owner","inputs":[],"outputs":[{"name":"","type":"address","internalType":"address"}],"stateMutability":"view"},{"type":"function","name":"pause","inputs":[],"outputs":[],"stateMutability":"nonpayable"},{"type":"function","name":"paused","inputs":[],"outputs":[{"name":"","type":"bool","internalType":"bool"}],"stateMutability":"view"},{"type":"function","name":"permit","inputs":[{"name":"owner","type":"address","internalType":"address"},{"name":"spender","type":"address","internalType":"address"},{"name":"value","type":"uint256","internalType":"uint256"},{"name":"deadline","type":"uint256","internalType":"uint256"},{"name":"v","type":"uint8","internalType":"uint8"},{"name":"r","type":"bytes32","internalType":"bytes32"},{"name":"s","type":"bytes32","internalType":"bytes32"}],"outputs":[],"stateMutability":"nonpayable"},{"type":"function","name":"removeMinter","inputs":[{"name":"minter","type":"address","internalType":"address"}],"outputs":[],"stateMutability":"nonpayable"},{"type":"function","name":"renounceOwnership","inputs":[],"outputs":[],"stateMutability":"nonpayable"},{"type":"function","name":"setBurnRate","inputs":[{"name":"newRate","type":"uint256","internalType":"uint256"}],"outputs":[],"stateMutability":"nonpayable"},{"type":"function","name":"setMinimumStakingPeriod","inputs":[{"name":"period","type":"uint256","internalType":"uint256"}],"outputs":[],"stateMutability":"nonpayable"},{"type":"function","name":"setStakingEnabled","inputs":[{"name":"enabled","type":"bool","internalType":"bool"}],"outputs":[],"stateMutability":"nonpayable"},{"type":"function","name":"stake","inputs":[{"name":"amount","type":"uint256","internalType":"uint256"}],"outputs":[],"stateMutability":"nonpayable"},{"type":"function","name":"stakedBalance","inputs":[{"name":"","type":"address","internalType":"address"}],"outputs":[{"name":"","type":"uint256","internalType":"uint256"}],"stateMutability":"view"},{"type":"function","name":"stakingEnabled","inputs":[],"outputs":[{"name":"","type":"bool","internalType":"bool"}],"stateMutability":"view"},{"type":"function","name":"stakingTimestamp","inputs":[{"name":"","type":"address","internalType":"address"}],"outputs":[{"name":"","type":"uint256","internalType":"uint256"}],"stateMutability":"view"},{"type":"function","name":"symbol","inputs":[],"outputs":[{"name":"","type":"string","internalType":"string"}],"stateMutability":"view"},{"type":"function","name":"totalBurned","inputs":[],"outputs":[{"name":"","type":"uint256","internalType":"uint256"}],"stateMutability":"view"},{"type":"function","name":"totalStaked","inputs":[],"outputs":[{"name":"","type":"uint256","internalType":"uint256"}],"stateMutability":"view"},{"type":"function","name":"totalSupply","inputs":[],"outputs":[{"name":"","type":"uint256","internalType":"uint256"}],"stateMutability":"view"},{"type":"function","name":"transfer","inputs":[{"name":"to","type":"address","internalType":"address"},{"name":"value","type":"uint256","internalType":"uint256"}],"outputs":[{"name":"","type":"bool","internalType":"bool"}],"stateMutability":"nonpayable"},{"type":"function","name":"transferFrom","inputs":[{"name":"from","type":"address","internalType":"address"},{"name":"to","type":"address","internalType":"address"},{"name":"value","type":"uint256","internalType":"uint256"}],"outputs":[{"name":"","type":"bool","internalType":"bool"}],"stateMutability":"nonpayable"},{"type":"function","name":"transferOwnership","inputs":[{"name":"newOwner","type":"address","internalType":"address"}],"outputs":[],"stateMutability":"nonpayable"},{"type":"function","name":"unpause","inputs":[],"outputs":[],"stateMutability":"nonpayable"},{"type":"function","name":"unstake","inputs":[{"name":"amount","type":"uint256","internalType":"uint256"}],"outputs":[],"stateMutability":"nonpayable"},{"type":"event","name":"Approval","inputs":[{"name":"owner","type":"address","indexed":true,"internalType":"address"},{"name":"spender","type":"address","indexed":true,"internalType":"address"},{"name":"value","type":"uint256","indexed":false,"internalType":"uint256"}],"anonymous":false},{"type":"event","name":"BurnRateUpdated","inputs":[{"name":"oldRate","type":"uint256","indexed":false,"internalType":"uint256"},{"name":"newRate","type":"uint256","indexed":false,"internalType":"uint256"}],"anonymous":false},{"type":"event","name":"DelegateChanged","inputs":[{"name":"delegator","type":"address","indexed":true,"internalType":"address"},{"name":"fromDelegate","type":"address","indexed":true,"internalType":"address"},{"name":"toDelegate","type":"address","indexed":true,"internalType":"address"}],"anonymous":false},{"type":"event","name":"DelegateVotesChanged","inputs":[{"name":"delegate","type":"address","indexed":true,"internalType":"address"},{"name":"previousVotes","type":"uint256","indexed":false,"internalType":"uint256"},{"name":"newVotes","type":"uint256","indexed":false,"internalType":"uint256"}],"anonymous":false},{"type":"event","name":"EIP712DomainChanged","inputs":[],"anonymous":false},{"type":"event","name":"MinterAdded","inputs":[{"name":"minter","type":"address","indexed":true,"internalType":"address"}],"anonymous":false},{"type":"event","name":"MinterRemoved","inputs":[{"name":"minter","type":"address","indexed":true,"internalType":"address"}],"anonymous":false},{"type":"event","name":"OwnershipTransferred","inputs":[{"name":"previousOwner","type":"address","indexed":true,"internalType":"address"},{"name":"newOwner","type":"address","indexed":true,"internalType":"address"}],"anonymous":false},{"type":"event","name":"Paused","inputs":[{"name":"account","type":"address","indexed":false,"internalType":"address"}],"anonymous":false},{"type":"event","name":"Staked","inputs":[{"name":"user","type":"address","indexed":true,"internalType":"address"},{"name":"amount","type":"uint256","indexed":false,"internalType":"uint256"},{"name":"timestamp","type":"uint256","indexed":false,"internalType":"uint256"}],"anonymous":false},{"type":"event","name":"StakingStatusChanged","inputs":[{"name":"enabled","type":"bool","indexed":false,"internalType":"bool"}],"anonymous":false},{"type":"event","name":"TokensBurned","inputs":[{"name":"amount","type":"uint256","indexed":false,"internalType":"uint256"},{"name":"burner","type":"address","indexed":true,"internalType":"address"}],"anonymous":false},{"type":"event","name":"Transfer","inputs":[{"name":"from","type":"address","indexed":true,"internalType":"address"},{"name":"to","type":"address","indexed":true,"internalType":"address"},{"name":"value","type":"uint256","indexed":false,"internalType":"uint256"}],"anonymous":false},{"type":"event","name":"Unpaused","inputs":[{"name":"account","type":"address","indexed":false,"internalType":"address"}],"anonymous":false},{"type":"event","name":"Unstaked","inputs":[{"name":"user","type":"address","indexed":true,"internalType":"address"},{"name":"amount","type":"uint256","indexed":false,"internalType":"uint256"},{"name":"timestamp","type":"uint256","indexed":false,"internalType":"uint256"}],"anonymous":false},{"type":"error","name":"CheckpointUnorderedInsertion","inputs":[]},{"type":"error","name":"ECDSAInvalidSignature","inputs":[]},{"type":"error","name":"ECDSAInvalidSignatureLength","inputs":[{"name":"length","type":"uint256","internalType":"uint256"}]},{"type":"error","name":"ECDSAInvalidSignatureS","inputs":[{"name":"s","type":"bytes32","internalType":"bytes32"}]},{"type":"error","name":"ERC20ExceededSafeSupply","inputs":[{"name":"increasedSupply","type":"uint256","internalType":"uint256"},{"name":"cap","type":"uint256","internalType":"uint256"}]},{"type":"error","name":"ERC20InsufficientAllowance","inputs":[{"name":"spender","type":"address","internalType":"address"},{"name":"allowance","type":"uint256","internalType":"uint256"},{"name":"needed","type":"uint256","internalType":"uint256"}]},{"type":"error","name":"ERC20InsufficientBalance","inputs":[{"name":"sender","type":"address","internalType":"address"},{"name":"balance","type":"uint256","internalType":"uint256"},{"name":"needed","type":"uint256","internalType":"uint256"}]},{"type":"error","name":"ERC20InvalidApprover","inputs":[{"name":"approver","type":"address","internalType":"address"}]},{"type":"error","name":"ERC20InvalidReceiver","inputs":[{"name":"receiver","type":"address","internalType":"address"}]},{"type":"error","name":"ERC20InvalidSender","inputs":[{"name":"sender","type":"address","internalType":"address"}]},{"type":"error","name":"ERC20InvalidSpender","inputs":[{"name":"spender","type":"address","internalType":"address"}]},{"type":"error","name":"ERC2612ExpiredSignature","inputs":[{"name":"deadline","type":"uint256","internalType":"uint256"}]},{"type":"error","name":"ERC2612InvalidSigner","inputs":[{"name":"signer","type":"address","internalType":"address"},{"name":"owner","type":"address","internalType":"address"}]},{"type":"error","name":"ERC5805FutureLookup","inputs":[{"name":"timepoint","type":"uint256","internalType":"uint256"},{"name":"clock","type":"uint48","internalType":"uint48"}]},{"type":"error","name":"ERC6372InconsistentClock","inputs":[]},{"type":"error","name":"EnforcedPause","inputs":[]},{"type":"error","name":"ExceedsMaxSupply","inputs":[]},{"type":"error","name":"ExpectedPause","inputs":[]},{"type":"error","name":"InsufficientStakedBalance","inputs":[]},{"type":"error","name":"InvalidAccountNonce","inputs":[{"name":"account","type":"address","internalType":"address"},{"name":"currentNonce","type":"uint256","internalType":"uint256"}]},{"type":"error","name":"InvalidBurnRate","inputs":[]},{"type":"error","name":"InvalidShortString","inputs":[]},{"type":"error","name":"NotAuthorizedMinter","inputs":[]},{"type":"error","name":"OwnableInvalidOwner","inputs":[{"name":"owner","type":"address","internalType":"address"}]},{"type":"error","name":"OwnableUnauthorizedAccount","inputs":[{"name":"account","type":"address","internalType":"address"}]},{"type":"error","name":"ReentrancyGuardReentrantCall","inputs":[]},{"type":"error","name":"SafeCastOverflowedUintDowncast","inputs":[{"name":"bits","type":"uint8","internalType":"uint8"},{"name":"value","type":"uint256","internalType":"uint256"}]},{"type":"error","name":"StakingDisabled","inputs":[]},{"type":"error","name":"StakingPeriodNotMet","inputs":[]},{"type":"error","name":"StringTooLong","inputs":[{"name":"str","type":"string","internalType":"string"}]},{"type":"error","name":"VotesExpiredSignature","inputs":[{"name":"expiry","type":"uint256","internalType":"uint256"}]},{"type":"error","name":"ZeroAmount","inputs":[]}],"bytecode":{"object":"0x6101606040526011805460ff1916600117905562093a8060125560c8601455348015610029575f5ffd5b5060405161362038038061362083398101604081905261004891610991565b81604051806040016040528060138152602001722230b9b410283937ba37b1b7b6102a37b5b2b760691b81525080604051806040016040528060018152602001603160f81b815250604051806040016040528060138152602001722230b9b410283937ba37b1b7b6102a37b5b2b760691b8152506040518060400160405280600481526020016308882a6960e31b81525081600390816100e89190610a59565b5060046100f58282610a59565b506101059150839050600561024c565b6101205261011481600661024c565b61014052815160208084019190912060e052815190820120610100524660a0526101a060e05161010051604080517f8b73c3c69bb8fe3d512ecc4cf759cc79239f7b179b0ffacaa9a75d522b39400f60208201529081019290925260608201524660808201523060a08201525f9060c00160405160208183030381529060405280519060200120905090565b60805250503060c052506001600160a01b0381166101d857604051631e4fbdf760e01b81525f60048201526024015b60405180910390fd5b6101e18161027e565b506001600c556101fd816b033b2e3c9fd0803ce80000006102cf565b6001600160a01b0382165f818152600f6020526040808220805460ff19166001179055517f6ae172837ea30b801fbfcdd4108aa1d5bf8ff775444fd70256b44e6bf3dfc3f69190a25050610be3565b5f6020835110156102675761026083610307565b9050610278565b816102728482610a59565b5060ff90505b92915050565b600b80546001600160a01b038381166001600160a01b0319831681179093556040519116919082907f8be0079c531659141344cd1fd0a4f28419497f9722a3daafe3b4186f6b6457e0905f90a35050565b6001600160a01b0382166102f85760405163ec442f0560e01b81525f60048201526024016101cf565b6103035f8383610344565b5050565b5f5f829050601f81511115610331578260405163305a27a960e01b81526004016101cf9190610b13565b805161033c82610b48565b179392505050565b61034c61035c565b61035783838361038f565b505050565b61036f600b54600160a01b900460ff1690565b1561038d5760405163d93c066560e01b815260040160405180910390fd5b565b61039a8383836103f5565b6001600160a01b0383166103ea575f6103b260025490565b90506001600160d01b03808211156103e757604051630e58ae9360e11b815260048101839052602481018290526044016101cf565b50505b61035783838361051b565b6001600160a01b03831661041f578060025f8282546104149190610b7f565b9091555061048f9050565b6001600160a01b0383165f90815260208190526040902054818110156104715760405163391434e360e21b81526001600160a01b038516600482015260248101829052604481018390526064016101cf565b6001600160a01b0384165f9081526020819052604090209082900390555b6001600160a01b0382166104ab576002805482900390556104c9565b6001600160a01b0382165f9081526020819052604090208054820190555b816001600160a01b0316836001600160a01b03167fddf252ad1be2c89b69c2b068fc378daa952ba7f163c4a11628f55a4df523b3ef8360405161050e91815260200190565b60405180910390a3505050565b6001600160a01b03831661054957610546600a61133d6105a360201b17610541846105b5565b6105ec565b50505b6001600160a01b0382166105725761056f600a61134861062160201b17610541846105b5565b50505b6001600160a01b038381165f908152600860205260408082205485841683529120546103579291821691168361062c565b5f6105ae8284610b92565b9392505050565b5f6001600160d01b038211156105e8576040516306dfcc6560e41b815260d06004820152602481018390526044016101cf565b5090565b5f806106146105f961077c565b61060c6106058861078a565b868860201c565b8791906107d1565b915091505b935093915050565b5f6105ae8284610bb1565b816001600160a01b0316836001600160a01b03161415801561064d57505f81115b15610357576001600160a01b038316156106e5576001600160a01b0383165f908152600960209081526040822082916106939190610621901b61134817610541866105b5565b6001600160d01b031691506001600160d01b03169150846001600160a01b03165f5160206136005f395f51905f5283836040516106da929190918252602082015260400190565b60405180910390a250505b6001600160a01b03821615610357576001600160a01b0382165f9081526009602090815260408220829161072691906105a3901b61133d17610541866105b5565b6001600160d01b031691506001600160d01b03169150836001600160a01b03165f5160206136005f395f51905f52838360405161076d929190918252602082015260400190565b60405180910390a25050505050565b5f6107856107de565b905090565b80545f9080156107c9576107b0836107a3600184610bd0565b5f91825260209091200190565b54660100000000000090046001600160d01b03166105ae565b5f9392505050565b5f806106148585856107e8565b5f61078543610944565b82545f90819080156108e7575f610804876107a3600185610bd0565b805490915065ffffffffffff80821691660100000000000090046001600160d01b031690881682111561084a57604051632520601d60e01b815260040160405180910390fd5b8765ffffffffffff168265ffffffffffff160361088657825465ffffffffffff1666010000000000006001600160d01b038916021783556108d9565b6040805180820190915265ffffffffffff808a1682526001600160d01b03808a1660208085019182528d54600181018f555f8f815291909120945191519092166601000000000000029216919091179101555b945085935061061992505050565b50506040805180820190915265ffffffffffff80851682526001600160d01b0380851660208085019182528854600181018a555f8a8152918220955192519093166601000000000000029190931617920191909155905081610619565b5f65ffffffffffff8211156105e8576040516306dfcc6560e41b815260306004820152602481018390526044016101cf565b80516001600160a01b038116811461098c575f5ffd5b919050565b5f5f604083850312156109a2575f5ffd5b6109ab83610976565b91506109b960208401610976565b90509250929050565b634e487b7160e01b5f52604160045260245ffd5b600181811c908216806109ea57607f821691505b602082108103610a0857634e487b7160e01b5f52602260045260245ffd5b50919050565b601f82111561035757805f5260205f20601f840160051c81016020851015610a335750805b601f840160051c820191505b81811015610a52575f8155600101610a3f565b5050505050565b81516001600160401b03811115610a7257610a726109c2565b610a8681610a8084546109d6565b84610a0e565b6020601f821160018114610ab8575f8315610aa15750848201515b5f19600385901b1c1916600184901b178455610a52565b5f84815260208120601f198516915b82811015610ae75787850151825560209485019460019092019101610ac7565b5084821015610b0457868401515f19600387901b60f8161c191681555b50505050600190811b01905550565b602081525f82518060208401528060208501604085015e5f604082850101526040601f19601f83011684010191505092915050565b80516020808301519190811015610a08575f1960209190910360031b1b16919050565b634e487b7160e01b5f52601160045260245ffd5b8082018082111561027857610278610b6b565b6001600160d01b03818116838216019081111561027857610278610b6b565b6001600160d01b03828116828216039081111561027857610278610b6b565b8181038181111561027857610278610b6b565b60805160a05160c05160e0516101005161012051610140516129cc610c345f395f6118fa01525f6118cd01525f6115a201525f61157a01525f6114d501525f6114ff01525f61152901526129cc5ff3fe608060405234801561000f575f5ffd5b5060043610610372575f3560e01c8063715018a6116101d45780639ab24eb011610109578063bed99850116100a9578063dd62ed3e11610079578063dd62ed3e146107b5578063f1127ed8146107ed578063f2fde38b1461082c578063f46eccc41461083f575f5ffd5b8063bed998501461077d578063c3cda52014610786578063d505accf14610799578063d89135cd146107ac575f5ffd5b8063a9059cbb116100e4578063a9059cbb1461070d578063abb1dc4414610720578063b7fa7cfc14610757578063bce8567e1461076a575f5ffd5b80639ab24eb0146106d4578063a694fc3a146106e7578063a8a82fd7146106fa575f5ffd5b80638da5cb5b1161017457806391ddadf41161014f57806391ddadf414610689578063926f82c5146106a857806395d89b41146106b9578063983b2d56146106c1575f5ffd5b80638da5cb5b146106465780638e539e8c146106575780638f0794fe1461066a575f5ffd5b80637ecebe00116101af5780637ecebe0014610607578063817b1cd21461061a5780638456cb591461062357806384b0196e1461062b575f5ffd5b8063715018a6146105e357806379cc6790146105eb5780637ebed54c146105fe575f5ffd5b80633644e515116102aa578063587cde1e1161024a5780635c975abb116102255780635c975abb1461056257806360217267146105745780636fcfff451461059357806370a08231146105bb575f5ffd5b8063587cde1e146104fc57806358f2360e1461053f5780635c19a95c1461054f575f5ffd5b806340c10f191161028557806340c10f19146104bd57806340d1c0f2146104d057806342966c68146104e15780634bf5d7e9146104f4575f5ffd5b80633644e5151461049a5780633a46b1a8146104a25780633f4ba83a146104b5575f5ffd5b806323b872dd116103155780632ff2e9dc116102f05780632ff2e9dc1461044c5780633092afd51461045f578063313ce5671461047257806332cb6b0c14610487575f5ffd5b806323b872dd14610413578063246d95ca146104265780632e17de7814610439575f5ffd5b806312aa29211161035057806312aa2921146103cc57806318160ddd146103eb578063189d165e146103f35780631cfff51b14610406575f5ffd5b80630342a6ba1461037657806306fdde031461038b578063095ea7b3146103a9575b5f5ffd5b6103896103843660046125e7565b610861565b005b610393610909565b6040516103a0919061262c565b60405180910390f35b6103bc6103b7366004612659565b610999565b60405190151581526020016103a0565b6103dd69021e19e0c9bab240000081565b6040519081526020016103a0565b6002546103dd565b6103896104013660046125e7565b6109b2565b6011546103bc9060ff1681565b6103bc610421366004612681565b610a22565b6103896104343660046125e7565b610a45565b6103896104473660046125e7565b610a52565b6103dd6b033b2e3c9fd0803ce800000081565b61038961046d3660046126bb565b610b74565b60125b60405160ff90911681526020016103a0565b6103dd6b204fce5e3e2502611000000081565b6103dd610bc4565b6103dd6104b0366004612659565b610bd2565b610389610c0c565b6103896104cb366004612659565b610c1e565b6103dd69152d02c7e14af680000081565b6103896104ef3660046125e7565b610c9b565b610393610ca5565b61052761050a3660046126bb565b6001600160a01b039081165f908152600860205260409020541690565b6040516001600160a01b0390911681526020016103a0565b6103dd683635c9adc5dea0000081565b61038961055d3660046126bb565b610d1d565b600b54600160a01b900460ff166103bc565b6103dd6105823660046126bb565b600d6020525f908152604090205481565b6105a66105a13660046126bb565b610d28565b60405163ffffffff90911681526020016103a0565b6103dd6105c93660046126bb565b6001600160a01b03165f9081526020819052604090205490565b610389610d32565b6103896105f9366004612659565b610d43565b6103dd60125481565b6103dd6106153660046126bb565b610d58565b6103dd60105481565b610389610d62565b610633610d72565b6040516103a097969594939291906126d4565b600b546001600160a01b0316610527565b6103dd6106653660046125e7565b610db4565b6103dd6106783660046126bb565b600e6020525f908152604090205481565b610691610dd8565b60405165ffffffffffff90911681526020016103a0565b6103dd69d3c21bcecceda100000081565b610393610de1565b6103896106cf3660046126bb565b610df0565b6103dd6106e23660046126bb565b610e43565b6103896106f53660046125e7565b610e63565b6104756107083660046126bb565b610f43565b6103bc61071b366004612659565b610fca565b610728610fd7565b6040805196875260208701959095529385019290925260608401526080830152151560a082015260c0016103a0565b6103dd6107653660046126bb565b611016565b61038961077836600461276a565b611099565b6103dd60145481565b610389610794366004612799565b6110e8565b6103896107a73660046127ed565b6111a9565b6103dd60135481565b6103dd6107c3366004612853565b6001600160a01b039182165f90815260016020908152604080832093909416825291909152205490565b6108006107fb366004612884565b6112df565b60408051825165ffffffffffff1681526020928301516001600160d01b031692810192909252016103a0565b61038961083a3660046126bb565b611303565b6103bc61084d3660046126bb565b600f6020525f908152604090205460ff1681565b335f908152600f602052604090205460ff166108905760405163019a5d1d60e71b815260040160405180910390fd5b805f036108b057604051631f2a200560e01b815260040160405180910390fd5b8060135f8282546108c191906128d5565b909155506108d190503082611353565b60405181815233907f63706707d038997d2210eb026bb1339397deab463921538a81bb98e69ee54ca89060200160405180910390a250565b606060038054610918906128e8565b80601f0160208091040260200160405190810160405280929190818152602001828054610944906128e8565b801561098f5780601f106109665761010080835404028352916020019161098f565b820191905f5260205f20905b81548152906001019060200180831161097257829003601f168201915b5050505050905090565b5f336109a6818585611387565b60019150505b92915050565b6109ba611399565b6113888111156109dd57604051634a41f87560e01b815260040160405180910390fd5b601480549082905560408051828152602081018490527f1e82634fb6c2c1adcdab0d277a3b1c270c8ee77953fb82e3bc5146794afe67f2910160405180910390a15050565b5f33610a2f8582856113c6565b610a3a858585611442565b506001949350505050565b610a4d611399565b601255565b610a5a61149f565b805f03610a7a57604051631f2a200560e01b815260040160405180910390fd5b335f908152600d6020526040902054811115610aa9576040516345a5c39960e11b815260040160405180910390fd5b601254335f908152600e6020526040902054610ac591906128d5565b421015610ae55760405163508bb1f560e01b815260040160405180910390fd5b335f908152600d602052604081208054839290610b03908490612920565b925050819055508060105f828254610b1b9190612920565b90915550610b2c9050303383611442565b6040805182815242602082015233917f7fc4727e062e336010f2c282598ef5f14facb3de68cf8195c2f23e1454b2b74e91015b60405180910390a2610b716001600c55565b50565b610b7c611399565b6001600160a01b0381165f818152600f6020526040808220805460ff19169055517fe94479a9f7e1952cc78f2d6baab678adc1b772d936c6583def489e524cb666929190a250565b5f610bcd6114c9565b905090565b5f610bfc610bdf836115f2565b6001600160a01b0385165f90815260096020526040902090611640565b6001600160d01b03169392505050565b610c14611399565b610c1c6116f0565b565b335f908152600f602052604090205460ff16610c4d5760405163019a5d1d60e71b815260040160405180910390fd5b6b204fce5e3e2502611000000081610c6460025490565b610c6e91906128d5565b1115610c8d5760405163c30436e960e01b815260040160405180910390fd5b610c978282611745565b5050565b610b713382611353565b6060610caf611779565b65ffffffffffff16610cbf610dd8565b65ffffffffffff1614610ce5576040516301bfc1c560e61b815260040160405180910390fd5b5060408051808201909152601d81527f6d6f64653d626c6f636b6e756d6265722666726f6d3d64656661756c74000000602082015290565b33610c978183611783565b5f6109ac826117f4565b610d3a611399565b610c1c5f611815565b610d4e8233836113c6565b610c978282611353565b5f6109ac82611866565b610d6a611399565b610c1c611883565b5f6060805f5f5f6060610d836118c6565b610d8b6118f3565b604080515f80825260208201909252600f60f81b9b939a50919850469750309650945092509050565b5f610dc9610dc1836115f2565b600a90611640565b6001600160d01b031692915050565b5f610bcd611779565b606060048054610918906128e8565b610df8611399565b6001600160a01b0381165f818152600f6020526040808220805460ff19166001179055517f6ae172837ea30b801fbfcdd4108aa1d5bf8ff775444fd70256b44e6bf3dfc3f69190a250565b6001600160a01b0381165f908152600960205260408120610dc990611920565b610e6b61194f565b610e7361149f565b60115460ff16610e96576040516343e2e81560e11b815260040160405180910390fd5b805f03610eb657604051631f2a200560e01b815260040160405180910390fd5b610ec1333083611442565b335f908152600d602052604081208054839290610edf9084906128d5565b9091555050335f908152600e6020526040812042905560108054839290610f079084906128d5565b90915550506040805182815242602082015233917f1449c6dd7851abc30abf37f57715f492010519147cc2652fbc38202c18a6ee909101610b5f565b6001600160a01b0381165f908152600d602052604081205469d3c21bcecceda10000008110610f755750600492915050565b69152d02c7e14af68000008110610f8f5750600392915050565b69021e19e0c9bab24000008110610fa95750600292915050565b683635c9adc5dea000008110610fc25750600192915050565b505f92915050565b5f336109a6818585611442565b5f5f5f5f5f5f610fe660025490565b601054601354601454601154939a6b204fce5e3e250261100000009a50929850909650945060ff90911692509050565b6001600160a01b0381165f908152600d602052604081205469d3c21bcecceda10000008110611049575061138892915050565b69152d02c7e14af6800000811061106457506109c492915050565b69021e19e0c9bab2400000811061107f57506103e892915050565b683635c9adc5dea000008110610fc257506101f492915050565b6110a1611399565b6011805460ff19168215159081179091556040519081527f8d2382069f9b9c6cbe24a294ec111217f32f20524e7099bc8882d7af51a61e1c9060200160405180910390a150565b8342111561111157604051632341d78760e11b8152600481018590526024015b60405180910390fd5b604080517fe48329057bfd03d55e49b547132e39cffd9c1820ad7b9d4c5307691425d15adf60208201526001600160a01b0388169181019190915260608101869052608081018590525f9061118a906111829060a0016040516020818303038152906040528051906020012061197a565b8585856119a6565b905061119681876119d2565b6111a08188611783565b50505050505050565b834211156111cd5760405163313c898160e11b815260048101859052602401611108565b5f7f6e71edae12b1b97f4d1f60370fef10105fa2faae0126114a169c64845d6126c98888886112188c6001600160a01b03165f90815260076020526040902080546001810190915590565b6040805160208101969096526001600160a01b0394851690860152929091166060840152608083015260a082015260c0810186905260e0016040516020818303038152906040528051906020012090505f6112728261197a565b90505f611281828787876119a6565b9050896001600160a01b0316816001600160a01b0316146112c8576040516325c0072360e11b81526001600160a01b0380831660048301528b166024820152604401611108565b6112d38a8a8a611387565b50505050505050505050565b604080518082019091525f80825260208201526112fc8383611a24565b9392505050565b61130b611399565b6001600160a01b03811661133457604051631e4fbdf760e01b81525f6004820152602401611108565b610b7181611815565b5f6112fc8284612933565b5f6112fc8284612952565b6001600160a01b03821661137c57604051634b637e8f60e11b81525f6004820152602401611108565b610c97825f83611a58565b6113948383836001611a6b565b505050565b600b546001600160a01b03163314610c1c5760405163118cdaa760e01b8152336004820152602401611108565b6001600160a01b038381165f908152600160209081526040808320938616835292905220545f1981101561143c578181101561142e57604051637dc7a0d960e11b81526001600160a01b03841660048201526024810182905260448101839052606401611108565b61143c84848484035f611a6b565b50505050565b6001600160a01b03831661146b57604051634b637e8f60e11b81525f6004820152602401611108565b6001600160a01b0382166114945760405163ec442f0560e01b81525f6004820152602401611108565b611394838383611a58565b6002600c54036114c257604051633ee5aeb560e01b815260040160405180910390fd5b6002600c55565b5f306001600160a01b037f00000000000000000000000000000000000000000000000000000000000000001614801561152157507f000000000000000000000000000000000000000000000000000000000000000046145b1561154b57507f000000000000000000000000000000000000000000000000000000000000000090565b610bcd604080517f8b73c3c69bb8fe3d512ecc4cf759cc79239f7b179b0ffacaa9a75d522b39400f60208201527f0000000000000000000000000000000000000000000000000000000000000000918101919091527f000000000000000000000000000000000000000000000000000000000000000060608201524660808201523060a08201525f9060c00160405160208183030381529060405280519060200120905090565b5f5f6115fc610dd8565b90508065ffffffffffff16831061163757604051637669fc0f60e11b81526004810184905265ffffffffffff82166024820152604401611108565b6112fc83611b3d565b81545f908181600581111561169c575f61165984611b73565b6116639085612920565b5f8881526020902090915081015465ffffffffffff908116908716101561168c5780915061169a565b6116978160016128d5565b92505b505b5f6116a987878585611ccb565b905080156116e3576116cd876116c0600184612920565b5f91825260209091200190565b54600160301b90046001600160d01b03166116e5565b5f5b979650505050505050565b6116f8611d2a565b600b805460ff60a01b191690557f5db9ee0a495bf2e6ff9c91a7834c1ba4fdd244a5e8aa4e537bd38aeae4b073aa335b6040516001600160a01b03909116815260200160405180910390a1565b6001600160a01b03821661176e5760405163ec442f0560e01b81525f6004820152602401611108565b610c975f8383611a58565b5f610bcd43611b3d565b6001600160a01b038281165f8181526008602052604080822080548686166001600160a01b0319821681179092559151919094169392849290917f3134e8a2e6d97e929a7e54011ea5485d7d196dd5f0ba4d4ef95803e8e3fc257f9190a461139481836117ef86611d54565b611d71565b6001600160a01b0381165f908152600960205260408120546109ac90611eda565b600b80546001600160a01b038381166001600160a01b0319831681179093556040519116919082907f8be0079c531659141344cd1fd0a4f28419497f9722a3daafe3b4186f6b6457e0905f90a35050565b6001600160a01b0381165f908152600760205260408120546109ac565b61188b61194f565b600b805460ff60a01b1916600160a01b1790557f62e78cea01bee320cd4e420270b5ea74000d11b0c9f74754ebdbfc544b05a2586117283390565b6060610bcd7f00000000000000000000000000000000000000000000000000000000000000006005611f0a565b6060610bcd7f00000000000000000000000000000000000000000000000000000000000000006006611f0a565b80545f908015610fc257611939836116c0600184612920565b54600160301b90046001600160d01b03166112fc565b600b54600160a01b900460ff1615610c1c5760405163d93c066560e01b815260040160405180910390fd5b5f6109ac6119866114c9565b8360405161190160f01b8152600281019290925260228201526042902090565b5f5f5f5f6119b688888888611fb3565b9250925092506119c6828261207b565b50909695505050505050565b6001600160a01b0382165f908152600760205260409020805460018101909155818114611394576040516301d4b62360e61b81526001600160a01b038416600482015260248101829052604401611108565b604080518082019091525f80825260208201526001600160a01b0383165f9081526009602052604090206112fc9083612133565b611a6061194f565b6113948383836121a0565b6001600160a01b038416611a945760405163e602df0560e01b81525f6004820152602401611108565b6001600160a01b038316611abd57604051634a1406b160e11b81525f6004820152602401611108565b6001600160a01b038085165f908152600160209081526040808320938716835292905220829055801561143c57826001600160a01b0316846001600160a01b03167f8c5be1e5ebec7d5bd14f71427d1e84f3dd0314c0f7b2291e5b200ac8c7c3b92584604051611b2f91815260200190565b60405180910390a350505050565b5f65ffffffffffff821115611b6f576040516306dfcc6560e41b81526030600482015260248101839052604401611108565b5090565b5f60018211611b80575090565b816001600160801b8210611b995760809190911c9060401b5b680100000000000000008210611bb45760409190911c9060201b5b6401000000008210611bcb5760209190911c9060101b5b620100008210611be05760109190911c9060081b5b6101008210611bf45760089190911c9060041b5b60108210611c075760049190911c9060021b5b60048210611c135760011b5b600302600190811c90818581611c2b57611c2b612971565b048201901c90506001818581611c4357611c43612971565b048201901c90506001818581611c5b57611c5b612971565b048201901c90506001818581611c7357611c73612971565b048201901c90506001818581611c8b57611c8b612971565b048201901c90506001818581611ca357611ca3612971565b048201901c9050611cc2818581611cbc57611cbc612971565b04821190565b90039392505050565b5f5b81831015611d22575f611ce08484612206565b5f8781526020902090915065ffffffffffff86169082015465ffffffffffff161115611d0e57809250611d1c565b611d198160016128d5565b93505b50611ccd565b509392505050565b600b54600160a01b900460ff16610c1c57604051638dfc202b60e01b815260040160405180910390fd5b6001600160a01b0381165f908152602081905260408120546109ac565b816001600160a01b0316836001600160a01b031614158015611d9257505f81115b15611394576001600160a01b03831615611e39576001600160a01b0383165f9081526009602052604081208190611dd490611348611dcf86612220565b612253565b6001600160d01b031691506001600160d01b03169150846001600160a01b03167fdec2bacdd2f05b59de34da9b523dff8be42e5e38e818c82fdb0bae774387a7248383604051611e2e929190918252602082015260400190565b60405180910390a250505b6001600160a01b03821615611394576001600160a01b0382165f9081526009602052604081208190611e719061133d611dcf86612220565b6001600160d01b031691506001600160d01b03169150836001600160a01b03167fdec2bacdd2f05b59de34da9b523dff8be42e5e38e818c82fdb0bae774387a7248383604051611ecb929190918252602082015260400190565b60405180910390a25050505050565b5f63ffffffff821115611b6f576040516306dfcc6560e41b81526020600482015260248101839052604401611108565b606060ff8314611f2457611f1d8361228b565b90506109ac565b818054611f30906128e8565b80601f0160208091040260200160405190810160405280929190818152602001828054611f5c906128e8565b8015611fa75780601f10611f7e57610100808354040283529160200191611fa7565b820191905f5260205f20905b815481529060010190602001808311611f8a57829003601f168201915b505050505090506109ac565b5f80807f7fffffffffffffffffffffffffffffff5d576e7357a4501ddfe92f46681b20a0841115611fec57505f91506003905082612071565b604080515f808252602082018084528a905260ff891692820192909252606081018790526080810186905260019060a0016020604051602081039080840390855afa15801561203d573d5f5f3e3d5ffd5b5050604051601f1901519150506001600160a01b03811661206857505f925060019150829050612071565b92505f91508190505b9450945094915050565b5f82600381111561208e5761208e612985565b03612097575050565b60018260038111156120ab576120ab612985565b036120c95760405163f645eedf60e01b815260040160405180910390fd5b60028260038111156120dd576120dd612985565b036120fe5760405163fce698f760e01b815260048101829052602401611108565b600382600381111561211257612112612985565b03610c97576040516335e2f38360e21b815260048101829052602401611108565b604080518082019091525f8082526020820152825f018263ffffffff168154811061216057612160612999565b5f9182526020918290206040805180820190915291015465ffffffffffff81168252600160301b90046001600160d01b0316918101919091529392505050565b6121ab8383836122c8565b6001600160a01b0383166121fb575f6121c360025490565b90506001600160d01b03808211156121f857604051630e58ae9360e11b81526004810183905260248101829052604401611108565b50505b6113948383836123ee565b5f61221460028484186129ad565b6112fc908484166128d5565b5f6001600160d01b03821115611b6f576040516306dfcc6560e41b815260d0600482015260248101839052604401611108565b5f5f61227e612260610dd8565b61227661226c88611920565b868863ffffffff16565b879190612463565b915091505b935093915050565b60605f61229783612470565b6040805160208082528183019092529192505f91906020820181803683375050509182525060208101929092525090565b6001600160a01b0383166122f2578060025f8282546122e791906128d5565b909155506123629050565b6001600160a01b0383165f90815260208190526040902054818110156123445760405163391434e360e21b81526001600160a01b03851660048201526024810182905260448101839052606401611108565b6001600160a01b0384165f9081526020819052604090209082900390555b6001600160a01b03821661237e5760028054829003905561239c565b6001600160a01b0382165f9081526020819052604090208054820190555b816001600160a01b0316836001600160a01b03167fddf252ad1be2c89b69c2b068fc378daa952ba7f163c4a11628f55a4df523b3ef836040516123e191815260200190565b60405180910390a3505050565b6001600160a01b0383166124105761240d600a61133d611dcf84612220565b50505b6001600160a01b0382166124325761242f600a611348611dcf84612220565b50505b6001600160a01b038381165f9081526008602052604080822054858416835291205461139492918216911683611d71565b5f8061227e858585612497565b5f60ff8216601f8111156109ac57604051632cd44ac360e21b815260040160405180910390fd5b82545f908190801561258d575f6124b3876116c0600185612920565b805490915065ffffffffffff80821691600160301b90046001600160d01b03169088168211156124f657604051632520601d60e01b815260040160405180910390fd5b8765ffffffffffff168265ffffffffffff160361252f57825465ffffffffffff16600160301b6001600160d01b0389160217835561257f565b6040805180820190915265ffffffffffff808a1682526001600160d01b03808a1660208085019182528d54600181018f555f8f81529190912094519151909216600160301b029216919091179101555b945085935061228392505050565b50506040805180820190915265ffffffffffff80851682526001600160d01b0380851660208085019182528854600181018a555f8a815291822095519251909316600160301b029190931617920191909155905081612283565b5f602082840312156125f7575f5ffd5b5035919050565b5f81518084528060208401602086015e5f602082860101526020601f19601f83011685010191505092915050565b602081525f6112fc60208301846125fe565b80356001600160a01b0381168114612654575f5ffd5b919050565b5f5f6040838503121561266a575f5ffd5b6126738361263e565b946020939093013593505050565b5f5f5f60608486031215612693575f5ffd5b61269c8461263e565b92506126aa6020850161263e565b929592945050506040919091013590565b5f602082840312156126cb575f5ffd5b6112fc8261263e565b60ff60f81b8816815260e060208201525f6126f260e08301896125fe565b828103604084015261270481896125fe565b606084018890526001600160a01b038716608085015260a0840186905283810360c0850152845180825260208087019350909101905f5b8181101561275957835183526020938401939092019160010161273b565b50909b9a5050505050505050505050565b5f6020828403121561277a575f5ffd5b813580151581146112fc575f5ffd5b803560ff81168114612654575f5ffd5b5f5f5f5f5f5f60c087890312156127ae575f5ffd5b6127b78761263e565b955060208701359450604087013593506127d360608801612789565b9598949750929560808101359460a0909101359350915050565b5f5f5f5f5f5f5f60e0888a031215612803575f5ffd5b61280c8861263e565b965061281a6020890161263e565b9550604088013594506060880135935061283660808901612789565b9699959850939692959460a0840135945060c09093013592915050565b5f5f60408385031215612864575f5ffd5b61286d8361263e565b915061287b6020840161263e565b90509250929050565b5f5f60408385031215612895575f5ffd5b61289e8361263e565b9150602083013563ffffffff811681146128b6575f5ffd5b809150509250929050565b634e487b7160e01b5f52601160045260245ffd5b808201808211156109ac576109ac6128c1565b600181811c908216806128fc57607f821691505b60208210810361291a57634e487b7160e01b5f52602260045260245ffd5b50919050565b818103818111156109ac576109ac6128c1565b6001600160d01b0381811683821601908111156109ac576109ac6128c1565b6001600160d01b0382811682821603908111156109ac576109ac6128c1565b634e487b7160e01b5f52601260045260245ffd5b634e487b7160e01b5f52602160045260245ffd5b634e487b7160e01b5f52603260045260245ffd5b5f826129c757634e487b7160e01b5f52601260045260245ffd5b50049056dec2bacdd2f05b59de34da9b523dff8be42e5e38e818c82fdb0bae774387a724","linkReferences":{}},"methodIdentifiers":{"BRONZE_TIER()":"58f2360e","CLOCK_MODE()":"4bf5d7e9","DOMAIN_SEPARATOR()":"3644e515","GOLD_TIER()":"40d1c0f2","INITIAL_SUPPLY()":"2ff2e9dc","MAX_SUPPLY()":"32cb6b0c","PLATINUM_TIER()":"926f82c5","SILVER_TIER()":"12aa2921","addMinter(address)":"983b2d56","allowance(address,address)":"dd62ed3e","approve(address,uint256)":"095ea7b3","balanceOf(address)":"70a08231","burn(uint256)":"42966c68","burnFees(uint256)":"0342a6ba","burnFrom(address,uint256)":"79cc6790","burnRate()":"bed99850","checkpoints(address,uint32)":"f1127ed8","clock()":"91ddadf4","decimals()":"313ce567","delegate(address)":"5c19a95c","delegateBySig(address,uint256,uint256,uint8,bytes32,bytes32)":"c3cda520","delegates(address)":"587cde1e","eip712Domain()":"84b0196e","getFeeDiscount(address)":"b7fa7cfc","getPastTotalSupply(uint256)":"8e539e8c","getPastVotes(address,uint256)":"3a46b1a8","getStakingTier(address)":"a8a82fd7","getTokenInfo()":"abb1dc44","getVotes(address)":"9ab24eb0","minimumStakingPeriod()":"7ebed54c","mint(address,uint256)":"40c10f19","minters(address)":"f46eccc4","name()":"06fdde03","nonces(address)":"7ecebe00","numCheckpoints(address)":"6fcfff45","owner()":"8da5cb5b","pause()":"8456cb59","paused()":"5c975abb","permit(address,address,uint256,uint256,uint8,bytes32,bytes32)":"d505accf","removeMinter(address)":"3092afd5","renounceOwnership()":"715018a6","setBurnRate(uint256)":"189d165e","setMinimumStakingPeriod(uint256)":"246d95ca","setStakingEnabled(bool)":"bce8567e","stake(uint256)":"a694fc3a","stakedBalance(address)":"60217267","stakingEnabled()":"1cfff51b","stakingTimestamp(address)":"8f0794fe","symbol()":"95d89b41","totalBurned()":"d89135cd","totalStaked()":"817b1cd2","totalSupply()":"18160ddd","transfer(address,uint256)":"a9059cbb","transferFrom(address,address,uint256)":"23b872dd","transferOwnership(address)":"f2fde38b","unpause()":"3f4ba83a","unstake(uint256)":"2e17de78"},"id":56}