{"abi":[{"type":"constructor","inputs":[{"name":"_dashToken","type":"address","internalType":"contract DashToken"},{"name":"_tokenB","type":"address","internalType":"contract IERC20"},{"name":"_feeCollector","type":"address","internalType":"address"},{"name":"initialOwner","type":"address","internalType":"address"}],"stateMutability":"nonpayable"},{"type":"receive","stateMutability":"payable"},{"type":"function","name":"BASE_FEE","inputs":[],"outputs":[{"name":"","type":"uint256","internalType":"uint256"}],"stateMutability":"view"},{"type":"function","name":"FEE_DENOMINATOR","inputs":[],"outputs":[{"name":"","type":"uint256","internalType":"uint256"}],"stateMutability":"view"},{"type":"function","name":"MINIMUM_LIQUIDITY","inputs":[],"outputs":[{"name":"","type":"uint256","internalType":"uint256"}],"stateMutability":"view"},{"type":"function","name":"PRECISION","inputs":[],"outputs":[{"name":"","type":"uint256","internalType":"uint256"}],"stateMutability":"view"},{"type":"function","name":"TWAP_PERIOD","inputs":[],"outputs":[{"name":"","type":"uint256","internalType":"uint256"}],"stateMutability":"view"},{"type":"function","name":"addLiquidity","inputs":[{"name":"amountADesired","type":"uint256","internalType":"uint256"},{"name":"amountBDesired","type":"uint256","internalType":"uint256"},{"name":"amountAMin","type":"uint256","internalType":"uint256"},{"name":"amountBMin","type":"uint256","internalType":"uint256"},{"name":"to","type":"address","internalType":"address"},{"name":"deadline","type":"uint256","internalType":"uint256"}],"outputs":[{"name":"liquidity","type":"uint256","internalType":"uint256"}],"stateMutability":"payable"},{"type":"function","name":"allowance","inputs":[{"name":"owner","type":"address","internalType":"address"},{"name":"spender","type":"address","internalType":"address"}],"outputs":[{"name":"","type":"uint256","internalType":"uint256"}],"stateMutability":"view"},{"type":"function","name":"approve","inputs":[{"name":"spender","type":"address","internalType":"address"},{"name":"value","type":"uint256","internalType":"uint256"}],"outputs":[{"name":"","type":"bool","internalType":"bool"}],"stateMutability":"nonpayable"},{"type":"function","name":"balanceOf","inputs":[{"name":"account","type":"address","internalType":"address"}],"outputs":[{"name":"","type":"uint256","internalType":"uint256"}],"stateMutability":"view"},{"type":"function","name":"claimRewards","inputs":[],"outputs":[],"stateMutability":"nonpayable"},{"type":"function","name":"collectFees","inputs":[],"outputs":[],"stateMutability":"nonpayable"},{"type":"function","name":"dailyVolume","inputs":[],"outputs":[{"name":"","type":"uint256","internalType":"uint256"}],"stateMutability":"view"},{"type":"function","name":"dashToken","inputs":[],"outputs":[{"name":"","type":"address","internalType":"contract DashToken"}],"stateMutability":"view"},{"type":"function","name":"decimals","inputs":[],"outputs":[{"name":"","type":"uint8","internalType":"uint8"}],"stateMutability":"view"},{"type":"function","name":"emergencyWithdraw","inputs":[{"name":"token","type":"address","internalType":"address"},{"name":"amount","type":"uint256","internalType":"uint256"}],"outputs":[],"stateMutability":"nonpayable"},{"type":"function","name":"feeCollector","inputs":[],"outputs":[{"name":"","type":"address","internalType":"address"}],"stateMutability":"view"},{"type":"function","name":"getAmountIn","inputs":[{"name":"amountOut","type":"uint256","internalType":"uint256"},{"name":"isTokenAInput","type":"bool","internalType":"bool"},{"name":"trader","type":"address","internalType":"address"}],"outputs":[{"name":"amountIn","type":"uint256","internalType":"uint256"}],"stateMutability":"view"},{"type":"function","name":"getAmountOut","inputs":[{"name":"amountIn","type":"uint256","internalType":"uint256"},{"name":"isTokenAInput","type":"bool","internalType":"bool"},{"name":"trader","type":"address","internalType":"address"}],"outputs":[{"name":"amountOut","type":"uint256","internalType":"uint256"}],"stateMutability":"view"},{"type":"function","name":"getPendingRewards","inputs":[{"name":"user","type":"address","internalType":"address"}],"outputs":[{"name":"","type":"uint256","internalType":"uint256"}],"stateMutability":"view"},{"type":"function","name":"getPoolStats","inputs":[],"outputs":[{"name":"_totalLiquidity","type":"uint256","internalType":"uint256"},{"name":"_totalVolume24h","type":"uint256","internalType":"uint256"},{"name":"_totalFees","type":"uint256","internalType":"uint256"},{"name":"_apy","type":"uint256","internalType":"uint256"},{"name":"_utilizationRate","type":"uint256","internalType":"uint256"}],"stateMutability":"view"},{"type":"function","name":"getReserves","inputs":[],"outputs":[{"name":"reserveA","type":"uint256","internalType":"uint256"},{"name":"reserveB","type":"uint256","internalType":"uint256"},{"name":"blockTimestamp","type":"uint256","internalType":"uint256"}],"stateMutability":"view"},{"type":"function","name":"getTWAPPrice","inputs":[],"outputs":[{"name":"price0","type":"uint256","internalType":"uint256"},{"name":"price1","type":"uint256","internalType":"uint256"}],"stateMutability":"view"},{"type":"function","name":"lastRewardTime","inputs":[{"name":"","type":"address","internalType":"address"}],"outputs":[{"name":"","type":"uint256","internalType":"uint256"}],"stateMutability":"view"},{"type":"function","name":"lastVolumeReset","inputs":[],"outputs":[{"name":"","type":"uint256","internalType":"uint256"}],"stateMutability":"view"},{"type":"function","name":"maxDailyVolume","inputs":[],"outputs":[{"name":"","type":"uint256","internalType":"uint256"}],"stateMutability":"view"},{"type":"function","name":"maxSingleSwap","inputs":[],"outputs":[{"name":"","type":"uint256","internalType":"uint256"}],"stateMutability":"view"},{"type":"function","name":"name","inputs":[],"outputs":[{"name":"","type":"string","internalType":"string"}],"stateMutability":"view"},{"type":"function","name":"owner","inputs":[],"outputs":[{"name":"","type":"address","internalType":"address"}],"stateMutability":"view"},{"type":"function","name":"paused","inputs":[],"outputs":[{"name":"","type":"bool","internalType":"bool"}],"stateMutability":"view"},{"type":"function","name":"pendingRewards","inputs":[{"name":"","type":"address","internalType":"address"}],"outputs":[{"name":"","type":"uint256","internalType":"uint256"}],"stateMutability":"view"},{"type":"function","name":"poolInfo","inputs":[],"outputs":[{"name":"reserveA","type":"uint256","internalType":"uint256"},{"name":"reserveB","type":"uint256","internalType":"uint256"},{"name":"totalFees","type":"uint256","internalType":"uint256"},{"name":"lastUpdateTime","type":"uint256","internalType":"uint256"},{"name":"kLast","type":"uint256","internalType":"uint256"}],"stateMutability":"view"},{"type":"function","name":"protocolFeeShare","inputs":[],"outputs":[{"name":"","type":"uint256","internalType":"uint256"}],"stateMutability":"view"},{"type":"function","name":"removeLiquidity","inputs":[{"name":"liquidity","type":"uint256","internalType":"uint256"},{"name":"amountAMin","type":"uint256","internalType":"uint256"},{"name":"amountBMin","type":"uint256","internalType":"uint256"},{"name":"to","type":"address","internalType":"address"},{"name":"deadline","type":"uint256","internalType":"uint256"}],"outputs":[{"name":"amountA","type":"uint256","internalType":"uint256"},{"name":"amountB","type":"uint256","internalType":"uint256"}],"stateMutability":"nonpayable"},{"type":"function","name":"renounceOwnership","inputs":[],"outputs":[],"stateMutability":"nonpayable"},{"type":"function","name":"rewardRate","inputs":[],"outputs":[{"name":"","type":"uint256","internalType":"uint256"}],"stateMutability":"view"},{"type":"function","name":"setPaused","inputs":[{"name":"paused","type":"bool","internalType":"bool"}],"outputs":[],"stateMutability":"nonpayable"},{"type":"function","name":"setProtocolFeeShare","inputs":[{"name":"newFeeShare","type":"uint256","internalType":"uint256"}],"outputs":[],"stateMutability":"nonpayable"},{"type":"function","name":"setRewardRate","inputs":[{"name":"newRate","type":"uint256","internalType":"uint256"}],"outputs":[],"stateMutability":"nonpayable"},{"type":"function","name":"swapExactTokensForTokens","inputs":[{"name":"amountIn","type":"uint256","internalType":"uint256"},{"name":"amountOutMin","type":"uint256","internalType":"uint256"},{"name":"tokenIn","type":"address","internalType":"address"},{"name":"to","type":"address","internalType":"address"},{"name":"deadline","type":"uint256","internalType":"uint256"}],"outputs":[{"name":"amountOut","type":"uint256","internalType":"uint256"}],"stateMutability":"payable"},{"type":"function","name":"swapTokensForExactTokens","inputs":[{"name":"amountOut","type":"uint256","internalType":"uint256"},{"name":"amountInMax","type":"uint256","internalType":"uint256"},{"name":"tokenIn","type":"address","internalType":"address"},{"name":"to","type":"address","internalType":"address"},{"name":"deadline","type":"uint256","internalType":"uint256"}],"outputs":[{"name":"amountIn","type":"uint256","internalType":"uint256"}],"stateMutability":"payable"},{"type":"function","name":"symbol","inputs":[],"outputs":[{"name":"","type":"string","internalType":"string"}],"stateMutability":"view"},{"type":"function","name":"tokenA","inputs":[],"outputs":[{"name":"","type":"address","internalType":"contract IERC20"}],"stateMutability":"view"},{"type":"function","name":"tokenB","inputs":[],"outputs":[{"name":"","type":"address","internalType":"contract IERC20"}],"stateMutability":"view"},{"type":"function","name":"totalRewardsDistributed","inputs":[],"outputs":[{"name":"","type":"uint256","internalType":"uint256"}],"stateMutability":"view"},{"type":"function","name":"totalSupply","inputs":[],"outputs":[{"name":"","type":"uint256","internalType":"uint256"}],"stateMutability":"view"},{"type":"function","name":"transfer","inputs":[{"name":"to","type":"address","internalType":"address"},{"name":"value","type":"uint256","internalType":"uint256"}],"outputs":[{"name":"","type":"bool","internalType":"bool"}],"stateMutability":"nonpayable"},{"type":"function","name":"transferFrom","inputs":[{"name":"from","type":"address","internalType":"address"},{"name":"to","type":"address","internalType":"address"},{"name":"value","type":"uint256","internalType":"uint256"}],"outputs":[{"name":"","type":"bool","internalType":"bool"}],"stateMutability":"nonpayable"},{"type":"function","name":"transferOwnership","inputs":[{"name":"newOwner","type":"address","internalType":"address"}],"outputs":[],"stateMutability":"nonpayable"},{"type":"function","name":"twapData","inputs":[],"outputs":[{"name":"price0Average","type":"uint256","internalType":"uint256"},{"name":"price1Average","type":"uint256","internalType":"uint256"},{"name":"lastUpdateTime","type":"uint256","internalType":"uint256"},{"name":"lastBlockTimestamp","type":"uint256","internalType":"uint256"}],"stateMutability":"view"},{"type":"function","name":"updateLimits","inputs":[{"name":"newMaxSingleSwap","type":"uint256","internalType":"uint256"},{"name":"newMaxDailyVolume","type":"uint256","internalType":"uint256"}],"outputs":[],"stateMutability":"nonpayable"},{"type":"function","name":"userFeeDiscounts","inputs":[{"name":"","type":"address","internalType":"address"}],"outputs":[{"name":"","type":"uint256","internalType":"uint256"}],"stateMutability":"view"},{"type":"event","name":"Approval","inputs":[{"name":"owner","type":"address","indexed":true,"internalType":"address"},{"name":"spender","type":"address","indexed":true,"internalType":"address"},{"name":"value","type":"uint256","indexed":false,"internalType":"uint256"}],"anonymous":false},{"type":"event","name":"FeesCollected","inputs":[{"name":"amount","type":"uint256","indexed":false,"internalType":"uint256"},{"name":"collector","type":"address","indexed":true,"internalType":"address"}],"anonymous":false},{"type":"event","name":"LiquidityAdded","inputs":[{"name":"provider","type":"address","indexed":true,"internalType":"address"},{"name":"amountA","type":"uint256","indexed":false,"internalType":"uint256"},{"name":"amountB","type":"uint256","indexed":false,"internalType":"uint256"},{"name":"liquidity","type":"uint256","indexed":false,"internalType":"uint256"},{"name":"timestamp","type":"uint256","indexed":false,"internalType":"uint256"}],"anonymous":false},{"type":"event","name":"LiquidityRemoved","inputs":[{"name":"provider","type":"address","indexed":true,"internalType":"address"},{"name":"amountA","type":"uint256","indexed":false,"internalType":"uint256"},{"name":"amountB","type":"uint256","indexed":false,"internalType":"uint256"},{"name":"liquidity","type":"uint256","indexed":false,"internalType":"uint256"},{"name":"timestamp","type":"uint256","indexed":false,"internalType":"uint256"}],"anonymous":false},{"type":"event","name":"OwnershipTransferred","inputs":[{"name":"previousOwner","type":"address","indexed":true,"internalType":"address"},{"name":"newOwner","type":"address","indexed":true,"internalType":"address"}],"anonymous":false},{"type":"event","name":"Paused","inputs":[{"name":"account","type":"address","indexed":false,"internalType":"address"}],"anonymous":false},{"type":"event","name":"RewardsDistributed","inputs":[{"name":"user","type":"address","indexed":true,"internalType":"address"},{"name":"amount","type":"uint256","indexed":false,"internalType":"uint256"}],"anonymous":false},{"type":"event","name":"Swap","inputs":[{"name":"trader","type":"address","indexed":true,"internalType":"address"},{"name":"tokenIn","type":"address","indexed":true,"internalType":"address"},{"name":"tokenOut","type":"address","indexed":true,"internalType":"address"},{"name":"amountIn","type":"uint256","indexed":false,"internalType":"uint256"},{"name":"amountOut","type":"uint256","indexed":false,"internalType":"uint256"},{"name":"fee","type":"uint256","indexed":false,"internalType":"uint256"},{"name":"timestamp","type":"uint256","indexed":false,"internalType":"uint256"}],"anonymous":false},{"type":"event","name":"TWAPUpdated","inputs":[{"name":"price0","type":"uint256","indexed":false,"internalType":"uint256"},{"name":"price1","type":"uint256","indexed":false,"internalType":"uint256"},{"name":"timestamp","type":"uint256","indexed":false,"internalType":"uint256"}],"anonymous":false},{"type":"event","name":"Transfer","inputs":[{"name":"from","type":"address","indexed":true,"internalType":"address"},{"name":"to","type":"address","indexed":true,"internalType":"address"},{"name":"value","type":"uint256","indexed":false,"internalType":"uint256"}],"anonymous":false},{"type":"event","name":"Unpaused","inputs":[{"name":"account","type":"address","indexed":false,"internalType":"address"}],"anonymous":false},{"type":"error","name":"DailyVolumeExceeded","inputs":[]},{"type":"error","name":"ERC20InsufficientAllowance","inputs":[{"name":"spender","type":"address","internalType":"address"},{"name":"allowance","type":"uint256","internalType":"uint256"},{"name":"needed","type":"uint256","internalType":"uint256"}]},{"type":"error","name":"ERC20InsufficientBalance","inputs":[{"name":"sender","type":"address","internalType":"address"},{"name":"balance","type":"uint256","internalType":"uint256"},{"name":"needed","type":"uint256","internalType":"uint256"}]},{"type":"error","name":"ERC20InvalidApprover","inputs":[{"name":"approver","type":"address","internalType":"address"}]},{"type":"error","name":"ERC20InvalidReceiver","inputs":[{"name":"receiver","type":"address","internalType":"address"}]},{"type":"error","name":"ERC20InvalidSender","inputs":[{"name":"sender","type":"address","internalType":"address"}]},{"type":"error","name":"ERC20InvalidSpender","inputs":[{"name":"spender","type":"address","internalType":"address"}]},{"type":"error","name":"EnforcedPause","inputs":[]},{"type":"error","name":"ExcessiveSlippage","inputs":[]},{"type":"error","name":"ExpectedPause","inputs":[]},{"type":"error","name":"InsufficientAmount","inputs":[]},{"type":"error","name":"InsufficientLiquidity","inputs":[]},{"type":"error","name":"InsufficientOutputAmount","inputs":[]},{"type":"error","name":"InvalidFeeShare","inputs":[]},{"type":"error","name":"InvalidToken","inputs":[]},{"type":"error","name":"OwnableInvalidOwner","inputs":[{"name":"owner","type":"address","internalType":"address"}]},{"type":"error","name":"OwnableUnauthorizedAccount","inputs":[{"name":"account","type":"address","internalType":"address"}]},{"type":"error","name":"ReentrancyGuardReentrantCall","inputs":[]},{"type":"error","name":"SafeERC20FailedOperation","inputs":[{"name":"token","type":"address","internalType":"address"}]},{"type":"error","name":"SwapLimitExceeded","inputs":[]},{"type":"error","name":"ZeroAddress","inputs":[]}],"bytecode":{"object":"0x60e060405261064060105568056bc75e2d6310000060155568056bc75e2d63100000601755683635c9adc5dea0000060185534801561003c575f5ffd5b5060405161359338038061359383398101604081905261005b916101a9565b806040518060400160405280600b81526020016a0444153482d455448204c560ac1b8152506040518060400160405280600b81526020016a0444153482d4554482d4c560ac1b81525081600390816100b3919061029d565b5060046100c0828261029d565b50506001600555506001600160a01b0381166100f557604051631e4fbdf760e01b81525f600482015260240160405180910390fd5b6100fe81610141565b50506001600160a01b03928316608081905260a05290821660c052601180546001600160a01b0319169190921617905542600e819055600f819055601a55610357565b600680546001600160a01b038381166001600160a01b0319831681179093556040519116919082907f8be0079c531659141344cd1fd0a4f28419497f9722a3daafe3b4186f6b6457e0905f90a35050565b6001600160a01b03811681146101a6575f5ffd5b50565b5f5f5f5f608085870312156101bc575f5ffd5b84516101c781610192565b60208601519094506101d881610192565b60408601519093506101e981610192565b60608601519092506101fa81610192565b939692955090935050565b634e487b7160e01b5f52604160045260245ffd5b600181811c9082168061022d57607f821691505b60208210810361024b57634e487b7160e01b5f52602260045260245ffd5b50919050565b601f82111561029857805f5260205f20601f840160051c810160208510156102765750805b601f840160051c820191505b81811015610295575f8155600101610282565b50505b505050565b81516001600160401b038111156102b6576102b6610205565b6102ca816102c48454610219565b84610251565b6020601f8211600181146102fc575f83156102e55750848201515b5f19600385901b1c1916600184901b178455610295565b5f84815260208120601f198516915b8281101561032b578785015182556020948501946001909201910161030b565b508482101561034857868401515f19600387901b60f8161c191681555b50505050600190811b01905550565b60805160a05160c05161314761044c5f395f81816102e30152818161062601528181610ac301528181610bca01528181610e330152818161135e015281816114190152818161145301528181611874015281816118c1015281816118f401528181611bc501528181611c3701528181611c6501528181611ce301528181611dd001528181611e1201528181612809015261287b01525f818161044201528181610ba401528181610e0d015281816113ef0152818161183301528181611b9b01528181611d1801528181611d5a01526127e001525f81816106f601528181610f880152818161123b01526128ce01526131475ff3fe6080604052600436106102dc575f3560e01c80638da5cb5b11610189578063bbb85188116100d8578063ded998b911610092578063ee1725461161006d578063ee17254614610982578063f2fde38b14610997578063f6ed2017146109b6578063f742919b146109d5575f5ffd5b8063ded998b91461093b578063e5bd9fa11461094e578063ed856cdc14610963575f5ffd5b8063bbb8518814610872578063c415b95c14610886578063c8796572146108a5578063d262271d146108b9578063d73792a9146108e2578063dd62ed3e146108f7575f5ffd5b806398c8877e11610143578063a89f54d21161011e578063a89f54d21461080e578063a9059cbb14610823578063aaf5eb6814610842578063ba9a7a561461085d575f5ffd5b806398c8877e146107bb5780639e447fc6146107d0578063a2240e19146107ef575f5ffd5b80638da5cb5b146107185780638ecb647e1461073557806395bf15021461075457806395ccea671461077357806395d89b4114610792578063960b26a2146107a6575f5ffd5b806331d7a262116102455780635f64b55b116101ff578063715018a6116101da578063715018a6146106a75780637b0a47ee146106bb5780637ca25184146106d057806388c8ec95146106e5575f5ffd5b80635f64b55b1461061557806365b20fc01461064857806370a0823114610673575f5ffd5b806331d7a2621461052b578063372500ab146105565780633b5d441e1461056a5780633d18651e146105955780635a2f3d09146105a95780635c975abb146105f7575f5ffd5b80630fc63d10116102965780630fc63d101461043157806316c38b3c1461047c57806318160ddd1461049b57806323b872dd146104af57806326d7a441146104ce578063313ce56714610510575f5ffd5b806304d5911f1461036357806306fdde031461038957806307df2f18146103aa5780630902f1ac146103bf578063095ea7b3146103ef5780630a9e24b11461041e575f5ffd5b3661035f577f00000000000000000000000000000000000000000000000000000000000000006001600160a01b03161561035d5760405162461bcd60e51b815260206004820152601760248201527f506f6f6c20646f65736e2774206163636570742045544800000000000000000060448201526064015b60405180910390fd5b005b5f5ffd5b610376610371366004612dd8565b6109f4565b6040519081526020015b60405180910390f35b348015610394575f5ffd5b5061039d610c6c565b6040516103809190612e22565b3480156103b5575f5ffd5b5061037660185481565b3480156103ca575f5ffd5b50600754600854600a5460408051938452602084019290925290820152606001610380565b3480156103fa575f5ffd5b5061040e610409366004612e57565b610cfc565b6040519015158152602001610380565b61037661042c366004612dd8565b610d15565b34801561043c575f5ffd5b506104647f000000000000000000000000000000000000000000000000000000000000000081565b6040516001600160a01b039091168152602001610380565b348015610487575f5ffd5b5061035d610496366004612e8e565b610e9d565b3480156104a6575f5ffd5b50600254610376565b3480156104ba575f5ffd5b5061040e6104c9366004612ea7565b610ebe565b3480156104d9575f5ffd5b50600c54600d54600e54600f546104f09392919084565b604080519485526020850193909352918301526060820152608001610380565b34801561051b575f5ffd5b5060405160128152602001610380565b348015610536575f5ffd5b50610376610545366004612ee1565b60146020525f908152604090205481565b348015610561575f5ffd5b5061035d610ee1565b348015610575575f5ffd5b50610376610584366004612ee1565b60136020525f908152604090205481565b3480156105a0575f5ffd5b50610376601e81565b3480156105b4575f5ffd5b50600754600854600954600a54600b546105cf949392919085565b604080519586526020860194909452928401919091526060830152608082015260a001610380565b348015610602575f5ffd5b50600654600160a01b900460ff1661040e565b348015610620575f5ffd5b506104647f000000000000000000000000000000000000000000000000000000000000000081565b348015610653575f5ffd5b50610376610662366004612ee1565b60126020525f908152604090205481565b34801561067e575f5ffd5b5061037661068d366004612ee1565b6001600160a01b03165f9081526020819052604090205490565b3480156106b2575f5ffd5b5061035d611029565b3480156106c6575f5ffd5b5061037660155481565b3480156106db575f5ffd5b5061037661070881565b3480156106f0575f5ffd5b506104647f000000000000000000000000000000000000000000000000000000000000000081565b348015610723575f5ffd5b506006546001600160a01b0316610464565b348015610740575f5ffd5b5061037661074f366004612efa565b61103a565b34801561075f575f5ffd5b5061037661076e366004612efa565b61104e565b34801561077e575f5ffd5b5061035d61078d366004612e57565b61105a565b34801561079d575f5ffd5b5061039d6110d6565b3480156107b1575f5ffd5b5061037660105481565b3480156107c6575f5ffd5b5061037660195481565b3480156107db575f5ffd5b5061035d6107ea366004612f33565b6110e5565b3480156107fa575f5ffd5b5061035d610809366004612f4a565b6110f2565b348015610819575f5ffd5b5061037660175481565b34801561082e575f5ffd5b5061040e61083d366004612e57565b611105565b34801561084d575f5ffd5b50610376670de0b6b3a764000081565b348015610868575f5ffd5b506103766103e881565b34801561087d575f5ffd5b506105cf611112565b348015610891575f5ffd5b50601154610464906001600160a01b031681565b3480156108b0575f5ffd5b5061035d6111c1565b3480156108c4575f5ffd5b506108cd6112d9565b60408051928352602083019190915201610380565b3480156108ed575f5ffd5b5061037661271081565b348015610902575f5ffd5b50610376610911366004612f6a565b6001600160a01b039182165f90815260016020908152604080832093909416825291909152205490565b610376610949366004612f9b565b611305565b348015610959575f5ffd5b50610376601a5481565b34801561096e575f5ffd5b506108cd61097d366004612fea565b611500565b34801561098d575f5ffd5b5061037660165481565b3480156109a2575f5ffd5b5061035d6109b1366004612ee1565b61167e565b3480156109c1575f5ffd5b506103766109d0366004612ee1565b6116b8565b3480156109e0575f5ffd5b5061035d6109ef366004612f33565b611787565b5f6109fd6117db565b610a05611806565b81421115610a255760405162461bcd60e51b81526004016103549061301c565b6001600160a01b038316610a4b5760405162461bcd60e51b815260040161035490613049565b5f610a56855f611830565b9050610a63878233611986565b915085821115610aae5760405162461bcd60e51b8152602060048201526016602482015275115e18d95cdcda5d99481a5b9c1d5d08185b5bdd5b9d60521b6044820152606401610354565b610ab88282611abf565b80158015610aed57507f00000000000000000000000000000000000000000000000000000000000000006001600160a01b0316155b15610b775781341015610b3a5760405162461bcd60e51b8152602060048201526015602482015274125b9cdd59999a58da595b9d08115512081cd95b9d605a1b6044820152606401610354565b81341115610b7757336108fc610b508434613088565b6040518115909202915f818181858888f19350505050158015610b75573d5f5f3e3d5ffd5b505b610b8382888387611b88565b610b8b611d45565b610b93611e93565b610b9d828261200c565b80610bc8577f0000000000000000000000000000000000000000000000000000000000000000610bea565b7f00000000000000000000000000000000000000000000000000000000000000005b6001600160a01b0316856001600160a01b0316336001600160a01b03167f0874b2d545cb271cdbda4e093020c452328b24af12382ed62c4d00f5c26709db858b610c34883361206e565b6040805193845260208401929092529082015242606082015260800160405180910390a450610c636001600555565b95945050505050565b606060038054610c7b9061309b565b80601f0160208091040260200160405190810160405280929190818152602001828054610ca79061309b565b8015610cf25780601f10610cc957610100808354040283529160200191610cf2565b820191905f5260205f20905b815481529060010190602001808311610cd557829003601f168201915b5050505050905090565b5f33610d09818585612092565b60019150505b92915050565b5f610d1e6117db565b610d26611806565b81421115610d465760405162461bcd60e51b81526004016103549061301c565b6001600160a01b038316610d6c5760405162461bcd60e51b815260040161035490613049565b5f610d778588611830565b9050610d838782611abf565b610d8e87823361209f565b915085821015610de05760405162461bcd60e51b815260206004820152601a60248201527f496e73756666696369656e74206f757470757420616d6f756e740000000000006044820152606401610354565b610dec87838387611b88565b610df4611d45565b610dfc611e93565b610e06878261200c565b80610e31577f0000000000000000000000000000000000000000000000000000000000000000610e53565b7f00000000000000000000000000000000000000000000000000000000000000005b6001600160a01b0316856001600160a01b0316336001600160a01b03167f0874b2d545cb271cdbda4e093020c452328b24af12382ed62c4d00f5c26709db8a86610c348d3361206e565b610ea56121a8565b8015610eb657610eb36121d5565b50565b610eb3612235565b5f33610ecb858285612271565b610ed68585856122e7565b506001949350505050565b610ee9611806565b610ef233612344565b335f9081526014602052604090205480610f445760405162461bcd60e51b81526020600482015260136024820152724e6f207265776172647320746f20636c61696d60681b6044820152606401610354565b335f90815260146020526040812081905560168054839290610f679084906130d3565b90915550506040516340c10f1960e01b8152336004820152602481018290527f00000000000000000000000000000000000000000000000000000000000000006001600160a01b0316906340c10f19906044015f604051808303815f87803b158015610fd1575f5ffd5b505af1158015610fe3573d5f5f3e3d5ffd5b50506040518381523392507fdf29796aad820e4bb192f3a8d631b76519bcd2cbe77cc85af20e9df53cece086915060200160405180910390a2506110276001600555565b565b6110316121a8565b6110275f61243b565b5f611046848484611986565b949350505050565b5f61104684848461209f565b6110626121a8565b6001600160a01b0382166110ac576006546040516001600160a01b039091169082156108fc029083905f818181858888f193505050501580156110a7573d5f5f3e3d5ffd5b505050565b6110d26110c16006546001600160a01b031690565b6001600160a01b038416908361248c565b5050565b606060048054610c7b9061309b565b6110ed6121a8565b601555565b6110fa6121a8565b601791909155601855565b5f33610d098185856122e7565b5f5f5f5f5f61112060025490565b60195460095491965094509250841561119b57600a545f906111429042613088565b61114d9060016130d3565b61115a85620151806130e6565b6111649190613111565b6015549091508661117582846130d3565b6111819061016d6130e6565b61118c9060646130e6565b6111969190613111565b935050505b84156111ba57846111ad8560646130e6565b6111b79190613111565b90505b9091929394565b6111c96121a8565b6009548061120e5760405162461bcd60e51b8152602060048201526012602482015271139bc81999595cc81d1bc818dbdb1b1958dd60721b6044820152606401610354565b5f6009556011546040516340c10f1960e01b81526001600160a01b039182166004820152602481018390527f0000000000000000000000000000000000000000000000000000000000000000909116906340c10f19906044015f604051808303815f87803b15801561127e575f5ffd5b505af1158015611290573d5f5f3e3d5ffd5b50506011546040518481526001600160a01b0390911692507f0c2a2f565c7774c59e49ef6b3c255329f4d254147e06e724d3a8569bb7bd21ad915060200160405180910390a250565b6007545f90819015806112ec5750600854155b156112f957505f91829150565b5050600c54600d549091565b5f61130e6117db565b611316611806565b814211156113365760405162461bcd60e51b81526004016103549061301c565b6001600160a01b03831661135c5760405162461bcd60e51b815260040161035490613049565b7f00000000000000000000000000000000000000000000000000000000000000006001600160a01b03166113cf578534146113cf5760405162461bcd60e51b815260206004820152601360248201527208aa89040c2dadeeadce840dad2e6dac2e8c6d606b1b6044820152606401610354565b5f5f6113dd898989896124eb565b90925090506114176001600160a01b037f00000000000000000000000000000000000000000000000000000000000000001633308561260e565b7f00000000000000000000000000000000000000000000000000000000000000006001600160a01b03161561147b5761147b6001600160a01b037f00000000000000000000000000000000000000000000000000000000000000001633308461260e565b611486858383612647565b9250611490611d45565b611498611e93565b6114a185612344565b604080518381526020810183905290810184905242606082015233907f08d7621a09a86934f387f650007fa17f2413759ca5f2ae0681161b371583a5f59060800160405180910390a250506114f66001600555565b9695505050505050565b5f5f61150a6117db565b611512611806565b824211156115325760405162461bcd60e51b81526004016103549061301c565b6001600160a01b0384166115585760405162461bcd60e51b815260040161035490613049565b611563338886612729565b9092509050858210156115b85760405162461bcd60e51b815260206004820152601860248201527f496e73756666696369656e74204441534820616d6f756e7400000000000000006044820152606401610354565b848110156116085760405162461bcd60e51b815260206004820152601760248201527f496e73756666696369656e742045544820616d6f756e740000000000000000006044820152606401610354565b611610611d45565b611618611e93565b61162133612344565b604080518381526020810183905290810188905242606082015233907f8598e6b147330d38243f9c4cd33d61e208b9015719e977086fa42a0f73b1462b9060800160405180910390a26116746001600555565b9550959350505050565b6116866121a8565b6001600160a01b0381166116af57604051631e4fbdf760e01b81525f6004820152602401610354565b610eb38161243b565b6001600160a01b0381165f9081526013602052604081205481906116dc9042613088565b90505f6116fd846001600160a01b03165f9081526020819052604090205490565b90505f61170960025490565b9050805f0361173057505050506001600160a01b03165f9081526014602052604090205490565b5f61173e82620151806130e6565b836015548661174d91906130e6565b61175791906130e6565b6117619190613111565b6001600160a01b0387165f908152601460205260409020549091506114f69082906130d3565b61178f6121a8565b6109c48111156117d65760405162461bcd60e51b815260206004820152601260248201527108ccaca40e6d0c2e4ca40e8dede40d0d2ced60731b6044820152606401610354565b601055565b600654600160a01b900460ff16156110275760405163d93c066560e01b815260040160405180910390fd5b60026005540361182957604051633ee5aeb560e01b815260040160405180910390fd5b6002600555565b5f7f00000000000000000000000000000000000000000000000000000000000000006001600160a01b0316836001600160a01b03160361187257506001610d0f565b7f00000000000000000000000000000000000000000000000000000000000000006001600160a01b0316836001600160a01b031614806118eb57506001600160a01b0383161580156118eb57507f00000000000000000000000000000000000000000000000000000000000000006001600160a01b0316155b1561196d57505f7f00000000000000000000000000000000000000000000000000000000000000006001600160a01b031661196857813410156119685760405162461bcd60e51b8152602060048201526015602482015274125b9cdd59999a58da595b9d08115512081cd95b9d605a1b6044820152606401610354565b610d0f565b60405163c1ab6dc160e01b815260040160405180910390fd5b5f5f84116119d65760405162461bcd60e51b815260206004820152601a60248201527f496e73756666696369656e74206f757470757420616d6f756e740000000000006044820152606401610354565b5f836119e4576008546119e8565b6007545b90505f846119f8576007546119fc565b6008545b90505f82118015611a0c57508581115b611a515760405162461bcd60e51b8152602060048201526016602482015275496e73756666696369656e74206c697175696469747960501b6044820152606401610354565b5f611a5c87846130e6565b90505f611a698884613088565b90505f611a768284613111565b611a819060016130d3565b90505f611a8d886128ab565b9050611a9b81612710613088565b611aa7612710846130e6565b611ab19190613111565b9a9950505050505050505050565b5f81611acb5782611ae5565b600754600854611adb90856130e6565b611ae59190613111565b9050601754811115611b315760405162461bcd60e51b81526020600482015260156024820152745377617020616d6f756e7420746f6f206c6172676560581b6044820152606401610354565b60185481601954611b4291906130d3565b11156110a75760405162461bcd60e51b815260206004820152601560248201527411185a5b1e481d9bdb1d5b5948195e18d959591959605a1b6044820152606401610354565b8115611c6357611bc36001600160a01b037f00000000000000000000000000000000000000000000000000000000000000001633308761260e565b7f00000000000000000000000000000000000000000000000000000000000000006001600160a01b0316611c2a576040516001600160a01b0382169084156108fc029085905f818181858888f19350505050158015611c24573d5f5f3e3d5ffd5b50611d3f565b611c5e6001600160a01b037f000000000000000000000000000000000000000000000000000000000000000016828561248c565b611d3f565b7f00000000000000000000000000000000000000000000000000000000000000006001600160a01b0316611cd6575f611c9c8534613088565b90508015611cd057604051339082156108fc029083905f818181858888f19350505050158015611cce573d5f5f3e3d5ffd5b505b50611d0b565b611d0b6001600160a01b037f00000000000000000000000000000000000000000000000000000000000000001633308761260e565b611d3f6001600160a01b037f000000000000000000000000000000000000000000000000000000000000000016828561248c565b50505050565b6040516370a0823160e01b81523060048201527f00000000000000000000000000000000000000000000000000000000000000006001600160a01b0316906370a0823190602401602060405180830381865afa158015611da7573d5f5f3e3d5ffd5b505050506040513d601f19601f82011682018060405250810190611dcb9190613130565b6007557f00000000000000000000000000000000000000000000000000000000000000006001600160a01b031615611e88576040516370a0823160e01b81523060048201527f00000000000000000000000000000000000000000000000000000000000000006001600160a01b0316906370a0823190602401602060405180830381865afa158015611e5f573d5f5f3e3d5ffd5b505050506040513d601f19601f82011682018060405250810190611e839190613130565b611e8a565b475b60085542600a55565b600f545f90611ea29042613088565b90505f81118015611eb4575060075415155b8015611ec1575060085415155b15610eb3576007546008545f9190611ee290670de0b6b3a7640000906130e6565b611eec9190613111565b6008546007549192505f91611f0a90670de0b6b3a7640000906130e6565b611f149190613111565b600e5490915015611fa9575f611f2c84610708612960565b90505f611f3b610708836130d3565b905080611f4883866130e6565b600c54611f5890610708906130e6565b611f6291906130d3565b611f6c9190613111565b600c5580611f7a83856130e6565b600d54611f8a90610708906130e6565b611f9491906130d3565b611f9e9190613111565b600d5550611fb49050565b600c829055600d8190555b42600e819055600f819055600c54600d546040805192835260208301919091528101919091527f8a7ecef1a8ac8d8024230b6dc24e96939b61c9cf87ab314d059e4622b7910f969060600160405180910390a1505050565b601a5461201c90620151806130d3565b421061202b575f60195542601a555b5f816120375782612051565b60075460085461204790856130e6565b6120519190613111565b90508060195f82825461206491906130d3565b9091555050505050565b5f5f612079836128ab565b905061271061208882866130e6565b6110469190613111565b6110a7838383600161296f565b5f5f84116120ef5760405162461bcd60e51b815260206004820152601960248201527f496e73756666696369656e7420696e70757420616d6f756e74000000000000006044820152606401610354565b5f836120fd57600854612101565b6007545b90505f8461211157600754612115565b6008545b90505f8211801561212557505f81115b61216a5760405162461bcd60e51b8152602060048201526016602482015275496e73756666696369656e74206c697175696469747960501b6044820152606401610354565b5f612175878661206e565b90505f6121828289613088565b90505f61218f84836130e6565b90505f61219c83876130d3565b9050611ab18183613111565b6006546001600160a01b031633146110275760405163118cdaa760e01b8152336004820152602401610354565b6121dd6117db565b6006805460ff60a01b1916600160a01b1790557f62e78cea01bee320cd4e420270b5ea74000d11b0c9f74754ebdbfc544b05a2586122183390565b6040516001600160a01b03909116815260200160405180910390a1565b61223d612a41565b6006805460ff60a01b191690557f5db9ee0a495bf2e6ff9c91a7834c1ba4fdd244a5e8aa4e537bd38aeae4b073aa33612218565b6001600160a01b038381165f908152600160209081526040808320938616835292905220545f19811015611d3f57818110156122d957604051637dc7a0d960e11b81526001600160a01b03841660048201526024810182905260448101839052606401610354565b611d3f84848484035f61296f565b6001600160a01b03831661231057604051634b637e8f60e11b81525f6004820152602401610354565b6001600160a01b0382166123395760405163ec442f0560e01b81525f6004820152602401610354565b6110a7838383612a6b565b6001600160a01b0381165f9081526020819052604090205415612420576001600160a01b0381165f908152601360205260408120546123839042613088565b90505f6123a4836001600160a01b03165f9081526020819052604090205490565b90505f6123b060025490565b9050801561241c575f6123c682620151806130e6565b83601554866123d591906130e6565b6123df91906130e6565b6123e99190613111565b6001600160a01b0386165f908152601460205260408120805492935083929091906124159084906130d3565b9091555050505b5050505b6001600160a01b03165f908152601360205260409020429055565b600680546001600160a01b038381166001600160a01b0319831681179093556040519116919082907f8be0079c531659141344cd1fd0a4f28419497f9722a3daafe3b4186f6b6457e0905f90a35050565b6040516001600160a01b038381166024830152604482018390526110a791859182169063a9059cbb906064015b604051602081830303815290604052915060e01b6020820180516001600160e01b038381831617835250505050612b91565b6007545f9081901580156124ff5750600854155b1561250e575084905083612605565b6007546008545f919061252190896130e6565b61252b9190613111565b9050858111612586578381101561257c5760405162461bcd60e51b8152602060048201526015602482015274125b9cdd59999a58da595b9d081088185b5bdd5b9d605a1b6044820152606401610354565b8692509050612605565b6008546007545f919061259990896130e6565b6125a39190613111565b90508781111580156125b55750858110155b6125f95760405162461bcd60e51b8152602060048201526015602482015274125b9cdd59999a58da595b9d081048185b5bdd5b9d605a1b6044820152606401610354565b92508591506126059050565b94509492505050565b6040516001600160a01b038481166024830152838116604483015260648201839052611d3f9186918216906323b872dd906084016124b9565b5f5f61265260025490565b9050805f0361268e576103e861267061266b85876130e6565b612bfd565b61267a9190613088565b915061268960016103e8612d55565b6126c8565b6007546126c59061269f83876130e6565b6126a99190613111565b6008546126b684876130e6565b6126c09190613111565b612960565b91505b5f82116127175760405162461bcd60e51b815260206004820152601d60248201527f496e73756666696369656e74206c6971756964697479206d696e7465640000006044820152606401610354565b6127218583612d55565b509392505050565b5f5f5f61273560025490565b600754909150819061274790876130e6565b6127519190613111565b600854909350819061276390876130e6565b61276d9190613111565b91505f8311801561277d57505f82115b6127c95760405162461bcd60e51b815260206004820152601d60248201527f496e73756666696369656e74206c6971756964697479206275726e65640000006044820152606401610354565b6127d38686612d89565b6128076001600160a01b037f000000000000000000000000000000000000000000000000000000000000000016858561248c565b7f00000000000000000000000000000000000000000000000000000000000000006001600160a01b031661286e576040516001600160a01b0385169083156108fc029084905f818181858888f19350505050158015612868573d5f5f3e3d5ffd5b506128a2565b6128a26001600160a01b037f000000000000000000000000000000000000000000000000000000000000000016858461248c565b50935093915050565b604051632dfe9f3f60e21b81526001600160a01b0382811660048301525f9182917f0000000000000000000000000000000000000000000000000000000000000000169063b7fa7cfc90602401602060405180830381865afa158015612913573d5f5f3e3d5ffd5b505050506040513d601f19601f820116820180604052508101906129379190613130565b9050601e81156129595761271061294e8382613088565b61208890601e6130e6565b9392505050565b5f828218828410028218612959565b6001600160a01b0384166129985760405163e602df0560e01b81525f6004820152602401610354565b6001600160a01b0383166129c157604051634a1406b160e11b81525f6004820152602401610354565b6001600160a01b038085165f9081526001602090815260408083209387168352929052208290558015611d3f57826001600160a01b0316846001600160a01b03167f8c5be1e5ebec7d5bd14f71427d1e84f3dd0314c0f7b2291e5b200ac8c7c3b92584604051612a3391815260200190565b60405180910390a350505050565b600654600160a01b900460ff1661102757604051638dfc202b60e01b815260040160405180910390fd5b6001600160a01b038316612a95578060025f828254612a8a91906130d3565b90915550612b059050565b6001600160a01b0383165f9081526020819052604090205481811015612ae75760405163391434e360e21b81526001600160a01b03851660048201526024810182905260448101839052606401610354565b6001600160a01b0384165f9081526020819052604090209082900390555b6001600160a01b038216612b2157600280548290039055612b3f565b6001600160a01b0382165f9081526020819052604090208054820190555b816001600160a01b0316836001600160a01b03167fddf252ad1be2c89b69c2b068fc378daa952ba7f163c4a11628f55a4df523b3ef83604051612b8491815260200190565b60405180910390a3505050565b5f5f60205f8451602086015f885af180612bb0576040513d5f823e3d81fd5b50505f513d91508115612bc7578060011415612bd4565b6001600160a01b0384163b155b15611d3f57604051635274afe760e01b81526001600160a01b0385166004820152602401610354565b5f60018211612c0a575090565b816001600160801b8210612c235760809190911c9060401b5b680100000000000000008210612c3e5760409190911c9060201b5b6401000000008210612c555760209190911c9060101b5b620100008210612c6a5760109190911c9060081b5b6101008210612c7e5760089190911c9060041b5b60108210612c915760049190911c9060021b5b60048210612c9d5760011b5b600302600190811c90818581612cb557612cb56130fd565b048201901c90506001818581612ccd57612ccd6130fd565b048201901c90506001818581612ce557612ce56130fd565b048201901c90506001818581612cfd57612cfd6130fd565b048201901c90506001818581612d1557612d156130fd565b048201901c90506001818581612d2d57612d2d6130fd565b048201901c9050612d4c818581612d4657612d466130fd565b04821190565b90039392505050565b6001600160a01b038216612d7e5760405163ec442f0560e01b81525f6004820152602401610354565b6110d25f8383612a6b565b6001600160a01b038216612db257604051634b637e8f60e11b81525f6004820152602401610354565b6110d2825f83612a6b565b80356001600160a01b0381168114612dd3575f5ffd5b919050565b5f5f5f5f5f60a08688031215612dec575f5ffd5b8535945060208601359350612e0360408701612dbd565b9250612e1160608701612dbd565b949793965091946080013592915050565b602081525f82518060208401528060208501604085015e5f604082850101526040601f19601f83011684010191505092915050565b5f5f60408385031215612e68575f5ffd5b612e7183612dbd565b946020939093013593505050565b80358015158114612dd3575f5ffd5b5f60208284031215612e9e575f5ffd5b61295982612e7f565b5f5f5f60608486031215612eb9575f5ffd5b612ec284612dbd565b9250612ed060208501612dbd565b929592945050506040919091013590565b5f60208284031215612ef1575f5ffd5b61295982612dbd565b5f5f5f60608486031215612f0c575f5ffd5b83359250612f1c60208501612e7f565b9150612f2a60408501612dbd565b90509250925092565b5f60208284031215612f43575f5ffd5b5035919050565b5f5f60408385031215612f5b575f5ffd5b50508035926020909101359150565b5f5f60408385031215612f7b575f5ffd5b612f8483612dbd565b9150612f9260208401612dbd565b90509250929050565b5f5f5f5f5f5f60c08789031215612fb0575f5ffd5b86359550602087013594506040870135935060608701359250612fd560808801612dbd565b9598949750929591949360a090920135925050565b5f5f5f5f5f60a08688031215612ffe575f5ffd5b853594506020860135935060408601359250612e1160608701612dbd565b602080825260139082015272151c985b9cd858dd1a5bdb88195e1c1a5c9959606a1b604082015260600190565b602080825260119082015270125b9d985b1a59081c9958da5c1a595b9d607a1b604082015260600190565b634e487b7160e01b5f52601160045260245ffd5b81810381811115610d0f57610d0f613074565b600181811c908216806130af57607f821691505b6020821081036130cd57634e487b7160e01b5f52602260045260245ffd5b50919050565b80820180821115610d0f57610d0f613074565b8082028115828204841417610d0f57610d0f613074565b634e487b7160e01b5f52601260045260245ffd5b5f8261312b57634e487b7160e01b5f52601260045260245ffd5b500490565b5f60208284031215613140575f5ffd5b505191905056","linkReferences":{}},"methodIdentifiers":{"BASE_FEE()":"3d18651e","FEE_DENOMINATOR()":"d73792a9","MINIMUM_LIQUIDITY()":"ba9a7a56","PRECISION()":"aaf5eb68","TWAP_PERIOD()":"7ca25184","addLiquidity(uint256,uint256,uint256,uint256,address,uint256)":"ded998b9","allowance(address,address)":"dd62ed3e","approve(address,uint256)":"095ea7b3","balanceOf(address)":"70a08231","claimRewards()":"372500ab","collectFees()":"c8796572","dailyVolume()":"98c8877e","dashToken()":"88c8ec95","decimals()":"313ce567","emergencyWithdraw(address,uint256)":"95ccea67","feeCollector()":"c415b95c","getAmountIn(uint256,bool,address)":"8ecb647e","getAmountOut(uint256,bool,address)":"95bf1502","getPendingRewards(address)":"f6ed2017","getPoolStats()":"bbb85188","getReserves()":"0902f1ac","getTWAPPrice()":"d262271d","lastRewardTime(address)":"3b5d441e","lastVolumeReset()":"e5bd9fa1","maxDailyVolume()":"07df2f18","maxSingleSwap()":"a89f54d2","name()":"06fdde03","owner()":"8da5cb5b","paused()":"5c975abb","pendingRewards(address)":"31d7a262","poolInfo()":"5a2f3d09","protocolFeeShare()":"960b26a2","removeLiquidity(uint256,uint256,uint256,address,uint256)":"ed856cdc","renounceOwnership()":"715018a6","rewardRate()":"7b0a47ee","setPaused(bool)":"16c38b3c","setProtocolFeeShare(uint256)":"f742919b","setRewardRate(uint256)":"9e447fc6","swapExactTokensForTokens(uint256,uint256,address,address,uint256)":"0a9e24b1","swapTokensForExactTokens(uint256,uint256,address,address,uint256)":"04d5911f","symbol()":"95d89b41","tokenA()":"0fc63d10","tokenB()":"5f64b55b","totalRewardsDistributed()":"ee172546","totalSupply()":"18160ddd","transfer(address,uint256)":"a9059cbb","transferFrom(address,address,uint256)":"23b872dd","transferOwnership(address)":"f2fde38b","twapData()":"26d7a441","updateLimits(uint256,uint256)":"a2240e19","userFeeDiscounts(address)":"65b20fc0"},"id":98}