{"abi":[{"type":"constructor","inputs":[{"name":"_dashToken","type":"address","internalType":"contract DashToken"},{"name":"_tokenB","type":"address","internalType":"contract IERC20"},{"name":"_feeCollector","type":"address","internalType":"address"},{"name":"initialOwner","type":"address","internalType":"address"}],"stateMutability":"nonpayable"},{"type":"receive","stateMutability":"payable"},{"type":"function","name":"BASE_FEE","inputs":[],"outputs":[{"name":"","type":"uint256","internalType":"uint256"}],"stateMutability":"view"},{"type":"function","name":"FEE_DENOMINATOR","inputs":[],"outputs":[{"name":"","type":"uint256","internalType":"uint256"}],"stateMutability":"view"},{"type":"function","name":"MINIMUM_LIQUIDITY","inputs":[],"outputs":[{"name":"","type":"uint256","internalType":"uint256"}],"stateMutability":"view"},{"type":"function","name":"PRECISION","inputs":[],"outputs":[{"name":"","type":"uint256","internalType":"uint256"}],"stateMutability":"view"},{"type":"function","name":"TWAP_PERIOD","inputs":[],"outputs":[{"name":"","type":"uint256","internalType":"uint256"}],"stateMutability":"view"},{"type":"function","name":"addLiquidity","inputs":[{"name":"amountADesired","type":"uint256","internalType":"uint256"},{"name":"amountBDesired","type":"uint256","internalType":"uint256"},{"name":"amountAMin","type":"uint256","internalType":"uint256"},{"name":"amountBMin","type":"uint256","internalType":"uint256"},{"name":"to","type":"address","internalType":"address"},{"name":"deadline","type":"uint256","internalType":"uint256"}],"outputs":[{"name":"liquidity","type":"uint256","internalType":"uint256"}],"stateMutability":"payable"},{"type":"function","name":"allowance","inputs":[{"name":"owner","type":"address","internalType":"address"},{"name":"spender","type":"address","internalType":"address"}],"outputs":[{"name":"","type":"uint256","internalType":"uint256"}],"stateMutability":"view"},{"type":"function","name":"approve","inputs":[{"name":"spender","type":"address","internalType":"address"},{"name":"value","type":"uint256","internalType":"uint256"}],"outputs":[{"name":"","type":"bool","internalType":"bool"}],"stateMutability":"nonpayable"},{"type":"function","name":"balanceOf","inputs":[{"name":"account","type":"address","internalType":"address"}],"outputs":[{"name":"","type":"uint256","internalType":"uint256"}],"stateMutability":"view"},{"type":"function","name":"claimRewards","inputs":[],"outputs":[],"stateMutability":"nonpayable"},{"type":"function","name":"collectFees","inputs":[],"outputs":[],"stateMutability":"nonpayable"},{"type":"function","name":"dailyVolume","inputs":[],"outputs":[{"name":"","type":"uint256","internalType":"uint256"}],"stateMutability":"view"},{"type":"function","name":"dashToken","inputs":[],"outputs":[{"name":"","type":"address","internalType":"contract DashToken"}],"stateMutability":"view"},{"type":"function","name":"decimals","inputs":[],"outputs":[{"name":"","type":"uint8","internalType":"uint8"}],"stateMutability":"view"},{"type":"function","name":"emergencyWithdraw","inputs":[{"name":"token","type":"address","internalType":"address"},{"name":"amount","type":"uint256","internalType":"uint256"}],"outputs":[],"stateMutability":"nonpayable"},{"type":"function","name":"feeCollector","inputs":[],"outputs":[{"name":"","type":"address","internalType":"address"}],"stateMutability":"view"},{"type":"function","name":"getAmountIn","inputs":[{"name":"amountOut","type":"uint256","internalType":"uint256"},{"name":"isTokenAInput","type":"bool","internalType":"bool"},{"name":"trader","type":"address","internalType":"address"}],"outputs":[{"name":"amountIn","type":"uint256","internalType":"uint256"}],"stateMutability":"view"},{"type":"function","name":"getAmountOut","inputs":[{"name":"amountIn","type":"uint256","internalType":"uint256"},{"name":"isTokenAInput","type":"bool","internalType":"bool"},{"name":"trader","type":"address","internalType":"address"}],"outputs":[{"name":"amountOut","type":"uint256","internalType":"uint256"}],"stateMutability":"view"},{"type":"function","name":"getPendingRewards","inputs":[{"name":"user","type":"address","internalType":"address"}],"outputs":[{"name":"","type":"uint256","internalType":"uint256"}],"stateMutability":"view"},{"type":"function","name":"getPoolStats","inputs":[],"outputs":[{"name":"_totalLiquidity","type":"uint256","internalType":"uint256"},{"name":"_totalVolume24h","type":"uint256","internalType":"uint256"},{"name":"_totalFees","type":"uint256","internalType":"uint256"},{"name":"_apy","type":"uint256","internalType":"uint256"},{"name":"_utilizationRate","type":"uint256","internalType":"uint256"}],"stateMutability":"view"},{"type":"function","name":"getReserves","inputs":[],"outputs":[{"name":"reserveA","type":"uint256","internalType":"uint256"},{"name":"reserveB","type":"uint256","internalType":"uint256"},{"name":"blockTimestamp","type":"uint256","internalType":"uint256"}],"stateMutability":"view"},{"type":"function","name":"getTWAPPrice","inputs":[],"outputs":[{"name":"price0","type":"uint256","internalType":"uint256"},{"name":"price1","type":"uint256","internalType":"uint256"}],"stateMutability":"view"},{"type":"function","name":"lastRewardTime","inputs":[{"name":"","type":"address","internalType":"address"}],"outputs":[{"name":"","type":"uint256","internalType":"uint256"}],"stateMutability":"view"},{"type":"function","name":"lastVolumeReset","inputs":[],"outputs":[{"name":"","type":"uint256","internalType":"uint256"}],"stateMutability":"view"},{"type":"function","name":"maxDailyVolume","inputs":[],"outputs":[{"name":"","type":"uint256","internalType":"uint256"}],"stateMutability":"view"},{"type":"function","name":"maxSingleSwap","inputs":[],"outputs":[{"name":"","type":"uint256","internalType":"uint256"}],"stateMutability":"view"},{"type":"function","name":"name","inputs":[],"outputs":[{"name":"","type":"string","internalType":"string"}],"stateMutability":"view"},{"type":"function","name":"owner","inputs":[],"outputs":[{"name":"","type":"address","internalType":"address"}],"stateMutability":"view"},{"type":"function","name":"paused","inputs":[],"outputs":[{"name":"","type":"bool","internalType":"bool"}],"stateMutability":"view"},{"type":"function","name":"pendingRewards","inputs":[{"name":"","type":"address","internalType":"address"}],"outputs":[{"name":"","type":"uint256","internalType":"uint256"}],"stateMutability":"view"},{"type":"function","name":"poolInfo","inputs":[],"outputs":[{"name":"reserveA","type":"uint256","internalType":"uint256"},{"name":"reserveB","type":"uint256","internalType":"uint256"},{"name":"totalFees","type":"uint256","internalType":"uint256"},{"name":"lastUpdateTime","type":"uint256","internalType":"uint256"},{"name":"kLast","type":"uint256","internalType":"uint256"}],"stateMutability":"view"},{"type":"function","name":"protocolFeeShare","inputs":[],"outputs":[{"name":"","type":"uint256","internalType":"uint256"}],"stateMutability":"view"},{"type":"function","name":"removeLiquidity","inputs":[{"name":"liquidity","type":"uint256","internalType":"uint256"},{"name":"amountAMin","type":"uint256","internalType":"uint256"},{"name":"amountBMin","type":"uint256","internalType":"uint256"},{"name":"to","type":"address","internalType":"address"},{"name":"deadline","type":"uint256","internalType":"uint256"}],"outputs":[{"name":"amountA","type":"uint256","internalType":"uint256"},{"name":"amountB","type":"uint256","internalType":"uint256"}],"stateMutability":"nonpayable"},{"type":"function","name":"renounceOwnership","inputs":[],"outputs":[],"stateMutability":"nonpayable"},{"type":"function","name":"rewardRate","inputs":[],"outputs":[{"name":"","type":"uint256","internalType":"uint256"}],"stateMutability":"view"},{"type":"function","name":"setPaused","inputs":[{"name":"paused","type":"bool","internalType":"bool"}],"outputs":[],"stateMutability":"nonpayable"},{"type":"function","name":"setProtocolFeeShare","inputs":[{"name":"newFeeShare","type":"uint256","internalType":"uint256"}],"outputs":[],"stateMutability":"nonpayable"},{"type":"function","name":"setRewardRate","inputs":[{"name":"newRate","type":"uint256","internalType":"uint256"}],"outputs":[],"stateMutability":"nonpayable"},{"type":"function","name":"swapExactTokensForTokens","inputs":[{"name":"amountIn","type":"uint256","internalType":"uint256"},{"name":"amountOutMin","type":"uint256","internalType":"uint256"},{"name":"tokenIn","type":"address","internalType":"address"},{"name":"to","type":"address","internalType":"address"},{"name":"deadline","type":"uint256","internalType":"uint256"}],"outputs":[{"name":"amountOut","type":"uint256","internalType":"uint256"}],"stateMutability":"payable"},{"type":"function","name":"swapTokensForExactTokens","inputs":[{"name":"amountOut","type":"uint256","internalType":"uint256"},{"name":"amountInMax","type":"uint256","internalType":"uint256"},{"name":"tokenIn","type":"address","internalType":"address"},{"name":"to","type":"address","internalType":"address"},{"name":"deadline","type":"uint256","internalType":"uint256"}],"outputs":[{"name":"amountIn","type":"uint256","internalType":"uint256"}],"stateMutability":"payable"},{"type":"function","name":"symbol","inputs":[],"outputs":[{"name":"","type":"string","internalType":"string"}],"stateMutability":"view"},{"type":"function","name":"tokenA","inputs":[],"outputs":[{"name":"","type":"address","internalType":"contract IERC20"}],"stateMutability":"view"},{"type":"function","name":"tokenB","inputs":[],"outputs":[{"name":"","type":"address","internalType":"contract IERC20"}],"stateMutability":"view"},{"type":"function","name":"totalRewardsDistributed","inputs":[],"outputs":[{"name":"","type":"uint256","internalType":"uint256"}],"stateMutability":"view"},{"type":"function","name":"totalSupply","inputs":[],"outputs":[{"name":"","type":"uint256","internalType":"uint256"}],"stateMutability":"view"},{"type":"function","name":"transfer","inputs":[{"name":"to","type":"address","internalType":"address"},{"name":"value","type":"uint256","internalType":"uint256"}],"outputs":[{"name":"","type":"bool","internalType":"bool"}],"stateMutability":"nonpayable"},{"type":"function","name":"transferFrom","inputs":[{"name":"from","type":"address","internalType":"address"},{"name":"to","type":"address","internalType":"address"},{"name":"value","type":"uint256","internalType":"uint256"}],"outputs":[{"name":"","type":"bool","internalType":"bool"}],"stateMutability":"nonpayable"},{"type":"function","name":"transferOwnership","inputs":[{"name":"newOwner","type":"address","internalType":"address"}],"outputs":[],"stateMutability":"nonpayable"},{"type":"function","name":"twapData","inputs":[],"outputs":[{"name":"price0Average","type":"uint256","internalType":"uint256"},{"name":"price1Average","type":"uint256","internalType":"uint256"},{"name":"lastUpdateTime","type":"uint256","internalType":"uint256"},{"name":"lastBlockTimestamp","type":"uint256","internalType":"uint256"}],"stateMutability":"view"},{"type":"function","name":"updateLimits","inputs":[{"name":"newMaxSingleSwap","type":"uint256","internalType":"uint256"},{"name":"newMaxDailyVolume","type":"uint256","internalType":"uint256"}],"outputs":[],"stateMutability":"nonpayable"},{"type":"function","name":"userFeeDiscounts","inputs":[{"name":"","type":"address","internalType":"address"}],"outputs":[{"name":"","type":"uint256","internalType":"uint256"}],"stateMutability":"view"},{"type":"event","name":"Approval","inputs":[{"name":"owner","type":"address","indexed":true,"internalType":"address"},{"name":"spender","type":"address","indexed":true,"internalType":"address"},{"name":"value","type":"uint256","indexed":false,"internalType":"uint256"}],"anonymous":false},{"type":"event","name":"FeesCollected","inputs":[{"name":"amount","type":"uint256","indexed":false,"internalType":"uint256"},{"name":"collector","type":"address","indexed":true,"internalType":"address"}],"anonymous":false},{"type":"event","name":"LiquidityAdded","inputs":[{"name":"provider","type":"address","indexed":true,"internalType":"address"},{"name":"amountA","type":"uint256","indexed":false,"internalType":"uint256"},{"name":"amountB","type":"uint256","indexed":false,"internalType":"uint256"},{"name":"liquidity","type":"uint256","indexed":false,"internalType":"uint256"},{"name":"timestamp","type":"uint256","indexed":false,"internalType":"uint256"}],"anonymous":false},{"type":"event","name":"LiquidityRemoved","inputs":[{"name":"provider","type":"address","indexed":true,"internalType":"address"},{"name":"amountA","type":"uint256","indexed":false,"internalType":"uint256"},{"name":"amountB","type":"uint256","indexed":false,"internalType":"uint256"},{"name":"liquidity","type":"uint256","indexed":false,"internalType":"uint256"},{"name":"timestamp","type":"uint256","indexed":false,"internalType":"uint256"}],"anonymous":false},{"type":"event","name":"OwnershipTransferred","inputs":[{"name":"previousOwner","type":"address","indexed":true,"internalType":"address"},{"name":"newOwner","type":"address","indexed":true,"internalType":"address"}],"anonymous":false},{"type":"event","name":"Paused","inputs":[{"name":"account","type":"address","indexed":false,"internalType":"address"}],"anonymous":false},{"type":"event","name":"RewardsDistributed","inputs":[{"name":"user","type":"address","indexed":true,"internalType":"address"},{"name":"amount","type":"uint256","indexed":false,"internalType":"uint256"}],"anonymous":false},{"type":"event","name":"Swap","inputs":[{"name":"trader","type":"address","indexed":true,"internalType":"address"},{"name":"tokenIn","type":"address","indexed":true,"internalType":"address"},{"name":"tokenOut","type":"address","indexed":true,"internalType":"address"},{"name":"amountIn","type":"uint256","indexed":false,"internalType":"uint256"},{"name":"amountOut","type":"uint256","indexed":false,"internalType":"uint256"},{"name":"fee","type":"uint256","indexed":false,"internalType":"uint256"},{"name":"timestamp","type":"uint256","indexed":false,"internalType":"uint256"}],"anonymous":false},{"type":"event","name":"TWAPUpdated","inputs":[{"name":"price0","type":"uint256","indexed":false,"internalType":"uint256"},{"name":"price1","type":"uint256","indexed":false,"internalType":"uint256"},{"name":"timestamp","type":"uint256","indexed":false,"internalType":"uint256"}],"anonymous":false},{"type":"event","name":"Transfer","inputs":[{"name":"from","type":"address","indexed":true,"internalType":"address"},{"name":"to","type":"address","indexed":true,"internalType":"address"},{"name":"value","type":"uint256","indexed":false,"internalType":"uint256"}],"anonymous":false},{"type":"event","name":"Unpaused","inputs":[{"name":"account","type":"address","indexed":false,"internalType":"address"}],"anonymous":false},{"type":"error","name":"DailyVolumeExceeded","inputs":[]},{"type":"error","name":"ERC20InsufficientAllowance","inputs":[{"name":"spender","type":"address","internalType":"address"},{"name":"allowance","type":"uint256","internalType":"uint256"},{"name":"needed","type":"uint256","internalType":"uint256"}]},{"type":"error","name":"ERC20InsufficientBalance","inputs":[{"name":"sender","type":"address","internalType":"address"},{"name":"balance","type":"uint256","internalType":"uint256"},{"name":"needed","type":"uint256","internalType":"uint256"}]},{"type":"error","name":"ERC20InvalidApprover","inputs":[{"name":"approver","type":"address","internalType":"address"}]},{"type":"error","name":"ERC20InvalidReceiver","inputs":[{"name":"receiver","type":"address","internalType":"address"}]},{"type":"error","name":"ERC20InvalidSender","inputs":[{"name":"sender","type":"address","internalType":"address"}]},{"type":"error","name":"ERC20InvalidSpender","inputs":[{"name":"spender","type":"address","internalType":"address"}]},{"type":"error","name":"EnforcedPause","inputs":[]},{"type":"error","name":"ExcessiveSlippage","inputs":[]},{"type":"error","name":"ExpectedPause","inputs":[]},{"type":"error","name":"InsufficientAmount","inputs":[]},{"type":"error","name":"InsufficientLiquidity","inputs":[]},{"type":"error","name":"InsufficientOutputAmount","inputs":[]},{"type":"error","name":"InvalidFeeShare","inputs":[]},{"type":"error","name":"InvalidToken","inputs":[]},{"type":"error","name":"OwnableInvalidOwner","inputs":[{"name":"owner","type":"address","internalType":"address"}]},{"type":"error","name":"OwnableUnauthorizedAccount","inputs":[{"name":"account","type":"address","internalType":"address"}]},{"type":"error","name":"ReentrancyGuardReentrantCall","inputs":[]},{"type":"error","name":"SafeERC20FailedOperation","inputs":[{"name":"token","type":"address","internalType":"address"}]},{"type":"error","name":"SwapLimitExceeded","inputs":[]},{"type":"error","name":"ZeroAddress","inputs":[]}],"bytecode":{"object":"0x60e0604052346104ef5761311c6080813803918261001c816104f3565b9384928339810103126104ef578051906001600160a01b0382168083036104ef576020820151906001600160a01b03821682036104ef5761006b606061006460408601610518565b9401610518565b61007560406104f3565b600b81526a0444153482d455448204c560ac1b602082015261009760406104f3565b600b81526a0444153482d4554482d4c560ac1b6020820152815190916001600160401b0382116103f25760035490600182811c921680156104e5575b60208310146103d45781601f849311610477575b50602090601f8311600114610411575f92610406575b50508160011b915f199060031b1c1916176003555b8051906001600160401b0382116103f25760045490600182811c921680156103e8575b60208310146103d45781601f849311610366575b50602090601f8311600114610300575f926102f5575b50508160011b915f199060031b1c1916176004555b60016005556001600160a01b03169384156102e257600680546001600160a01b03198116871790915560405195906001600160a01b03167f8be0079c531659141344cd1fd0a4f28419497f9722a3daafe3b4186f6b6457e05f80a361064060105568056bc75e2d6310000060155568056bc75e2d63100000601755683635c9adc5dea0000060185560805260a05260c05260018060a01b031660018060a01b0319601154161760115542600e5542600f5542601a55612bef908161052d8239608051818181610a9701528181611000015281816112910152612974015260a0518181816104f7015281816107d5015281816115ed01528181611668015281816119f5015281816121440152818161221b0152612296015260c051818181601a0152818161051d015281816107810152818161114e015281816116e40152818161178f01528181611a7801528181611b5a01528181611bc80152818161216a015281816121d101526122d40152f35b631e4fbdf760e01b5f525f60045260245ffd5b015190505f8061015f565b60045f9081528281209350601f198516905b81811061034e5750908460019594939210610336575b505050811b01600455610174565b01515f1960f88460031b161c191690555f8080610328565b92936020600181928786015181550195019301610312565b60045f529091507f8a35acfbc15ff81a39ae7d344fd709f28e8600b4aa8c65c6b64bfe7fe36bd19b601f840160051c810191602085106103ca575b90601f859493920160051c01905b8181106103bc5750610149565b5f81558493506001016103af565b90915081906103a1565b634e487b7160e01b5f52602260045260245ffd5b91607f1691610135565b634e487b7160e01b5f52604160045260245ffd5b015190505f806100fd565b60035f9081528281209350601f198516905b81811061045f5750908460019594939210610447575b505050811b01600355610112565b01515f1960f88460031b161c191690555f8080610439565b92936020600181928786015181550195019301610423565b60035f529091507fc2575a0e9e593c00f959f8c92f12db2869c3395a3b0502d05e2516446f71f85b601f840160051c810191602085106104db575b90601f859493920160051c01905b8181106104cd57506100e7565b5f81558493506001016104c0565b90915081906104b2565b91607f16916100d3565b5f80fd5b6040519190601f01601f191682016001600160401b038111838210176103f257604052565b51906001600160a01b03821682036104ef5756fe6080604052600436101561008d575b3615610018575f80fd5b7f00000000000000000000000000000000000000000000000000000000000000006001600160a01b031661004857005b60405162461bcd60e51b815260206004820152601760248201527f506f6f6c20646f65736e277420616363657074204554480000000000000000006044820152606490fd5b5f5f3560e01c806304d5911f146119c757806306fdde03146118d357806307df2f18146118b65780630902f1ac14611885578063095ea7b3146118035780630a9e24b11461161c5780630fc63d10146115d857806316c38b3c1461150f57806318160ddd146114f257806323b872dd1461141357806326d7a441146113da578063313ce567146113bf57806331d7a26214611387578063372500ab1461123d5780633b5d441e146112045780633d18651e146111e85780635a2f3d09146111a35780635c975abb1461117d5780635f64b55b1461113857806365b20fc0146110ff57806370a08231146110c7578063715018a61461106a5780637b0a47ee1461104c5780637ca251841461102f57806388c8ec9514610fea5780638da5cb5b14610fc15780638ecb647e14610fa757806395bf150214610f8d57806395ccea6714610f1057806395d89b4114610e0b578063960b26a214610ded57806398c8877e14610dcf5780639e447fc614610dac578063a2240e1914610d83578063a89f54d214610d65578063a9059cbb14610d33578063aaf5eb6814610d10578063ba9a7a5614610cf3578063bbb8518814610bc0578063c415b95c14610b97578063c879657214610a5d578063d262271d14610a36578063d73792a914610a19578063dd62ed3e146109c6578063ded998b91461072f578063e5bd9fa114610711578063ed856cdc14610404578063ee172546146103e6578063f2fde38b1461035d578063f6ed2017146103315763f742919b146102c9575061000e565b3461032e57602036600319011261032e576004356102e561263a565b6109c481116102f45760105580f35b60405162461bcd60e51b815260206004820152601260248201527108ccaca40e6d0c2e4ca40e8dede40d0d2ced60731b6044820152606490fd5b80fd5b503461032e57602036600319011261032e576020610355610350611c25565b611ec0565b604051908152f35b503461032e57602036600319011261032e57610377611c25565b61037f61263a565b6001600160a01b031680156103d257600680546001600160a01b0319811683179091556001600160a01b03167f8be0079c531659141344cd1fd0a4f28419497f9722a3daafe3b4186f6b6457e08380a380f35b631e4fbdf760e01b82526004829052602482fd5b503461032e578060031936011261032e576020601654604051908152f35b503461032e5760a036600319011261032e57600435906064356001600160a01b0381169182820361032e57610437611f55565b61043f611f73565b61044d608435421115611cf0565b610458831515611d32565b600254926104816104748561046f60075489611e66565b611e79565b9461046f60085488611e66565b9284151580610708575b156106c35733156106af57338352826020526040832054868110610694579086859392338652856020520360408520558660025403600255836040518881527fddf252ad1be2c89b69c2b068fc378daa952ba7f163c4a11628f55a4df523b3ef60203392a361051b86827f00000000000000000000000000000000000000000000000000000000000000006127cb565b7f00000000000000000000000000000000000000000000000000000000000000006001600160a01b038116610682575050828080938193828215610679575bf11561066d57505b60243582106106285760443581106105e35760409261057f61227b565b6105876123a3565b6105903361271e565b835183815260208101839052604081019190915242606082015233907f8598e6b147330d38243f9c4cd33d61e208b9015719e977086fa42a0f73b1462b90608090a2600160055582519182526020820152f35b60405162461bcd60e51b815260206004820152601760248201527f496e73756666696369656e742045544820616d6f756e740000000000000000006044820152606490fd5b60405162461bcd60e51b815260206004820152601860248201527f496e73756666696369656e74204441534820616d6f756e7400000000000000006044820152606490fd5b604051903d90823e3d90fd5b506108fc61055a565b90915061068f93506127cb565b610562565b63391434e360e21b8452336004526024526044869052606483fd5b634b637e8f60e11b83526004839052602483fd5b60405162461bcd60e51b815260206004820152601d60248201527f496e73756666696369656e74206c6971756964697479206275726e65640000006044820152606490fd5b5083151561048b565b503461032e578060031936011261032e576020601a54604051908152f35b5060c036600319011261032e5760243590608435906001600160a01b0382168083036109c25761075d611f55565b610765611f73565b61077360a435421115611cf0565b159161077f8315611d32565b7f00000000000000000000000000000000000000000000000000000000000000006001600160a01b038116159490929085610980575b6107c990606435906044359060043561280c565b81966107f982969330337f0000000000000000000000000000000000000000000000000000000000000000612906565b1561096c575b505060025480610931575061081c6108178487611e66565b612acd565b6103e719810190811161091d57936108376103e86001612a08565b84156108d8576108c457506108b460209461088c83610877877f08d7621a09a86934f387f650007fa17f2413759ca5f2ae0681161b371583a5f596612a08565b61087f61227b565b6108876123a3565b61271e565b6040519182918633964292859094939260609260808301968352602083015260408201520152565b0390a26001600555604051908152f35b63ec442f0560e01b81526004819052602490fd5b60405162461bcd60e51b815260206004820152601d60248201527f496e73756666696369656e74206c6971756964697479206d696e7465640000006044820152606490fd5b634e487b7160e01b82526011600452602482fd5b61095d61095461094d610944848a611e66565b60075490611e79565b9286611e66565b60085490611e79565b90818082109118021893610837565b6109799130903390612906565b5f836107ff565b3481146107b55760405162461bcd60e51b815260206004820152601360248201527208aa89040c2dadeeadce840dad2e6dac2e8c6d606b1b6044820152606490fd5b5080fd5b503461032e57604036600319011261032e5760406109e2611c25565b916109eb611c3b565b9260018060a01b031681526001602052209060018060a01b03165f52602052602060405f2054604051908152f35b503461032e578060031936011261032e5760206040516127108152f35b503461032e578060031936011261032e576040610a51611e97565b82519182526020820152f35b503461032e578060031936011261032e57610a7661263a565b6009548015610b5d57600982905560115482906001600160a01b03908116907f000000000000000000000000000000000000000000000000000000000000000016803b15610b59576040516340c10f1960e01b81526001600160a01b039290921660048301526024820184905282908290604490829084905af18015610b4e57610b39575b50506011546040519182526001600160a01b0316907f0c2a2f565c7774c59e49ef6b3c255329f4d254147e06e724d3a8569bb7bd21ad90602090a280f35b81610b4391611dd7565b6109c257815f610afb565b6040513d84823e3d90fd5b8280fd5b60405162461bcd60e51b8152602060048201526012602482015271139bc81999595cc81d1bc818dbdb1b1958dd60721b6044820152606490fd5b503461032e578060031936011261032e576011546040516001600160a01b039091168152602090f35b503461032e578060031936011261032e576002546019546009549092808084151580610c61575b610c20575b50610c1c92604051958695869192608093969594919660a084019784526020840152604083015260608201520152565b0390f35b909150606485029085820460641486151715610c4d575090610c4684610c1c9493611e79565b9192610bec565b634e487b7160e01b81526011600452602490fd5b915062015180840284810462015180148515171561091d57610c85600a5442611db6565b9060018201809211610cdf57610ca791610c9e91611e79565b60155490611e59565b61016d81029080820461016d1481151715610cdf57618e9402908082046064149015171561091d5785610cd991611e79565b91610be7565b634e487b7160e01b83526011600452602483fd5b503461032e578060031936011261032e5760206040516103e88152f35b503461032e578060031936011261032e576020604051670de0b6b3a76400008152f35b503461032e57604036600319011261032e57610d5a610d50611c25565b6024359033612661565b602060405160018152f35b503461032e578060031936011261032e576020601754604051908152f35b503461032e57604036600319011261032e57610d9d61263a565b60043560175560243560185580f35b503461032e57602036600319011261032e57610dc661263a565b60043560155580f35b503461032e578060031936011261032e576020601954604051908152f35b503461032e578060031936011261032e576020601054604051908152f35b503461032e578060031936011261032e576040519080600454908160011c91600181168015610f06575b602084108114610ef257838652908115610ecb5750600114610e6e575b610c1c84610e6281860382611dd7565b60405191829182611c93565b600481527f8a35acfbc15ff81a39ae7d344fd709f28e8600b4aa8c65c6b64bfe7fe36bd19b939250905b808210610eb157509091508101602001610e6282610e52565b919260018160209254838588010152019101909291610e98565b60ff191660208087019190915292151560051b85019092019250610e629150839050610e52565b634e487b7160e01b83526022600452602483fd5b92607f1692610e35565b503461032e57604036600319011261032e5780610f2b611c25565b60243590610f3761263a565b6001600160a01b031680610f735750600654829182918291906001600160a01b0316828215610f6a575bf11561066d5780f35b506108fc610f61565b600654610f8a93506001600160a01b0316906127cb565b80f35b503461032e576020610355610fa136611cbd565b9161256d565b503461032e576020610355610fbb36611cbd565b91611fd8565b503461032e578060031936011261032e576006546040516001600160a01b039091168152602090f35b503461032e578060031936011261032e576040517f00000000000000000000000000000000000000000000000000000000000000006001600160a01b03168152602090f35b503461032e578060031936011261032e5760206040516107088152f35b503461032e578060031936011261032e576020601554604051908152f35b503461032e578060031936011261032e5761108361263a565b600680546001600160a01b0319811690915581906001600160a01b03167f8be0079c531659141344cd1fd0a4f28419497f9722a3daafe3b4186f6b6457e08280a380f35b503461032e57602036600319011261032e576020906040906001600160a01b036110ef611c25565b1681528083522054604051908152f35b503461032e57602036600319011261032e576020906040906001600160a01b03611127611c25565b168152601283522054604051908152f35b503461032e578060031936011261032e576040517f00000000000000000000000000000000000000000000000000000000000000006001600160a01b03168152602090f35b503461032e578060031936011261032e57602060ff60065460a01c166040519015158152f35b503461032e578060031936011261032e57600754600854600954600a54600b54604080519586526020860194909452928401919091526060830152608082015260a090f35b503461032e578060031936011261032e576020604051601e8152f35b503461032e57602036600319011261032e576020906040906001600160a01b0361122c611c25565b168152601383522054604051908152f35b5034611348575f36600319011261134857611256611f73565b61125f3361271e565b335f52601460205260405f2054801561134c57335f5260146020525f604081205561128c81601654611e59565b6016557f00000000000000000000000000000000000000000000000000000000000000006001600160a01b0316803b15611348576040516340c10f1960e01b815233600482015260248101839052905f908290604490829084905af1801561133d57611328575b506040519081527fdf29796aad820e4bb192f3a8d631b76519bcd2cbe77cc85af20e9df53cece08660203392a2600160055580f35b6113359192505f90611dd7565b5f905f6112f3565b6040513d5f823e3d90fd5b5f80fd5b60405162461bcd60e51b81526020600482015260136024820152724e6f207265776172647320746f20636c61696d60681b6044820152606490fd5b34611348576020366003190112611348576001600160a01b036113a8611c25565b165f526014602052602060405f2054604051908152f35b34611348575f36600319011261134857602060405160128152f35b34611348575f36600319011261134857600c54600d54600e54600f54604080519485526020850193909352918301526060820152608090f35b346113485760603660031901126113485761142c611c25565b611434611c3b565b6001600160a01b0382165f818152600160209081526040808320338452909152902054909260443592915f198110611472575b50610d5a9350612661565b8381106114d75784156114c45733156114b157610d5a945f52600160205260405f2060018060a01b0333165f526020528360405f209103905584611467565b634a1406b160e11b5f525f60045260245ffd5b63e602df0560e01b5f525f60045260245ffd5b8390637dc7a0d960e11b5f523360045260245260445260645ffd5b34611348575f366003190112611348576020600254604051908152f35b346113485760203660031901126113485760043580151581036113485761153461263a565b1561158257611541611f55565b6006805460ff60a01b1916600160a01b1790556040513381527f62e78cea01bee320cd4e420270b5ea74000d11b0c9f74754ebdbfc544b05a25890602090a1005b60065460ff8160a01c16156115c95760ff60a01b19166006556040513381527f5db9ee0a495bf2e6ff9c91a7834c1ba4fdd244a5e8aa4e537bd38aeae4b073aa90602090a1005b638dfc202b60e01b5f5260045ffd5b34611348575f366003190112611348576040517f00000000000000000000000000000000000000000000000000000000000000006001600160a01b03168152602090f35b61164661162836611c51565b611636959195949394611f55565b61163e611f73565b421115611cf0565b61165a6001600160a01b0385161515611d32565b6001600160a01b03908116907f00000000000000000000000000000000000000000000000000000000000000001681810361178d576020946116c26001915b6116a38387612081565b6116ba6116b133858961256d565b97881015611e0d565b828787612135565b6116ca61227b565b6116d26123a3565b6116dc818561251c565b1561178857507f00000000000000000000000000000000000000000000000000000000000000006001600160a01b03165b7f0874b2d545cb271cdbda4e093020c452328b24af12382ed62c4d00f5c26709db6117786127106117466117403361294a565b87611e66565b6040805197885260208801899052919004908601524260608601526001600160a01b0390921693339281906080820190565b0390a46001600555604051908152f35b61170d565b7f00000000000000000000000000000000000000000000000000000000000000006001600160a01b031682811480156117f2575b156117e3576116c26020965f92611699576117de86341015611d72565b611699565b63c1ab6dc160e01b5f5260045ffd5b50821580156117c1575080156117c1565b346113485760403660031901126113485761181c611c25565b6024359033156114c4576001600160a01b03169081156114b157335f52600160205260405f20825f526020528060405f20556040519081527f8c5be1e5ebec7d5bd14f71427d1e84f3dd0314c0f7b2291e5b200ac8c7c3b92560203392a3602060405160018152f35b34611348575f36600319011261134857600754600854600a5460408051938452602084019290925290820152606090f35b34611348575f366003190112611348576020601854604051908152f35b34611348575f366003190112611348576040515f6003548060011c906001811680156119bd575b6020831081146119a9578285529081156119855750600114611927575b610c1c83610e6281850382611dd7565b91905060035f527fc2575a0e9e593c00f959f8c92f12db2869c3395a3b0502d05e2516446f71f85b915f905b80821061196b57509091508101602001610e62611917565b919260018160209254838588010152019101909291611953565b60ff191660208086019190915291151560051b84019091019150610e629050611917565b634e487b7160e01b5f52602260045260245ffd5b91607f16916118fa565b6119d361162836611c51565b6119e76001600160a01b0385161515611d32565b6001600160a01b03908116907f000000000000000000000000000000000000000000000000000000000000000016818103611bc65760015b611a2a338286611fd8565b948511611b8857611a3b8186612081565b801580611b57575b611b12575b611a56602096828688612135565b611a5e61227b565b611a666123a3565b611a70818661251c565b15611b0d57507f00000000000000000000000000000000000000000000000000000000000000006001600160a01b03165b7f0874b2d545cb271cdbda4e093020c452328b24af12382ed62c4d00f5c26709db611778612710611ada611ad43361294a565b88611e66565b604080518981526020810198909852919004908601524260608601526001600160a01b0390921693339281906080820190565b611aa1565b611b1e85341015611d72565b84341115611a48575f808080611b348934611db6565b818115611b4e575b3390f1611a48576040513d5f823e3d90fd5b506108fc611b3c565b507f00000000000000000000000000000000000000000000000000000000000000006001600160a01b031615611a43565b60405162461bcd60e51b8152602060048201526016602482015275115e18d95cdcda5d99481a5b9c1d5d08185b5bdd5b9d60521b6044820152606490fd5b7f00000000000000000000000000000000000000000000000000000000000000006001600160a01b03168281148015611c14575b156117e3575f90611a1f57611c0f6001611d72565b611a1f565b5082158015611bfa57508015611bfa565b600435906001600160a01b038216820361134857565b602435906001600160a01b038216820361134857565b60a09060031901126113485760043590602435906044356001600160a01b038116810361134857906064356001600160a01b0381168103611348579060843590565b602060409281835280519182918282860152018484015e5f828201840152601f01601f1916010190565b60609060031901126113485760043590602435801515810361134857906044356001600160a01b03811681036113485790565b15611cf757565b60405162461bcd60e51b8152602060048201526013602482015272151c985b9cd858dd1a5bdb88195e1c1a5c9959606a1b6044820152606490fd5b15611d3957565b60405162461bcd60e51b8152602060048201526011602482015270125b9d985b1a59081c9958da5c1a595b9d607a1b6044820152606490fd5b15611d7957565b60405162461bcd60e51b8152602060048201526015602482015274125b9cdd59999a58da595b9d08115512081cd95b9d605a1b6044820152606490fd5b91908203918211611dc357565b634e487b7160e01b5f52601160045260245ffd5b90601f8019910116810190811067ffffffffffffffff821117611df957604052565b634e487b7160e01b5f52604160045260245ffd5b15611e1457565b60405162461bcd60e51b815260206004820152601a60248201527f496e73756666696369656e74206f757470757420616d6f756e740000000000006044820152606490fd5b91908201809211611dc357565b81810292918115918404141715611dc357565b8115611e83570490565b634e487b7160e01b5f52601260045260245ffd5b600754158015611eb6575b611eb057600c5490600d5490565b5f905f90565b5060085415611ea2565b6001600160a01b03165f81815260136020526040902054611ee19042611db6565b90805f525f60205260405f2054600254928315611f425790611f09611f0e9260155490611e66565b611e66565b8262015180029262015180840403611dc357611f3f92611f2d91611e79565b905f52601460205260405f2054611e59565b90565b505090505f52601460205260405f205490565b60ff60065460a01c16611f6457565b63d93c066560e01b5f5260045ffd5b600260055414611f84576002600555565b633ee5aeb560e01b5f5260045ffd5b15611f9a57565b60405162461bcd60e51b8152602060048201526016602482015275496e73756666696369656e74206c697175696469747960501b6044820152606490fd5b9061201c61202292611feb811515611e0d565b821561207857600754925b1561206b5761201681600854945b80151580612062575b611f0990611f93565b92611db6565b90611e79565b9060018201809211611dc3576120379061294a565b6127108202918083046127101490151715611dc357612710036127108111611dc357611f3f91611e79565b5081861161200d565b6120168160075494612004565b60085492611ff6565b9015612130576109446120979160085490611e66565b60175481116120f3576120ac90601954611e59565b601854106120b657565b60405162461bcd60e51b815260206004820152601560248201527411185a5b1e481d9bdb1d5b5948195e18d959591959605a1b6044820152606490fd5b60405162461bcd60e51b81526020600482015260156024820152745377617020616d6f756e7420746f6f206c6172676560581b6044820152606490fd5b612097565b9091156121cf576121689030337f0000000000000000000000000000000000000000000000000000000000000000612906565b7f0000000000000000000000000000000000000000000000000000000000000000916001600160a01b0383166121c6575f80935080928192829082156121bc575b6001600160a01b031690f11561133d575b565b6108fc91506121a9565b6121ba926127cb565b7f00000000000000000000000000000000000000000000000000000000000000006001600160a01b03811661226457506122099034611db6565b8015801561223f575b50506121ba915b7f00000000000000000000000000000000000000000000000000000000000000006127cb565b5f8080938193829061225b575b3390f11561133d575f80612212565b506108fc61224c565b6121ba93916122769130903390612906565b612219565b6040516370a0823160e01b81523060048201526020816024817f00000000000000000000000000000000000000000000000000000000000000006001600160a01b03165afa90811561133d575f91612371575b506007557f00000000000000000000000000000000000000000000000000000000000000006001600160a01b03168061230d5750475b60085542600a55565b6020602491604051928380926370a0823160e01b82523060048301525afa90811561133d575f9161233f575b50612304565b90506020813d602011612369575b8161235a60209383611dd7565b8101031261134857515f612339565b3d915061234d565b90506020813d60201161239b575b8161238c60209383611dd7565b8101031261134857515f6122ce565b3d915061237f565b6123af600f5442611db6565b80151580612511575b80612506575b6123c55750565b600854670de0b6b3a76400008102818104670de0b6b3a76400001482151715611dc3576123f56007548092611e79565b91670de0b6b3a7640000820291808304670de0b6b3a76400001490151715611dc35761242091611e79565b600e54909290156124fa5761070880821091180261070818610708810191828211611dc357600c546107088102908082046107081490151715611dc35761046f849161246f8561247595611e66565b90611e59565b600c55600d546107088102908082046107081490151715611dc35761246f61046f926124a095611e66565b600d555b42600e5542600f557f8a7ecef1a8ac8d8024230b6dc24e96939b61c9cf87ab314d059e4622b7910f96600c54600d546124f56040519283924291846040919493926060820195825260208201520152565b0390a1565b50600c55600d556124a4565b5060085415156123be565b5060075415156123b8565b601a5491620151808301809311611dc35761255692421015612560575b1561255b5761094461254e9160085490611e66565b601954611e59565b601955565b61254e565b5f60195542601a55612539565b80156125f557611f3f926125cb6125c461201c93855f146125ec57600754955b156125da576127106125bd6125b7600854965b891515806125d1575b6125b290611f93565b61294a565b83611e66565b0490611db6565b9182611e66565b92611e59565b508715156125a9565b6127106125bd6125b7600754966125a0565b6008549561258d565b60405162461bcd60e51b815260206004820152601960248201527f496e73756666696369656e7420696e70757420616d6f756e74000000000000006044820152606490fd5b6006546001600160a01b0316330361264e57565b63118cdaa760e01b5f523360045260245ffd5b6001600160a01b031690811561270b576001600160a01b03169182156126f857815f525f60205260405f20548181106126df57817fddf252ad1be2c89b69c2b068fc378daa952ba7f163c4a11628f55a4df523b3ef92602092855f525f84520360405f2055845f525f825260405f20818154019055604051908152a3565b8263391434e360e21b5f5260045260245260445260645ffd5b63ec442f0560e01b5f525f60045260245ffd5b634b637e8f60e11b5f525f60045260245ffd5b6001600160a01b03165f81815260208190526040902054612749575b5f5260136020524260405f2055565b805f52601360205261275f60405f205442611db6565b815f525f60205260405f205490600254918261277e575b50505061273a565b611f0961278e9260155490611e66565b908062015180029062015180820403611dc3576127aa91611e79565b815f5260146020526127c160405f20918254611e59565b90555f8080612776565b60405163a9059cbb60e01b60208201526001600160a01b039290921660248301526044808301939093529181526121ba91612807606483611dd7565b612a75565b91939290600754948515806128fc575b6128f4576008546128318761046f8388611e66565b9683881161288457505050508310612847579190565b60405162461bcd60e51b8152602060048201526015602482015274125b9cdd59999a58da595b9d081088185b5bdd5b9d605a1b6044820152606490fd5b8361289794985061046f92939550611e66565b9182111590816128e9575b50156128ac579190565b60405162461bcd60e51b8152602060048201526015602482015274125b9cdd59999a58da595b9d081048185b5bdd5b9d605a1b6044820152606490fd5b90508110155f6128a2565b509350509190565b506008541561281c565b6040516323b872dd60e01b60208201526001600160a01b0392831660248201529290911660448301526064808301939093529181526121ba91612807608483611dd7565b604051632dfe9f3f60e21b81526001600160a01b03918216600482015290602090829060249082907f0000000000000000000000000000000000000000000000000000000000000000165afa90811561133d575f916129d6575b50601e90806129b1575090565b9050612710036127108111611dc35780601e0290601e820403611dc357612710900490565b90506020813d602011612a00575b816129f160209383611dd7565b8101031261134857515f6129a4565b3d91506129e4565b7fddf252ad1be2c89b69c2b068fc378daa952ba7f163c4a11628f55a4df523b3ef60205f92612a3985600254611e59565b6002556001600160a01b03169384158414612a605780600254036002555b604051908152a3565b84845283825260408420818154019055612a57565b905f602091828151910182855af11561133d575f513d612ac457506001600160a01b0381163b155b612aa45750565b635274afe760e01b5f9081526001600160a01b0391909116600452602490fd5b60011415612a9d565b6001811115611f3f57806001600160801b821015612bde575b600482600160401b612b90941015612bd1575b640100000000811015612bc4575b62010000811015612bb7575b610100811015612bab575b6010811015612b9f575b1015612b97575b60030260011c612b3f8184611e79565b0160011c612b4d8184611e79565b0160011c612b5b8184611e79565b0160011c612b698184611e79565b0160011c612b778184611e79565b0160011c612b858184611e79565b0160011c8092611e79565b8111900390565b60011b612b2f565b811c9160021b91612b28565b60081c91811b91612b1e565b60101c9160081b91612b13565b60201c9160101b91612b07565b60401c9160201b91612af9565b5050608081901c600160401b612ae656","linkReferences":{}},"methodIdentifiers":{"BASE_FEE()":"3d18651e","FEE_DENOMINATOR()":"d73792a9","MINIMUM_LIQUIDITY()":"ba9a7a56","PRECISION()":"aaf5eb68","TWAP_PERIOD()":"7ca25184","addLiquidity(uint256,uint256,uint256,uint256,address,uint256)":"ded998b9","allowance(address,address)":"dd62ed3e","approve(address,uint256)":"095ea7b3","balanceOf(address)":"70a08231","claimRewards()":"372500ab","collectFees()":"c8796572","dailyVolume()":"98c8877e","dashToken()":"88c8ec95","decimals()":"313ce567","emergencyWithdraw(address,uint256)":"95ccea67","feeCollector()":"c415b95c","getAmountIn(uint256,bool,address)":"8ecb647e","getAmountOut(uint256,bool,address)":"95bf1502","getPendingRewards(address)":"f6ed2017","getPoolStats()":"bbb85188","getReserves()":"0902f1ac","getTWAPPrice()":"d262271d","lastRewardTime(address)":"3b5d441e","lastVolumeReset()":"e5bd9fa1","maxDailyVolume()":"07df2f18","maxSingleSwap()":"a89f54d2","name()":"06fdde03","owner()":"8da5cb5b","paused()":"5c975abb","pendingRewards(address)":"31d7a262","poolInfo()":"5a2f3d09","protocolFeeShare()":"960b26a2","removeLiquidity(uint256,uint256,uint256,address,uint256)":"ed856cdc","renounceOwnership()":"715018a6","rewardRate()":"7b0a47ee","setPaused(bool)":"16c38b3c","setProtocolFeeShare(uint256)":"f742919b","setRewardRate(uint256)":"9e447fc6","swapExactTokensForTokens(uint256,uint256,address,address,uint256)":"0a9e24b1","swapTokensForExactTokens(uint256,uint256,address,address,uint256)":"04d5911f","symbol()":"95d89b41","tokenA()":"0fc63d10","tokenB()":"5f64b55b","totalRewardsDistributed()":"ee172546","totalSupply()":"18160ddd","transfer(address,uint256)":"a9059cbb","transferFrom(address,address,uint256)":"23b872dd","transferOwnership(address)":"f2fde38b","twapData()":"26d7a441","updateLimits(uint256,uint256)":"a2240e19","userFeeDiscounts(address)":"65b20fc0"},"id":101}