{"abi":[{"type":"constructor","inputs":[{"name":"_entryPoint","type":"address","internalType":"contract IEntryPoint"},{"name":"_dashToken","type":"address","internalType":"contract DashToken"},{"name":"_feeCollector","type":"address","internalType":"address"}],"stateMutability":"nonpayable"},{"type":"receive","stateMutability":"payable"},{"type":"function","name":"BRONZE_TIER","inputs":[],"outputs":[{"name":"","type":"uint256","internalType":"uint256"}],"stateMutability":"view"},{"type":"function","name":"GOLD_TIER","inputs":[],"outputs":[{"name":"","type":"uint256","internalType":"uint256"}],"stateMutability":"view"},{"type":"function","name":"MAX_GAS_PRICE","inputs":[],"outputs":[{"name":"","type":"uint256","internalType":"uint256"}],"stateMutability":"view"},{"type":"function","name":"MIN_STAKE_TIME","inputs":[],"outputs":[{"name":"","type":"uint256","internalType":"uint256"}],"stateMutability":"view"},{"type":"function","name":"PLATINUM_TIER","inputs":[],"outputs":[{"name":"","type":"uint256","internalType":"uint256"}],"stateMutability":"view"},{"type":"function","name":"SILVER_TIER","inputs":[],"outputs":[{"name":"","type":"uint256","internalType":"uint256"}],"stateMutability":"view"},{"type":"function","name":"acceptOwnership","inputs":[],"outputs":[],"stateMutability":"nonpayable"},{"type":"function","name":"addStake","inputs":[{"name":"unstakeDelaySec","type":"uint32","internalType":"uint32"}],"outputs":[],"stateMutability":"payable"},{"type":"function","name":"calculateDashPayment","inputs":[{"name":"gasCost","type":"uint256","internalType":"uint256"}],"outputs":[{"name":"dashRequired","type":"uint256","internalType":"uint256"}],"stateMutability":"view"},{"type":"function","name":"dailyGlobalLimit","inputs":[],"outputs":[{"name":"","type":"uint256","internalType":"uint256"}],"stateMutability":"view"},{"type":"function","name":"dailyGlobalSponsored","inputs":[],"outputs":[{"name":"","type":"uint256","internalType":"uint256"}],"stateMutability":"view"},{"type":"function","name":"dashToEthRate","inputs":[],"outputs":[{"name":"","type":"uint256","internalType":"uint256"}],"stateMutability":"view"},{"type":"function","name":"dashToken","inputs":[],"outputs":[{"name":"","type":"address","internalType":"contract DashToken"}],"stateMutability":"view"},{"type":"function","name":"deposit","inputs":[],"outputs":[],"stateMutability":"payable"},{"type":"function","name":"emergencyWithdraw","inputs":[{"name":"amount","type":"uint256","internalType":"uint256"}],"outputs":[],"stateMutability":"nonpayable"},{"type":"function","name":"emergencyWithdrawDash","inputs":[{"name":"amount","type":"uint256","internalType":"uint256"}],"outputs":[],"stateMutability":"nonpayable"},{"type":"function","name":"entryPoint","inputs":[],"outputs":[{"name":"","type":"address","internalType":"contract IEntryPoint"}],"stateMutability":"view"},{"type":"function","name":"feeCollector","inputs":[],"outputs":[{"name":"","type":"address","internalType":"address"}],"stateMutability":"view"},{"type":"function","name":"getDeposit","inputs":[],"outputs":[{"name":"","type":"uint256","internalType":"uint256"}],"stateMutability":"view"},{"type":"function","name":"getPaymasterStats","inputs":[],"outputs":[{"name":"_totalGasSponsored","type":"uint256","internalType":"uint256"},{"name":"_totalUsersSponsored","type":"uint256","internalType":"uint256"},{"name":"_dailyGlobalLimit","type":"uint256","internalType":"uint256"},{"name":"_dailyGlobalSponsored","type":"uint256","internalType":"uint256"},{"name":"_dashToEthRate","type":"uint256","internalType":"uint256"},{"name":"_paused","type":"bool","internalType":"bool"}],"stateMutability":"view"},{"type":"function","name":"getUserSponsorshipInfo","inputs":[{"name":"user","type":"address","internalType":"address"}],"outputs":[{"name":"tier","type":"uint8","internalType":"uint8"},{"name":"dailyLimit","type":"uint256","internalType":"uint256"},{"name":"dailyUsed","type":"uint256","internalType":"uint256"},{"name":"transactionLimit","type":"uint256","internalType":"uint256"},{"name":"totalSponsored","type":"uint256","internalType":"uint256"},{"name":"isBlacklisted","type":"bool","internalType":"bool"}],"stateMutability":"view"},{"type":"function","name":"lastGlobalReset","inputs":[],"outputs":[{"name":"","type":"uint256","internalType":"uint256"}],"stateMutability":"view"},{"type":"function","name":"owner","inputs":[],"outputs":[{"name":"","type":"address","internalType":"address"}],"stateMutability":"view"},{"type":"function","name":"paused","inputs":[],"outputs":[{"name":"","type":"bool","internalType":"bool"}],"stateMutability":"view"},{"type":"function","name":"pendingOwner","inputs":[],"outputs":[{"name":"","type":"address","internalType":"address"}],"stateMutability":"view"},{"type":"function","name":"postOp","inputs":[{"name":"mode","type":"uint8","internalType":"enum IPaymaster.PostOpMode"},{"name":"context","type":"bytes","internalType":"bytes"},{"name":"actualGasCost","type":"uint256","internalType":"uint256"},{"name":"actualUserOpFeePerGas","type":"uint256","internalType":"uint256"}],"outputs":[],"stateMutability":"nonpayable"},{"type":"function","name":"renounceOwnership","inputs":[],"outputs":[],"stateMutability":"nonpayable"},{"type":"function","name":"setDailyGlobalLimit","inputs":[{"name":"newLimit","type":"uint256","internalType":"uint256"}],"outputs":[],"stateMutability":"nonpayable"},{"type":"function","name":"setDashToEthRate","inputs":[{"name":"newRate","type":"uint256","internalType":"uint256"}],"outputs":[],"stateMutability":"nonpayable"},{"type":"function","name":"setPaused","inputs":[{"name":"_paused","type":"bool","internalType":"bool"}],"outputs":[],"stateMutability":"nonpayable"},{"type":"function","name":"setSponsorshipConfig","inputs":[{"name":"tier","type":"uint256","internalType":"uint256"},{"name":"config","type":"tuple","internalType":"struct DashPaymaster.SponsorshipConfig","components":[{"name":"dailyLimit","type":"uint256","internalType":"uint256"},{"name":"transactionLimit","type":"uint256","internalType":"uint256"},{"name":"minStakeRequired","type":"uint256","internalType":"uint256"},{"name":"enabled","type":"bool","internalType":"bool"}]}],"outputs":[],"stateMutability":"nonpayable"},{"type":"function","name":"setUserBlacklisted","inputs":[{"name":"user","type":"address","internalType":"address"},{"name":"blacklisted","type":"bool","internalType":"bool"}],"outputs":[],"stateMutability":"nonpayable"},{"type":"function","name":"sponsorshipTiers","inputs":[{"name":"","type":"uint256","internalType":"uint256"}],"outputs":[{"name":"dailyLimit","type":"uint256","internalType":"uint256"},{"name":"transactionLimit","type":"uint256","internalType":"uint256"},{"name":"minStakeRequired","type":"uint256","internalType":"uint256"},{"name":"enabled","type":"bool","internalType":"bool"}],"stateMutability":"view"},{"type":"function","name":"totalGasSponsored","inputs":[],"outputs":[{"name":"","type":"uint256","internalType":"uint256"}],"stateMutability":"view"},{"type":"function","name":"totalUsersSponsored","inputs":[],"outputs":[{"name":"","type":"uint256","internalType":"uint256"}],"stateMutability":"view"},{"type":"function","name":"transferOwnership","inputs":[{"name":"newOwner","type":"address","internalType":"address"}],"outputs":[],"stateMutability":"nonpayable"},{"type":"function","name":"trustedOracles","inputs":[{"name":"","type":"address","internalType":"address"}],"outputs":[{"name":"","type":"bool","internalType":"bool"}],"stateMutability":"view"},{"type":"function","name":"unlockStake","inputs":[],"outputs":[],"stateMutability":"nonpayable"},{"type":"function","name":"userSponsorshipData","inputs":[{"name":"","type":"address","internalType":"address"}],"outputs":[{"name":"dailySponsored","type":"uint256","internalType":"uint256"},{"name":"lastResetTime","type":"uint256","internalType":"uint256"},{"name":"totalSponsored","type":"uint256","internalType":"uint256"},{"name":"isBlacklisted","type":"bool","internalType":"bool"}],"stateMutability":"view"},{"type":"function","name":"validatePaymasterUserOp","inputs":[{"name":"userOp","type":"tuple","internalType":"struct PackedUserOperation","components":[{"name":"sender","type":"address","internalType":"address"},{"name":"nonce","type":"uint256","internalType":"uint256"},{"name":"initCode","type":"bytes","internalType":"bytes"},{"name":"callData","type":"bytes","internalType":"bytes"},{"name":"accountGasLimits","type":"bytes32","internalType":"bytes32"},{"name":"preVerificationGas","type":"uint256","internalType":"uint256"},{"name":"gasFees","type":"bytes32","internalType":"bytes32"},{"name":"paymasterAndData","type":"bytes","internalType":"bytes"},{"name":"signature","type":"bytes","internalType":"bytes"}]},{"name":"userOpHash","type":"bytes32","internalType":"bytes32"},{"name":"maxCost","type":"uint256","internalType":"uint256"}],"outputs":[{"name":"context","type":"bytes","internalType":"bytes"},{"name":"validationData","type":"uint256","internalType":"uint256"}],"stateMutability":"nonpayable"},{"type":"function","name":"withdrawStake","inputs":[{"name":"withdrawAddress","type":"address","internalType":"address payable"}],"outputs":[],"stateMutability":"nonpayable"},{"type":"function","name":"withdrawTo","inputs":[{"name":"withdrawAddress","type":"address","internalType":"address payable"},{"name":"amount","type":"uint256","internalType":"uint256"}],"outputs":[],"stateMutability":"nonpayable"},{"type":"event","name":"DashToEthRateUpdated","inputs":[{"name":"oldRate","type":"uint256","indexed":false,"internalType":"uint256"},{"name":"newRate","type":"uint256","indexed":false,"internalType":"uint256"}],"anonymous":false},{"type":"event","name":"GasPaidWithDash","inputs":[{"name":"user","type":"address","indexed":true,"internalType":"address"},{"name":"userOpHash","type":"bytes32","indexed":true,"internalType":"bytes32"},{"name":"actualGasCost","type":"uint256","indexed":false,"internalType":"uint256"},{"name":"dashPaid","type":"uint256","indexed":false,"internalType":"uint256"}],"anonymous":false},{"type":"event","name":"GasSponsored","inputs":[{"name":"user","type":"address","indexed":true,"internalType":"address"},{"name":"userOpHash","type":"bytes32","indexed":true,"internalType":"bytes32"},{"name":"actualGasCost","type":"uint256","indexed":false,"internalType":"uint256"},{"name":"tier","type":"uint8","indexed":false,"internalType":"uint8"}],"anonymous":false},{"type":"event","name":"OracleUpdated","inputs":[{"name":"oracle","type":"address","indexed":true,"internalType":"address"},{"name":"trusted","type":"bool","indexed":false,"internalType":"bool"}],"anonymous":false},{"type":"event","name":"OwnershipTransferStarted","inputs":[{"name":"previousOwner","type":"address","indexed":true,"internalType":"address"},{"name":"newOwner","type":"address","indexed":true,"internalType":"address"}],"anonymous":false},{"type":"event","name":"OwnershipTransferred","inputs":[{"name":"previousOwner","type":"address","indexed":true,"internalType":"address"},{"name":"newOwner","type":"address","indexed":true,"internalType":"address"}],"anonymous":false},{"type":"event","name":"PaymasterPaused","inputs":[],"anonymous":false},{"type":"event","name":"PaymasterUnpaused","inputs":[],"anonymous":false},{"type":"event","name":"SponsorshipConfigUpdated","inputs":[{"name":"tier","type":"uint256","indexed":false,"internalType":"uint256"},{"name":"config","type":"tuple","indexed":false,"internalType":"struct DashPaymaster.SponsorshipConfig","components":[{"name":"dailyLimit","type":"uint256","internalType":"uint256"},{"name":"transactionLimit","type":"uint256","internalType":"uint256"},{"name":"minStakeRequired","type":"uint256","internalType":"uint256"},{"name":"enabled","type":"bool","internalType":"bool"}]}],"anonymous":false},{"type":"event","name":"UserBlacklisted","inputs":[{"name":"user","type":"address","indexed":true,"internalType":"address"}],"anonymous":false},{"type":"event","name":"UserUnblacklisted","inputs":[{"name":"user","type":"address","indexed":true,"internalType":"address"}],"anonymous":false},{"type":"error","name":"DailyLimitExceeded","inputs":[]},{"type":"error","name":"GasPriceTooHigh","inputs":[]},{"type":"error","name":"GlobalLimitExceeded","inputs":[]},{"type":"error","name":"InsufficientDashBalance","inputs":[]},{"type":"error","name":"InsufficientDashPayment","inputs":[]},{"type":"error","name":"InsufficientStake","inputs":[]},{"type":"error","name":"InvalidPaymasterData","inputs":[]},{"type":"error","name":"InvalidTier","inputs":[]},{"type":"error","name":"OwnableInvalidOwner","inputs":[{"name":"owner","type":"address","internalType":"address"}]},{"type":"error","name":"OwnableUnauthorizedAccount","inputs":[{"name":"account","type":"address","internalType":"address"}]},{"type":"error","name":"PaymasterIsPaused","inputs":[]},{"type":"error","name":"ReentrancyGuardReentrantCall","inputs":[]},{"type":"error","name":"StakingPeriodNotMet","inputs":[]},{"type":"error","name":"TransactionLimitExceeded","inputs":[]},{"type":"error","name":"UserIsBlacklisted","inputs":[]}],"bytecode":{"object":"0x60c06040526103e86008556009805460ff1916905568056bc75e2d63100000600a5534801561002c575f5ffd5b5060405161272038038061272083398101604081905261004b91610714565b82338061007257604051631e4fbdf760e01b81525f60048201526024015b60405180910390fd5b61007b816100cc565b50610085816100e8565b6001600160a01b03908116608052600160025582811660a0526009805491831661010002610100600160a81b03199092169190911790556100c46101a1565b50505061079b565b600180546001600160a01b03191690556100e5816106b1565b50565b6040516301ffc9a760e01b8152631313998b60e31b60048201526001600160a01b038216906301ffc9a790602401602060405180830381865afa158015610131573d5f5f3e3d5ffd5b505050506040513d601f19601f82011682018060405250810190610155919061075e565b6100e55760405162461bcd60e51b815260206004820152601e60248201527f49456e747279506f696e7420696e74657266616365206d69736d6174636800006044820152606401610069565b604051806080016040528067016345785d8a00008152602001662386f26fc10000815260200160a0516001600160a01b03166358f2360e6040518163ffffffff1660e01b8152600401602060405180830381865afa158015610205573d5f5f3e3d5ffd5b505050506040513d601f19601f820116820180604052508101906102299190610784565b815260016020918201525f80526003815281517f3617319a054d772f909f7c479a2cebe5066e836a939412e32403c99029b92eff55818101517f3617319a054d772f909f7c479a2cebe5066e836a939412e32403c99029b92f00556040808301517f3617319a054d772f909f7c479a2cebe5066e836a939412e32403c99029b92f01556060909201517f3617319a054d772f909f7c479a2cebe5066e836a939412e32403c99029b92f02805460ff191691151591909117905581516080810183526706f05b59d3b20000815266b1a2bc2ec500008183015260a05183516312aa292160e01b8152845192948501936001600160a01b03909216926312aa2921926004808401939192918290030181865afa158015610349573d5f5f3e3d5ffd5b505050506040513d601f19601f8201168201806040525081019061036d9190610784565b8152600160209182018190525f526003815281517fa15bc60c955c405d20d9149c709e2460f1c2d9a497496a7f46004d1772c3054c55818101517fa15bc60c955c405d20d9149c709e2460f1c2d9a497496a7f46004d1772c3054d556040808301517fa15bc60c955c405d20d9149c709e2460f1c2d9a497496a7f46004d1772c3054e556060909201517fa15bc60c955c405d20d9149c709e2460f1c2d9a497496a7f46004d1772c3054f805460ff19169115159190911790558151608081018352671bc16d674ec8000081526702c68af0bb1400008183015260a0518351632068e07960e11b8152845192948501936001600160a01b03909216926340d1c0f2926004808401939192918290030181865afa15801561048f573d5f5f3e3d5ffd5b505050506040513d601f19601f820116820180604052508101906104b39190610784565b8152600160209182015260025f526003815281517fc3a24b0501bd2c13a7e57f2db4369ec4c223447539fc0724a9d55ac4a06ebd4d55818101517fc3a24b0501bd2c13a7e57f2db4369ec4c223447539fc0724a9d55ac4a06ebd4e556040808301517fc3a24b0501bd2c13a7e57f2db4369ec4c223447539fc0724a9d55ac4a06ebd4f556060909201517fc3a24b0501bd2c13a7e57f2db4369ec4c223447539fc0724a9d55ac4a06ebd50805460ff19169115159190911790558151608081018352678ac7230489e800008152670de0b6b3a76400008183015260a051835163926f82c560e01b8152845192948501936001600160a01b039092169263926f82c5926004808401939192918290030181865afa1580156105d5573d5f5f3e3d5ffd5b505050506040513d601f19601f820116820180604052508101906105f99190610784565b8152600160209182015260035f819052815281517fcbc4e5fb02c3d1de23a9f1e014b4d2ee5aeaea9505df5e855c9210bf472495af558101517fcbc4e5fb02c3d1de23a9f1e014b4d2ee5aeaea9505df5e855c9210bf472495b05560408101517fcbc4e5fb02c3d1de23a9f1e014b4d2ee5aeaea9505df5e855c9210bf472495b155606001517fcbc4e5fb02c3d1de23a9f1e014b4d2ee5aeaea9505df5e855c9210bf472495b2805460ff1916911515919091179055565b5f80546001600160a01b038381166001600160a01b0319831681178455604051919092169283917f8be0079c531659141344cd1fd0a4f28419497f9722a3daafe3b4186f6b6457e09190a35050565b6001600160a01b03811681146100e5575f5ffd5b5f5f5f60608486031215610726575f5ffd5b835161073181610700565b602085015190935061074281610700565b604085015190925061075381610700565b809150509250925092565b5f6020828403121561076e575f5ffd5b8151801515811461077d575f5ffd5b9392505050565b5f60208284031215610794575f5ffd5b5051919050565b60805160a051611f096108175f395f81816104d30152818161088201528181610c42015281816114020152818161158a01528181611871015261192701525f818161058201528181610813015281816109d601528181610db901528181610ef301528181610f5d01528181610fe801526110da0152611f095ff3fe60806040526004361061024c575f3560e01c80638da5cb5b11610134578063d0e30db0116100b3578063e30c397811610078578063e30c3978146106de578063e3bbb4f1146106fb578063f2fde38b14610713578063f552a09f14610732578063f71d519f14610799578063fa01bf89146107dc575f5ffd5b8063d0e30db01461062e578063d43627b014610636578063d8de40811461064b578063db2966021461069b578063e0f6dfca146106c9575f5ffd5b8063bb9fe6bf116100f9578063bb9fe6bf146105a4578063bddb7c83146105b8578063c23a5cea146105d7578063c399ec88146105f6578063c415b95c1461060a575f5ffd5b80638da5cb5b1461050d578063926f82c514610529578063980b10301461053d578063aca6ce3214610552578063b0d691fe14610571575f5ffd5b80635d2ed556116101cb57806379ba50971161019057806379ba5097146103ff5780637c627b21146104135780638470be1e14610432578063854e79f41461045157806385dc3bbb146104a357806388c8ec95146104c2575f5ffd5b80635d2ed5561461038c578063715018a6146103a257806375a1497e146103b657806376528abb146103cb5780637655a06d146103e0575f5ffd5b806340d1c0f21161021157806340d1c0f2146102f057806352b7512c146103045780635312ea8e1461033157806358f2360e146103505780635c975abb14610363575f5ffd5b80630396cb60146102575780630ca737ea1461026c57806312aa29211461028b57806316c38b3c146102b2578063205c2878146102d1575f5ffd5b3661025357005b5f5ffd5b61026a610265366004611a90565b6107f1565b005b348015610277575f5ffd5b5061026a610286366004611aba565b610878565b348015610296575f5ffd5b5061029f600181565b6040519081526020015b60405180910390f35b3480156102bd575f5ffd5b5061026a6102cc366004611ade565b610932565b3480156102dc575f5ffd5b5061026a6102eb366004611b0d565b6109a8565b3480156102fb575f5ffd5b5061029f600281565b34801561030f575f5ffd5b5061032361031e366004611b37565b610a17565b6040516102a9929190611b86565b34801561033c575f5ffd5b5061026a61034b366004611aba565b610a3a565b34801561035b575f5ffd5b5061029f5f81565b34801561036e575f5ffd5b5060095461037c9060ff1681565b60405190151581526020016102a9565b348015610397575f5ffd5b5061029f6201518081565b3480156103ad575f5ffd5b5061026a610ac4565b3480156103c1575f5ffd5b5061029f600a5481565b3480156103d6575f5ffd5b5061029f600c5481565b3480156103eb575f5ffd5b5061026a6103fa366004611aba565b610ad7565b34801561040a575f5ffd5b5061026a610b25565b34801561041e575f5ffd5b5061026a61042d366004611bc2565b610b66565b34801561043d575f5ffd5b5061026a61044c366004611c56565b610b82565b34801561045c575f5ffd5b5061047061046b366004611c8b565b610c17565b6040805160ff909716875260208701959095529385019290925260608401526080830152151560a082015260c0016102a9565b3480156104ae575f5ffd5b5061026a6104bd366004611aba565b610d7a565b3480156104cd575f5ffd5b506104f57f000000000000000000000000000000000000000000000000000000000000000081565b6040516001600160a01b0390911681526020016102a9565b348015610518575f5ffd5b505f546001600160a01b03166104f5565b348015610534575f5ffd5b5061029f600381565b348015610548575f5ffd5b5061029f600b5481565b34801561055d575f5ffd5b5061029f61056c366004611aba565b610d87565b34801561057c575f5ffd5b506104f57f000000000000000000000000000000000000000000000000000000000000000081565b3480156105af575f5ffd5b5061026a610daf565b3480156105c3575f5ffd5b5061026a6105d2366004611ca6565b610e27565b3480156105e2575f5ffd5b5061026a6105f1366004611c8b565b610ecc565b348015610601575f5ffd5b5061029f610f46565b348015610615575f5ffd5b506009546104f59061010090046001600160a01b031681565b61026a610fd3565b348015610641575f5ffd5b5061029f60085481565b348015610656575f5ffd5b50600654600754600a54600b5460085460095460ff166040805196875260208701959095529385019290925260608401526080830152151560a082015260c0016102a9565b3480156106a6575f5ffd5b5061037c6106b5366004611c8b565b60056020525f908152604090205460ff1681565b3480156106d4575f5ffd5b5061029f60065481565b3480156106e9575f5ffd5b506001546001600160a01b03166104f5565b348015610706575f5ffd5b5061029f642e90edd00081565b34801561071e575f5ffd5b5061026a61072d366004611c8b565b611033565b34801561073d575f5ffd5b5061077761074c366004611aba565b600360208190525f918252604090912080546001820154600283015492909301549092919060ff1684565b60408051948552602085019390935291830152151560608201526080016102a9565b3480156107a4575f5ffd5b506107776107b3366004611c8b565b60046020525f908152604090208054600182015460028301546003909301549192909160ff1684565b3480156107e7575f5ffd5b5061029f60075481565b6107f96110a3565b604051621cb65b60e51b815263ffffffff821660048201527f00000000000000000000000000000000000000000000000000000000000000006001600160a01b031690630396cb609034906024015f604051808303818588803b15801561085e575f5ffd5b505af1158015610870573d5f5f3e3d5ffd5b505050505050565b6108806110a3565b7f00000000000000000000000000000000000000000000000000000000000000006001600160a01b031663a9059cbb6108c05f546001600160a01b031690565b6040516001600160e01b031960e084901b1681526001600160a01b039091166004820152602481018490526044016020604051808303815f875af115801561090a573d5f5f3e3d5ffd5b505050506040513d601f19601f8201168201806040525081019061092e9190611cdd565b5050565b61093a6110a3565b6009805460ff1916821580159190911790915561097c576040517f98d07ecc7bbeddc2064952ad7088768474065ac6cb130b0ef0224ad7ff32fd49905f90a150565b6040517f389ea08723efcbea48925a5aff7dd8d867038fd7aa9225411f3e014f2d0fc668905f90a15b50565b6109b06110a3565b60405163040b850f60e31b81526001600160a01b038381166004830152602482018390527f0000000000000000000000000000000000000000000000000000000000000000169063205c2878906044015f604051808303815f87803b15801561085e575f5ffd5b60605f610a226110cf565b610a2d85858561113f565b915091505b935093915050565b610a426110a3565b47811115610a8e5760405162461bcd60e51b8152602060048201526014602482015273496e73756666696369656e742062616c616e636560601b60448201526064015b60405180910390fd5b5f80546040516001600160a01b039091169183156108fc02918491818181858888f1935050505015801561092e573d5f5f3e3d5ffd5b610acc6110a3565b610ad55f61122b565b565b610adf6110a3565b600880549082905560408051828152602081018490527f4991f42256a8a559b9ed0c67bea28013afa9f7935f45b62db550209c632c328491015b60405180910390a15050565b60015433906001600160a01b03168114610b5d5760405163118cdaa760e01b81526001600160a01b0382166004820152602401610a85565b6109a58161122b565b610b6e6110cf565b610b7b8585858585611244565b5050505050565b610b8a6110a3565b6003821115610bca5760405162461bcd60e51b815260206004820152600c60248201526b24b73b30b634b2103a34b2b960a11b6044820152606401610a85565b5f8281526003602052604090208190610be38282611cf8565b9050507fd73b9f42437eaf073de9c408ff6909d99e52ec74c9f1eb77960ec00c70e37fd38282604051610b19929190611d38565b60405163a8a82fd760e01b81526001600160a01b0382811660048301525f91829182918291829182917f0000000000000000000000000000000000000000000000000000000000000000169063a8a82fd790602401602060405180830381865afa158015610c87573d5f5f3e3d5ffd5b505050506040513d601f19601f82011682018060405250810190610cab9190611d7f565b955060ff861615610d17575f600381610cc560018a611db3565b60ff908116825260208083019390935260409182015f20825160808101845281548082526001830154958201869052600283015494820194909452600390910154909116151560609091015296509350505b50506001600160a01b039094165f9081526004602090815260409182902082516080810184528154808252600183015493820193909352600282015493810184905260039091015460ff1615156060909101819052949693959094909391925090565b610d826110a3565b600a55565b5f670de0b6b3a764000060085483610d9f9190611dcc565b610da99190611de3565b92915050565b610db76110a3565b7f00000000000000000000000000000000000000000000000000000000000000006001600160a01b031663bb9fe6bf6040518163ffffffff1660e01b81526004015f604051808303815f87803b158015610e0f575f5ffd5b505af1158015610e21573d5f5f3e3d5ffd5b50505050565b610e2f6110a3565b6001600160a01b0382165f908152600460205260409020600301805460ff19168215801591909117909155610e95576040516001600160a01b038316907f7f8b7dc89dae85811a7a85800b892b5816ad5d381c856f1b56490f8fc470c9cb905f90a25050565b6040516001600160a01b038316907f0e8627d8a3ba37f2a00b3ae4503c200e696f351225f168df1d3e84eed8009ff9905f90a25050565b610ed46110a3565b60405163611d2e7560e11b81526001600160a01b0382811660048301527f0000000000000000000000000000000000000000000000000000000000000000169063c23a5cea906024015f604051808303815f87803b158015610f34575f5ffd5b505af1158015610b7b573d5f5f3e3d5ffd5b6040516370a0823160e01b81523060048201525f907f00000000000000000000000000000000000000000000000000000000000000006001600160a01b0316906370a0823190602401602060405180830381865afa158015610faa573d5f5f3e3d5ffd5b505050506040513d601f19601f82011682018060405250810190610fce9190611e02565b905090565b60405163b760faf960e01b81523060048201527f00000000000000000000000000000000000000000000000000000000000000006001600160a01b03169063b760faf99034906024015f604051808303818588803b158015610f34575f5ffd5b61103b6110a3565b600180546001600160a01b0383166001600160a01b0319909116811790915561106b5f546001600160a01b031690565b6001600160a01b03167f38d16b8cac22d99fc7c124b9cd0de2d3fa1faef420bfe791d8c362d765e2270060405160405180910390a350565b5f546001600160a01b03163314610ad55760405163118cdaa760e01b8152336004820152602401610a85565b336001600160a01b037f00000000000000000000000000000000000000000000000000000000000000001614610ad55760405162461bcd60e51b815260206004820152601560248201527414d95b99195c881b9bdd08115b9d1c9e541bda5b9d605a1b6044820152606401610a85565b6009546060905f9060ff16156111685760405163455dfd0560e11b815260040160405180910390fd5b5f8061117f61117a60e0890189611e19565b61147e565b90925090505f6111926020890189611c8b565b6001600160a01b0381165f9081526004602052604090206003015490915060ff16156111d15760405163ebb6f34b60e01b815260040160405180910390fd5b6111da86611515565b8260ff165f036111fb576111ef818789611564565b94509450505050610a32565b8260ff16600103611212576111ef8187848a6117f1565b60405163097637e960e21b815260040160405180910390fd5b600180546001600160a01b03191690556109a581611a1d565b5f80808061125487890189611e5c565b92965090945092509050600189600281111561127257611272611e94565b0361130357805f036112fa576001600160a01b0384165f9081526004602052604081208054909185918391906112a9908490611ea8565b9250508190555083816002015f8282546112c39190611ea8565b925050819055508360065f8282546112db9190611ea8565b9250508190555083600b5f8282546112f39190611ea8565b9091555050505b50505050610b7b565b805f036113a2576001600160a01b0384165f90815260046020526040902086908482101561139b575f6113368387611ea8565b905080825f015f82825461134a9190611ea8565b9250508190555080826002015f8282546113649190611ea8565b925050819055508060065f82825461137c9190611ea8565b9250508190555080600b5f8282546113949190611ea8565b9091555050505b5050611473565b5f670de0b6b3a7640000600854886113ba9190611dcc565b6113c49190611de3565b905080821115611471575f6113d98284611ea8565b60405163a9059cbb60e01b81526001600160a01b038881166004830152602482018390529192507f00000000000000000000000000000000000000000000000000000000000000009091169063a9059cbb906044016020604051808303815f875af115801561144a573d5f5f3e3d5ffd5b505050506040513d601f19601f8201168201806040525081019061146e9190611cdd565b50505b505b505050505050505050565b5f606060158310156114a35760405163097637e960e21b815260040160405180910390fd5b838360148181106114b6576114b6611ebb565b919091013560f81c925050601583111561150e576114d78360158187611ecf565b8080601f0160208091040260200160405190810160405280939291908181526020018383808284375f920191909152509293505050505b9250929050565b600c546115259062015180611ef6565b4210611534575f600b5542600c555b600a5481600b546115459190611ef6565b11156109a557604051638fe2651160e01b815260040160405180910390fd5b60405163a8a82fd760e01b81526001600160a01b0384811660048301526060915f9182917f00000000000000000000000000000000000000000000000000000000000000009091169063a8a82fd790602401602060405180830381865afa1580156115d1573d5f5f3e3d5ffd5b505050506040513d601f19601f820116820180604052508101906115f59190611d7f565b90508060ff165f0361161a576040516378de4a6960e11b815260040160405180910390fd5b5f611626600183611db3565b60ff9081165f8181526003602081815260409283902083516080810185528154815260018201549281019290925260028101549382019390935291015490921615156060830181905290925061168f5760405163e142361760e01b815260040160405180910390fd5b80602001518711156116b457604051632e29643b60e21b815260040160405180910390fd5b6001600160a01b0388165f9081526004602052604090206116d481611a6c565b815181546116e3908a90611ef6565b111561170257604051630652f4c560e21b815260040160405180910390fd5b87815f015f8282546117149190611ef6565b9250508190555087816002015f82825461172e9190611ef6565b925050819055508760065f8282546117469190611ef6565b9250508190555087600b5f82825461175e9190611ef6565b9091555050604080516001600160a01b038b166020820152908101899052606081018490525f608082015260a00160408051601f198184030181528282528a835260ff87166020840152975088916001600160a01b038c16917f3bebcc8e3fdce476447d2938c3003ceaff122d025c2863b328ea1f4c2e1ae847910160405180910390a3505f9350505050935093915050565b60605f5f848060200190518101906118099190611e02565b90505f670de0b6b3a7640000600854886118239190611dcc565b61182d9190611de3565b905081811115611850576040516327043cb360e01b815260040160405180910390fd5b6040516370a0823160e01b81526001600160a01b03898116600483015282917f0000000000000000000000000000000000000000000000000000000000000000909116906370a0823190602401602060405180830381865afa1580156118b8573d5f5f3e3d5ffd5b505050506040513d601f19601f820116820180604052508101906118dc9190611e02565b10156118fb5760405163412d8f0160e01b815260040160405180910390fd5b6040516323b872dd60e01b81526001600160a01b038981166004830152306024830152604482018390527f000000000000000000000000000000000000000000000000000000000000000016906323b872dd906064016020604051808303815f875af115801561196d573d5f5f3e3d5ffd5b505050506040513d601f19601f820116820180604052508101906119919190611cdd565b50604080516001600160a01b038a1660208201529081018890525f60608201526080810182905260a00160408051601f1981840301815282825289835260208301849052955086916001600160a01b038b16917f8ee4af07ef46e0ac459dd0e159383c7ba6788d308c992bb162415c4d9af81a6a910160405180910390a3505f91505094509492505050565b5f80546001600160a01b038381166001600160a01b0319831681178455604051919092169283917f8be0079c531659141344cd1fd0a4f28419497f9722a3daafe3b4186f6b6457e09190a35050565b6001810154611a7e9062015180611ef6565b42106109a5575f815542600182015550565b5f60208284031215611aa0575f5ffd5b813563ffffffff81168114611ab3575f5ffd5b9392505050565b5f60208284031215611aca575f5ffd5b5035919050565b80151581146109a5575f5ffd5b5f60208284031215611aee575f5ffd5b8135611ab381611ad1565b6001600160a01b03811681146109a5575f5ffd5b5f5f60408385031215611b1e575f5ffd5b8235611b2981611af9565b946020939093013593505050565b5f5f5f60608486031215611b49575f5ffd5b833567ffffffffffffffff811115611b5f575f5ffd5b84016101208187031215611b71575f5ffd5b95602085013595506040909401359392505050565b604081525f83518060408401528060208601606085015e5f606082850101526060601f19601f8301168401019150508260208301529392505050565b5f5f5f5f5f60808688031215611bd6575f5ffd5b853560038110611be4575f5ffd5b9450602086013567ffffffffffffffff811115611bff575f5ffd5b8601601f81018813611c0f575f5ffd5b803567ffffffffffffffff811115611c25575f5ffd5b886020828401011115611c36575f5ffd5b959860209190910197509495604081013595606090910135945092505050565b5f5f82840360a0811215611c68575f5ffd5b833592506080601f1982011215611c7d575f5ffd5b506020830190509250929050565b5f60208284031215611c9b575f5ffd5b8135611ab381611af9565b5f5f60408385031215611cb7575f5ffd5b8235611cc281611af9565b91506020830135611cd281611ad1565b809150509250929050565b5f60208284031215611ced575f5ffd5b8151611ab381611ad1565b813581556020820135600182015560408201356002820155600381016060830135611d2281611ad1565b815490151560ff1660ff19919091161790555050565b828152813560208083019190915282013560408083019190915282013560608083019190915260a0820190830135611d6f81611ad1565b8015156080840152509392505050565b5f60208284031215611d8f575f5ffd5b815160ff81168114611ab3575f5ffd5b634e487b7160e01b5f52601160045260245ffd5b60ff8281168282160390811115610da957610da9611d9f565b8082028115828204841417610da957610da9611d9f565b5f82611dfd57634e487b7160e01b5f52601260045260245ffd5b500490565b5f60208284031215611e12575f5ffd5b5051919050565b5f5f8335601e19843603018112611e2e575f5ffd5b83018035915067ffffffffffffffff821115611e48575f5ffd5b60200191503681900382131561150e575f5ffd5b5f5f5f5f60808587031215611e6f575f5ffd5b8435611e7a81611af9565b966020860135965060408601359560600135945092505050565b634e487b7160e01b5f52602160045260245ffd5b81810381811115610da957610da9611d9f565b634e487b7160e01b5f52603260045260245ffd5b5f5f85851115611edd575f5ffd5b83861115611ee9575f5ffd5b5050820193919092039150565b80820180821115610da957610da9611d9f56","linkReferences":{}},"methodIdentifiers":{"BRONZE_TIER()":"58f2360e","GOLD_TIER()":"40d1c0f2","MAX_GAS_PRICE()":"e3bbb4f1","MIN_STAKE_TIME()":"5d2ed556","PLATINUM_TIER()":"926f82c5","SILVER_TIER()":"12aa2921","acceptOwnership()":"79ba5097","addStake(uint32)":"0396cb60","calculateDashPayment(uint256)":"aca6ce32","dailyGlobalLimit()":"75a1497e","dailyGlobalSponsored()":"980b1030","dashToEthRate()":"d43627b0","dashToken()":"88c8ec95","deposit()":"d0e30db0","emergencyWithdraw(uint256)":"5312ea8e","emergencyWithdrawDash(uint256)":"0ca737ea","entryPoint()":"b0d691fe","feeCollector()":"c415b95c","getDeposit()":"c399ec88","getPaymasterStats()":"d8de4081","getUserSponsorshipInfo(address)":"854e79f4","lastGlobalReset()":"76528abb","owner()":"8da5cb5b","paused()":"5c975abb","pendingOwner()":"e30c3978","postOp(uint8,bytes,uint256,uint256)":"7c627b21","renounceOwnership()":"715018a6","setDailyGlobalLimit(uint256)":"85dc3bbb","setDashToEthRate(uint256)":"7655a06d","setPaused(bool)":"16c38b3c","setSponsorshipConfig(uint256,(uint256,uint256,uint256,bool))":"8470be1e","setUserBlacklisted(address,bool)":"bddb7c83","sponsorshipTiers(uint256)":"f552a09f","totalGasSponsored()":"e0f6dfca","totalUsersSponsored()":"fa01bf89","transferOwnership(address)":"f2fde38b","trustedOracles(address)":"db296602","unlockStake()":"bb9fe6bf","userSponsorshipData(address)":"f71d519f","validatePaymasterUserOp((address,uint256,bytes,bytes,bytes32,uint256,bytes32,bytes,bytes),bytes32,uint256)":"52b7512c","withdrawStake(address)":"c23a5cea","withdrawTo(address,uint256)":"205c2878"},"id":96}