{"abi":[{"type":"constructor","inputs":[{"name":"_entryPoint","type":"address","internalType":"contract IEntryPoint"},{"name":"_dashToken","type":"address","internalType":"contract DashToken"},{"name":"_feeCollector","type":"address","internalType":"address"}],"stateMutability":"nonpayable"},{"type":"receive","stateMutability":"payable"},{"type":"function","name":"BRONZE_TIER","inputs":[],"outputs":[{"name":"","type":"uint256","internalType":"uint256"}],"stateMutability":"view"},{"type":"function","name":"GOLD_TIER","inputs":[],"outputs":[{"name":"","type":"uint256","internalType":"uint256"}],"stateMutability":"view"},{"type":"function","name":"MAX_GAS_PRICE","inputs":[],"outputs":[{"name":"","type":"uint256","internalType":"uint256"}],"stateMutability":"view"},{"type":"function","name":"MIN_STAKE_TIME","inputs":[],"outputs":[{"name":"","type":"uint256","internalType":"uint256"}],"stateMutability":"view"},{"type":"function","name":"PLATINUM_TIER","inputs":[],"outputs":[{"name":"","type":"uint256","internalType":"uint256"}],"stateMutability":"view"},{"type":"function","name":"SILVER_TIER","inputs":[],"outputs":[{"name":"","type":"uint256","internalType":"uint256"}],"stateMutability":"view"},{"type":"function","name":"acceptOwnership","inputs":[],"outputs":[],"stateMutability":"nonpayable"},{"type":"function","name":"addStake","inputs":[{"name":"unstakeDelaySec","type":"uint32","internalType":"uint32"}],"outputs":[],"stateMutability":"payable"},{"type":"function","name":"calculateDashPayment","inputs":[{"name":"gasCost","type":"uint256","internalType":"uint256"}],"outputs":[{"name":"dashRequired","type":"uint256","internalType":"uint256"}],"stateMutability":"view"},{"type":"function","name":"dailyGlobalLimit","inputs":[],"outputs":[{"name":"","type":"uint256","internalType":"uint256"}],"stateMutability":"view"},{"type":"function","name":"dailyGlobalSponsored","inputs":[],"outputs":[{"name":"","type":"uint256","internalType":"uint256"}],"stateMutability":"view"},{"type":"function","name":"dashToEthRate","inputs":[],"outputs":[{"name":"","type":"uint256","internalType":"uint256"}],"stateMutability":"view"},{"type":"function","name":"dashToken","inputs":[],"outputs":[{"name":"","type":"address","internalType":"contract DashToken"}],"stateMutability":"view"},{"type":"function","name":"deposit","inputs":[],"outputs":[],"stateMutability":"payable"},{"type":"function","name":"emergencyWithdraw","inputs":[{"name":"amount","type":"uint256","internalType":"uint256"}],"outputs":[],"stateMutability":"nonpayable"},{"type":"function","name":"emergencyWithdrawDash","inputs":[{"name":"amount","type":"uint256","internalType":"uint256"}],"outputs":[],"stateMutability":"nonpayable"},{"type":"function","name":"entryPoint","inputs":[],"outputs":[{"name":"","type":"address","internalType":"contract IEntryPoint"}],"stateMutability":"view"},{"type":"function","name":"feeCollector","inputs":[],"outputs":[{"name":"","type":"address","internalType":"address"}],"stateMutability":"view"},{"type":"function","name":"getDeposit","inputs":[],"outputs":[{"name":"","type":"uint256","internalType":"uint256"}],"stateMutability":"view"},{"type":"function","name":"getPaymasterStats","inputs":[],"outputs":[{"name":"_totalGasSponsored","type":"uint256","internalType":"uint256"},{"name":"_totalUsersSponsored","type":"uint256","internalType":"uint256"},{"name":"_dailyGlobalLimit","type":"uint256","internalType":"uint256"},{"name":"_dailyGlobalSponsored","type":"uint256","internalType":"uint256"},{"name":"_dashToEthRate","type":"uint256","internalType":"uint256"},{"name":"_paused","type":"bool","internalType":"bool"}],"stateMutability":"view"},{"type":"function","name":"getUserSponsorshipInfo","inputs":[{"name":"user","type":"address","internalType":"address"}],"outputs":[{"name":"tier","type":"uint8","internalType":"uint8"},{"name":"dailyLimit","type":"uint256","internalType":"uint256"},{"name":"dailyUsed","type":"uint256","internalType":"uint256"},{"name":"transactionLimit","type":"uint256","internalType":"uint256"},{"name":"totalSponsored","type":"uint256","internalType":"uint256"},{"name":"isBlacklisted","type":"bool","internalType":"bool"}],"stateMutability":"view"},{"type":"function","name":"lastGlobalReset","inputs":[],"outputs":[{"name":"","type":"uint256","internalType":"uint256"}],"stateMutability":"view"},{"type":"function","name":"owner","inputs":[],"outputs":[{"name":"","type":"address","internalType":"address"}],"stateMutability":"view"},{"type":"function","name":"paused","inputs":[],"outputs":[{"name":"","type":"bool","internalType":"bool"}],"stateMutability":"view"},{"type":"function","name":"pendingOwner","inputs":[],"outputs":[{"name":"","type":"address","internalType":"address"}],"stateMutability":"view"},{"type":"function","name":"postOp","inputs":[{"name":"mode","type":"uint8","internalType":"enum IPaymaster.PostOpMode"},{"name":"context","type":"bytes","internalType":"bytes"},{"name":"actualGasCost","type":"uint256","internalType":"uint256"},{"name":"actualUserOpFeePerGas","type":"uint256","internalType":"uint256"}],"outputs":[],"stateMutability":"nonpayable"},{"type":"function","name":"renounceOwnership","inputs":[],"outputs":[],"stateMutability":"nonpayable"},{"type":"function","name":"setDailyGlobalLimit","inputs":[{"name":"newLimit","type":"uint256","internalType":"uint256"}],"outputs":[],"stateMutability":"nonpayable"},{"type":"function","name":"setDashToEthRate","inputs":[{"name":"newRate","type":"uint256","internalType":"uint256"}],"outputs":[],"stateMutability":"nonpayable"},{"type":"function","name":"setPaused","inputs":[{"name":"_paused","type":"bool","internalType":"bool"}],"outputs":[],"stateMutability":"nonpayable"},{"type":"function","name":"setSponsorshipConfig","inputs":[{"name":"tier","type":"uint256","internalType":"uint256"},{"name":"config","type":"tuple","internalType":"struct DashPaymaster.SponsorshipConfig","components":[{"name":"dailyLimit","type":"uint256","internalType":"uint256"},{"name":"transactionLimit","type":"uint256","internalType":"uint256"},{"name":"minStakeRequired","type":"uint256","internalType":"uint256"},{"name":"enabled","type":"bool","internalType":"bool"}]}],"outputs":[],"stateMutability":"nonpayable"},{"type":"function","name":"setUserBlacklisted","inputs":[{"name":"user","type":"address","internalType":"address"},{"name":"blacklisted","type":"bool","internalType":"bool"}],"outputs":[],"stateMutability":"nonpayable"},{"type":"function","name":"sponsorshipTiers","inputs":[{"name":"","type":"uint256","internalType":"uint256"}],"outputs":[{"name":"dailyLimit","type":"uint256","internalType":"uint256"},{"name":"transactionLimit","type":"uint256","internalType":"uint256"},{"name":"minStakeRequired","type":"uint256","internalType":"uint256"},{"name":"enabled","type":"bool","internalType":"bool"}],"stateMutability":"view"},{"type":"function","name":"totalGasSponsored","inputs":[],"outputs":[{"name":"","type":"uint256","internalType":"uint256"}],"stateMutability":"view"},{"type":"function","name":"totalUsersSponsored","inputs":[],"outputs":[{"name":"","type":"uint256","internalType":"uint256"}],"stateMutability":"view"},{"type":"function","name":"transferOwnership","inputs":[{"name":"newOwner","type":"address","internalType":"address"}],"outputs":[],"stateMutability":"nonpayable"},{"type":"function","name":"trustedOracles","inputs":[{"name":"","type":"address","internalType":"address"}],"outputs":[{"name":"","type":"bool","internalType":"bool"}],"stateMutability":"view"},{"type":"function","name":"unlockStake","inputs":[],"outputs":[],"stateMutability":"nonpayable"},{"type":"function","name":"userSponsorshipData","inputs":[{"name":"","type":"address","internalType":"address"}],"outputs":[{"name":"dailySponsored","type":"uint256","internalType":"uint256"},{"name":"lastResetTime","type":"uint256","internalType":"uint256"},{"name":"totalSponsored","type":"uint256","internalType":"uint256"},{"name":"isBlacklisted","type":"bool","internalType":"bool"}],"stateMutability":"view"},{"type":"function","name":"validatePaymasterUserOp","inputs":[{"name":"userOp","type":"tuple","internalType":"struct PackedUserOperation","components":[{"name":"sender","type":"address","internalType":"address"},{"name":"nonce","type":"uint256","internalType":"uint256"},{"name":"initCode","type":"bytes","internalType":"bytes"},{"name":"callData","type":"bytes","internalType":"bytes"},{"name":"accountGasLimits","type":"bytes32","internalType":"bytes32"},{"name":"preVerificationGas","type":"uint256","internalType":"uint256"},{"name":"gasFees","type":"bytes32","internalType":"bytes32"},{"name":"paymasterAndData","type":"bytes","internalType":"bytes"},{"name":"signature","type":"bytes","internalType":"bytes"}]},{"name":"userOpHash","type":"bytes32","internalType":"bytes32"},{"name":"maxCost","type":"uint256","internalType":"uint256"}],"outputs":[{"name":"context","type":"bytes","internalType":"bytes"},{"name":"validationData","type":"uint256","internalType":"uint256"}],"stateMutability":"nonpayable"},{"type":"function","name":"withdrawStake","inputs":[{"name":"withdrawAddress","type":"address","internalType":"address payable"}],"outputs":[],"stateMutability":"nonpayable"},{"type":"function","name":"withdrawTo","inputs":[{"name":"withdrawAddress","type":"address","internalType":"address payable"},{"name":"amount","type":"uint256","internalType":"uint256"}],"outputs":[],"stateMutability":"nonpayable"},{"type":"event","name":"DashToEthRateUpdated","inputs":[{"name":"oldRate","type":"uint256","indexed":false,"internalType":"uint256"},{"name":"newRate","type":"uint256","indexed":false,"internalType":"uint256"}],"anonymous":false},{"type":"event","name":"GasPaidWithDash","inputs":[{"name":"user","type":"address","indexed":true,"internalType":"address"},{"name":"userOpHash","type":"bytes32","indexed":true,"internalType":"bytes32"},{"name":"actualGasCost","type":"uint256","indexed":false,"internalType":"uint256"},{"name":"dashPaid","type":"uint256","indexed":false,"internalType":"uint256"}],"anonymous":false},{"type":"event","name":"GasSponsored","inputs":[{"name":"user","type":"address","indexed":true,"internalType":"address"},{"name":"userOpHash","type":"bytes32","indexed":true,"internalType":"bytes32"},{"name":"actualGasCost","type":"uint256","indexed":false,"internalType":"uint256"},{"name":"tier","type":"uint8","indexed":false,"internalType":"uint8"}],"anonymous":false},{"type":"event","name":"OracleUpdated","inputs":[{"name":"oracle","type":"address","indexed":true,"internalType":"address"},{"name":"trusted","type":"bool","indexed":false,"internalType":"bool"}],"anonymous":false},{"type":"event","name":"OwnershipTransferStarted","inputs":[{"name":"previousOwner","type":"address","indexed":true,"internalType":"address"},{"name":"newOwner","type":"address","indexed":true,"internalType":"address"}],"anonymous":false},{"type":"event","name":"OwnershipTransferred","inputs":[{"name":"previousOwner","type":"address","indexed":true,"internalType":"address"},{"name":"newOwner","type":"address","indexed":true,"internalType":"address"}],"anonymous":false},{"type":"event","name":"PaymasterPaused","inputs":[],"anonymous":false},{"type":"event","name":"PaymasterUnpaused","inputs":[],"anonymous":false},{"type":"event","name":"SponsorshipConfigUpdated","inputs":[{"name":"tier","type":"uint256","indexed":false,"internalType":"uint256"},{"name":"config","type":"tuple","indexed":false,"internalType":"struct DashPaymaster.SponsorshipConfig","components":[{"name":"dailyLimit","type":"uint256","internalType":"uint256"},{"name":"transactionLimit","type":"uint256","internalType":"uint256"},{"name":"minStakeRequired","type":"uint256","internalType":"uint256"},{"name":"enabled","type":"bool","internalType":"bool"}]}],"anonymous":false},{"type":"event","name":"UserBlacklisted","inputs":[{"name":"user","type":"address","indexed":true,"internalType":"address"}],"anonymous":false},{"type":"event","name":"UserUnblacklisted","inputs":[{"name":"user","type":"address","indexed":true,"internalType":"address"}],"anonymous":false},{"type":"error","name":"DailyLimitExceeded","inputs":[]},{"type":"error","name":"GasPriceTooHigh","inputs":[]},{"type":"error","name":"GlobalLimitExceeded","inputs":[]},{"type":"error","name":"InsufficientDashBalance","inputs":[]},{"type":"error","name":"InsufficientDashPayment","inputs":[]},{"type":"error","name":"InsufficientStake","inputs":[]},{"type":"error","name":"InvalidPaymasterData","inputs":[]},{"type":"error","name":"InvalidTier","inputs":[]},{"type":"error","name":"OwnableInvalidOwner","inputs":[{"name":"owner","type":"address","internalType":"address"}]},{"type":"error","name":"OwnableUnauthorizedAccount","inputs":[{"name":"account","type":"address","internalType":"address"}]},{"type":"error","name":"PaymasterIsPaused","inputs":[]},{"type":"error","name":"ReentrancyGuardReentrantCall","inputs":[]},{"type":"error","name":"StakingPeriodNotMet","inputs":[]},{"type":"error","name":"TransactionLimitExceeded","inputs":[]},{"type":"error","name":"UserIsBlacklisted","inputs":[]}],"bytecode":{"object":"0x60c0806040523461045157606081611f36803803809161001f82856105c6565b8339810103126104515780516001600160a01b038116918282036104515760208101516001600160a01b038116918282036104515760400151936001600160a01b03851685036104515733156105845760018060a01b03196001541660015560205f543360018060a01b03198216175f55602460405180948193339060018060a01b03167f8be0079c531659141344cd1fd0a4f28419497f9722a3daafe3b4186f6b6457e05f80a36301ffc9a760e01b8252631313998b60e31b60048301525afa90811561045d575f91610549575b50156105045760049360209360805260016002556103e86008556009549168056bc75e2d63100000600a5560a052610100600160a81b039060081b169060018060a81b0319161760095560405192838092632c791b0760e11b82525afa801561045d575f906104d0575b6101c7915060036040519161016c83610597565b67016345785d8a000083526020830190662386f26fc100008252604084019081526060840191600183525f80528360205260405f209451855551600185015551600284015551151591019060ff801983541691151516179055565b60a0516040516312aa292160e01b815290602090829060049082906001600160a01b03165afa801561045d575f9061049c575b61026a915060036040519161020e83610597565b6706f05b59d3b200008352602083019066b1a2bc2ec5000082526040840190815260608401916001835260015f528360205260405f209451855551600185015551600284015551151591019060ff801983541691151516179055565b60a051604051632068e07960e11b815290602090829060049082906001600160a01b03165afa801561045d575f90610468575b61030e91506003604051916102b183610597565b671bc16d674ec80000835260208301906702c68af0bb14000082526040840190815260608401916001835260025f528360205260405f209451855551600185015551600284015551151591019060ff801983541691151516179055565b60a05160405163926f82c560e01b815290602090829060049082906001600160a01b03165afa801561045d575f90610425575b6103b09060036040519161035483610597565b678ac7230489e8000083526020830190670de0b6b3a7640000825260408401908152606084019160018352835f528360205260405f209451855551600185015551600284015551151591019060ff801983541691151516179055565b60405161194c90816105ea823960805181818161047201528181610546015281816105f0015281816107260152818161079001528181610ec6015281816110b7015261124f015260a05181818161086a015281816109090152818161102b01528181611393015281816115a901526118b00152f35b506020813d602011610455575b8161043f602093836105c6565b81010312610451576103b09051610341565b5f80fd5b3d9150610432565b6040513d5f823e3d90fd5b506020813d602011610494575b81610482602093836105c6565b810103126104515761030e905161029d565b3d9150610475565b506020813d6020116104c8575b816104b6602093836105c6565b810103126104515761026a90516101fa565b3d91506104a9565b506020813d6020116104fc575b816104ea602093836105c6565b81010312610451576101c79051610158565b3d91506104dd565b60405162461bcd60e51b815260206004820152601e60248201527f49456e747279506f696e7420696e74657266616365206d69736d6174636800006044820152606490fd5b90506020813d60201161057c575b81610564602093836105c6565b8101031261045157518015158103610451575f6100ee565b3d9150610557565b631e4fbdf760e01b5f525f60045260245ffd5b608081019081106001600160401b038211176105b257604052565b634e487b7160e01b5f52604160045260245ffd5b601f909101601f19168101906001600160401b038211908210176105b25760405256fe6080604052600436101561001a575b3615610018575f80fd5b005b5f5f3560e01c80630396cb601461108f5780630ca737ea14610fdb57806312aa292114610fbf57806316c38b3c14610f36578063205c287814610ea157806340d1c0f214610e8557806352b7512c14610de35780635312ea8e14610d5657806358f2360e14610d3a5780635c975abb14610d175780635d2ed55614610cf9578063715018a614610c9457806375a1497e14610c7657806376528abb14610c585780637655a06d14610c0257806379ba509714610b7d5780637c627b2114610b025780638470be1e14610a05578063854e79f4146108bc57806385dc3bbb1461089957806388c8ec95146108545780638da5cb5b1461082d578063926f82c514610811578063980b1030146107f3578063aca6ce32146107bf578063b0d691fe1461077a578063bb9fe6bf1461070a578063bddb7c831461065c578063c23a5cea146105cb578063c399ec8814610519578063c415b95c146104ec578063d0e30db014610463578063d43627b014610445578063d8de4081146103f8578063db296602146103b9578063e0f6dfca1461039b578063e30c397814610372578063e3bbb4f114610352578063f2fde38b146102e5578063f552a09f14610285578063f71d519f146102135763fa01bf89146101f3575061000e565b346102105780600319360112610210576020600754604051908152f35b80fd5b5034610210576020366003190112610210576040906001600160a01b03610238611129565b168152600460205220805461028160018301549260ff60036002830154920154169060405194859485926060929594919560808501968552602085015260408401521515910152565b0390f35b5034610210576020366003190112610210576040906004358152600360205220805461028160018301549260ff60036002830154920154169060405194859485926060929594919560808501968552602085015260408401521515910152565b5034610210576020366003190112610210576102ff611129565b610307611227565b600180546001600160a01b0319166001600160a01b0392831690811790915582549091167f38d16b8cac22d99fc7c124b9cd0de2d3fa1faef420bfe791d8c362d765e227008380a380f35b50346102105780600319360112610210576020604051642e90edd0008152f35b50346102105780600319360112610210576001546040516001600160a01b039091168152602090f35b50346102105780600319360112610210576020600654604051908152f35b50346102105760203660031901126102105760209060ff906040906001600160a01b036103e4611129565b168152600584522054166040519015158152f35b503461021057806003193601126102105760c0600654600754600a54600b546008549160ff60095416936040519586526020860152604085015260608401526080830152151560a0820152f35b50346102105780600319360112610210576020600854604051908152f35b508060031936011261021057807f00000000000000000000000000000000000000000000000000000000000000006001600160a01b0316803b156104e957816024916040519283809263b760faf960e01b825230600483015234905af180156104de576104cd5750f35b816104d79161113f565b6102105780f35b6040513d84823e3d90fd5b50fd5b503461021057806003193601126102105760095460405160089190911c6001600160a01b03168152602090f35b50346102105780600319360112610210576040516370a0823160e01b8152306004820152906020826024817f00000000000000000000000000000000000000000000000000000000000000006001600160a01b03165afa9081156105bf5790610588575b602090604051908152f35b506020813d6020116105b7575b816105a26020938361113f565b810103126105b3576020905161057d565b5f80fd5b3d9150610595565b604051903d90823e3d90fd5b503461021057602036600319011261021057806105e6611129565b6105ee611227565b7f00000000000000000000000000000000000000000000000000000000000000006001600160a01b031690813b156106585760405163611d2e7560e11b81526001600160a01b0390911660048201529082908290602490829084905af180156104de576104cd5750f35b5050fd5b503461021057604036600319011261021057610676611129565b6024359081151582036107065761068b611227565b6001600160a01b0316808352600460205260408320600301805460ff191660ff8415151617905590156106df577f7f8b7dc89dae85811a7a85800b892b5816ad5d381c856f1b56490f8fc470c9cb8280a280f35b7f0e8627d8a3ba37f2a00b3ae4503c200e696f351225f168df1d3e84eed8009ff98280a280f35b8280fd5b5034610210578060031936011261021057610723611227565b807f00000000000000000000000000000000000000000000000000000000000000006001600160a01b0316803b156104e95781809160046040518094819363bb9fe6bf60e01b83525af180156104de576104cd5750f35b50346102105780600319360112610210576040517f00000000000000000000000000000000000000000000000000000000000000006001600160a01b03168152602090f35b5034610210576020366003190112610210576020670de0b6b3a76400006107ea600854600435611214565b04604051908152f35b50346102105780600319360112610210576020600b54604051908152f35b5034610210578060031936011261021057602060405160038152f35b5034610210578060031936011261021057546040516001600160a01b039091168152602090f35b50346102105780600319360112610210576040517f00000000000000000000000000000000000000000000000000000000000000006001600160a01b03168152602090f35b5034610210576020366003190112610210576108b3611227565b600435600a5580f35b5034610210576020366003190112610210576108d6611129565b60405163a8a82fd760e01b81526001600160a01b03918216600482018190529092909181908190602090869060249082907f0000000000000000000000000000000000000000000000000000000000000000165afa9384156109f85760c09582956109c7575b5060ff8516948561098e575b508160409161095d93526004602052206111cc565b90815160606040840151930151151593604051958652602086015260408501526060840152608083015260a0820152f35b60ff92945061099e9193506111a6565b168252600360205261095d60406109b68185206111cc565b936020855195015193915091610948565b6109ea91955060203d6020116109f1575b6109e2818361113f565b81019061118d565b935f61093c565b503d6109d8565b50604051903d90823e3d90fd5b50346102105760a0366003190112610210576004356080366023190112610afe57610a2e611227565b60038111610aca57808252600360205260408220602435918282556044358060018401556064358060028501556084359081151592838303610ac6577fd73b9f42437eaf073de9c408ff6909d99e52ec74c9f1eb77960ec00c70e37fd396610aa784600360a099019060ff801983541691151516179055565b604051958652602086015260408501526060840152506080820152a180f35b8780fd5b60405162461bcd60e51b815260206004820152600c60248201526b24b73b30b634b2103a34b2b960a11b6044820152606490fd5b5080fd5b5034610210576080366003190112610210576004356003811015610afe5760243567ffffffffffffffff8111610706573660238201121561070657806004013567ffffffffffffffff8111610b79573660248284010111610b7957610b7692610b6961124d565b60246044359301906117a3565b80f35b8380fd5b5034610210578060031936011261021057600154336001600160a01b0390911603610bef57600180546001600160a01b0319908116909155815433918116821783556001600160a01b03167f8be0079c531659141344cd1fd0a4f28419497f9722a3daafe3b4186f6b6457e08380a380f35b63118cdaa760e01b815233600452602490fd5b5034610210576020366003190112610210577f4991f42256a8a559b9ed0c67bea28013afa9f7935f45b62db550209c632c32846040600435610c42611227565b600854908060085582519182526020820152a180f35b50346102105780600319360112610210576020600c54604051908152f35b50346102105780600319360112610210576020600a54604051908152f35b5034610210578060031936011261021057610cad611227565b600180546001600160a01b03199081169091558154908116825581906001600160a01b03167f8be0079c531659141344cd1fd0a4f28419497f9722a3daafe3b4186f6b6457e08280a380f35b50346102105780600319360112610210576020604051620151808152f35b5034610210578060031936011261021057602060ff600954166040519015158152f35b5034610210578060031936011261021057602090604051908152f35b503461021057602036600319011261021057600435610d73611227565b478111610da757815482918291829182916001600160a01b0316828215610d9e575bf1156105bf5780f35b506108fc610d95565b60405162461bcd60e51b8152602060048201526014602482015273496e73756666696369656e742062616c616e636560601b6044820152606490fd5b50346102105760603660031901126102105760043567ffffffffffffffff8111610afe576101206003198236030112610afe57610e1e61124d565b60ff60095416610e76576020610e4060609260443590602435906004016112bc565b604092919251948593604085528051938491826040880152018686015e8383018501526020830152601f01601f19168101030190f35b63455dfd0560e11b8252600482fd5b5034610210578060031936011261021057602060405160028152f35b50346102105760403660031901126102105780610ebc611129565b610ec4611227565b7f00000000000000000000000000000000000000000000000000000000000000006001600160a01b031690813b156106585760405163040b850f60e31b81526001600160a01b03909116600482015260248035908201529082908290604490829084905af180156104de576104cd5750f35b50346102105760203660031901126102105760043580151580820361070657610f5d611227565b60ff8019600954169116176009555f14610f98577f98d07ecc7bbeddc2064952ad7088768474065ac6cb130b0ef0224ad7ff32fd498180a180f35b7f389ea08723efcbea48925a5aff7dd8d867038fd7aa9225411f3e014f2d0fc6688180a180f35b5034610210578060031936011261021057602060405160018152f35b503461021057602036600319011261021057610ff5611227565b805460405163a9059cbb60e01b81526001600160a01b0390911660048083019190915235602482015260208180604481010381857f00000000000000000000000000000000000000000000000000000000000000006001600160a01b03165af180156104de57611063575080f35b6110849060203d602011611088575b61107c818361113f565b810190611175565b5080f35b503d611072565b5060203660031901126105b35760043563ffffffff81168091036105b3576110b5611227565b7f00000000000000000000000000000000000000000000000000000000000000006001600160a01b031690813b156105b3575f90602460405180948193621cb65b60e51b8352600483015234905af1801561111e57611112575080f35b61001891505f9061113f565b6040513d5f823e3d90fd5b600435906001600160a01b03821682036105b357565b90601f8019910116810190811067ffffffffffffffff82111761116157604052565b634e487b7160e01b5f52604160045260245ffd5b908160209103126105b3575180151581036105b35790565b908160209103126105b3575160ff811681036105b35790565b60ff5f199116019060ff82116111b857565b634e487b7160e01b5f52601160045260245ffd5b906040516080810181811067ffffffffffffffff82111761116157604052606060ff600383958054855260018101546020860152600281015460408601520154161515910152565b818102929181159184041417156111b857565b5f546001600160a01b0316330361123a57565b63118cdaa760e01b5f523360045260245ffd5b7f00000000000000000000000000000000000000000000000000000000000000006001600160a01b0316330361127f57565b60405162461bcd60e51b815260206004820152601560248201527414d95b99195c881b9bdd08115b9d1c9e541bda5b9d605a1b6044820152606490fd5b60e0810135601e19823603018112156105b35781019081359067ffffffffffffffff82116105b35781360360208401136105b3576060916015811061178757806014101561177357603484013560f81c9360158211611712575b5050356001600160a01b03811692908390036105b357825f52600460205260ff600360405f2001541661170357600c546201518081018091116111b8574210156116f6575b61136785600b5461193f565b600a54106116e7578061154a57505060405163a8a82fd760e01b815260048101829052926020846024817f00000000000000000000000000000000000000000000000000000000000000006001600160a01b03165afa93841561111e575f94611529575b5060ff841693841561151a576113e260ff916111a6565b1693845f5260036020526113f860405f206111cc565b9160608301511561150b57602083015181116114fc57835f52600460205260405f20916001830180546201518081018091116111b8574210156114f0575b50825493611444838661193f565b9051106114e157600260409361147b847f3bebcc8e3fdce476447d2938c3003ceaff122d025c2863b328ea1f4c2e1ae8479761193f565b81550161148983825461193f565b90556114978260065461193f565b6006556114a682600b5461193f565b600b55825196856020890152828489015260608801525f6080880152608087526114d160a08861113f565b82519182526020820152a3905f90565b630652f4c560e21b5f5260045ffd5b5f84554290555f611436565b632e29643b60e21b5f5260045ffd5b63e142361760e01b5f5260045ffd5b6378de4a6960e11b5f5260045ffd5b61154391945060203d6020116109f1576109e2818361113f565b925f6113cb565b6001146115605763097637e960e21b5f5260045ffd5b602081519181808201938492010103126105b3575192670de0b6b3a764000061158b60085483611214565b049384116116d8576040516370a0823160e01b8152600481018390527f00000000000000000000000000000000000000000000000000000000000000006001600160a01b03169190602081602481865afa801561111e5786915f916116a3575b50106116945760205f926064604051809581936323b872dd60e01b83528860048401523060248401528a60448401525af190811561111e577f8ee4af07ef46e0ac459dd0e159383c7ba6788d308c992bb162415c4d9af81a6a92604092611677575b5081519584602088015281838801525f6060880152806080880152608087526114d160a08861113f565b61168f9060203d6020116110885761107c818361113f565b61164d565b63412d8f0160e01b5f5260045ffd5b9150506020813d6020116116d0575b816116bf6020938361113f565b810103126105b3578590515f6115eb565b3d91506116b2565b6327043cb360e01b5f5260045ffd5b638fe2651160e01b5f5260045ffd5b5f600b5542600c5561135b565b63ebb6f34b60e01b5f5260045ffd5b90809293506015116105b35760141982019067ffffffffffffffff8211611161576040519261174b600a8201601f19166020018561113f565b82845236602082840101116105b3575f926035600b9301602086013783010152905f80611316565b634e487b7160e01b5f52603260045260245ffd5b63097637e960e21b5f5260045ffd5b919082039182116111b857565b90929183608091810103126105b35782356001600160a01b03811691908290036105b3576060602085013594013590600381101561192b57600114611902578061184757505f52600460205260405f209082811061180057505050565b61180f60029161184294611796565b9161181b838254611796565b815501611829828254611796565b905561183781600654611796565b600655600b54611796565b600b55565b925090611860670de0b6b3a76400009160085490611214565b049081831161186e57505050565b61187d6020926118ab94611796565b60405163a9059cbb60e01b81526001600160a01b039092166004830152602482015291829081906044820190565b03815f7f00000000000000000000000000000000000000000000000000000000000000006001600160a01b03165af1801561111e576118e75750565b6118ff9060203d6020116110885761107c818361113f565b50565b909291501561190f575050565b611842915f526004602052600260405f2061181b838254611796565b634e487b7160e01b5f52602160045260245ffd5b919082018092116111b85756","linkReferences":{}},"methodIdentifiers":{"BRONZE_TIER()":"58f2360e","GOLD_TIER()":"40d1c0f2","MAX_GAS_PRICE()":"e3bbb4f1","MIN_STAKE_TIME()":"5d2ed556","PLATINUM_TIER()":"926f82c5","SILVER_TIER()":"12aa2921","acceptOwnership()":"79ba5097","addStake(uint32)":"0396cb60","calculateDashPayment(uint256)":"aca6ce32","dailyGlobalLimit()":"75a1497e","dailyGlobalSponsored()":"980b1030","dashToEthRate()":"d43627b0","dashToken()":"88c8ec95","deposit()":"d0e30db0","emergencyWithdraw(uint256)":"5312ea8e","emergencyWithdrawDash(uint256)":"0ca737ea","entryPoint()":"b0d691fe","feeCollector()":"c415b95c","getDeposit()":"c399ec88","getPaymasterStats()":"d8de4081","getUserSponsorshipInfo(address)":"854e79f4","lastGlobalReset()":"76528abb","owner()":"8da5cb5b","paused()":"5c975abb","pendingOwner()":"e30c3978","postOp(uint8,bytes,uint256,uint256)":"7c627b21","renounceOwnership()":"715018a6","setDailyGlobalLimit(uint256)":"85dc3bbb","setDashToEthRate(uint256)":"7655a06d","setPaused(bool)":"16c38b3c","setSponsorshipConfig(uint256,(uint256,uint256,uint256,bool))":"8470be1e","setUserBlacklisted(address,bool)":"bddb7c83","sponsorshipTiers(uint256)":"f552a09f","totalGasSponsored()":"e0f6dfca","totalUsersSponsored()":"fa01bf89","transferOwnership(address)":"f2fde38b","trustedOracles(address)":"db296602","unlockStake()":"bb9fe6bf","userSponsorshipData(address)":"f71d519f","validatePaymasterUserOp((address,uint256,bytes,bytes,bytes32,uint256,bytes32,bytes,bytes),bytes32,uint256)":"52b7512c","withdrawStake(address)":"c23a5cea","withdrawTo(address,uint256)":"205c2878"},"id":96}