{"abi":[{"type":"constructor","inputs":[{"name":"_token0","type":"address","internalType":"address"},{"name":"_token1","type":"address","internalType":"address"}],"stateMutability":"nonpayable"},{"type":"function","name":"MINIMUM_LIQUIDITY","inputs":[],"outputs":[{"name":"","type":"uint256","internalType":"uint256"}],"stateMutability":"view"},{"type":"function","name":"addLiquidity","inputs":[{"name":"amount0Desired","type":"uint256","internalType":"uint256"},{"name":"amount1Desired","type":"uint256","internalType":"uint256"}],"outputs":[{"name":"liquidity","type":"uint256","internalType":"uint256"}],"stateMutability":"nonpayable"},{"type":"function","name":"allowance","inputs":[{"name":"","type":"address","internalType":"address"},{"name":"","type":"address","internalType":"address"}],"outputs":[{"name":"","type":"uint256","internalType":"uint256"}],"stateMutability":"view"},{"type":"function","name":"approve","inputs":[{"name":"spender","type":"address","internalType":"address"},{"name":"value","type":"uint256","internalType":"uint256"}],"outputs":[{"name":"","type":"bool","internalType":"bool"}],"stateMutability":"nonpayable"},{"type":"function","name":"balanceOf","inputs":[{"name":"","type":"address","internalType":"address"}],"outputs":[{"name":"","type":"uint256","internalType":"uint256"}],"stateMutability":"view"},{"type":"function","name":"decimals","inputs":[],"outputs":[{"name":"","type":"uint8","internalType":"uint8"}],"stateMutability":"view"},{"type":"function","name":"getAmountOut","inputs":[{"name":"amountIn","type":"uint256","internalType":"uint256"},{"name":"reserveIn","type":"uint256","internalType":"uint256"},{"name":"reserveOut","type":"uint256","internalType":"uint256"}],"outputs":[{"name":"amountOut","type":"uint256","internalType":"uint256"}],"stateMutability":"pure"},{"type":"function","name":"getReserves","inputs":[],"outputs":[{"name":"_reserve0","type":"uint256","internalType":"uint256"},{"name":"_reserve1","type":"uint256","internalType":"uint256"}],"stateMutability":"view"},{"type":"function","name":"name","inputs":[],"outputs":[{"name":"","type":"string","internalType":"string"}],"stateMutability":"view"},{"type":"function","name":"removeLiquidity","inputs":[{"name":"liquidity","type":"uint256","internalType":"uint256"}],"outputs":[{"name":"amount0","type":"uint256","internalType":"uint256"},{"name":"amount1","type":"uint256","internalType":"uint256"}],"stateMutability":"nonpayable"},{"type":"function","name":"reserve0","inputs":[],"outputs":[{"name":"","type":"uint256","internalType":"uint256"}],"stateMutability":"view"},{"type":"function","name":"reserve1","inputs":[],"outputs":[{"name":"","type":"uint256","internalType":"uint256"}],"stateMutability":"view"},{"type":"function","name":"swap","inputs":[{"name":"amount0In","type":"uint256","internalType":"uint256"},{"name":"amount1In","type":"uint256","internalType":"uint256"},{"name":"minAmountOut","type":"uint256","internalType":"uint256"}],"outputs":[],"stateMutability":"nonpayable"},{"type":"function","name":"symbol","inputs":[],"outputs":[{"name":"","type":"string","internalType":"string"}],"stateMutability":"view"},{"type":"function","name":"token0","inputs":[],"outputs":[{"name":"","type":"address","internalType":"contract BasicERC20"}],"stateMutability":"view"},{"type":"function","name":"token1","inputs":[],"outputs":[{"name":"","type":"address","internalType":"contract BasicERC20"}],"stateMutability":"view"},{"type":"function","name":"totalSupply","inputs":[],"outputs":[{"name":"","type":"uint256","internalType":"uint256"}],"stateMutability":"view"},{"type":"function","name":"transfer","inputs":[{"name":"to","type":"address","internalType":"address"},{"name":"value","type":"uint256","internalType":"uint256"}],"outputs":[{"name":"","type":"bool","internalType":"bool"}],"stateMutability":"nonpayable"},{"type":"function","name":"transferFrom","inputs":[{"name":"from","type":"address","internalType":"address"},{"name":"to","type":"address","internalType":"address"},{"name":"value","type":"uint256","internalType":"uint256"}],"outputs":[{"name":"","type":"bool","internalType":"bool"}],"stateMutability":"nonpayable"},{"type":"event","name":"AddLiquidity","inputs":[{"name":"provider","type":"address","indexed":true,"internalType":"address"},{"name":"amount0","type":"uint256","indexed":false,"internalType":"uint256"},{"name":"amount1","type":"uint256","indexed":false,"internalType":"uint256"},{"name":"liquidity","type":"uint256","indexed":false,"internalType":"uint256"}],"anonymous":false},{"type":"event","name":"Approval","inputs":[{"name":"owner","type":"address","indexed":true,"internalType":"address"},{"name":"spender","type":"address","indexed":true,"internalType":"address"},{"name":"value","type":"uint256","indexed":false,"internalType":"uint256"}],"anonymous":false},{"type":"event","name":"RemoveLiquidity","inputs":[{"name":"provider","type":"address","indexed":true,"internalType":"address"},{"name":"amount0","type":"uint256","indexed":false,"internalType":"uint256"},{"name":"amount1","type":"uint256","indexed":false,"internalType":"uint256"},{"name":"liquidity","type":"uint256","indexed":false,"internalType":"uint256"}],"anonymous":false},{"type":"event","name":"Swap","inputs":[{"name":"trader","type":"address","indexed":true,"internalType":"address"},{"name":"amount0In","type":"uint256","indexed":false,"internalType":"uint256"},{"name":"amount1In","type":"uint256","indexed":false,"internalType":"uint256"},{"name":"amount0Out","type":"uint256","indexed":false,"internalType":"uint256"},{"name":"amount1Out","type":"uint256","indexed":false,"internalType":"uint256"}],"anonymous":false},{"type":"event","name":"Transfer","inputs":[{"name":"from","type":"address","indexed":true,"internalType":"address"},{"name":"to","type":"address","indexed":true,"internalType":"address"},{"name":"value","type":"uint256","indexed":false,"internalType":"uint256"}],"anonymous":false}],"bytecode":{"object":"0x60c0806040523461053657604081611ba2803803809161001f828561053a565b8339810103126105365761003e60206100378361055d565b920161055d565b6040516395d89b4160e01b8152916001600160a01b0316905f83600481855afa92831561050f575f9361051a575b506040516395d89b4160e01b81526001600160a01b0391909116905f81600481855afa90811561050f576020946023866100f3946001945f916104ed575b50604051988994624c502d60e81b828701528051918291018587015e840190602d60f81b84830152805192839101602483015e01015f838201520301601f19810185528461053a565b604091825193610103848661053a565b600285526104c560f41b60208601528051906001600160401b0382116103f4575f5490600182811c921680156104e3575b60208310146103d65781601f849311610476575b50602090601f8311600114610413575f92610408575b50508160011b915f199060031b1c1916175f555b83516001600160401b0381116103f457600154600181811c911680156103ea575b60208210146103d657601f8111610373575b50602094601f8211600114610310579481929394955f92610305575b50508160011b915f199060031b1c1916176001555b601260ff1960025416176002555f600355335f5260046020525f8381205582515f81525f7fddf252ad1be2c89b69c2b068fc378daa952ba7f163c4a11628f55a4df523b3ef60203393a38181146102ce57801515806102c5575b156102925760805260a052516115bf90816105e3823960805181818161031f01528181610607015281816107a901528181610ae70152611035015260a05181818161015301528181610383015281816105a4015281816108120152610b4b0152f35b825162461bcd60e51b815260206004820152600c60248201526b5a65726f206164647265737360a01b6044820152606490fd5b50811515610230565b825162461bcd60e51b815260206004820152601060248201526f4964656e746963616c20746f6b656e7360801b6044820152606490fd5b015190505f806101c1565b601f1982169560015f52805f20915f5b88811061035b57508360019596979810610343575b505050811b016001556101d6565b01515f1960f88460031b161c191690555f8080610335565b91926020600181928685015181550194019201610320565b60015f527fb10e2d527612073b26eecdfd717e6a320cf44b4afac2b0732d9fcbe2b7fa0cf6601f830160051c810191602084106103cc575b601f0160051c01905b8181106103c157506101a5565b5f81556001016103b4565b90915081906103ab565b634e487b7160e01b5f52602260045260245ffd5b90607f1690610193565b634e487b7160e01b5f52604160045260245ffd5b015190505f8061015e565b5f8080528281209350601f198516905b81811061045e5750908460019594939210610446575b505050811b015f55610172565b01515f1960f88460031b161c191690555f8080610439565b92936020600181928786015181550195019301610423565b5f80529091507f290decd9548b62a8d60345a988386fc84ba6bc95484008f6362f93160ef3e563601f840160051c810191602085106104d9575b90601f859493920160051c01905b8181106104cb5750610148565b5f81558493506001016104be565b90915081906104b0565b91607f1691610134565b61050991503d805f833e610501818361053a565b810190610571565b5f6100aa565b6040513d5f823e3d90fd5b61052f9193503d805f833e610501818361053a565b915f61006c565b5f80fd5b601f909101601f19168101906001600160401b038211908210176103f457604052565b51906001600160a01b038216820361053657565b602081830312610536578051906001600160401b038211610536570181601f82011215610536578051906001600160401b0382116103f457604051926105c1601f8401601f19166020018561053a565b8284526020838301011161053657815f9260208093018386015e830101529056fe60806040526004361015610011575f80fd5b5f3560e01c8063054d50d4146111ff57806306fdde03146111475780630902f1ac14611123578063095ea7b3146110645780630dfe16811461102057806318160ddd1461100357806323b872dd14610e89578063313ce56714610e69578063443cb4bc14610e4c5780635a76f25e14610e2f57806370a0823114610df757806395d89b4114610cf35780639c8f9f2314610a305780639cd441da146106f05780639d9892cd1461023c578063a9059cbb1461019e578063ba9a7a5614610182578063d21220a71461013e5763dd62ed3e146100ea575f80fd5b3461013a57604036600319011261013a5761010361132d565b61010b611343565b6001600160a01b039182165f908152600560209081526040808320949093168252928352819020549051908152f35b5f80fd5b3461013a575f36600319011261013a576040517f00000000000000000000000000000000000000000000000000000000000000006001600160a01b03168152602090f35b3461013a575f36600319011261013a5760206040516103e88152f35b3461013a57604036600319011261013a576101b761132d565b6001600160a01b03166024356101ce8215156113da565b335f5260046020526101e68160405f20541015611426565b335f52600460205260405f206101fd828254611469565b9055815f52600460205260405f206102168282546113af565b90556040519081525f51602061159f5f395f51905f5260203392a3602060405160018152f35b3461013a5761024a366112b3565b9082159081801580936106e7575b61026190611359565b80836106df575b156106a1576006549283151580610696575b15610662575f938491156105125750506103e585028581046103e5148217156104c4576007546102aa818361139c565b91600654906103e88202918083046103e814901517156104c4576102ee936102d86102de926102e7946113af565b906113bc565b968710156114cc565b851061150c565b6040516323b872dd60e01b8152336004820152306024820152604481018690526020816064815f6001600160a01b037f0000000000000000000000000000000000000000000000000000000000000000165af1801561050757610358915f916104d8575b5061148e565b60405163a9059cbb60e01b8152336004820152602481018590526020816044815f6001600160a01b037f0000000000000000000000000000000000000000000000000000000000000000165af18015610507576103bb915f916104d8575061148e565b6103c7856006546113af565b6006556103d684600754611469565b6007555b60065490600754906103f6856103f0848661139c565b94611469565b6103e58802918883046103e51417156104c45761041c87916103e86104229404906113af565b92611469565b906103e584028481046103e514851517156104c45761044f926103e86104499204906113af565b9061139c565b11610491576040519384526020840152604083015260608201527f49926bbebe8474393f434dfa4f78694c0923efa07d19f2284518bfabd06eb73760803392a2005b60405162461bcd60e51b815260206004820152600b60248201526a12c81a5b9d985c9a585b9d60aa1b6044820152606490fd5b634e487b7160e01b5f52601160045260245ffd5b6104fa915060203d602011610500575b6104f281836112cd565b810190611476565b87610352565b503d6104e8565b6040513d5f823e3d90fd5b909493506103e58302908382046103e514841517156104c457610535818361139c565b91600754906103e88202918083046103e814901517156104c457610573936102d86105639261056c946113af565b958610156114cc565b841061150c565b6040516323b872dd60e01b8152336004820152306024820152604481018390526020816064815f6001600160a01b037f0000000000000000000000000000000000000000000000000000000000000000165af18015610507576105dc915f916104d8575061148e565b60405163a9059cbb60e01b8152336004820152602481018490526020816044815f6001600160a01b037f0000000000000000000000000000000000000000000000000000000000000000165af180156105075761063f915f916104d8575061148e565b61064b826007546113af565b60075561065a83600654611469565b6006556103da565b60405162461bcd60e51b815260206004820152600c60248201526b4e6f206c697175696469747960a01b6044820152606490fd5b50600754151561027a565b60405162461bcd60e51b815260206004820152601660248201527513db9b1e481bdb99481a5b9c1d5d08185b1b1bddd95960521b6044820152606490fd5b508115610268565b50811515610258565b3461013a57604036600319011261013a5760043560243581151580610a27575b156109f0576003548061096f57509061073161072c838361139c565b611558565b6103e71981019081116104c4575f805260046020526103e87f17ef568e3e12ab5b9c7254a8d58478811de00f9e6eb34345acd53bf8fd09d3ec819055600355905b811561092a576040516323b872dd60e01b8152336004820152306024820152604481018290526020816064815f6001600160a01b037f0000000000000000000000000000000000000000000000000000000000000000165af18015610507576107e1915f9161090b575061148e565b6040516323b872dd60e01b8152336004820152306024820152604481018490526020816064815f6001600160a01b037f0000000000000000000000000000000000000000000000000000000000000000165af180156105075760209461087085927fbeb3885786d637a474cbc287c0a44587231633a077f0bd30354d5a4b18996fce945f916108ee575061148e565b335f526004865260405f206108868382546113af565b9055610894826003546113af565b6003556108a3846006546113af565b6006556108b2816007546113af565b6007556040518281525f5f51602061159f5f395f51905f52883393a36040805194855260208501919091528301523391606090a2604051908152f35b6109059150883d8a11610500576104f281836112cd565b88610352565b610924915060203d602011610500576104f281836112cd565b85610352565b60405162461bcd60e51b815260206004820152601d60248201527f496e73756666696369656e74206c6971756964697479206d696e7465640000006044820152606490fd5b60075461097c818561139c565b9361098a60065480966113bc565b938085116109ce5750906109ab6109b06109b79395965b6109ab868861139c565b6113bc565b938661139c565b808210156109c757505b90610772565b90506109c1565b935050806109ab6109b06109e96109b7946109ab898961139c565b95966109a1565b60405162461bcd60e51b815260206004820152600f60248201526e496e76616c696420616d6f756e747360881b6044820152606490fd5b50801515610710565b3461013a57602036600319011261013a576004358015610cba57335f5260046020528060405f205410610c7c57610a696006548261139c565b610a86610a7960035480936113bc565b916109ab6007548561139c565b81151580610c73575b15610c2e57335f52600460205260405f20610aab848254611469565b9055610ab983600354611469565b60035560405163a9059cbb60e01b8152336004820152602481018390526020816044815f6001600160a01b037f0000000000000000000000000000000000000000000000000000000000000000165af1801561050757610b1f915f9161090b575061148e565b60405163a9059cbb60e01b815233600482015260248101829052926020846044815f6001600160a01b037f0000000000000000000000000000000000000000000000000000000000000000165af193841561050757604094610b87915f91610c0f575061148e565b610b9383600654611469565b600655610ba282600754611469565b6007555f84518281525f51602061159f5f395f51905f5260203392a37f59c3a0b60c6ab7deb62e1440c9e72441db6db7dfe514dba8cb18e60c0d896efa845180610c0033948688846040919493926060820195825260208201520152565b0390a282519182526020820152f35b610c28915060203d602011610500576104f281836112cd565b86610352565b60405162461bcd60e51b815260206004820152601d60248201527f496e73756666696369656e74206c6971756964697479206275726e65640000006044820152606490fd5b50801515610a8f565b60405162461bcd60e51b8152602060048201526016602482015275496e73756666696369656e74204c5020746f6b656e7360501b6044820152606490fd5b60405162461bcd60e51b8152602060048201526011602482015270496e76616c6964206c697175696469747960781b6044820152606490fd5b3461013a575f36600319011261013a576040515f6001548060011c90600181168015610ded575b602083108114610dd957828552908115610db55750600114610d57575b610d5383610d47818503826112cd565b60405191829182611303565b0390f35b60015f9081527fb10e2d527612073b26eecdfd717e6a320cf44b4afac2b0732d9fcbe2b7fa0cf6939250905b808210610d9b57509091508101602001610d47610d37565b919260018160209254838588010152019101909291610d83565b60ff191660208086019190915291151560051b84019091019150610d479050610d37565b634e487b7160e01b5f52602260045260245ffd5b91607f1691610d1a565b3461013a57602036600319011261013a576001600160a01b03610e1861132d565b165f526004602052602060405f2054604051908152f35b3461013a575f36600319011261013a576020600754604051908152f35b3461013a575f36600319011261013a576020600654604051908152f35b3461013a575f36600319011261013a57602060ff60025416604051908152f35b3461013a57606036600319011261013a57610ea261132d565b610eaa611343565b604435916001600160a01b0316908115610fbe576001600160a01b031691610ed38315156113da565b815f526004602052610eeb8160405f20541015611426565b5f8281526005602090815260408083203384529091529020548111610f805760205f51602061159f5f395f51905f5291835f526004825260405f20610f31828254611469565b9055845f526004825260405f20610f498282546113af565b90555f848152600583526040808220338352845290208054610f6c908390611469565b9055604051908152a3602060405160018152f35b60405162461bcd60e51b8152602060048201526016602482015275496e73756666696369656e7420616c6c6f77616e636560501b6044820152606490fd5b60405162461bcd60e51b815260206004820152601a60248201527f5472616e736665722066726f6d207a65726f20616464726573730000000000006044820152606490fd5b3461013a575f36600319011261013a576020600354604051908152f35b3461013a575f36600319011261013a576040517f00000000000000000000000000000000000000000000000000000000000000006001600160a01b03168152602090f35b3461013a57604036600319011261013a5761107d61132d565b6001600160a01b031660243581156110de57335f52600560205260405f20825f526020528060405f20556040519081527f8c5be1e5ebec7d5bd14f71427d1e84f3dd0314c0f7b2291e5b200ac8c7c3b92560203392a3602060405160018152f35b60405162461bcd60e51b815260206004820152601760248201527f417070726f766520746f207a65726f20616464726573730000000000000000006044820152606490fd5b3461013a575f36600319011261013a57604060065460075482519182526020820152f35b3461013a575f36600319011261013a576040515f5f548060011c906001811680156111f5575b602083108114610dd957828552908115610db5575060011461119957610d5383610d47818503826112cd565b5f8080527f290decd9548b62a8d60345a988386fc84ba6bc95484008f6362f93160ef3e563939250905b8082106111db57509091508101602001610d47610d37565b9192600181602092548385880101520191019092916111c3565b91607f169161116d565b3461013a5761120d366112b3565b829192159061121c8215611359565b8315918215806112aa575b15611272576103e584029384046103e51417156104c457611248908361139c565b906103e884029384046103e81417156104c4576102d861126a926020946113af565b604051908152f35b60405162461bcd60e51b815260206004820152601060248201526f496e76616c696420726573657276657360801b6044820152606490fd5b50811515611227565b606090600319011261013a57600435906024359060443590565b90601f8019910116810190811067ffffffffffffffff8211176112ef57604052565b634e487b7160e01b5f52604160045260245ffd5b602060409281835280519182918282860152018484015e5f828201840152601f01601f1916010190565b600435906001600160a01b038216820361013a57565b602435906001600160a01b038216820361013a57565b1561136057565b60405162461bcd60e51b8152602060048201526014602482015273125b9d985b1a59081a5b9c1d5d08185b5bdd5b9d60621b6044820152606490fd5b818102929181159184041417156104c457565b919082018092116104c457565b81156113c6570490565b634e487b7160e01b5f52601260045260245ffd5b156113e157565b60405162461bcd60e51b815260206004820152601860248201527f5472616e7366657220746f207a65726f206164647265737300000000000000006044820152606490fd5b1561142d57565b60405162461bcd60e51b8152602060048201526014602482015273496e73756666696369656e742062616c616e636560601b6044820152606490fd5b919082039182116104c457565b9081602091031261013a5751801515810361013a5790565b1561149557565b60405162461bcd60e51b815260206004820152600f60248201526e151c985b9cd9995c8819985a5b1959608a1b6044820152606490fd5b156114d357565b60405162461bcd60e51b815260206004820152601160248201527014db1a5c1c1859d948195e18d959591959607a1b6044820152606490fd5b1561151357565b60405162461bcd60e51b815260206004820152601d60248201527f496e73756666696369656e74206f7574707574206c69717569646974790000006044820152606490fd5b801561159957600181018082116104c45760011c815b82821061157a57505090565b9091506115908261158b81846113bc565b6113af565b60011c9061156e565b505f9056feddf252ad1be2c89b69c2b068fc378daa952ba7f163c4a11628f55a4df523b3ef","linkReferences":{}},"methodIdentifiers":{"MINIMUM_LIQUIDITY()":"ba9a7a56","addLiquidity(uint256,uint256)":"9cd441da","allowance(address,address)":"dd62ed3e","approve(address,uint256)":"095ea7b3","balanceOf(address)":"70a08231","decimals()":"313ce567","getAmountOut(uint256,uint256,uint256)":"054d50d4","getReserves()":"0902f1ac","name()":"06fdde03","removeLiquidity(uint256)":"9c8f9f23","reserve0()":"443cb4bc","reserve1()":"5a76f25e","swap(uint256,uint256,uint256)":"9d9892cd","symbol()":"95d89b41","token0()":"0dfe1681","token1()":"d21220a7","totalSupply()":"18160ddd","transfer(address,uint256)":"a9059cbb","transferFrom(address,address,uint256)":"23b872dd"},"id":19}