{"abi":[{"type":"constructor","inputs":[{"name":"_token","type":"address","internalType":"contract IERC20"},{"name":"initialOwner","type":"address","internalType":"address"}],"stateMutability":"nonpayable"},{"type":"function","name":"createVestingSchedule","inputs":[{"name":"beneficiary","type":"address","internalType":"address"},{"name":"totalAmount","type":"uint256","internalType":"uint256"},{"name":"cliff","type":"uint256","internalType":"uint256"},{"name":"duration","type":"uint256","internalType":"uint256"},{"name":"revocable","type":"bool","internalType":"bool"}],"outputs":[{"name":"scheduleId","type":"uint256","internalType":"uint256"}],"stateMutability":"nonpayable"},{"type":"function","name":"emergencyWithdraw","inputs":[{"name":"amount","type":"uint256","internalType":"uint256"}],"outputs":[],"stateMutability":"nonpayable"},{"type":"function","name":"getAllVestingSchedules","inputs":[{"name":"beneficiary","type":"address","internalType":"address"}],"outputs":[{"name":"","type":"tuple[]","internalType":"struct TokenVesting.VestingSchedule[]","components":[{"name":"totalAmount","type":"uint256","internalType":"uint256"},{"name":"cliff","type":"uint256","internalType":"uint256"},{"name":"start","type":"uint256","internalType":"uint256"},{"name":"duration","type":"uint256","internalType":"uint256"},{"name":"released","type":"uint256","internalType":"uint256"},{"name":"revocable","type":"bool","internalType":"bool"},{"name":"revoked","type":"bool","internalType":"bool"}]}],"stateMutability":"view"},{"type":"function","name":"getContractStats","inputs":[],"outputs":[{"name":"contractBalance","type":"uint256","internalType":"uint256"},{"name":"_totalVestedTokens","type":"uint256","internalType":"uint256"},{"name":"_totalReleasedTokens","type":"uint256","internalType":"uint256"},{"name":"availableForWithdrawal","type":"uint256","internalType":"uint256"}],"stateMutability":"view"},{"type":"function","name":"getVestingSchedule","inputs":[{"name":"beneficiary","type":"address","internalType":"address"},{"name":"scheduleId","type":"uint256","internalType":"uint256"}],"outputs":[{"name":"","type":"tuple","internalType":"struct TokenVesting.VestingSchedule","components":[{"name":"totalAmount","type":"uint256","internalType":"uint256"},{"name":"cliff","type":"uint256","internalType":"uint256"},{"name":"start","type":"uint256","internalType":"uint256"},{"name":"duration","type":"uint256","internalType":"uint256"},{"name":"released","type":"uint256","internalType":"uint256"},{"name":"revocable","type":"bool","internalType":"bool"},{"name":"revoked","type":"bool","internalType":"bool"}]}],"stateMutability":"view"},{"type":"function","name":"getVestingSummary","inputs":[{"name":"beneficiary","type":"address","internalType":"address"}],"outputs":[{"name":"totalSchedules","type":"uint256","internalType":"uint256"},{"name":"totalAllocated","type":"uint256","internalType":"uint256"},{"name":"totalVested","type":"uint256","internalType":"uint256"},{"name":"totalReleased","type":"uint256","internalType":"uint256"},{"name":"totalReleasable","type":"uint256","internalType":"uint256"}],"stateMutability":"view"},{"type":"function","name":"owner","inputs":[],"outputs":[{"name":"","type":"address","internalType":"address"}],"stateMutability":"view"},{"type":"function","name":"releasableAmount","inputs":[{"name":"beneficiary","type":"address","internalType":"address"},{"name":"scheduleId","type":"uint256","internalType":"uint256"}],"outputs":[{"name":"","type":"uint256","internalType":"uint256"}],"stateMutability":"view"},{"type":"function","name":"release","inputs":[{"name":"beneficiary","type":"address","internalType":"address"},{"name":"scheduleId","type":"uint256","internalType":"uint256"}],"outputs":[{"name":"releasedAmount","type":"uint256","internalType":"uint256"}],"stateMutability":"nonpayable"},{"type":"function","name":"releaseAll","inputs":[{"name":"beneficiary","type":"address","internalType":"address"}],"outputs":[{"name":"totalReleased","type":"uint256","internalType":"uint256"}],"stateMutability":"nonpayable"},{"type":"function","name":"renounceOwnership","inputs":[],"outputs":[],"stateMutability":"nonpayable"},{"type":"function","name":"revoke","inputs":[{"name":"beneficiary","type":"address","internalType":"address"},{"name":"scheduleId","type":"uint256","internalType":"uint256"}],"outputs":[],"stateMutability":"nonpayable"},{"type":"function","name":"token","inputs":[],"outputs":[{"name":"","type":"address","internalType":"contract IERC20"}],"stateMutability":"view"},{"type":"function","name":"totalReleasableAmount","inputs":[{"name":"beneficiary","type":"address","internalType":"address"}],"outputs":[{"name":"total","type":"uint256","internalType":"uint256"}],"stateMutability":"view"},{"type":"function","name":"totalReleasedTokens","inputs":[],"outputs":[{"name":"","type":"uint256","internalType":"uint256"}],"stateMutability":"view"},{"type":"function","name":"totalVestedTokens","inputs":[],"outputs":[{"name":"","type":"uint256","internalType":"uint256"}],"stateMutability":"view"},{"type":"function","name":"totalVestingCount","inputs":[{"name":"","type":"address","internalType":"address"}],"outputs":[{"name":"","type":"uint256","internalType":"uint256"}],"stateMutability":"view"},{"type":"function","name":"transferOwnership","inputs":[{"name":"newOwner","type":"address","internalType":"address"}],"outputs":[],"stateMutability":"nonpayable"},{"type":"function","name":"vestedAmount","inputs":[{"name":"beneficiary","type":"address","internalType":"address"},{"name":"scheduleId","type":"uint256","internalType":"uint256"}],"outputs":[{"name":"","type":"uint256","internalType":"uint256"}],"stateMutability":"view"},{"type":"event","name":"OwnershipTransferred","inputs":[{"name":"previousOwner","type":"address","indexed":true,"internalType":"address"},{"name":"newOwner","type":"address","indexed":true,"internalType":"address"}],"anonymous":false},{"type":"event","name":"TokensReleased","inputs":[{"name":"beneficiary","type":"address","indexed":true,"internalType":"address"},{"name":"scheduleId","type":"uint256","indexed":true,"internalType":"uint256"},{"name":"amount","type":"uint256","indexed":false,"internalType":"uint256"},{"name":"timestamp","type":"uint256","indexed":false,"internalType":"uint256"}],"anonymous":false},{"type":"event","name":"VestingScheduleCreated","inputs":[{"name":"beneficiary","type":"address","indexed":true,"internalType":"address"},{"name":"scheduleId","type":"uint256","indexed":true,"internalType":"uint256"},{"name":"totalAmount","type":"uint256","indexed":false,"internalType":"uint256"},{"name":"cliff","type":"uint256","indexed":false,"internalType":"uint256"},{"name":"start","type":"uint256","indexed":false,"internalType":"uint256"},{"name":"duration","type":"uint256","indexed":false,"internalType":"uint256"},{"name":"revocable","type":"bool","indexed":false,"internalType":"bool"}],"anonymous":false},{"type":"event","name":"VestingScheduleRevoked","inputs":[{"name":"beneficiary","type":"address","indexed":true,"internalType":"address"},{"name":"scheduleId","type":"uint256","indexed":true,"internalType":"uint256"},{"name":"returnedAmount","type":"uint256","indexed":false,"internalType":"uint256"},{"name":"timestamp","type":"uint256","indexed":false,"internalType":"uint256"}],"anonymous":false},{"type":"error","name":"InsufficientContractBalance","inputs":[]},{"type":"error","name":"InvalidAmount","inputs":[]},{"type":"error","name":"InvalidBeneficiary","inputs":[]},{"type":"error","name":"InvalidDuration","inputs":[]},{"type":"error","name":"NoTokensToRelease","inputs":[]},{"type":"error","name":"OwnableInvalidOwner","inputs":[{"name":"owner","type":"address","internalType":"address"}]},{"type":"error","name":"OwnableUnauthorizedAccount","inputs":[{"name":"account","type":"address","internalType":"address"}]},{"type":"error","name":"ReentrancyGuardReentrantCall","inputs":[]},{"type":"error","name":"SafeERC20FailedOperation","inputs":[{"name":"token","type":"address","internalType":"address"}]},{"type":"error","name":"ScheduleAlreadyRevoked","inputs":[]},{"type":"error","name":"ScheduleNotFound","inputs":[]},{"type":"error","name":"ScheduleNotRevocable","inputs":[]}],"bytecode":{"object":"0x60a03461010d57601f6112af38819003918201601f19168301916001600160401b0383118484101761011157808492604094855283398101031261010d578051906001600160a01b038216820361010d57602001516001600160a01b038116919082900361010d5781156100fa575f80546001600160a01b031981168417825560405193916001600160a01b03909116907f8be0079c531659141344cd1fd0a4f28419497f9722a3daafe3b4186f6b6457e09080a36001805560805261118990816101268239608051818181610120015281816102f00152818161036301528181610423015281816106fb015281816108070152610b740152f35b631e4fbdf760e01b5f525f60045260245ffd5b5f80fd5b634e487b7160e01b5f52604160045260245ffdfe60806040526004361015610011575f80fd5b5f3560e01c80630357371d14610d935780630f19734f14610b0357806317cf539114610adc57806319869a4a146109ef57806345f481ad1461091657806351e09631146108f95780635312ea8e146107d6578063580fc80a14610698578063715018a6146106415780638da5cb5b1461061a578063a49612bb146105e2578063bed9757e1461054d578063d6567085146104cc578063dfe6b5d6146103f8578063e6fff2ff146103c9578063eac449d9146101d4578063f2fde38b1461014f578063fc0c546a1461010b5763fd4fa824146100ea575f80fd5b34610107575f366003190112610107576020600554604051908152f35b5f80fd5b34610107575f366003190112610107576040517f00000000000000000000000000000000000000000000000000000000000000006001600160a01b03168152602090f35b3461010757602036600319011261010757610168610e72565b6101706110de565b6001600160a01b031680156101c1575f80546001600160a01b03198116831782556001600160a01b0316907f8be0079c531659141344cd1fd0a4f28419497f9722a3daafe3b4186f6b6457e09080a3005b631e4fbdf760e01b5f525f60045260245ffd5b34610107576040366003190112610107576101ed610e72565b602435906101f96110de565b6001600160a01b0381165f818152600360205260409020549091908310156103ba57815f5260026020526102308360405f20610ecd565b5060058101805460ff8116156103ab5760081c60ff1661039c576102ac8286867ffa2035d18bb820612a76f7ed9fc054681722a74a75d8b2109084d317733f97e096610294610280604098610f38565b608061028b82611104565b91015190610fe7565b9081610319575b505050506004815491015490610fe7565b9061010061ff00198254161790556102c681600454610fe7565b600455806102dd575b8151908152426020820152a3005b5f546103149082906001600160a01b03167f0000000000000000000000000000000000000000000000000000000000000000611050565b6102cf565b816103877f8b81fe67377346f7a0a4a369e94f00c5ae54efa1ff15df40b4d54554e164525a938a9360048901610350838254610f90565b905561035e82600554610f90565b6005557f0000000000000000000000000000000000000000000000000000000000000000611050565b8151908152426020820152a38686898061029b565b636aba008960e11b5f5260045ffd5b630e6a74e160e11b5f5260045ffd5b63d858766960e01b5f5260045ffd5b346101075760403660031901126101075760206103f06103e7610e72565b60243590610ff4565b604051908152f35b34610107575f366003190112610107576040516370a0823160e01b81523060048201526020816024817f00000000000000000000000000000000000000000000000000000000000000006001600160a01b03165afa80156104c1575f9061048e575b6080906004546005546104766104708284610fe7565b84610fe7565b91604051938452602084015260408301526060820152f35b506020813d6020116104b9575b816104a860209383610f16565b81010312610107576080905161045a565b3d915061049b565b6040513d5f823e3d90fd5b34610107576020366003190112610107576104e5610e72565b6001600160a01b03165f8181526003602052604081205490918291905b81841061051457602083604051908152f35b9091610543600191835f52600260205261053d6102806105378860405f20610ecd565b50610f38565b90610f90565b9301929190610502565b3461010757604036600319011261010757610566610e72565b602435905f60c060405161057981610efa565b8281528260208201528260408201528260608201528260808201528260a0820152015260018060a01b031690815f52600360205260405f20548110156103ba576105376105d39160e0935f52600260205260405f20610ecd565b6105e06040518092610e88565bf35b34610107576020366003190112610107576001600160a01b03610603610e72565b165f526003602052602060405f2054604051908152f35b34610107575f366003190112610107575f546040516001600160a01b039091168152602090f35b34610107575f366003190112610107576106596110de565b5f80546001600160a01b0319811682556001600160a01b03167f8be0079c531659141344cd1fd0a4f28419497f9722a3daafe3b4186f6b6457e08280a3005b34610107576020366003190112610107576106b1610e72565b6106b9611030565b6001600160a01b0381165f818152600360205260408120549091825b828110610726576020848681806106f5575b505060018055604051908152f35b61071f917f0000000000000000000000000000000000000000000000000000000000000000611050565b82816106e7565b815f52600260205261073b8160405f20610ecd565b5060ff600582015460081c1615610756575b506001016106d5565b61076261028082610f38565b908161076f575b5061074d565b91837f8b81fe67377346f7a0a4a369e94f00c5ae54efa1ff15df40b4d54554e164525a60406107c28585969a6004600199016107ac838254610f90565b90556107ba82600554610f90565b600555610f90565b988151908152426020820152a39086610769565b34610107576020366003190112610107576004356107f26110de565b6040516370a0823160e01b81523060048201527f000000000000000000000000000000000000000000000000000000000000000091906020816024816001600160a01b0387165afa80156104c1575f906108c5575b610861915061085b60045460055490610fe7565b90610fe7565b8111610880575f5461087e926001600160a01b0390911690611050565b005b60405162461bcd60e51b815260206004820152601e60248201527f496e73756666696369656e7420617661696c61626c652062616c616e636500006044820152606490fd5b506020813d6020116108f1575b816108df60209383610f16565b81010312610107576108619051610847565b3d91506108d2565b34610107575f366003190112610107576020600454604051908152f35b346101075760203660031901126101075761092f610e72565b6001600160a01b03165f8181526003602052604081205490808080805b858110610974575060a095506040519485526020850152604084015260608301526080820152f35b865f52600260205261098c6105378260405f20610ecd565b60c0810151156109a0575b5060010161094c565b9392916001919561053d6109c66109bc6109e894895190610f90565b9561053d89611104565b956109e06109da60808a0192835190610f90565b98611104565b905190610fe7565b9490610997565b34610107576020366003190112610107576001600160a01b03610a10610e72565b165f52600260205260405f2080549067ffffffffffffffff8211610ac85760405191610a4260208260051b0184610f16565b8083526020830180925f5260205f205f915b838310610aaa578486604051918291602083019060208452518091526040830191905f5b818110610a86575050500390f35b91935091602060e082610a9c6001948851610e88565b019401910191849392610a78565b60066020600192610aba85610f38565b815201920192019190610a54565b634e487b7160e01b5f52604160045260245ffd5b346101075760403660031901126101075760206103f0610afa610e72565b60243590610f9d565b346101075760a036600319011261010757610b1c610e72565b60243590604435606435926084359283151580940361010757610b3d6110de565b6001600160a01b0316908115610d84578015610d75578415610d66576040516370a0823160e01b81523060048201526020816024817f00000000000000000000000000000000000000000000000000000000000000006001600160a01b03165afa9081156104c1575f91610d34575b50610bb982600454610f90565b11610d2557815f52600360205260405f205493825f52600260205260405f2060405190610be582610efa565b83825260208201918683526040810192428452606082018a815260808301905f825260a084019587875260c08501955f8752805468010000000000000000811015610ac857610c3991600182018155610ecd565b949094610d1257600595518555516001850155516002840155516003830155516004820155019151151560ff8019845416911617825551151561ff0082549160081b169061ff001916179055825f52600360205260405f20918254915f198314610cfe5760209787967fbea02a5045606a667ff06eb235c005b4f95b55a10c174b5aae63ba6be2ae980895600160a096019055610cd884600454610f90565b6004556040519384528984015242604084015260608301526080820152a3604051908152f35b634e487b7160e01b5f52601160045260245ffd5b634e487b7160e01b5f525f60045260245ffd5b63786e0a9960e01b5f5260045ffd5b90506020813d602011610d5e575b81610d4f60209383610f16565b81010312610107575186610bac565b3d9150610d42565b637616640160e01b5f5260045ffd5b63162908e360e11b5f5260045ffd5b631559b7d760e21b5f5260045ffd5b3461010757604036600319011261010757610dac610e72565b60243590610db8611030565b6001600160a01b0381165f818152600360205260409020549092908110156103ba57825f526002602052610def8160405f20610ecd565b509260ff600585015460081c1661039c57610e0c61028085610f38565b928315610e635783610e2991600460209701610350838254610f90565b7f8b81fe67377346f7a0a4a369e94f00c5ae54efa1ff15df40b4d54554e164525a604080518581524287820152a360018055604051908152f35b63094b911b60e41b5f5260045ffd5b600435906001600160a01b038216820361010757565b60c08091805184526020810151602085015260408101516040850152606081015160608501526080810151608085015260a0810151151560a085015201511515910152565b8054821015610ee6575f52600660205f20910201905f90565b634e487b7160e01b5f52603260045260245ffd5b60e0810190811067ffffffffffffffff821117610ac857604052565b90601f8019910116810190811067ffffffffffffffff821117610ac857604052565b90604051610f4581610efa565b60c060ff6005839580548552600181015460208601526002810154604086015260038101546060860152600481015460808601520154818116151560a085015260081c161515910152565b91908201809211610cfe57565b6001600160a01b03165f81815260036020526040902054909190811015610fe157610537610fd991610fde935f52600260205260405f20610ecd565b611104565b90565b50505f90565b91908203918211610cfe57565b6001600160a01b03165f81815260036020526040902054909190811015610fe15761053761028091610fde935f52600260205260405f20610ecd565b600260015414611041576002600155565b633ee5aeb560e01b5f5260045ffd5b60405163a9059cbb60e01b60208281019182526001600160a01b03909416602483015260448083019590955293815290925f9161108e606482610f16565b519082855af1156104c1575f513d6110d557506001600160a01b0381163b155b6110b55750565b635274afe760e01b5f9081526001600160a01b0391909116600452602490fd5b600114156110ae565b5f546001600160a01b031633036110f157565b63118cdaa760e01b5f523360045260245ffd5b60c081015161118457604081016111218151602084015190610f90565b4210610fe15780519061113a6060840192835190610f90565b42101561117e5761114c905142610fe7565b9151828102928184041490151715610cfe575190811561116a570490565b634e487b7160e01b5f52601260045260245ffd5b50505190565b505f9056","linkReferences":{}},"methodIdentifiers":{"createVestingSchedule(address,uint256,uint256,uint256,bool)":"0f19734f","emergencyWithdraw(uint256)":"5312ea8e","getAllVestingSchedules(address)":"19869a4a","getContractStats()":"dfe6b5d6","getVestingSchedule(address,uint256)":"bed9757e","getVestingSummary(address)":"45f481ad","owner()":"8da5cb5b","releasableAmount(address,uint256)":"e6fff2ff","release(address,uint256)":"0357371d","releaseAll(address)":"580fc80a","renounceOwnership()":"715018a6","revoke(address,uint256)":"eac449d9","token()":"fc0c546a","totalReleasableAmount(address)":"d6567085","totalReleasedTokens()":"fd4fa824","totalVestedTokens()":"51e09631","totalVestingCount(address)":"a49612bb","transferOwnership(address)":"f2fde38b","vestedAmount(address,uint256)":"17cf5391"},"id":104}