{"abi":[{"type":"constructor","inputs":[{"name":"_token","type":"address","internalType":"contract IERC20"},{"name":"initialOwner","type":"address","internalType":"address"}],"stateMutability":"nonpayable"},{"type":"function","name":"createVestingSchedule","inputs":[{"name":"beneficiary","type":"address","internalType":"address"},{"name":"totalAmount","type":"uint256","internalType":"uint256"},{"name":"cliff","type":"uint256","internalType":"uint256"},{"name":"duration","type":"uint256","internalType":"uint256"},{"name":"revocable","type":"bool","internalType":"bool"}],"outputs":[{"name":"scheduleId","type":"uint256","internalType":"uint256"}],"stateMutability":"nonpayable"},{"type":"function","name":"emergencyWithdraw","inputs":[{"name":"amount","type":"uint256","internalType":"uint256"}],"outputs":[],"stateMutability":"nonpayable"},{"type":"function","name":"getAllVestingSchedules","inputs":[{"name":"beneficiary","type":"address","internalType":"address"}],"outputs":[{"name":"","type":"tuple[]","internalType":"struct TokenVesting.VestingSchedule[]","components":[{"name":"totalAmount","type":"uint256","internalType":"uint256"},{"name":"cliff","type":"uint256","internalType":"uint256"},{"name":"start","type":"uint256","internalType":"uint256"},{"name":"duration","type":"uint256","internalType":"uint256"},{"name":"released","type":"uint256","internalType":"uint256"},{"name":"revocable","type":"bool","internalType":"bool"},{"name":"revoked","type":"bool","internalType":"bool"}]}],"stateMutability":"view"},{"type":"function","name":"getContractStats","inputs":[],"outputs":[{"name":"contractBalance","type":"uint256","internalType":"uint256"},{"name":"_totalVestedTokens","type":"uint256","internalType":"uint256"},{"name":"_totalReleasedTokens","type":"uint256","internalType":"uint256"},{"name":"availableForWithdrawal","type":"uint256","internalType":"uint256"}],"stateMutability":"view"},{"type":"function","name":"getVestingSchedule","inputs":[{"name":"beneficiary","type":"address","internalType":"address"},{"name":"scheduleId","type":"uint256","internalType":"uint256"}],"outputs":[{"name":"","type":"tuple","internalType":"struct TokenVesting.VestingSchedule","components":[{"name":"totalAmount","type":"uint256","internalType":"uint256"},{"name":"cliff","type":"uint256","internalType":"uint256"},{"name":"start","type":"uint256","internalType":"uint256"},{"name":"duration","type":"uint256","internalType":"uint256"},{"name":"released","type":"uint256","internalType":"uint256"},{"name":"revocable","type":"bool","internalType":"bool"},{"name":"revoked","type":"bool","internalType":"bool"}]}],"stateMutability":"view"},{"type":"function","name":"getVestingSummary","inputs":[{"name":"beneficiary","type":"address","internalType":"address"}],"outputs":[{"name":"totalSchedules","type":"uint256","internalType":"uint256"},{"name":"totalAllocated","type":"uint256","internalType":"uint256"},{"name":"totalVested","type":"uint256","internalType":"uint256"},{"name":"totalReleased","type":"uint256","internalType":"uint256"},{"name":"totalReleasable","type":"uint256","internalType":"uint256"}],"stateMutability":"view"},{"type":"function","name":"owner","inputs":[],"outputs":[{"name":"","type":"address","internalType":"address"}],"stateMutability":"view"},{"type":"function","name":"releasableAmount","inputs":[{"name":"beneficiary","type":"address","internalType":"address"},{"name":"scheduleId","type":"uint256","internalType":"uint256"}],"outputs":[{"name":"","type":"uint256","internalType":"uint256"}],"stateMutability":"view"},{"type":"function","name":"release","inputs":[{"name":"beneficiary","type":"address","internalType":"address"},{"name":"scheduleId","type":"uint256","internalType":"uint256"}],"outputs":[{"name":"releasedAmount","type":"uint256","internalType":"uint256"}],"stateMutability":"nonpayable"},{"type":"function","name":"releaseAll","inputs":[{"name":"beneficiary","type":"address","internalType":"address"}],"outputs":[{"name":"totalReleased","type":"uint256","internalType":"uint256"}],"stateMutability":"nonpayable"},{"type":"function","name":"renounceOwnership","inputs":[],"outputs":[],"stateMutability":"nonpayable"},{"type":"function","name":"revoke","inputs":[{"name":"beneficiary","type":"address","internalType":"address"},{"name":"scheduleId","type":"uint256","internalType":"uint256"}],"outputs":[],"stateMutability":"nonpayable"},{"type":"function","name":"token","inputs":[],"outputs":[{"name":"","type":"address","internalType":"contract IERC20"}],"stateMutability":"view"},{"type":"function","name":"totalReleasableAmount","inputs":[{"name":"beneficiary","type":"address","internalType":"address"}],"outputs":[{"name":"total","type":"uint256","internalType":"uint256"}],"stateMutability":"view"},{"type":"function","name":"totalReleasedTokens","inputs":[],"outputs":[{"name":"","type":"uint256","internalType":"uint256"}],"stateMutability":"view"},{"type":"function","name":"totalVestedTokens","inputs":[],"outputs":[{"name":"","type":"uint256","internalType":"uint256"}],"stateMutability":"view"},{"type":"function","name":"totalVestingCount","inputs":[{"name":"","type":"address","internalType":"address"}],"outputs":[{"name":"","type":"uint256","internalType":"uint256"}],"stateMutability":"view"},{"type":"function","name":"transferOwnership","inputs":[{"name":"newOwner","type":"address","internalType":"address"}],"outputs":[],"stateMutability":"nonpayable"},{"type":"function","name":"vestedAmount","inputs":[{"name":"beneficiary","type":"address","internalType":"address"},{"name":"scheduleId","type":"uint256","internalType":"uint256"}],"outputs":[{"name":"","type":"uint256","internalType":"uint256"}],"stateMutability":"view"},{"type":"event","name":"OwnershipTransferred","inputs":[{"name":"previousOwner","type":"address","indexed":true,"internalType":"address"},{"name":"newOwner","type":"address","indexed":true,"internalType":"address"}],"anonymous":false},{"type":"event","name":"TokensReleased","inputs":[{"name":"beneficiary","type":"address","indexed":true,"internalType":"address"},{"name":"scheduleId","type":"uint256","indexed":true,"internalType":"uint256"},{"name":"amount","type":"uint256","indexed":false,"internalType":"uint256"},{"name":"timestamp","type":"uint256","indexed":false,"internalType":"uint256"}],"anonymous":false},{"type":"event","name":"VestingScheduleCreated","inputs":[{"name":"beneficiary","type":"address","indexed":true,"internalType":"address"},{"name":"scheduleId","type":"uint256","indexed":true,"internalType":"uint256"},{"name":"totalAmount","type":"uint256","indexed":false,"internalType":"uint256"},{"name":"cliff","type":"uint256","indexed":false,"internalType":"uint256"},{"name":"start","type":"uint256","indexed":false,"internalType":"uint256"},{"name":"duration","type":"uint256","indexed":false,"internalType":"uint256"},{"name":"revocable","type":"bool","indexed":false,"internalType":"bool"}],"anonymous":false},{"type":"event","name":"VestingScheduleRevoked","inputs":[{"name":"beneficiary","type":"address","indexed":true,"internalType":"address"},{"name":"scheduleId","type":"uint256","indexed":true,"internalType":"uint256"},{"name":"returnedAmount","type":"uint256","indexed":false,"internalType":"uint256"},{"name":"timestamp","type":"uint256","indexed":false,"internalType":"uint256"}],"anonymous":false},{"type":"error","name":"InsufficientContractBalance","inputs":[]},{"type":"error","name":"InvalidAmount","inputs":[]},{"type":"error","name":"InvalidBeneficiary","inputs":[]},{"type":"error","name":"InvalidDuration","inputs":[]},{"type":"error","name":"NoTokensToRelease","inputs":[]},{"type":"error","name":"OwnableInvalidOwner","inputs":[{"name":"owner","type":"address","internalType":"address"}]},{"type":"error","name":"OwnableUnauthorizedAccount","inputs":[{"name":"account","type":"address","internalType":"address"}]},{"type":"error","name":"ReentrancyGuardReentrantCall","inputs":[]},{"type":"error","name":"SafeERC20FailedOperation","inputs":[{"name":"token","type":"address","internalType":"address"}]},{"type":"error","name":"ScheduleAlreadyRevoked","inputs":[]},{"type":"error","name":"ScheduleNotFound","inputs":[]},{"type":"error","name":"ScheduleNotRevocable","inputs":[]}],"bytecode":{"object":"0x60a060405234801561000f575f5ffd5b5060405161191338038061191383398101604081905261002e916100e2565b806001600160a01b03811661005c57604051631e4fbdf760e01b81525f600482015260240160405180910390fd5b6100658161007c565b5050600180556001600160a01b031660805261011a565b5f80546001600160a01b038381166001600160a01b0319831681178455604051919092169283917f8be0079c531659141344cd1fd0a4f28419497f9722a3daafe3b4186f6b6457e09190a35050565b6001600160a01b03811681146100df575f5ffd5b50565b5f5f604083850312156100f3575f5ffd5b82516100fe816100cb565b602084015190925061010f816100cb565b809150509250929050565b6080516117a961016a5f395f81816102dc0152818161046e0152818161057d01528181610ab001528181610ba001528181610d5001528181610fa5015281816111fc01526112cb01526117a95ff3fe608060405234801561000f575f5ffd5b506004361061011c575f3560e01c80638da5cb5b116100a9578063e6fff2ff1161006e578063e6fff2ff1461029e578063eac449d9146102b1578063f2fde38b146102c4578063fc0c546a146102d7578063fd4fa824146102fe575f5ffd5b80638da5cb5b14610200578063a49612bb14610224578063bed9757e14610243578063d656708514610263578063dfe6b5d614610276575f5ffd5b806345f481ad116100ef57806345f481ad1461018c57806351e09631146101c75780635312ea8e146101d0578063580fc80a146101e5578063715018a6146101f8575f5ffd5b80630357371d146101205780630f19734f1461014657806317cf53911461015957806319869a4a1461016c575b5f5ffd5b61013361012e3660046115a7565b610307565b6040519081526020015b60405180910390f35b6101336101543660046115cf565b6104ea565b6101336101673660046115a7565b6107dd565b61017f61017a366004611623565b6108a5565b60405161013d9190611684565b61019f61019a366004611623565b610963565b604080519586526020860194909452928401919091526060830152608082015260a00161013d565b61013360045481565b6101e36101de3660046116d1565b610a82565b005b6101336101f3366004611623565b610bcb565b6101e3610d86565b5f546001600160a01b03165b6040516001600160a01b03909116815260200161013d565b610133610232366004611623565b60036020525f908152604090205481565b6102566102513660046115a7565b610d99565b60405161013d91906116e8565b610133610271366004611623565b610ea7565b61027e610f80565b60408051948552602085019390935291830152606082015260800161013d565b6101336102ac3660046115a7565b611037565b6101e36102bf3660046115a7565b61108a565b6101e36102d2366004611623565b61133e565b61020c7f000000000000000000000000000000000000000000000000000000000000000081565b61013360055481565b5f61031061137b565b6001600160a01b0383165f9081526003602052604090205482106103475760405163d858766960e01b815260040160405180910390fd5b6001600160a01b0383165f908152600260205260408120805484908110610370576103706116f6565b905f5260205f20906006020190508060050160019054906101000a900460ff16156103ae57604051636aba008960e11b815260040160405180910390fd5b6040805160e08101825282548152600183015460208201526002830154918101919091526003820154606082015260048201546080820152600582015460ff808216151560a084015261010090910416151560c082015261040e906113a5565b9150815f036104305760405163094b911b60e41b815260040160405180910390fd5b81816004015f828254610443919061171e565b925050819055508160055f82825461045b919061171e565b9091555061049590506001600160a01b037f00000000000000000000000000000000000000000000000000000000000000001685846113be565b6040805183815242602082015284916001600160a01b038716917f8b81fe67377346f7a0a4a369e94f00c5ae54efa1ff15df40b4d54554e164525a910160405180910390a3506104e460018055565b92915050565b5f6104f3611415565b6001600160a01b03861661051a57604051631559b7d760e21b815260040160405180910390fd5b845f0361053a5760405163162908e360e11b815260040160405180910390fd5b825f0361055a57604051637616640160e01b815260040160405180910390fd5b84600454610568919061171e565b6040516370a0823160e01b81523060048201527f00000000000000000000000000000000000000000000000000000000000000006001600160a01b0316906370a0823190602401602060405180830381865afa1580156105ca573d5f5f3e3d5ffd5b505050506040513d601f19601f820116820180604052508101906105ee9190611731565b101561060d5760405163786e0a9960e01b815260040160405180910390fd5b5f42905060035f886001600160a01b03166001600160a01b031681526020019081526020015f2054915060025f886001600160a01b03166001600160a01b031681526020019081526020015f206040518060e001604052808881526020018781526020018381526020018681526020015f815260200185151581526020015f1515815250908060018154018082558091505060019003905f5260205f2090600602015f909190919091505f820151815f01556020820151816001015560408201518160020155606082015181600301556080820151816004015560a0820151816005015f6101000a81548160ff02191690831515021790555060c08201518160050160016101000a81548160ff021916908315150217905550505060035f886001600160a01b03166001600160a01b031681526020019081526020015f205f81548092919061075b90611748565b91905055508560045f828254610771919061171e565b9091555050604080518781526020810187905290810182905260608101859052831515608082015282906001600160a01b038916907fbea02a5045606a667ff06eb235c005b4f95b55a10c174b5aae63ba6be2ae98089060a00160405180910390a35095945050505050565b6001600160a01b0382165f90815260036020526040812054821061080257505f6104e4565b6001600160a01b0383165f908152600260205260409020805461089e919084908110610830576108306116f6565b5f9182526020918290206040805160e081018252600690930290910180548352600181015493830193909352600283015490820152600382015460608201526004820154608082015260059091015460ff808216151560a084015261010090910416151560c0820152611441565b9392505050565b6001600160a01b0381165f908152600260209081526040808320805482518185028101850190935280835260609492939192909184015b82821015610958575f8481526020908190206040805160e08101825260068602909201805483526001808201548486015260028201549284019290925260038101546060840152600481015460808401526005015460ff808216151560a085015261010090910416151560c083015290835290920191016108dc565b505050509050919050565b6001600160a01b0381165f9081526003602052604081205490808080805b85811015610a78576001600160a01b0387165f9081526002602052604081208054839081106109b2576109b26116f6565b5f9182526020918290206040805160e081018252600690930290910180548352600181015493830193909352600283015490820152600382015460608201526004820154608082015260059091015460ff808216151560a084015261010090910416151560c08201819052909150610a6f578051610a30908761171e565b9550610a3b81611441565b610a45908661171e565b9450806080015184610a57919061171e565b9350610a62816113a5565b610a6c908461171e565b92505b50600101610981565b5091939590929450565b610a8a611415565b5f600554600454610a9b9190611760565b6040516370a0823160e01b81523060048201527f00000000000000000000000000000000000000000000000000000000000000006001600160a01b0316906370a0823190602401602060405180830381865afa158015610afd573d5f5f3e3d5ffd5b505050506040513d601f19601f82011682018060405250810190610b219190611731565b610b2b9190611760565b905080821115610b825760405162461bcd60e51b815260206004820152601e60248201527f496e73756666696369656e7420617661696c61626c652062616c616e6365000060448201526064015b60405180910390fd5b610bc7610b965f546001600160a01b031690565b6001600160a01b037f00000000000000000000000000000000000000000000000000000000000000001690846113be565b5050565b5f610bd461137b565b6001600160a01b0382165f90815260036020526040812054905b81811015610d3c576001600160a01b0384165f908152600260205260408120805483908110610c1f57610c1f6116f6565b905f5260205f20906006020190508060050160019054906101000a900460ff16610d33576040805160e08101825282548152600183015460208201526002830154918101919091526003820154606082015260048201546080820152600582015460ff808216151560a084015261010090910416151560c08201525f90610ca5906113a5565b90508015610d315780826004015f828254610cc0919061171e565b925050819055508060055f828254610cd8919061171e565b90915550610ce89050818661171e565b6040805183815242602082015291965084916001600160a01b038916917f8b81fe67377346f7a0a4a369e94f00c5ae54efa1ff15df40b4d54554e164525a910160405180910390a35b505b50600101610bee565b508115610d7757610d776001600160a01b037f00000000000000000000000000000000000000000000000000000000000000001684846113be565b50610d8160018055565b919050565b610d8e611415565b610d975f6114d0565b565b610dd66040518060e001604052805f81526020015f81526020015f81526020015f81526020015f81526020015f151581526020015f151581525090565b6001600160a01b0383165f908152600360205260409020548210610e0d5760405163d858766960e01b815260040160405180910390fd5b6001600160a01b0383165f908152600260205260409020805483908110610e3657610e366116f6565b5f9182526020918290206040805160e081018252600690930290910180548352600181015493830193909352600283015490820152600382015460608201526004820154608082015260059091015460ff808216151560a084015261010090910416151560c0820152905092915050565b6001600160a01b0381165f90815260036020526040812054815b81811015610f79576001600160a01b0384165f9081526002602052604090208054610f65919083908110610ef757610ef76116f6565b5f9182526020918290206040805160e081018252600690930290910180548352600181015493830193909352600283015490820152600382015460608201526004820154608082015260059091015460ff808216151560a084015261010090910416151560c08201526113a5565b610f6f908461171e565b9250600101610ec1565b5050919050565b6040516370a0823160e01b81523060048201525f908190819081906001600160a01b037f000000000000000000000000000000000000000000000000000000000000000016906370a0823190602401602060405180830381865afa158015610fea573d5f5f3e3d5ffd5b505050506040513d601f19601f8201168201806040525081019061100e9190611731565b600454600554919550935091506110258284611760565b61102f9085611760565b905090919293565b6001600160a01b0382165f90815260036020526040812054821061105c57505f6104e4565b6001600160a01b0383165f908152600260205260409020805461089e919084908110610ef757610ef76116f6565b611092611415565b6001600160a01b0382165f9081526003602052604090205481106110c95760405163d858766960e01b815260040160405180910390fd5b6001600160a01b0382165f9081526002602052604081208054839081106110f2576110f26116f6565b5f9182526020909120600690910201600581015490915060ff1661112957604051630e6a74e160e11b815260040160405180910390fd5b6005810154610100900460ff161561115457604051636aba008960e11b815260040160405180910390fd5b6040805160e08101825282548152600183015460208201526002830154918101919091526003820154606082015260048201546080820152600582015460ff808216151560a084015261010090910416151560c08201525f906111b6906113a5565b905080156112695780826004015f8282546111d1919061171e565b925050819055508060055f8282546111e9919061171e565b9091555061122390506001600160a01b037f00000000000000000000000000000000000000000000000000000000000000001685836113be565b6040805182815242602082015284916001600160a01b038716917f8b81fe67377346f7a0a4a369e94f00c5ae54efa1ff15df40b4d54554e164525a910160405180910390a35b600482015482545f9161127b91611760565b60058401805461ff0019166101001790556004805491925082915f906112a2908490611760565b909155505080156112f2576112f26112c15f546001600160a01b031690565b6001600160a01b037f00000000000000000000000000000000000000000000000000000000000000001690836113be565b6040805182815242602082015285916001600160a01b038816917ffa2035d18bb820612a76f7ed9fc054681722a74a75d8b2109084d317733f97e0910160405180910390a35050505050565b611346611415565b6001600160a01b03811661136f57604051631e4fbdf760e01b81525f6004820152602401610b79565b611378816114d0565b50565b60026001540361139e57604051633ee5aeb560e01b815260040160405180910390fd5b6002600155565b5f81608001516113b483611441565b6104e49190611760565b604080516001600160a01b038416602482015260448082018490528251808303909101815260649091019091526020810180516001600160e01b031663a9059cbb60e01b17905261141090849061151f565b505050565b5f546001600160a01b03163314610d975760405163118cdaa760e01b8152336004820152602401610b79565b5f8160c001511561145357505f919050565b6020820151604083015142916114689161171e565b81101561147757505f92915050565b8260600151836040015161148b919061171e565b81106114975750505190565b5f8360400151826114a89190611760565b9050836060015181855f01516114be9190611773565b6114c8919061178a565b949350505050565b5f80546001600160a01b038381166001600160a01b0319831681178455604051919092169283917f8be0079c531659141344cd1fd0a4f28419497f9722a3daafe3b4186f6b6457e09190a35050565b5f5f60205f8451602086015f885af18061153e576040513d5f823e3d81fd5b50505f513d91508115611555578060011415611562565b6001600160a01b0384163b155b1561158b57604051635274afe760e01b81526001600160a01b0385166004820152602401610b79565b50505050565b80356001600160a01b0381168114610d81575f5ffd5b5f5f604083850312156115b8575f5ffd5b6115c183611591565b946020939093013593505050565b5f5f5f5f5f60a086880312156115e3575f5ffd5b6115ec86611591565b945060208601359350604086013592506060860135915060808601358015158114611615575f5ffd5b809150509295509295909350565b5f60208284031215611633575f5ffd5b61089e82611591565b805182526020810151602083015260408101516040830152606081015160608301526080810151608083015260a0810151151560a083015260c0810151151560c08301525050565b602080825282518282018190525f918401906040840190835b818110156116c6576116b083855161163c565b6020939093019260e0929092019160010161169d565b509095945050505050565b5f602082840312156116e1575f5ffd5b5035919050565b60e081016104e4828461163c565b634e487b7160e01b5f52603260045260245ffd5b634e487b7160e01b5f52601160045260245ffd5b808201808211156104e4576104e461170a565b5f60208284031215611741575f5ffd5b5051919050565b5f600182016117595761175961170a565b5060010190565b818103818111156104e4576104e461170a565b80820281158282048414176104e4576104e461170a565b5f826117a457634e487b7160e01b5f52601260045260245ffd5b50049056","linkReferences":{}},"methodIdentifiers":{"createVestingSchedule(address,uint256,uint256,uint256,bool)":"0f19734f","emergencyWithdraw(uint256)":"5312ea8e","getAllVestingSchedules(address)":"19869a4a","getContractStats()":"dfe6b5d6","getVestingSchedule(address,uint256)":"bed9757e","getVestingSummary(address)":"45f481ad","owner()":"8da5cb5b","releasableAmount(address,uint256)":"e6fff2ff","release(address,uint256)":"0357371d","releaseAll(address)":"580fc80a","renounceOwnership()":"715018a6","revoke(address,uint256)":"eac449d9","token()":"fc0c546a","totalReleasableAmount(address)":"d6567085","totalReleasedTokens()":"fd4fa824","totalVestedTokens()":"51e09631","totalVestingCount(address)":"a49612bb","transferOwnership(address)":"f2fde38b","vestedAmount(address,uint256)":"17cf5391"},"id":57}