{"abi":[{"type":"constructor","inputs":[{"name":"_entryPoint","type":"address","internalType":"contract IEntryPoint"},{"name":"_dashToken","type":"address","internalType":"contract DashToken"},{"name":"initialOwner","type":"address","internalType":"address"}],"stateMutability":"nonpayable"},{"type":"function","name":"accountCreationFee","inputs":[],"outputs":[{"name":"","type":"uint256","internalType":"uint256"}],"stateMutability":"view"},{"type":"function","name":"accountImplementation","inputs":[],"outputs":[{"name":"","type":"address","internalType":"contract DashAccount"}],"stateMutability":"view"},{"type":"function","name":"batchCreateAccounts","inputs":[{"name":"owners","type":"address[]","internalType":"address[]"},{"name":"salts","type":"uint256[]","internalType":"uint256[]"}],"outputs":[{"name":"accounts","type":"address[]","internalType":"contract DashAccount[]"}],"stateMutability":"payable"},{"type":"function","name":"createAccount","inputs":[{"name":"owner","type":"address","internalType":"address"},{"name":"salt","type":"uint256","internalType":"uint256"}],"outputs":[{"name":"account","type":"address","internalType":"contract DashAccount"}],"stateMutability":"payable"},{"type":"function","name":"createAccountWithSessionKey","inputs":[{"name":"owner","type":"address","internalType":"address"},{"name":"salt","type":"uint256","internalType":"uint256"},{"name":"aiSigner","type":"address","internalType":"address"},{"name":"spendingLimit","type":"uint256","internalType":"uint256"},{"name":"duration","type":"uint256","internalType":"uint256"},{"name":"allowedTargets","type":"address[]","internalType":"address[]"},{"name":"allowedSelectors","type":"bytes4[]","internalType":"bytes4[]"}],"outputs":[{"name":"account","type":"address","internalType":"contract DashAccount"}],"stateMutability":"payable"},{"type":"function","name":"dashToken","inputs":[],"outputs":[{"name":"","type":"address","internalType":"contract DashToken"}],"stateMutability":"view"},{"type":"function","name":"entryPoint","inputs":[],"outputs":[{"name":"","type":"address","internalType":"contract IEntryPoint"}],"stateMutability":"view"},{"type":"function","name":"generateSalt","inputs":[{"name":"owner","type":"address","internalType":"address"},{"name":"nonce","type":"uint256","internalType":"uint256"}],"outputs":[{"name":"","type":"uint256","internalType":"uint256"}],"stateMutability":"pure"},{"type":"function","name":"getAddress","inputs":[{"name":"owner","type":"address","internalType":"address"},{"name":"salt","type":"uint256","internalType":"uint256"}],"outputs":[{"name":"","type":"address","internalType":"address"}],"stateMutability":"view"},{"type":"function","name":"getCreationCost","inputs":[],"outputs":[{"name":"creationFee","type":"uint256","internalType":"uint256"},{"name":"estimatedGas","type":"uint256","internalType":"uint256"}],"stateMutability":"view"},{"type":"function","name":"getFactoryStats","inputs":[],"outputs":[{"name":"_totalAccountsCreated","type":"uint256","internalType":"uint256"},{"name":"_accountCreationFee","type":"uint256","internalType":"uint256"},{"name":"_implementation","type":"address","internalType":"address"},{"name":"_entryPoint","type":"address","internalType":"address"},{"name":"_dashToken","type":"address","internalType":"address"}],"stateMutability":"view"},{"type":"function","name":"getUserAccounts","inputs":[{"name":"owner","type":"address","internalType":"address"}],"outputs":[{"name":"","type":"address[]","internalType":"address[]"}],"stateMutability":"view"},{"type":"function","name":"implementation","inputs":[],"outputs":[{"name":"","type":"address","internalType":"address"}],"stateMutability":"view"},{"type":"function","name":"isAccount","inputs":[{"name":"account","type":"address","internalType":"address"}],"outputs":[{"name":"","type":"bool","internalType":"bool"}],"stateMutability":"view"},{"type":"function","name":"isValidAccount","inputs":[{"name":"","type":"address","internalType":"address"}],"outputs":[{"name":"","type":"bool","internalType":"bool"}],"stateMutability":"view"},{"type":"function","name":"owner","inputs":[],"outputs":[{"name":"","type":"address","internalType":"address"}],"stateMutability":"view"},{"type":"function","name":"previewAccountAddress","inputs":[{"name":"owner","type":"address","internalType":"address"},{"name":"nonce","type":"uint256","internalType":"uint256"}],"outputs":[{"name":"","type":"address","internalType":"address"}],"stateMutability":"view"},{"type":"function","name":"renounceOwnership","inputs":[],"outputs":[],"stateMutability":"nonpayable"},{"type":"function","name":"senderCreator","inputs":[],"outputs":[{"name":"","type":"address","internalType":"contract ISenderCreator"}],"stateMutability":"view"},{"type":"function","name":"setAccountCreationFee","inputs":[{"name":"newFee","type":"uint256","internalType":"uint256"}],"outputs":[],"stateMutability":"nonpayable"},{"type":"function","name":"totalAccountsCreated","inputs":[],"outputs":[{"name":"","type":"uint256","internalType":"uint256"}],"stateMutability":"view"},{"type":"function","name":"transferOwnership","inputs":[{"name":"newOwner","type":"address","internalType":"address"}],"outputs":[],"stateMutability":"nonpayable"},{"type":"function","name":"userAccounts","inputs":[{"name":"","type":"address","internalType":"address"},{"name":"","type":"uint256","internalType":"uint256"}],"outputs":[{"name":"","type":"address","internalType":"address"}],"stateMutability":"view"},{"type":"function","name":"withdrawFees","inputs":[{"name":"to","type":"address","internalType":"address payable"}],"outputs":[],"stateMutability":"nonpayable"},{"type":"event","name":"AccountCreated","inputs":[{"name":"account","type":"address","indexed":true,"internalType":"address"},{"name":"owner","type":"address","indexed":true,"internalType":"address"},{"name":"salt","type":"uint256","indexed":false,"internalType":"uint256"},{"name":"timestamp","type":"uint256","indexed":false,"internalType":"uint256"}],"anonymous":false},{"type":"event","name":"AccountCreationFeeUpdated","inputs":[{"name":"oldFee","type":"uint256","indexed":false,"internalType":"uint256"},{"name":"newFee","type":"uint256","indexed":false,"internalType":"uint256"}],"anonymous":false},{"type":"event","name":"OwnershipTransferred","inputs":[{"name":"previousOwner","type":"address","indexed":true,"internalType":"address"},{"name":"newOwner","type":"address","indexed":true,"internalType":"address"}],"anonymous":false},{"type":"error","name":"OwnableInvalidOwner","inputs":[{"name":"owner","type":"address","internalType":"address"}]},{"type":"error","name":"OwnableUnauthorizedAccount","inputs":[{"name":"account","type":"address","internalType":"address"}]}],"bytecode":{"object":"0x6101006040525f600455348015610014575f5ffd5b506040516150e73803806150e7833981016040819052610033916101b2565b806001600160a01b03811661006157604051631e4fbdf760e01b81525f600482015260240160405180910390fd5b61006a8161013f565b506001600160a01b03831660a0819052604080516213997160e71b815290516309ccb880916004808201926020929091908290030181865afa1580156100b2573d5f5f3e3d5ffd5b505050506040513d601f19601f820116820180604052508101906100d691906101fc565b6001600160a01b0390811660c052821660e052604051839083906100f99061018e565b6001600160a01b03928316815291166020820152604001604051809103905ff080158015610129573d5f5f3e3d5ffd5b506001600160a01b03166080525061021e915050565b5f80546001600160a01b038381166001600160a01b0319831681178455604051919092169283917f8be0079c531659141344cd1fd0a4f28419497f9722a3daafe3b4186f6b6457e09190a35050565b6139b38061173483390190565b6001600160a01b03811681146101af575f5ffd5b50565b5f5f5f606084860312156101c4575f5ffd5b83516101cf8161019b565b60208501519093506101e08161019b565b60408501519092506101f18161019b565b809150509250925092565b5f6020828403121561020c575f5ffd5b81516102178161019b565b9392505050565b60805160a05160c05160e0516114b26102825f395f818161035e015261050601525f818161015c01526108af01525f818161045201526104de01525f81816101ec015281816102d0015281816104b4015281816109dc0152610b9701526114b25ff3fe608060405260043610610147575f3560e01c806383532d68116100b3578063a74d43891161006d578063a74d43891461040d578063ad872a8614610422578063b0d691fe14610441578063c785e1d614610474578063c922644514610489578063f2fde38b14610533575f5ffd5b806383532d681461032e57806388c8ec951461034d5780638cb84e18146103805780638da5cb5b1461039f57806399703adf146103bb578063a1786803146103e8575f5ffd5b806323cca69c1161010457806323cca69c1461024d57806325ca4c9c1461028b5780635c60da1b146102c25780635d20c279146102f45780635fbfb9cf14610307578063715018a61461031a575f5ffd5b806309ccb8801461014b5780630ab5555d1461019b5780630fba1796146101bc57806311464fbe146101db5780631620768f1461020e578063164e68de1461022e575b5f5ffd5b348015610156575f5ffd5b5061017e7f000000000000000000000000000000000000000000000000000000000000000081565b6040516001600160a01b0390911681526020015b60405180910390f35b3480156101a6575f5ffd5b506101ba6101b5366004610dfb565b610552565b005b3480156101c7575f5ffd5b5061017e6101d6366004610e26565b61059f565b3480156101e6575f5ffd5b5061017e7f000000000000000000000000000000000000000000000000000000000000000081565b61022161021c366004610e98565b6105c1565b6040516101929190610f04565b348015610239575f5ffd5b506101ba610248366004610f4f565b610731565b348015610258575f5ffd5b5061027b610267366004610f4f565b60016020525f908152604090205460ff1681565b6040519015158152602001610192565b348015610296575f5ffd5b5061027b6102a5366004610f4f565b6001600160a01b03165f9081526001602052604090205460ff1690565b3480156102cd575f5ffd5b507f000000000000000000000000000000000000000000000000000000000000000061017e565b61017e610302366004610f6a565b6107ff565b61017e610315366004610e26565b610818565b348015610325575f5ffd5b506101ba610b13565b348015610339575f5ffd5b5061017e610348366004610e26565b610b26565b348015610358575f5ffd5b5061017e7f000000000000000000000000000000000000000000000000000000000000000081565b34801561038b575f5ffd5b5061017e61039a366004610e26565b610b5a565b3480156103aa575f5ffd5b505f546001600160a01b031661017e565b3480156103c6575f5ffd5b506103da6103d5366004610e26565b610c33565b604051908152602001610192565b3480156103f3575f5ffd5b50600454604080519182526203d090602083015201610192565b348015610418575f5ffd5b506103da60045481565b34801561042d575f5ffd5b5061022161043c366004610f4f565b610c8a565b34801561044c575f5ffd5b5061017e7f000000000000000000000000000000000000000000000000000000000000000081565b34801561047f575f5ffd5b506103da60035481565b348015610494575f5ffd5b506003546004546040805192835260208301919091526001600160a01b037f00000000000000000000000000000000000000000000000000000000000000008116918301919091527f0000000000000000000000000000000000000000000000000000000000000000811660608301527f000000000000000000000000000000000000000000000000000000000000000016608082015260a001610192565b34801561053e575f5ffd5b506101ba61054d366004610f4f565b610cfd565b61055a610d3a565b600480549082905560408051828152602081018490527f0a549ddfe4cd28c554d1d413aa5a9253a4e8abd74dc72b6257089a808f98f997910160405180910390a15050565b5f5f6105ab8484610c33565b90506105b78482610b5a565b9150505b92915050565b606083821461060f5760405162461bcd60e51b8152602060048201526015602482015274082e4e4c2f240d8cadccee8d040dad2e6dac2e8c6d605b1b60448201526064015b60405180910390fd5b60045461061d90859061102f565b34101561065f5760405162461bcd60e51b815260206004820152601060248201526f496e73756666696369656e742066656560801b6044820152606401610606565b8367ffffffffffffffff81111561067857610678611046565b6040519080825280602002602001820160405280156106a1578160200160208202803683370190505b5090505f5b84811015610728576106f68686838181106106c3576106c361105a565b90506020020160208101906106d89190610f4f565b8585848181106106ea576106ea61105a565b90506020020135610818565b8282815181106107085761070861105a565b6001600160a01b03909216602092830291909101909101526001016106a6565b50949350505050565b610739610d3a565b6001600160a01b0381166107835760405162461bcd60e51b8152602060048201526011602482015270125b9d985b1a59081c9958da5c1a595b9d607a1b6044820152606401610606565b47806107c75760405162461bcd60e51b81526020600482015260136024820152724e6f206665657320746f20776974686472617760681b6044820152606401610606565b6040516001600160a01b0383169082156108fc029083905f818181858888f193505050501580156107fa573d5f5f3e3d5ffd5b505050565b5f61080a8a8a610818565b9a9950505050505050505050565b5f6001600160a01b03831661085f5760405162461bcd60e51b815260206004820152600d60248201526c24b73b30b634b21037bbb732b960991b6044820152606401610606565b6004543410156108a45760405162461bcd60e51b815260206004820152601060248201526f496e73756666696369656e742066656560801b6044820152606401610606565b336001600160a01b037f000000000000000000000000000000000000000000000000000000000000000016146109a057336001600160a01b03841614806108ea57503330145b806109655750306001600160a01b0316638da5cb5b6040518163ffffffff1660e01b8152600401602060405180830381865afa15801561092c573d5f5f3e3d5ffd5b505050506040513d601f19601f82011682018060405250810190610950919061106e565b6001600160a01b0316336001600160a01b0316145b6109a05760405162461bcd60e51b815260206004820152600c60248201526b155b985d5d1a1bdc9a5e995960a21b6044820152606401610606565b5f6109ab8484610b5a565b90506001600160a01b0381163b80156109c6575090506105bb565b6040516001600160a01b038616602482015284907f00000000000000000000000000000000000000000000000000000000000000009060440160408051601f198184030181529181526020820180516001600160e01b031663189acdbd60e31b17905251610a3390610dee565b610a3e929190611089565b8190604051809103905ff5905080158015610a5b573d5f5f3e3d5ffd5b506001600160a01b038082165f818152600160208181526040808420805460ff191684179055948b1683526002815293822080549182018155825292812090920180546001600160a01b03191690911790556003805492955090610abe836110cd565b9091555050604080518581524260208201526001600160a01b0380881692908616917f390ccb389bd4dc177f2bdbd0ba9a1e6a5da27cf9d5efd2e5e879d0435b36c621910160405180910390a3505092915050565b610b1b610d3a565b610b245f610d66565b565b6002602052815f5260405f208181548110610b3f575f80fd5b5f918252602090912001546001600160a01b03169150829050565b5f610c2c825f1b60405180602001610b7190610dee565b601f1982820381018352601f9091011660408190526001600160a01b03871660248201527f00000000000000000000000000000000000000000000000000000000000000009060440160408051601f19818403018152918152602080830180516001600160e01b031663189acdbd60e31b1790529051610bf393929101611089565b60408051601f1981840301815290829052610c1192916020016110fc565b60405160208183030381529060405280519060200120610db5565b9392505050565b6040805160609390931b6bffffffffffffffffffffffff191660208085019190915260348401929092526a11185cda1058d8dbdd5b9d60aa1b60548401528051603f818503018152605f9093019052815191012090565b6001600160a01b0381165f90815260026020908152604091829020805483518184028101840190945280845260609392830182828015610cf157602002820191905f5260205f20905b81546001600160a01b03168152600190910190602001808311610cd3575b50505050509050919050565b610d05610d3a565b6001600160a01b038116610d2e57604051631e4fbdf760e01b81525f6004820152602401610606565b610d3781610d66565b50565b5f546001600160a01b03163314610b245760405163118cdaa760e01b8152336004820152602401610606565b5f80546001600160a01b038381166001600160a01b0319831681178455604051919092169283917f8be0079c531659141344cd1fd0a4f28419497f9722a3daafe3b4186f6b6457e09190a35050565b5f610c2c8383305f604051836040820152846020820152828152600b8101905060ff8153605590206001600160a01b0316949350505050565b6103998061111983390190565b5f60208284031215610e0b575f5ffd5b5035919050565b6001600160a01b0381168114610d37575f5ffd5b5f5f60408385031215610e37575f5ffd5b8235610e4281610e12565b946020939093013593505050565b5f5f83601f840112610e60575f5ffd5b50813567ffffffffffffffff811115610e77575f5ffd5b6020830191508360208260051b8501011115610e91575f5ffd5b9250929050565b5f5f5f5f60408587031215610eab575f5ffd5b843567ffffffffffffffff811115610ec1575f5ffd5b610ecd87828801610e50565b909550935050602085013567ffffffffffffffff811115610eec575f5ffd5b610ef887828801610e50565b95989497509550505050565b602080825282518282018190525f918401906040840190835b81811015610f445783516001600160a01b0316835260209384019390920191600101610f1d565b509095945050505050565b5f60208284031215610f5f575f5ffd5b8135610c2c81610e12565b5f5f5f5f5f5f5f5f5f60e08a8c031215610f82575f5ffd5b8935610f8d81610e12565b985060208a0135975060408a0135610fa481610e12565b965060608a0135955060808a0135945060a08a013567ffffffffffffffff811115610fcd575f5ffd5b610fd98c828d01610e50565b90955093505060c08a013567ffffffffffffffff811115610ff8575f5ffd5b6110048c828d01610e50565b915080935050809150509295985092959850929598565b634e487b7160e01b5f52601160045260245ffd5b80820281158282048414176105bb576105bb61101b565b634e487b7160e01b5f52604160045260245ffd5b634e487b7160e01b5f52603260045260245ffd5b5f6020828403121561107e575f5ffd5b8151610c2c81610e12565b60018060a01b0383168152604060208201525f82518060408401528060208501606085015e5f606082850101526060601f19601f8301168401019150509392505050565b5f600182016110de576110de61101b565b5060010190565b5f81518060208401855e5f93019283525090919050565b5f61111061110a83866110e5565b846110e5565b94935050505056fe60806040526040516103993803806103998339810160408190526100229161023b565b61002c8282610033565b5050610320565b61003c82610091565b6040516001600160a01b038316907fbc7cd75a20ee27fd9adebab32041f755214dbc6bffa90cc0225b39da2e5c2d3b905f90a280511561008557610080828261010c565b505050565b61008d61017f565b5050565b806001600160a01b03163b5f036100cb57604051634c9c8ce360e01b81526001600160a01b03821660048201526024015b60405180910390fd5b7f360894a13ba1a3210667c828492db98dca3e2076cc3735a920a3ca505d382bbc80546001600160a01b0319166001600160a01b0392909216919091179055565b60605f5f846001600160a01b031684604051610128919061030a565b5f60405180830381855af49150503d805f8114610160576040519150601f19603f3d011682016040523d82523d5f602084013e610165565b606091505b5090925090506101768583836101a0565b95945050505050565b341561019e5760405163b398979f60e01b815260040160405180910390fd5b565b6060826101b5576101b0826101ff565b6101f8565b81511580156101cc57506001600160a01b0384163b155b156101f557604051639996b31560e01b81526001600160a01b03851660048201526024016100c2565b50805b9392505050565b80511561020e57805160208201fd5b60405163d6bda27560e01b815260040160405180910390fd5b634e487b7160e01b5f52604160045260245ffd5b5f5f6040838503121561024c575f5ffd5b82516001600160a01b0381168114610262575f5ffd5b60208401519092506001600160401b0381111561027d575f5ffd5b8301601f8101851361028d575f5ffd5b80516001600160401b038111156102a6576102a6610227565b604051601f8201601f19908116603f011681016001600160401b03811182821017156102d4576102d4610227565b6040528181528282016020018710156102eb575f5ffd5b8160208401602083015e5f602083830101528093505050509250929050565b5f82518060208501845e5f920191825250919050565b606d8061032c5f395ff3fe6080604052600a600c565b005b60186014601a565b6050565b565b5f604b7f360894a13ba1a3210667c828492db98dca3e2076cc3735a920a3ca505d382bbc546001600160a01b031690565b905090565b365f5f375f5f365f845af43d5f5f3e8080156069573d5ff35b3d5ffd60e060405230608052678ac7230489e80000600a5534801561001f575f5ffd5b506040516139b33803806139b383398101604081905261003e91610131565b6001600160a01b03821660a0528161005461006b565b50600180556001600160a01b031660c05250610169565b7ff0c57e16840df040f15088dc2f81fe391c3923bec73e23a9662efc9c229c6a00805468010000000000000000900460ff16156100bb5760405163f92ee8a960e01b815260040160405180910390fd5b80546001600160401b039081161461011a5780546001600160401b0319166001600160401b0390811782556040519081527fc7f505b2f371ae2175ee4913f4499e1f2633a7b5936321eed1cdaeb6115181d29060200160405180910390a15b50565b6001600160a01b038116811461011a575f5ffd5b5f5f60408385031215610142575f5ffd5b825161014d8161011d565b602084015190925061015e8161011d565b809150509250929050565b60805160a05160c0516137da6101d95f395f81816105a401526119ee01525f81816106a101528181610ea801528181610f2c0152818161187201528181611a7601528181611cbc01528181611e26015261222f01525f8181611f0a01528181611f33015261207701526137da5ff3fe608060405260043610610235575f3560e01c80638711a71911610129578063c2288c1a116100a8578063cd8cd4ad1161006d578063cd8cd4ad146107a4578063d087d288146107ba578063df39e114146107ce578063f23a6e61146107e1578063fde5354d1461080d575f5ffd5b8063c2288c1a14610712578063c399ec881461073e578063c4d66de814610752578063c86ede5b14610771578063c9a087fc14610785575f5ffd5b8063ad1171c7116100ee578063ad1171c71461063a578063ad3cb1cc14610656578063b0d691fe14610693578063b61d27f6146106c5578063bc197c81146106e4575f5ffd5b80638711a7191461054657806388c8ec95146105935780638da5cb5b146105de57806390112777146105fc5780639a56f4fb1461061b575f5ffd5b80631d173de8116101b55780634d44560d1161017a5780634d44560d1461048d5780634f1ef286146104ac57806352d1902d146104bf57806359b3e0cc146104d35780635b8d60a414610527575f5ffd5b80631d173de81461041d57806320c5a3e11461043c5780632a776cef1461045057806334fcd5be146104665780634a58db1914610485575f5ffd5b80630bc6b89c116101fb5780630bc6b89c146102e15780630c3b1ae9146102f65780630c68ba211461038c578063150b7a02146103ba57806319822f7c146103fe575f5ffd5b80628ac91d1461024057806301ffc9a71461026857806306f6e7c014610297578063076cc519146102ac5780630ba234d6146102cd575f5ffd5b3661023c57005b5f5ffd5b34801561024b575f5ffd5b50610255600a5481565b6040519081526020015b60405180910390f35b348015610273575f5ffd5b50610287610282366004612b39565b610839565b604051901515815260200161025f565b3480156102a2575f5ffd5b50610255600c5481565b3480156102b7575f5ffd5b506102cb6102c6366004612b60565b61088a565b005b3480156102d8575f5ffd5b506102cb6108d7565b3480156102ec575f5ffd5b50610255600b5481565b348015610301575f5ffd5b50610353610310366004612b60565b600260208190525f91825260409091208054600182015492820154600383015460048401546005909401546001600160a01b039093169493919290919060ff1686565b604080516001600160a01b03909716875260208701959095529385019290925260608401526080830152151560a082015260c00161025f565b348015610397575f5ffd5b506102876103a6366004612b8b565b60046020525f908152604090205460ff1681565b3480156103c5575f5ffd5b506103e56103d4366004612bea565b630a85bd0160e11b95945050505050565b6040516001600160e01b0319909116815260200161025f565b348015610409575f5ffd5b50610255610418366004612c57565b610967565b348015610428575f5ffd5b50610255610437366004612ce5565b61098c565b348015610447575f5ffd5b506102cb610cc5565b34801561045b575f5ffd5b506102556202a30081565b348015610471575f5ffd5b506102cb610480366004612d77565b610dbf565b6102cb610ea6565b348015610498575f5ffd5b506102cb6104a7366004612db5565b610f22565b6102cb6104ba366004612e8e565b610fae565b3480156104ca575f5ffd5b50610255610fcd565b3480156104de575f5ffd5b506006546007546008546009546104fe939291906001600160a01b031684565b604080519485526020850193909352918301526001600160a01b0316606082015260800161025f565b348015610532575f5ffd5b506102cb610541366004612eda565b610fe8565b348015610551575f5ffd5b50600a54600b54600c546005546006546008546040805196875260208701959095529385019290925260608401526080830152151560a082015260c00161025f565b34801561059e575f5ffd5b506105c67f000000000000000000000000000000000000000000000000000000000000000081565b6040516001600160a01b03909116815260200161025f565b3480156105e9575f5ffd5b505f546105c6906001600160a01b031681565b348015610607575f5ffd5b506102cb610616366004612f2a565b61131b565b348015610626575f5ffd5b506102cb610635366004612b60565b6115c0565b348015610645575f5ffd5b50610255683635c9adc5dea0000081565b348015610661575f5ffd5b50610686604051806040016040528060058152602001640352e302e360dc1b81525081565b60405161025f9190612f9f565b34801561069e575f5ffd5b507f00000000000000000000000000000000000000000000000000000000000000006105c6565b3480156106d0575f5ffd5b506102cb6106df366004612fb1565b611673565b3480156106ef575f5ffd5b506103e56106fe366004613008565b63bc197c8160e01b98975050505050505050565b34801561071d575f5ffd5b5061073161072c366004612b60565b6116c4565b60405161025f9190613145565b348015610749575f5ffd5b50610255611853565b34801561075d575f5ffd5b506102cb61076c366004612b8b565b6118e1565b34801561077c575f5ffd5b506102556119d7565b348015610790575f5ffd5b5061025561079f366004612db5565b611a25565b3480156107af575f5ffd5b5061025562278d0081565b3480156107c5575f5ffd5b50610255611a50565b6102cb6107dc3660046131ce565b611aa5565b3480156107ec575f5ffd5b506103e56107fb36600461326a565b63f23a6e6160e01b9695505050505050565b348015610818575f5ffd5b5061082c610827366004612b8b565b611bf6565b60405161025f91906132ce565b5f6001600160e01b03198216630a85bd0160e11b148061086957506001600160e01b03198216630271189760e51b145b8061088457506001600160e01b031982166301ffc9a760e01b145b92915050565b610892611c5f565b600a80549082905560408051828152602081018490527fe4e627ad82929f8d194bebc5ba30f5f581551ec9e848938c8d2291e1e5536bc3910160405180910390a15050565b6108df611c5f565b6008546109285760405162461bcd60e51b81526020600482015260126024820152714e6f20616374697665207265636f7665727960701b60448201526064015b60405180910390fd5b5f6008819055600980546001600160a01b03191690556040517fedd770ee01b7c0ef4f503125eafdc2725536cbf32342dffcaa300d95a7cafce39190a1565b5f610970611cb1565b61097a8484611d29565b905061098582611dd6565b9392505050565b5f610995611c5f565b6001600160a01b0388166109dc5760405162461bcd60e51b815260206004820152600e60248201526d24b73b30b634b21039b4b3b732b960911b604482015260640161091f565b683635c9adc5dea00000871115610a355760405162461bcd60e51b815260206004820152601760248201527f5370656e64696e67206c696d697420746f6f2068696768000000000000000000604482015260640161091f565b62278d00861115610a7c5760405162461bcd60e51b81526020600482015260116024820152704475726174696f6e20746f6f206c6f6e6760781b604482015260640161091f565b83610abe5760405162461bcd60e51b81526020600482015260126024820152714e6f20616c6c6f776564207461726765747360701b604482015260640161091f565b8742888787604051602001610ad7959493929190613310565b604051602081830303815290604052805190602001209050604051806101000160405280896001600160a01b031681526020018881526020015f81526020018742610b229190613378565b81526020014281526020016001151581526020018686808060200260200160405190810160405280939291908181526020018383602002808284375f9201919091525050509082525060408051602086810282810182019093528682529283019290918791879182918501908490808284375f92018290525093909452505083815260026020818152604092839020855181546001600160a01b0319166001600160a01b039091161781558582015160018201559285015191830191909155606084015160038301556080840151600483015560a084015160058301805460ff191691151591909117905560c08401518051929350610c2a9260068501929190910190612a07565b5060e08201518051610c46916007840191602090910190612a6a565b5050506001600160a01b0388165f81815260036020908152604082208054600181018255908352912001829055817fd4d35b5daaefdb7aedf04df9bb8c8d487b1fa4fd5cffa99940ca655ca0ea2d3889610ca08a42613378565b8989604051610cb29493929190613397565b60405180910390a3979650505050505050565b600854610d095760405162461bcd60e51b81526020600482015260126024820152714e6f20616374697665207265636f7665727960701b604482015260640161091f565b600754600854610d199190613378565b421015610d615760405162461bcd60e51b8152602060048201526016602482015275149958dbdd995c9e4819195b185e481b9bdd081b595d60521b604482015260640161091f565b5f8054600980546001600160a01b038082166001600160a01b0319808616821787556008879055909216909255604051919092169283917f60f9f98be64687700419cfa6fdd7877bc88c6daeb10bc664a2be9fdd6b0c79219190a350565b610dc7611e1b565b805f5b81811015610ea05736848483818110610de557610de56133f3565b9050602002810190610df79190613407565b90505f610e55610e0a6020840184612b8b565b6020840135610e1c6040860186613425565b8080601f0160208091040260200160405190810160405280939291908181526020018383808284375f920191909152505050505a611ea7565b905080610e965783600103610e7157610e6c611ebd565b610e96565b82610e7b5f611ece565b604051635a15467560e01b815260040161091f929190613467565b5050600101610dca565b50505050565b7f000000000000000000000000000000000000000000000000000000000000000060405163b760faf960e01b81523060048201526001600160a01b03919091169063b760faf99034906024015f604051808303818588803b158015610f09575f5ffd5b505af1158015610f1b573d5f5f3e3d5ffd5b5050505050565b610f2a611c5f565b7f000000000000000000000000000000000000000000000000000000000000000060405163040b850f60e31b81526001600160a01b03848116600483015260248201849052919091169063205c2878906044015f604051808303815f87803b158015610f94575f5ffd5b505af1158015610fa6573d5f5f3e3d5ffd5b505050505050565b610fb6611eff565b610fbf82611fa3565b610fc98282611fab565b5050565b5f610fd661206c565b505f5160206137ba5f395f51905f5290565b6001600160a01b0383166110325760405162461bcd60e51b815260206004820152601160248201527024b73b30b634b2103732bb9037bbb732b960791b604482015260640161091f565b6006548110156110845760405162461bcd60e51b815260206004820152601760248201527f496e73756666696369656e74207369676e617475726573000000000000000000604482015260640161091f565b604051675245434f5645525960c01b60208201526bffffffffffffffffffffffff1930606090811b8216602884015285901b16603c8201524260508201525f9060700160408051601f19818403018152919052805160209091012090505f826001600160401b038111156110fa576110fa612ddf565b604051908082528060200260200182016040528015611123578160200160208202803683370190505b5090505f5b838110156112ae575f61119d868684818110611146576111466133f3565b90506020028101906111589190613425565b8080601f0160208091040260200160405190810160405280939291908181526020018383808284375f9201919091525061119792508891506120b59050565b906120e7565b6001600160a01b0381165f9081526004602052604090205490915060ff166111fa5760405162461bcd60e51b815260206004820152601060248201526f24b73b30b634b21033bab0b93234b0b760811b604482015260640161091f565b5f5b8281101561127957816001600160a01b0316848281518110611220576112206133f3565b60200260200101516001600160a01b0316036112715760405162461bcd60e51b815260206004820152601060248201526f223ab83634b1b0ba329039b4b3b732b960811b604482015260640161091f565b6001016111fc565b508083838151811061128d5761128d6133f3565b6001600160a01b039092166020928302919091019091015250600101611128565b50426008819055600980546001600160a01b0319166001600160a01b03881690811790915560075490917f8a9bdbd6fa6536bd7e02875d089a0604de2d92780294abc78536d93fd6c95b7c9161130391613378565b60405190815260200160405180910390a25050505050565b611323611c5f565b80821080159061133257505f81115b6113725760405162461bcd60e51b8152602060048201526011602482015270125b9d985b1a59081d1a1c995cda1bdb19607a1b604482015260640161091f565b600a8211156113b85760405162461bcd60e51b8152602060048201526012602482015271546f6f206d616e7920677561726469616e7360701b604482015260640161091f565b5f5b600554811015611418575f60045f60055f0184815481106113dd576113dd6133f3565b5f918252602080832091909101546001600160a01b031683528201929092526040019020805460ff19169115159190911790556001016113ba565b5061142460055f612b0e565b5f5b828110156115b1575f848483818110611441576114416133f3565b90506020020160208101906114569190612b8b565b6001600160a01b03160361149f5760405162461bcd60e51b815260206004820152601060248201526f24b73b30b634b21033bab0b93234b0b760811b604482015260640161091f565b60058484838181106114b3576114b36133f3565b90506020020160208101906114c89190612b8b565b8154600180820184555f9384526020842090910180546001600160a01b0319166001600160a01b03939093169290921790915590600490868685818110611511576115116133f3565b90506020020160208101906115269190612b8b565b6001600160a01b0316815260208101919091526040015f20805460ff191691151591909117905583838281811061155f5761155f6133f3565b90506020020160208101906115749190612b8b565b6001600160a01b03167f038596bb31e2e7d3d9f184d4c98b310103f6d7f5830e5eec32bffe6f1728f96960405160405180910390a2600101611426565b5060065550506202a300600755565b6115c8611c5f565b5f8181526002602052604090206005015460ff166116215760405162461bcd60e51b815260206004820152601660248201527553657373696f6e206b6579206e6f742061637469766560501b604482015260640161091f565b5f8181526002602052604080822060058101805460ff191690555490516001600160a01b039091169183917fc240baaf2b7ecd3a8a4389c800eae96d53b8945f894787277cec33f693d820da9190a350565b61167b611e1b565b6116848361210f565b610ea0848484848080601f0160208091040260200160405190810160405280939291908181526020018383808284375f9201919091525061217792505050565b6117116040518061010001604052805f6001600160a01b031681526020015f81526020015f81526020015f81526020015f81526020015f1515815260200160608152602001606081525090565b5f8281526002602081815260409283902083516101008101855281546001600160a01b0316815260018201548184015292810154838501526003810154606084015260048101546080840152600581015460ff16151560a08401526006810180548551818502810185019096528086529394919360c08601938301828280156117c157602002820191905f5260205f20905b81546001600160a01b031681526001909101906020018083116117a3575b505050505081526020016007820180548060200260200160405190810160405280929190818152602001828054801561184357602002820191905f5260205f20905f905b82829054906101000a900460e01b6001600160e01b031916815260200190600401906020826003010492830192600103820291508084116118055790505b5050505050815250509050919050565b6040516370a0823160e01b81523060048201525f906001600160a01b037f000000000000000000000000000000000000000000000000000000000000000016906370a08231906024015b602060405180830381865afa1580156118b8573d5f5f3e3d5ffd5b505050506040513d601f19601f820116820180604052508101906118dc919061347f565b905090565b5f6118ea6121e3565b805490915060ff600160401b82041615906001600160401b03165f811580156119105750825b90505f826001600160401b0316600114801561192b5750303b155b905081158015611939575080155b156119575760405163f92ee8a960e01b815260040160405180910390fd5b845467ffffffffffffffff19166001178555831561198157845460ff60401b1916600160401b1785555b61198a8661220b565b8315610fa657845460ff60401b19168555604051600181527fc7f505b2f371ae2175ee4913f4499e1f2633a7b5936321eed1cdaeb6115181d29060200160405180910390a1505050505050565b604051632dfe9f3f60e21b81523060048201525f907f00000000000000000000000000000000000000000000000000000000000000006001600160a01b03169063b7fa7cfc9060240161189d565b6003602052815f5260405f208181548110611a3e575f80fd5b905f5260205f20015f91509150505481565b604051631aab3f0d60e11b81523060048201525f60248201819052906001600160a01b037f000000000000000000000000000000000000000000000000000000000000000016906335567e1a9060440161189d565b8483148015611ab357508481145b611af75760405162461bcd60e51b8152602060048201526015602482015274082e4e4c2f240d8cadccee8d040dad2e6dac2e8c6d605b1b604482015260640161091f565b5f805b84811015611b3057858582818110611b1457611b146133f3565b9050602002013582611b269190613378565b9150600101611afa565b50611b3a8161210f565b5f5b86811015611bec57611be4888883818110611b5957611b596133f3565b9050602002016020810190611b6e9190612b8b565b878784818110611b8057611b806133f3565b90506020020135868685818110611b9957611b996133f3565b9050602002810190611bab9190613425565b8080601f0160208091040260200160405190810160405280939291908181526020018383808284375f9201919091525061217792505050565b600101611b3c565b5050505050505050565b6001600160a01b0381165f90815260036020908152604091829020805483518184028101840190945280845260609392830182828015611c5357602002820191905f5260205f20905b815481526020019060010190808311611c3f575b50505050509050919050565b5f546001600160a01b0316331480611c7657503330145b611caf5760405162461bcd60e51b815260206004820152600a60248201526937b7363c9037bbb732b960b11b604482015260640161091f565b565b336001600160a01b037f00000000000000000000000000000000000000000000000000000000000000001614611caf5760405162461bcd60e51b815260206004820152601c60248201527f6163636f756e743a206e6f742066726f6d20456e747279506f696e7400000000604482015260640161091f565b7f19457468657265756d205369676e6564204d6573736167653a0a3332000000005f908152601c829052603c8120611da4611d68610100860186613425565b8080601f0160208091040260200160405190810160405280939291908181526020018383808284375f9201919091525085939250506120e79050565b5f546001600160a01b03918216911603611dc1575f915050610884565b611dcb8482612279565b949350505050565b50565b8015611dd3576040515f90339083908381818185875af1925050503d805f8114610f1b576040519150601f19603f3d011682016040523d82523d5f602084013e610f1b565b336001600160a01b037f0000000000000000000000000000000000000000000000000000000000000000161480611e5b57505f546001600160a01b031633145b611caf5760405162461bcd60e51b815260206004820181905260248201527f6163636f756e743a206e6f74204f776e6572206f7220456e747279506f696e74604482015260640161091f565b5f5f5f845160208601878987f195945050505050565b611caf611ec95f611ece565b6123bd565b60603d8215611ee25782811115611ee25750815b604051602082018101604052818152815f602083013e9392505050565b306001600160a01b037f0000000000000000000000000000000000000000000000000000000000000000161480611f8557507f00000000000000000000000000000000000000000000000000000000000000006001600160a01b0316611f795f5160206137ba5f395f51905f52546001600160a01b031690565b6001600160a01b031614155b15611caf5760405163703e46dd60e11b815260040160405180910390fd5b611dd3611c5f565b816001600160a01b03166352d1902d6040518163ffffffff1660e01b8152600401602060405180830381865afa925050508015612005575060408051601f3d908101601f191682019092526120029181019061347f565b60015b61202d57604051634c9c8ce360e01b81526001600160a01b038316600482015260240161091f565b5f5160206137ba5f395f51905f52811461205d57604051632a87526960e21b81526004810182905260240161091f565b61206783836123c5565b505050565b306001600160a01b037f00000000000000000000000000000000000000000000000000000000000000001614611caf5760405163703e46dd60e11b815260040160405180910390fd5b7f19457468657265756d205369676e6564204d6573736167653a0a3332000000005f908152601c91909152603c902090565b5f5f5f5f6120f5868661241a565b9250925092506121058282612463565b5090949350505050565b600c5461211f9062015180613378565b421061212e575f600b5542600c555b600a5481600b5461213f9190613378565b111561215e57604051630652f4c560e21b815260040160405180910390fd5b80600b5f82825461216f9190613378565b909155505050565b5f5f846001600160a01b031684846040516121929190613496565b5f6040518083038185875af1925050503d805f81146121cc576040519150601f19603f3d011682016040523d82523d5f602084013e6121d1565b606091505b509150915081610f1b57805160208201fd5b5f807ff0c57e16840df040f15088dc2f81fe391c3923bec73e23a9662efc9c229c6a00610884565b5f80546001600160a01b0319166001600160a01b03838116918217835560405191927f0000000000000000000000000000000000000000000000000000000000000000909116917f47e55c76e7a6f1fd8996a1da8008c1ea29699cca35e7bcd057f2dec313b6e5de9190a350565b5f606161228a610100850185613425565b9050101561229a57506001610884565b5f6122a9610100850185613425565b6122b7916041915f916134ac565b8080601f0160208091040260200160405190810160405280939291908181526020018383808284375f9201829052509394506122fb92505050610100860186613425565b6123099160419082906134ac565b612312916134d3565b5f81815260026020526040902060058101549192509060ff16158061233a5750806003015442115b806123485750806004015442105b156123595760019350505050610884565b5f61236486856120e7565b82549091506001600160a01b03808316911614612388576001945050505050610884565b612392878361251b565b6123a3576001945050505050610884565b6123b25f83600301545f6126a2565b979650505050505050565b805160208201fd5b6123ce826126d5565b6040516001600160a01b038316907fbc7cd75a20ee27fd9adebab32041f755214dbc6bffa90cc0225b39da2e5c2d3b905f90a2805115612412576120678282612738565b610fc96127aa565b5f5f5f8351604103612451576020840151604085015160608601515f1a612443888285856127c9565b95509550955050505061245c565b505081515f91506002905b9250925092565b5f826003811115612476576124766134f0565b0361247f575050565b6001826003811115612493576124936134f0565b036124b15760405163f645eedf60e01b815260040160405180910390fd5b60028260038111156124c5576124c56134f0565b036124e65760405163fce698f760e01b81526004810182905260240161091f565b60038260038111156124fa576124fa6134f0565b03610fc9576040516335e2f38360e21b81526004810182905260240161091f565b5f600461252b6060850185613425565b9050101561253a57505f610884565b5f6125486060850185613425565b612556916004915f916134ac565b61255f91613504565b90506324f16c0560e11b6001600160e01b03198216016125cd575f806125886060870187613425565b6125969160049082906134ac565b8101906125a3919061353c565b92505091506125b28286612891565b80156125c357506125c381866128ea565b9350505050610884565b63083187bb60e21b6001600160e01b0319821601612699575f80806125f56060880188613425565b6126039160049082906134ac565b810190612610919061369a565b919450925090505f5b835181101561268b57612645848281518110612637576126376133f3565b602002602001015188612891565b1580612671575061266f828281518110612661576126616133f3565b6020026020010151886128ea565b155b15612683575f95505050505050610884565b600101612619565b506001945050505050610884565b505f9392505050565b5f60d08265ffffffffffff16901b60a08465ffffffffffff16901b856126c8575f6126cb565b60015b1717949350505050565b806001600160a01b03163b5f0361270a57604051634c9c8ce360e01b81526001600160a01b038216600482015260240161091f565b5f5160206137ba5f395f51905f5280546001600160a01b0319166001600160a01b0392909216919091179055565b60605f5f846001600160a01b0316846040516127549190613496565b5f60405180830381855af49150503d805f811461278c576040519150601f19603f3d011682016040523d82523d5f602084013e612791565b606091505b50915091506127a1858383612983565b95945050505050565b3415611caf5760405163b398979f60e01b815260040160405180910390fd5b5f80807f7fffffffffffffffffffffffffffffff5d576e7357a4501ddfe92f46681b20a084111561280257505f91506003905082612887565b604080515f808252602082018084528a905260ff891692820192909252606081018790526080810186905260019060a0016020604051602081039080840390855afa158015612853573d5f5f3e3d5ffd5b5050604051601f1901519150506001600160a01b03811661287e57505f925060019150829050612887565b92505f91508190505b9450945094915050565b5f805b600683015481101561269957836001600160a01b03168360060182815481106128bf576128bf6133f3565b5f918252602090912001546001600160a01b0316036128e2576001915050610884565b600101612894565b5f6004835110156128fc57505f610884565b5f6129068461377b565b90505f5b600784015481101561297957816001600160e01b031916846007018281548110612936576129366133f3565b905f5260205f2090600891828204019190066004029054906101000a900460e01b6001600160e01b0319160361297157600192505050610884565b60010161290a565b505f949350505050565b60608261299857612993826129df565b610985565b81511580156129af57506001600160a01b0384163b155b156129d857604051639996b31560e01b81526001600160a01b038516600482015260240161091f565b5080610985565b8051156129ee57805160208201fd5b60405163d6bda27560e01b815260040160405180910390fd5b828054828255905f5260205f20908101928215612a5a579160200282015b82811115612a5a57825182546001600160a01b0319166001600160a01b03909116178255602090920191600190910190612a25565b50612a66929150612b25565b5090565b828054828255905f5260205f2090600701600890048101928215612a5a579160200282015f5b83821115612ad157835183826101000a81548163ffffffff021916908360e01c02179055509260200192600401602081600301049283019260010302612a90565b8015612b015782816101000a81549063ffffffff0219169055600401602081600301049283019260010302612ad1565b5050612a66929150612b25565b5080545f8255905f5260205f2090810190611dd391905b5b80821115612a66575f8155600101612b26565b5f60208284031215612b49575f5ffd5b81356001600160e01b031981168114610985575f5ffd5b5f60208284031215612b70575f5ffd5b5035919050565b6001600160a01b0381168114611dd3575f5ffd5b5f60208284031215612b9b575f5ffd5b813561098581612b77565b5f5f83601f840112612bb6575f5ffd5b5081356001600160401b03811115612bcc575f5ffd5b602083019150836020828501011115612be3575f5ffd5b9250929050565b5f5f5f5f5f60808688031215612bfe575f5ffd5b8535612c0981612b77565b94506020860135612c1981612b77565b93506040860135925060608601356001600160401b03811115612c3a575f5ffd5b612c4688828901612ba6565b969995985093965092949392505050565b5f5f5f60608486031215612c69575f5ffd5b83356001600160401b03811115612c7e575f5ffd5b84016101208187031215612c90575f5ffd5b95602085013595506040909401359392505050565b5f5f83601f840112612cb5575f5ffd5b5081356001600160401b03811115612ccb575f5ffd5b6020830191508360208260051b8501011115612be3575f5ffd5b5f5f5f5f5f5f5f60a0888a031215612cfb575f5ffd5b8735612d0681612b77565b9650602088013595506040880135945060608801356001600160401b03811115612d2e575f5ffd5b612d3a8a828b01612ca5565b90955093505060808801356001600160401b03811115612d58575f5ffd5b612d648a828b01612ca5565b989b979a50959850939692959293505050565b5f5f60208385031215612d88575f5ffd5b82356001600160401b03811115612d9d575f5ffd5b612da985828601612ca5565b90969095509350505050565b5f5f60408385031215612dc6575f5ffd5b8235612dd181612b77565b946020939093013593505050565b634e487b7160e01b5f52604160045260245ffd5b604051601f8201601f191681016001600160401b0381118282101715612e1b57612e1b612ddf565b604052919050565b5f82601f830112612e32575f5ffd5b81356001600160401b03811115612e4b57612e4b612ddf565b612e5e601f8201601f1916602001612df3565b818152846020838601011115612e72575f5ffd5b816020850160208301375f918101602001919091529392505050565b5f5f60408385031215612e9f575f5ffd5b8235612eaa81612b77565b915060208301356001600160401b03811115612ec4575f5ffd5b612ed085828601612e23565b9150509250929050565b5f5f5f60408486031215612eec575f5ffd5b8335612ef781612b77565b925060208401356001600160401b03811115612f11575f5ffd5b612f1d86828701612ca5565b9497909650939450505050565b5f5f5f60408486031215612f3c575f5ffd5b83356001600160401b03811115612f51575f5ffd5b612f5d86828701612ca5565b909790965060209590950135949350505050565b5f81518084528060208401602086015e5f602082860101526020601f19601f83011685010191505092915050565b602081525f6109856020830184612f71565b5f5f5f5f60608587031215612fc4575f5ffd5b8435612fcf81612b77565b93506020850135925060408501356001600160401b03811115612ff0575f5ffd5b612ffc87828801612ba6565b95989497509550505050565b5f5f5f5f5f5f5f5f60a0898b03121561301f575f5ffd5b883561302a81612b77565b9750602089013561303a81612b77565b965060408901356001600160401b03811115613054575f5ffd5b6130608b828c01612ca5565b90975095505060608901356001600160401b0381111561307e575f5ffd5b61308a8b828c01612ca5565b90955093505060808901356001600160401b038111156130a8575f5ffd5b6130b48b828c01612ba6565b999c989b5096995094979396929594505050565b5f8151808452602084019350602083015f5b828110156131015781516001600160a01b03168652602095860195909101906001016130da565b5093949350505050565b5f8151808452602084019350602083015f5b828110156131015781516001600160e01b03191686526020958601959091019060010161311d565b6020815260018060a01b038251166020820152602082015160408201526040820151606082015260608201516080820152608082015160a08201525f60a083015161319460c084018215159052565b5060c083015161010060e08401526131b06101208401826130c8565b905060e0840151601f19848303016101008501526127a1828261310b565b5f5f5f5f5f5f606087890312156131e3575f5ffd5b86356001600160401b038111156131f8575f5ffd5b61320489828a01612ca5565b90975095505060208701356001600160401b03811115613222575f5ffd5b61322e89828a01612ca5565b90955093505060408701356001600160401b0381111561324c575f5ffd5b61325889828a01612ca5565b979a9699509497509295939492505050565b5f5f5f5f5f5f60a0878903121561327f575f5ffd5b863561328a81612b77565b9550602087013561329a81612b77565b9450604087013593506060870135925060808701356001600160401b038111156132c2575f5ffd5b61325889828a01612ba6565b602080825282518282018190525f918401906040840190835b818110156133055783518352602093840193909201916001016132e7565b509095945050505050565b6bffffffffffffffffffffffff198660601b1681528460148201528360348201525f60548201845f5b8581101561336a57813561334c81612b77565b6001600160a01b031683526020928301929190910190600101613339565b509098975050505050505050565b8082018082111561088457634e487b7160e01b5f52601160045260245ffd5b8481526020810184905260606040820181905281018290525f8360808301825b858110156133e75782356133ca81612b77565b6001600160a01b03168252602092830192909101906001016133b7565b50979650505050505050565b634e487b7160e01b5f52603260045260245ffd5b5f8235605e1983360301811261341b575f5ffd5b9190910192915050565b5f5f8335601e1984360301811261343a575f5ffd5b8301803591506001600160401b03821115613453575f5ffd5b602001915036819003821315612be3575f5ffd5b828152604060208201525f611dcb6040830184612f71565b5f6020828403121561348f575f5ffd5b5051919050565b5f82518060208501845e5f920191825250919050565b5f5f858511156134ba575f5ffd5b838611156134c6575f5ffd5b5050820193919092039150565b80356020831015610884575f19602084900360031b1b1692915050565b634e487b7160e01b5f52602160045260245ffd5b80356001600160e01b03198116906004841015613535576001600160e01b0319600485900360031b81901b82161691505b5092915050565b5f5f5f6060848603121561354e575f5ffd5b833561355981612b77565b92506020840135915060408401356001600160401b0381111561357a575f5ffd5b61358686828701612e23565b9150509250925092565b5f6001600160401b038211156135a8576135a8612ddf565b5060051b60200190565b5f82601f8301126135c1575f5ffd5b81356135d46135cf82613590565b612df3565b8082825260208201915060208360051b8601019250858311156135f5575f5ffd5b602085015b838110156136125780358352602092830192016135fa565b5095945050505050565b5f82601f83011261362b575f5ffd5b81356136396135cf82613590565b8082825260208201915060208360051b86010192508583111561365a575f5ffd5b602085015b838110156136125780356001600160401b0381111561367c575f5ffd5b61368b886020838a0101612e23565b8452506020928301920161365f565b5f5f5f606084860312156136ac575f5ffd5b83356001600160401b038111156136c1575f5ffd5b8401601f810186136136d1575f5ffd5b80356136df6135cf82613590565b8082825260208201915060208360051b850101925088831115613700575f5ffd5b6020840193505b8284101561372b57833561371a81612b77565b825260209384019390910190613707565b955050505060208401356001600160401b03811115613748575f5ffd5b613754868287016135b2565b92505060408401356001600160401b0381111561376f575f5ffd5b6135868682870161361c565b805160208201516001600160e01b03198116919060048210156137b2576001600160e01b0319600483900360031b81901b82161692505b505091905056fe360894a13ba1a3210667c828492db98dca3e2076cc3735a920a3ca505d382bbc","linkReferences":{}},"methodIdentifiers":{"accountCreationFee()":"a74d4389","accountImplementation()":"11464fbe","batchCreateAccounts(address[],uint256[])":"1620768f","createAccount(address,uint256)":"5fbfb9cf","createAccountWithSessionKey(address,uint256,address,uint256,uint256,address[],bytes4[])":"5d20c279","dashToken()":"88c8ec95","entryPoint()":"b0d691fe","generateSalt(address,uint256)":"99703adf","getAddress(address,uint256)":"8cb84e18","getCreationCost()":"a1786803","getFactoryStats()":"c9226445","getUserAccounts(address)":"ad872a86","implementation()":"5c60da1b","isAccount(address)":"25ca4c9c","isValidAccount(address)":"23cca69c","owner()":"8da5cb5b","previewAccountAddress(address,uint256)":"0fba1796","renounceOwnership()":"715018a6","senderCreator()":"09ccb880","setAccountCreationFee(uint256)":"0ab5555d","totalAccountsCreated()":"c785e1d6","transferOwnership(address)":"f2fde38b","userAccounts(address,uint256)":"83532d68","withdrawFees(address)":"164e68de"},"id":93}