{"abi":[{"type":"constructor","inputs":[{"name":"_entryPoint","type":"address","internalType":"contract IEntryPoint"},{"name":"_dashToken","type":"address","internalType":"contract DashToken"},{"name":"initialOwner","type":"address","internalType":"address"}],"stateMutability":"nonpayable"},{"type":"function","name":"accountCreationFee","inputs":[],"outputs":[{"name":"","type":"uint256","internalType":"uint256"}],"stateMutability":"view"},{"type":"function","name":"accountImplementation","inputs":[],"outputs":[{"name":"","type":"address","internalType":"contract DashAccount"}],"stateMutability":"view"},{"type":"function","name":"batchCreateAccounts","inputs":[{"name":"owners","type":"address[]","internalType":"address[]"},{"name":"salts","type":"uint256[]","internalType":"uint256[]"}],"outputs":[{"name":"accounts","type":"address[]","internalType":"contract DashAccount[]"}],"stateMutability":"payable"},{"type":"function","name":"createAccount","inputs":[{"name":"owner","type":"address","internalType":"address"},{"name":"salt","type":"uint256","internalType":"uint256"}],"outputs":[{"name":"account","type":"address","internalType":"contract DashAccount"}],"stateMutability":"payable"},{"type":"function","name":"createAccountWithSessionKey","inputs":[{"name":"owner","type":"address","internalType":"address"},{"name":"salt","type":"uint256","internalType":"uint256"},{"name":"aiSigner","type":"address","internalType":"address"},{"name":"spendingLimit","type":"uint256","internalType":"uint256"},{"name":"duration","type":"uint256","internalType":"uint256"},{"name":"allowedTargets","type":"address[]","internalType":"address[]"},{"name":"allowedSelectors","type":"bytes4[]","internalType":"bytes4[]"}],"outputs":[{"name":"account","type":"address","internalType":"contract DashAccount"}],"stateMutability":"payable"},{"type":"function","name":"dashToken","inputs":[],"outputs":[{"name":"","type":"address","internalType":"contract DashToken"}],"stateMutability":"view"},{"type":"function","name":"entryPoint","inputs":[],"outputs":[{"name":"","type":"address","internalType":"contract IEntryPoint"}],"stateMutability":"view"},{"type":"function","name":"generateSalt","inputs":[{"name":"owner","type":"address","internalType":"address"},{"name":"nonce","type":"uint256","internalType":"uint256"}],"outputs":[{"name":"","type":"uint256","internalType":"uint256"}],"stateMutability":"pure"},{"type":"function","name":"getAddress","inputs":[{"name":"owner","type":"address","internalType":"address"},{"name":"salt","type":"uint256","internalType":"uint256"}],"outputs":[{"name":"","type":"address","internalType":"address"}],"stateMutability":"view"},{"type":"function","name":"getCreationCost","inputs":[],"outputs":[{"name":"creationFee","type":"uint256","internalType":"uint256"},{"name":"estimatedGas","type":"uint256","internalType":"uint256"}],"stateMutability":"view"},{"type":"function","name":"getFactoryStats","inputs":[],"outputs":[{"name":"_totalAccountsCreated","type":"uint256","internalType":"uint256"},{"name":"_accountCreationFee","type":"uint256","internalType":"uint256"},{"name":"_implementation","type":"address","internalType":"address"},{"name":"_entryPoint","type":"address","internalType":"address"},{"name":"_dashToken","type":"address","internalType":"address"}],"stateMutability":"view"},{"type":"function","name":"getUserAccounts","inputs":[{"name":"owner","type":"address","internalType":"address"}],"outputs":[{"name":"","type":"address[]","internalType":"address[]"}],"stateMutability":"view"},{"type":"function","name":"implementation","inputs":[],"outputs":[{"name":"","type":"address","internalType":"address"}],"stateMutability":"view"},{"type":"function","name":"isAccount","inputs":[{"name":"account","type":"address","internalType":"address"}],"outputs":[{"name":"","type":"bool","internalType":"bool"}],"stateMutability":"view"},{"type":"function","name":"isValidAccount","inputs":[{"name":"","type":"address","internalType":"address"}],"outputs":[{"name":"","type":"bool","internalType":"bool"}],"stateMutability":"view"},{"type":"function","name":"owner","inputs":[],"outputs":[{"name":"","type":"address","internalType":"address"}],"stateMutability":"view"},{"type":"function","name":"previewAccountAddress","inputs":[{"name":"owner","type":"address","internalType":"address"},{"name":"nonce","type":"uint256","internalType":"uint256"}],"outputs":[{"name":"","type":"address","internalType":"address"}],"stateMutability":"view"},{"type":"function","name":"renounceOwnership","inputs":[],"outputs":[],"stateMutability":"nonpayable"},{"type":"function","name":"senderCreator","inputs":[],"outputs":[{"name":"","type":"address","internalType":"contract ISenderCreator"}],"stateMutability":"view"},{"type":"function","name":"setAccountCreationFee","inputs":[{"name":"newFee","type":"uint256","internalType":"uint256"}],"outputs":[],"stateMutability":"nonpayable"},{"type":"function","name":"totalAccountsCreated","inputs":[],"outputs":[{"name":"","type":"uint256","internalType":"uint256"}],"stateMutability":"view"},{"type":"function","name":"transferOwnership","inputs":[{"name":"newOwner","type":"address","internalType":"address"}],"outputs":[],"stateMutability":"nonpayable"},{"type":"function","name":"userAccounts","inputs":[{"name":"","type":"address","internalType":"address"},{"name":"","type":"uint256","internalType":"uint256"}],"outputs":[{"name":"","type":"address","internalType":"address"}],"stateMutability":"view"},{"type":"function","name":"withdrawFees","inputs":[{"name":"to","type":"address","internalType":"address payable"}],"outputs":[],"stateMutability":"nonpayable"},{"type":"event","name":"AccountCreated","inputs":[{"name":"account","type":"address","indexed":true,"internalType":"address"},{"name":"owner","type":"address","indexed":true,"internalType":"address"},{"name":"salt","type":"uint256","indexed":false,"internalType":"uint256"},{"name":"timestamp","type":"uint256","indexed":false,"internalType":"uint256"}],"anonymous":false},{"type":"event","name":"AccountCreationFeeUpdated","inputs":[{"name":"oldFee","type":"uint256","indexed":false,"internalType":"uint256"},{"name":"newFee","type":"uint256","indexed":false,"internalType":"uint256"}],"anonymous":false},{"type":"event","name":"OwnershipTransferred","inputs":[{"name":"previousOwner","type":"address","indexed":true,"internalType":"address"},{"name":"newOwner","type":"address","indexed":true,"internalType":"address"}],"anonymous":false},{"type":"error","name":"OwnableInvalidOwner","inputs":[{"name":"owner","type":"address","internalType":"address"}]},{"type":"error","name":"OwnableUnauthorizedAccount","inputs":[{"name":"account","type":"address","internalType":"address"}]}],"bytecode":{"object":"0x61010080604052346101dd576060816147ef803803809161002082856101fc565b8339810103126101dd5780516001600160a01b038116908181036101dd5760208301516001600160a01b038116939091908483036101dd57604001516001600160a01b03811691908290036101dd5781156101e9575f80546001600160a01b031981168417825560405193916001600160a01b03909116907f8be0079c531659141344cd1fd0a4f28419497f9722a3daafe3b4186f6b6457e09080a35f60045560a0526213997160e71b8152602081600481865afa908115610184575f916101a3575b5060c05260e0526040519161344e90818401906001600160401b0382118583101761018f5760409385936113a18539825260208201520301905ff0801561018457608052604051611181908161022082396080518181816101dc015281816105f401528181610ba90152610e17015260a051818181610206015261028a015260c05181818161097a0152610b19015260e05181818161022e01526104650152f35b6040513d5f823e3d90fd5b634e487b7160e01b5f52604160045260245ffd5b90506020813d6020116101e1575b816101be602093836101fc565b810103126101dd57516001600160a01b03811681036101dd575f6100e3565b5f80fd5b3d91506101b1565b631e4fbdf760e01b5f525f60045260245ffd5b601f909101601f19168101906001600160401b0382119082101761018f5760405256fe6080806040526004361015610012575f80fd5b5f3560e01c90816309ccb88014610968575080630ab5555d146109145780630fba1796146108e457806311464fbe146105df5780631620768f1461072a578063164e68de1461066057806323cca69c1461062357806325ca4c9c146106235780635c60da1b146105df5780635d20c2791461056f5780635fbfb9cf1461054d578063715018a6146104f657806383532d681461049457806388c8ec95146104505780638cb84e18146104175780638da5cb5b146103f057806399703adf146103c1578063a17868031461039c578063a74d43891461037f578063ad872a86146102b9578063b0d691fe14610275578063c785e1d614610258578063c9226445146101ad5763f2fde38b14610124575f80fd5b346101a95760203660031901126101a95761013d6109a9565b610145610ef3565b6001600160a01b03168015610196575f80546001600160a01b03198116831782556001600160a01b0316907f8be0079c531659141344cd1fd0a4f28419497f9722a3daafe3b4186f6b6457e09080a3005b631e4fbdf760e01b5f525f60045260245ffd5b5f80fd5b346101a9575f3660031901126101a9576003546004546040805192835260208301919091526001600160a01b037f00000000000000000000000000000000000000000000000000000000000000008116918301919091527f0000000000000000000000000000000000000000000000000000000000000000811660608301527f000000000000000000000000000000000000000000000000000000000000000016608082015260a090f35b346101a9575f3660031901126101a9576020600354604051908152f35b346101a9575f3660031901126101a9576040517f00000000000000000000000000000000000000000000000000000000000000006001600160a01b03168152602090f35b346101a95760203660031901126101a9576001600160a01b036102da6109a9565b165f52600260205260405f20604051806020835491828152019081935f5260205f20905f5b8181106103605750505081610315910382610a5a565b604051918291602083019060208452518091526040830191905f5b81811061033e575050500390f35b82516001600160a01b0316845285945060209384019390920191600101610330565b82546001600160a01b03168452602090930192600192830192016102ff565b346101a9575f3660031901126101a9576020600454604051908152f35b346101a9575f3660031901126101a957604060045481519081526203d0906020820152f35b346101a95760403660031901126101a95760206103e86103df6109a9565b60243590610ea6565b604051908152f35b346101a9575f3660031901126101a9575f546040516001600160a01b039091168152602090f35b346101a95760403660031901126101a957602061043e6104356109a9565b60243590610da5565b6040516001600160a01b039091168152f35b346101a9575f3660031901126101a9576040517f00000000000000000000000000000000000000000000000000000000000000006001600160a01b03168152602090f35b346101a95760403660031901126101a9576104ad6109a9565b6001600160a01b03165f908152600260205260409020805460243591908210156101a9576020916104dd91610a06565b905460405160039290921b1c6001600160a01b03168152f35b346101a9575f3660031901126101a95761050e610ef3565b5f80546001600160a01b0319811682556001600160a01b03167f8be0079c531659141344cd1fd0a4f28419497f9722a3daafe3b4186f6b6457e08280a3005b60403660031901126101a957602061043e6105666109a9565b60243590610af4565b60e03660031901126101a9576105836109a9565b61058b6109bf565b5060a43567ffffffffffffffff81116101a9576105ac9036906004016109d5565b505060c43567ffffffffffffffff81116101a9576020916105d461043e9236906004016109d5565b505060243590610af4565b346101a9575f3660031901126101a9576040517f00000000000000000000000000000000000000000000000000000000000000006001600160a01b03168152602090f35b346101a95760203660031901126101a9576001600160a01b036106446109a9565b165f526001602052602060ff60405f2054166040519015158152f35b346101a95760203660031901126101a9576004356001600160a01b038116908190036101a95761068e610ef3565b80156106f157479081156106b6575f808093819382f1156106ab57005b6040513d5f823e3d90fd5b60405162461bcd60e51b81526020600482015260136024820152724e6f206665657320746f20776974686472617760681b6044820152606490fd5b60405162461bcd60e51b8152602060048201526011602482015270125b9d985b1a59081c9958da5c1a595b9d607a1b6044820152606490fd5b60403660031901126101a95760043567ffffffffffffffff81116101a9576107569036906004016109d5565b60243567ffffffffffffffff81116101a9576107769036906004016109d5565b92908383036108a757600454838102908082048514901517156108935761079f90341015610a1b565b6107a883610a90565b936107b66040519586610a5a565b8385526107c284610a90565b602086019490601f19013686375f5b818110610825578587604051918291602083019060208452518091526040830191905f5b818110610803575050500390f35b82516001600160a01b03168452859450602093840193909201916001016107f5565b610830818387610aa8565b356001600160a01b03811681036101a95761085790610850838688610aa8565b3590610af4565b90875181101561087f576001600160a01b03909116600582901b8801602001526001016107d1565b634e487b7160e01b5f52603260045260245ffd5b634e487b7160e01b5f52601160045260245ffd5b60405162461bcd60e51b8152602060048201526015602482015274082e4e4c2f240d8cadccee8d040dad2e6dac2e8c6d605b1b6044820152606490fd5b346101a95760403660031901126101a957602061043e6109026109a9565b61090e60243582610ea6565b90610da5565b346101a95760203660031901126101a9577f0a549ddfe4cd28c554d1d413aa5a9253a4e8abd74dc72b6257089a808f98f9976040600435610953610ef3565b600454908060045582519182526020820152a1005b346101a9575f3660031901126101a9577f00000000000000000000000000000000000000000000000000000000000000006001600160a01b03168152602090f35b600435906001600160a01b03821682036101a957565b604435906001600160a01b03821682036101a957565b9181601f840112156101a95782359167ffffffffffffffff83116101a9576020808501948460051b0101116101a957565b805482101561087f575f5260205f2001905f90565b15610a2257565b60405162461bcd60e51b815260206004820152601060248201526f496e73756666696369656e742066656560801b6044820152606490fd5b90601f8019910116810190811067ffffffffffffffff821117610a7c57604052565b634e487b7160e01b5f52604160045260245ffd5b67ffffffffffffffff8111610a7c5760051b60200190565b919081101561087f5760051b0190565b6001600160a01b0390911681526040602080830182905283519183018290526060938291018484015e5f828201840152601f01601f1916010190565b9091906001600160a01b038116908115610d7057610b16600454341015610a1b565b837f00000000000000000000000000000000000000000000000000000000000000006001600160a01b03163303610c9e575b610b5191610da5565b803b610c90575060405163189acdbd60e31b602082015260248082018390528152610b7d604482610a5a565b6040516102678082019082821067ffffffffffffffff831117610a7c5786938392610bd792610f1a85397f00000000000000000000000000000000000000000000000000000000000000006001600160a01b031690610ab8565b03905ff580156106ab5760018060a01b031692835f52600160205260405f20600160ff19825416179055815f52600260205260405f20805468010000000000000000811015610a7c57610c2f91600182018155610a06565b8154600391821b87811b6001600160a01b0390911b199091161790915554905f1982146108935760407f390ccb389bd4dc177f2bdbd0ba9a1e6a5da27cf9d5efd2e5e879d0435b36c6219160018794016003558151908152426020820152a3565b6001600160a01b0316925050565b508133148015610d67575b8015610cef575b15610cbb5783610b48565b60405162461bcd60e51b815260206004820152600c60248201526b155b985d5d1a1bdc9a5e995960a21b6044820152606490fd5b50604051638da5cb5b60e01b8152602081600481305afa9081156106ab575f91610d25575b506001600160a01b03163314610cb0565b90506020813d602011610d5f575b81610d4060209383610a5a565b810103126101a957516001600160a01b03811681036101a9575f610d14565b3d9150610d33565b50303314610ca9565b60405162461bcd60e51b815260206004820152600d60248201526c24b73b30b634b21037bbb732b960991b6044820152606490fd5b604051600b9291610e7c610267610dbf6020820185610a5a565b8084526020840190610f1a823960405163189acdbd60e31b60208201526001600160a01b039093166024808501919091528352610dfd604484610a5a565b602060405193610e4b85610e3d8482019360018060a01b037f00000000000000000000000000000000000000000000000000000000000000001685610ab8565b03601f198101875286610a5a565b60405194859383850197518091895e840190838201905f8252519283915e01015f815203601f198101835282610a5a565b5190209060405191604083015260208201523081520160ff8153605590206001600160a01b031690565b906040519060208201926bffffffffffffffffffffffff199060601b16835260348201526a11185cda1058d8dbdd5b9d60aa1b6054820152603f8152610eed605f82610a5a565b51902090565b5f546001600160a01b03163303610f0657565b63118cdaa760e01b5f523360045260245ffdfe60806040526102678038038061001481610168565b92833981016040828203126101645781516001600160a01b03811692909190838303610164576020810151906001600160401b03821161016457019281601f8501121561016457835161006e610069826101a1565b610168565b9481865260208601936020838301011161016457815f926020809301865e86010152823b15610152577f360894a13ba1a3210667c828492db98dca3e2076cc3735a920a3ca505d382bbc80546001600160a01b031916821790557fbc7cd75a20ee27fd9adebab32041f755214dbc6bffa90cc0225b39da2e5c2d3b5f80a282511561013a575f8091610122945190845af43d15610132573d91610113610069846101a1565b9283523d5f602085013e6101bc565b505b604051604c908161021b8239f35b6060916101bc565b50505034156101245763b398979f60e01b5f5260045ffd5b634c9c8ce360e01b5f5260045260245ffd5b5f80fd5b6040519190601f01601f191682016001600160401b0381118382101761018d57604052565b634e487b7160e01b5f52604160045260245ffd5b6001600160401b03811161018d57601f01601f191660200190565b906101e057508051156101d157602081519101fd5b63d6bda27560e01b5f5260045ffd5b81511580610211575b6101f1575090565b639996b31560e01b5f9081526001600160a01b0391909116600452602490fd5b50803b156101e956fe60806040527f360894a13ba1a3210667c828492db98dca3e2076cc3735a920a3ca505d382bbc545f9081906001600160a01b0316368280378136915af43d5f803e156048573d5ff35b3d5ffd60e03461018157601f61344e38819003918201601f19168301916001600160401b03831184841017610185578084926040948552833981010312610181578051906001600160a01b03821682036101815760200151906001600160a01b0382168203610181573060805260a0525f51602061342e5f395f51905f525460ff8160401c16610172576002600160401b03196001600160401b0382160161011c575b5060018055678ac7230489e80000600a5560c052604051613294908161019a8239608051818181610afa0152610c22015260a051818181610597015281816108da015281816109730152818161126801528181611598015281816118d30152818161291e0152612a8c015260c051818181610f1b01526117980152f35b6001600160401b0319166001600160401b039081175f51602061342e5f395f51905f52556040519081527fc7f505b2f371ae2175ee4913f4499e1f2633a7b5936321eed1cdaeb6115181d290602090a15f61009f565b63f92ee8a960e01b5f5260045ffd5b5f80fd5b634e487b7160e01b5f52604160045260245ffdfe6080604052600436101561001a575b3615610018575f80fd5b005b5f3560e01c80628ac91d1461029857806301ffc9a71461029357806306f6e7c01461028e578063076cc519146102895780630ba234d6146102845780630bc6b89c1461027f5780630c3b1ae91461027a5780630c68ba2114610275578063150b7a021461027057806319822f7c1461026b5780631d173de81461026657806320c5a3e1146102615780632a776cef1461025c57806334fcd5be146102575780634a58db19146102525780634d44560d1461024d5780634f1ef2861461024857806352d1902d1461024357806359b3e0cc1461023e5780635b8d60a4146102395780638711a7191461023457806388c8ec951461022f5780638da5cb5b1461022a57806390112777146102255780639a56f4fb14610220578063ad1171c71461021b578063ad3cb1cc14610216578063b0d691fe14610211578063b61d27f61461020c578063bc197c8114610207578063c2288c1a14610202578063c399ec88146101fd578063c4d66de8146101f8578063c86ede5b146101f3578063c9a087fc146101ee578063cd8cd4ad146101e9578063d087d288146101e4578063df39e114146101df578063f23a6e61146101da5763fde5354d0361000e57611ae4565b611a51565b61191e565b6118a2565b611885565b611829565b61176d565b611602565b61156d565b61148e565b6112f4565b611297565b611253565b61120c565b6111c5565b6110f2565b610f71565b610f4a565b610f06565b610ebd565b610ca5565b610c67565b610c10565b610ab8565b610947565b6108cc565b610804565b6107e7565b610701565b61067e565b61055c565b610502565b610495565b610416565b6103f9565b610398565b610344565b610327565b6102b9565b346102b5575f3660031901126102b5576020600a54604051908152f35b5f80fd5b346102b55760203660031901126102b55760043563ffffffff60e01b81168091036102b557602090630a85bd0160e11b8114908115610316575b8115610305575b506040519015158152f35b6301ffc9a760e01b1490505f6102fa565b630271189760e51b811491506102f3565b346102b5575f3660031901126102b5576020600c54604051908152f35b346102b55760203660031901126102b5577fe4e627ad82929f8d194bebc5ba30f5f581551ec9e848938c8d2291e1e5536bc36040600435610383612816565b600a549080600a5582519182526020820152a1005b346102b5575f3660031901126102b5576103b0612816565b6103bd6008541515611b65565b5f6008556001600160601b0360a01b600954166009557fedd770ee01b7c0ef4f503125eafdc2725536cbf32342dffcaa300d95a7cafce35f80a1005b346102b5575f3660031901126102b5576020600b54604051908152f35b346102b55760203660031901126102b5576004355f52600260205260c060405f2060018060a01b0381541690600181015490600281015460038201549060ff6005600485015494015416936040519586526020860152604085015260608401526080830152151560a0820152f35b6001600160a01b038116036102b557565b346102b55760203660031901126102b5576004356104b281610484565b60018060a01b03165f526004602052602060ff60405f2054166040519015158152f35b9181601f840112156102b5578235916001600160401b0383116102b557602083818601950101116102b557565b346102b55760803660031901126102b55761051e600435610484565b610529602435610484565b6064356001600160401b0381116102b5576105489036906004016104d5565b5050604051630a85bd0160e11b8152602090f35b346102b55760603660031901126102b5576004356001600160401b0381116102b55761012060031982360301126102b55760243590604435907f00000000000000000000000000000000000000000000000000000000000000006001600160a01b03163303610609576105ed926105d59160040161286c565b90806105f1575b506040519081529081906020820190565b0390f35b5f80808093335af1506106026128ec565b505f6105dc565b60405162461bcd60e51b815260206004820152601c60248201527f6163636f756e743a206e6f742066726f6d20456e747279506f696e74000000006044820152606490fd5b9181601f840112156102b5578235916001600160401b0383116102b5576020808501948460051b0101116102b557565b346102b55760a03660031901126102b55760043561069b81610484565b604435906024356064356001600160401b0381116102b5576106c190369060040161064e565b60843593916001600160401b0385116102b5576105ed956106e96106f196369060040161064e565b959094611ba6565b6040519081529081906020820190565b346102b5575f3660031901126102b55761072b600854610722811515611b65565b60075490611e6c565b42106107a9575f80546009546001600160a01b031982166001600160a01b03918216179092551661075b5f600855565b600980546001600160a01b03191690555f546001600160a01b0390811616906001600160a01b03167f60f9f98be64687700419cfa6fdd7877bc88c6daeb10bc664a2be9fdd6b0c79215f80a3005b60405162461bcd60e51b8152602060048201526016602482015275149958dbdd995c9e4819195b185e481b9bdd081b595d60521b6044820152606490fd5b346102b5575f3660031901126102b55760206040516202a3008152f35b346102b55760203660031901126102b5576004356001600160401b0381116102b55761083490369060040161064e565b61083c61291b565b5f5b81811061084757005b61088d61088961088361085b848688612272565b61086481612294565b90610878602082013591604081019061229e565b93905a943691610a64565b916129ac565b1590565b6108995760010161083e565b600182145f036129d8576108ab6129be565b604051635a15467560e01b81529182916108c891600484016122d0565b0390fd5b5f5f6003193601126102b5577f00000000000000000000000000000000000000000000000000000000000000006001600160a01b0316803b156102b5575f6024916040519283809263b760faf960e01b825230600483015234905af1801561094257610936575080f35b61001891505f90610a16565b6122e7565b346102b5575f60403660031901126102b55760043561096581610484565b60243590610971612816565b7f00000000000000000000000000000000000000000000000000000000000000006001600160a01b031691823b156102b55760405163040b850f60e31b81526001600160a01b0390921660048301526024820152905f908290604490829084905af1801561094257610936575080f35b634e487b7160e01b5f52604160045260245ffd5b61010081019081106001600160401b03821117610a1157604052565b6109e1565b90601f801991011681019081106001600160401b03821117610a1157604052565b60405190610a4761010083610a16565b565b6001600160401b038111610a1157601f01601f191660200190565b929192610a7082610a49565b91610a7e6040519384610a16565b8294818452818301116102b5578281602093845f960137010152565b9080601f830112156102b557816020610ab593359101610a64565b90565b60403660031901126102b557600435610ad081610484565b6024356001600160401b0381116102b557610aef903690600401610a9a565b906001600160a01b037f000000000000000000000000000000000000000000000000000000000000000016308114908115610bee575b50610bdf57610b32612816565b6040516352d1902d60e01b8152916020836004816001600160a01b0386165afa5f9381610bae575b50610b7b57634c9c8ce360e01b5f526001600160a01b03821660045260245ffd5b905f5160206132545f395f51905f528303610b9a576100189250612c51565b632a87526960e21b5f52600483905260245ffd5b610bd191945060203d602011610bd8575b610bc98183610a16565b810190612807565b925f610b5a565b503d610bbf565b63703e46dd60e11b5f5260045ffd5b5f5160206132545f395f51905f52546001600160a01b0316141590505f610b25565b346102b5575f3660031901126102b5577f00000000000000000000000000000000000000000000000000000000000000006001600160a01b03163003610bdf5760206040515f5160206132545f395f51905f528152f35b346102b5575f3660031901126102b557608060065460075460085460018060a01b036009541691604051938452602084015260408301526060820152f35b346102b55760403660031901126102b557600435610cc281610484565b6024356001600160401b0381116102b557610ce190369060040161064e565b6001600160a01b0383169291610cf88415156122f2565b610d06600654831015612332565b604051675245434f5645525960c01b602082019081526bffffffffffffffffffffffff1930606090811b8216602885015286901b16603c83015242605080840191909152825290610d58607082610a16565b51902090610d658361237e565b925f5b818110610dcf5786610d9a87610d7d42600855565b60018060a01b03166001600160601b0360a01b6009541617600955565b7f8a9bdbd6fa6536bd7e02875d089a0604de2d92780294abc78536d93fd6c95b7c610dca6106f160075442611e6c565b0390a2005b610e1e610e03857f19457468657265756d205369676e6564204d6573736167653a0a3332000000005f52601c52603c5f2090565b610e18610e118486886123b0565b3691610a64565b906129e8565b6001600160a01b0381165f90815260046020526040902054610e429060ff166123cb565b6001600160a01b0381165f5b87848210610e8057610e7a925084600195949250610e6b9161240a565b6001600160a01b039091169052565b01610d68565b90610eb783610eb0610ea4610e978560019761240a565b516001600160a01b031690565b6001600160a01b031690565b141561241e565b01610e4e565b346102b5575f3660031901126102b55760c0600a54600b54600c5460055460065491600854151593604051958652602086015260408501526060840152608083015260a0820152f35b346102b5575f3660031901126102b5576040517f00000000000000000000000000000000000000000000000000000000000000006001600160a01b03168152602090f35b346102b5575f3660031901126102b5575f546040516001600160a01b039091168152602090f35b346102b55760403660031901126102b5576004356001600160401b0381116102b557610fa190369060040161064e565b60243591610fad612816565b82821015806110e9575b610fc09061245d565b610fcd600a83111561249d565b5f5b60055481101561102c578061102661101c611003610fee6001956117f7565b905460039190911b1c6001600160a01b031690565b6001600160a01b03165f90815260046020526040902090565b805460ff19169055565b01610fcf565b50906110366124de565b5f5b8181106110545761104884600655565b6100186202a300600755565b80611077611070610ea461106b600195878961251f565b612294565b15156123cb565b61108d61108861106b83868861251f565b61252f565b6110ae6110a161100361106b84878961251f565b805460ff19166001179055565b6110bf610ea461106b83868861251f565b7f038596bb31e2e7d3d9f184d4c98b310103f6d7f5830e5eec32bffe6f1728f9695f80a201611038565b50821515610fb7565b346102b55760203660031901126102b55760043561110e612816565b805f52600260205260ff600560405f200154161561118757611148600561113d835f52600260205260405f2090565b01805460ff19169055565b5f818152600260205260408120546001600160a01b031691907fc240baaf2b7ecd3a8a4389c800eae96d53b8945f894787277cec33f693d820da9080a3005b60405162461bcd60e51b815260206004820152601660248201527553657373696f6e206b6579206e6f742061637469766560501b6044820152606490fd5b346102b5575f3660031901126102b5576020604051683635c9adc5dea000008152f35b805180835260209291819084018484015e5f828201840152601f01601f1916010190565b346102b5575f3660031901126102b5576105ed60405161122d604082610a16565b60058152640352e302e360dc1b60208201526040519182916020835260208301906111e8565b346102b5575f3660031901126102b5576040517f00000000000000000000000000000000000000000000000000000000000000006001600160a01b03168152602090f35b346102b55760603660031901126102b5576004356112b481610484565b604435906024356001600160401b0383116102b5576112ee6112dd6100189436906004016104d5565b6112e561291b565b610e11846129f5565b91612a4d565b346102b55760a03660031901126102b557611310600435610484565b61131b602435610484565b6044356001600160401b0381116102b55761133a90369060040161064e565b50506064356001600160401b0381116102b55761135b90369060040161064e565b50506084356001600160401b0381116102b55761137c9036906004016104d5565b505060405163bc197c8160e01b8152602090f35b90602080835192838152019201905f5b8181106113ad5750505090565b82516001600160a01b03168452602093840193909201916001016113a0565b90602080835192838152019201905f5b8181106113e95750505090565b82516001600160e01b0319168452602093840193909201916001016113dc565b90610ab5916020815260018060a01b038251166020820152602082015160408201526040820151606082015260608201516080820152608082015160a082015261145c60a083015160c083019015159052565b60e061147860c084015161010083850152610120840190611390565b92015190610100601f19828503019101526113cc565b346102b55760203660031901126102b557600435606060e06040516114b2816109f5565b5f81525f60208201525f60408201525f838201525f60808201525f60a08201528260c082015201525f5260026020526105ed60405f2061155c60076114f5610a37565b83546001600160a01b03168152926001810154602085015260028101546040850152600381015460608501526004810154608085015261154561153c600583015460ff1690565b151560a0860152565b61155160068201612594565b60c0850152016125e5565b60e082015260405191829182611409565b346102b5575f3660031901126102b5576040516370a0823160e01b81523060048201526020816024817f00000000000000000000000000000000000000000000000000000000000000006001600160a01b03165afa8015610942576105ed915f916115e357506040519081529081906020820190565b6115fc915060203d602011610bd857610bc98183610a16565b5f6105dc565b346102b55760203660031901126102b55760043561161f81610484565b5f5160206132745f395f51905f5254906001600160401b0361165060ff604085901c1615936001600160401b031690565b1680159081611765575b600114908161175b575b159081611752575b50611743576116af90826116a660016001600160401b03195f5160206132745f395f51905f525416175f5160206132745f395f51905f5255565b61170e57612a6c565b6116b557005b6116df60ff60401b195f5160206132745f395f51905f5254165f5160206132745f395f51905f5255565b604051600181527fc7f505b2f371ae2175ee4913f4499e1f2633a7b5936321eed1cdaeb6115181d290602090a1005b61173e600160401b60ff60401b195f5160206132745f395f51905f525416175f5160206132745f395f51905f5255565b612a6c565b63f92ee8a960e01b5f5260045ffd5b9050155f61166c565b303b159150611664565b83915061165a565b346102b5575f3660031901126102b557604051632dfe9f3f60e21b81523060048201526020816024817f00000000000000000000000000000000000000000000000000000000000000006001600160a01b03165afa8015610942576105ed915f916115e357506040519081529081906020820190565b634e487b7160e01b5f52603260045260245ffd5b60055481101561180f5760055f5260205f2001905f90565b6117e3565b805482101561180f575f5260205f2001905f90565b346102b55760403660031901126102b55760043561184681610484565b6001600160a01b03165f908152600360205260409020805460243591908210156102b55760209161187691611814565b90549060031b1c604051908152f35b346102b5575f3660031901126102b557602060405162278d008152f35b346102b5575f3660031901126102b557604051631aab3f0d60e11b81523060048201525f60248201526020816044817f00000000000000000000000000000000000000000000000000000000000000006001600160a01b03165afa8015610942576105ed915f916115e357506040519081529081906020820190565b60603660031901126102b5576004356001600160401b0381116102b55761194990369060040161064e565b6024356001600160401b0381116102b55761196890369060040161064e565b92906044356001600160401b0381116102b55761198990369060040161064e565b9285851480611a48575b15611a0b575f805b8782106119eb576119ac91506129f5565b5f5b8581106119b757005b806119e56119cb61106b6001948a8761251f565b6119d6838b8961251f565b356112ee610e11858b8a6123b0565b016119ae565b611a036001916119fc848b8961251f565b3590611e6c565b91019061199b565b60405162461bcd60e51b8152602060048201526015602482015274082e4e4c2f240d8cadccee8d040dad2e6dac2e8c6d605b1b6044820152606490fd5b50838514611993565b346102b55760a03660031901126102b557611a6d600435610484565b611a78602435610484565b6084356001600160401b0381116102b557611a979036906004016104d5565b505060405163f23a6e6160e01b8152602090f35b60206040818301928281528451809452019201905f5b818110611ace5750505090565b8251845260209384019390920191600101611ac1565b346102b55760203660031901126102b557600435611b0181610484565b60018060a01b03165f52600360205260405f206040519081602082549182815201915f5260205f20905f5b818110611b4f576105ed85611b4381870382610a16565b60405191829182611aab565b8254845260209093019260019283019201611b2c565b15611b6c57565b60405162461bcd60e51b81526020600482015260126024820152714e6f20616374697665207265636f7665727960701b6044820152606490fd5b959391611bb1612816565b6001600160a01b03871695611bc7871515611d04565b611bdc683635c9adc5dea00000841115611d41565b611beb62278d00831115611d8d565b611bf6841515611dcd565b604051602081019080611c0d878988428f88611e0e565b03601f1981018252611c1f9082610a16565b5190209788968792611c318542611e6c565b91611c3a610a37565b6001600160a01b038516815292602084018890525f60408501526060840152426080840152600160a0840152611c7136898b611ea4565b60c08401523690611c8192611efa565b60e0820152611c98835f52600260205260405f2090565b90611ca29161215b565b6001600160a01b03165f90815260036020526040902090611cc2916121e8565b611ccc9042611e6c565b91604051938493611cdd938561221c565b037fd4d35b5daaefdb7aedf04df9bb8c8d487b1fa4fd5cffa99940ca655ca0ea2d3891a390565b15611d0b57565b60405162461bcd60e51b815260206004820152600e60248201526d24b73b30b634b21039b4b3b732b960911b6044820152606490fd5b15611d4857565b60405162461bcd60e51b815260206004820152601760248201527f5370656e64696e67206c696d697420746f6f20686967680000000000000000006044820152606490fd5b15611d9457565b60405162461bcd60e51b81526020600482015260116024820152704475726174696f6e20746f6f206c6f6e6760781b6044820152606490fd5b15611dd457565b60405162461bcd60e51b81526020600482015260126024820152714e6f20616c6c6f776564207461726765747360701b6044820152606490fd5b91605493919594956001600160601b03199060601b168352601483015260348201520191905f5b818110611e425750505090565b9091926020806001928635611e5681610484565b848060a01b031681520194019101919091611e35565b91908201809211611e7957565b634e487b7160e01b5f52601160045260245ffd5b6001600160401b038111610a115760051b60200190565b929190611eb081611e8d565b93611ebe6040519586610a16565b602085838152019160051b81019283116102b557905b828210611ee057505050565b602080918335611eef81610484565b815201910190611ed4565b9291611f0582611e8d565b93611f136040519586610a16565b602085848152019260051b81019182116102b557915b818310611f3557505050565b82356001600160e01b0319811681036102b557815260209283019201611f29565b818110611f61575050565b5f8155600101611f56565b8151916001600160401b038311610a1157600160401b8311610a11576020908254848455808510611fcd575b5001905f5260205f205f5b838110611fb05750505050565b82516001600160a01b031681830155602090920191600101611fa3565b611fe290845f5285845f209182019101611f56565b5f611f98565b90600160401b8111610a1157815481835580821061200557505050565b610a47925f52600760205f2091601c82850160031c84019460021b1680612033575b500160031c0190611f56565b5f198501908154905f199060200360031b1c1690555f612027565b908051906001600160401b038211610a1157602061207b916120708486611fe8565b01925f5260205f2090565b8160031c915f5b8381106121015750600719811690038061209d575b50505050565b925f935f5b8181106120b75750505001555f808080612097565b90919460206120f76001926120dc6120d68a5163ffffffff60e01b1690565b60e01c90565b908560021b63ffffffff809160031b9316831b921b19161790565b96019291016120a2565b5f5f5b60088110612119575083820155600101612082565b959060206121526001926121376120d6865163ffffffff60e01b1690565b908a60021b63ffffffff809160031b9316831b921b19161790565b92019601612104565b815181546001600160a01b0319166001600160a01b03909116178155610a479160079060e090602081015160018501556040810151600285015560608101516003850155608081015160048501556121ce6121b960a0830151151590565b600586019060ff801983541691151516179055565b6121df60c082015160068601611f6c565b0151910161204e565b8054600160401b811015610a115761220591600182018155611814565b819291549060031b91821b915f19901b1916179055565b90815260208101919091526060604082018190528101839052608001915f5b8181106122485750505090565b909192602080600192863561225c81610484565b848060a01b03168152019401910191909161223b565b919081101561180f5760051b81013590605e19813603018212156102b5570190565b35610ab581610484565b903590601e19813603018212156102b557018035906001600160401b0382116102b5576020019181360383136102b557565b604090610ab59392815281602082015201906111e8565b6040513d5f823e3d90fd5b156122f957565b60405162461bcd60e51b815260206004820152601160248201527024b73b30b634b2103732bb9037bbb732b960791b6044820152606490fd5b1561233957565b60405162461bcd60e51b815260206004820152601760248201527f496e73756666696369656e74207369676e6174757265730000000000000000006044820152606490fd5b9061238882611e8d565b6123956040519182610a16565b82815280926123a6601f1991611e8d565b0190602036910137565b9082101561180f576123c79160051b81019061229e565b9091565b156123d257565b60405162461bcd60e51b815260206004820152601060248201526f24b73b30b634b21033bab0b93234b0b760811b6044820152606490fd5b805182101561180f5760209160051b010190565b1561242557565b60405162461bcd60e51b815260206004820152601060248201526f223ab83634b1b0ba329039b4b3b732b960811b6044820152606490fd5b1561246457565b60405162461bcd60e51b8152602060048201526011602482015270125b9d985b1a59081d1a1c995cda1bdb19607a1b6044820152606490fd5b156124a457565b60405162461bcd60e51b8152602060048201526012602482015271546f6f206d616e7920677561726469616e7360701b6044820152606490fd5b6005545f600555806124ed5750565b60055f52610a47907f036b6384b5eca791c62761152d0c79bb0604c104a5fb6f4eb0703f3154bb3db090810190611f56565b919081101561180f5760051b0190565b600554600160401b811015610a11576001810160055560055481101561180f5760055f527f036b6384b5eca791c62761152d0c79bb0604c104a5fb6f4eb0703f3154bb3db00180546001600160a01b0319166001600160a01b03909216919091179055565b90604051918281549182825260208201905f5260205f20925f5b8181106125c3575050610a4792500383610a16565b84546001600160a01b03168352600194850194879450602090930192016125ae565b6040518154808252909291839061260360208301915f5260205f2090565b925f905b80600783011061274a57610a4794549181811061272b575b81811061270c575b8181106126ed575b8181106126ce575b8181106126af575b818110612690575b818110612672575b1061265d575b500383610a16565b6001600160e01b03191681526020015f612655565b602083811b6001600160e01b0319168552909360019101930161264f565b604083901b6001600160e01b0319168452926001906020019301612647565b606083901b6001600160e01b031916845292600190602001930161263f565b608083901b6001600160e01b0319168452926001906020019301612637565b60a083901b6001600160e01b031916845292600190602001930161262f565b60c083901b6001600160e01b0319168452926001906020019301612627565b6001600160e01b031960e084901b16845292600190602001930161261f565b9160089193506101006001916127f98754612770838260e01b63ffffffff60e01b169052565b60c081901b6001600160e01b031916602084015260a081901b6001600160e01b0319166040840152608081901b6001600160e01b0319166060840152606081901b6001600160e01b0319166080840152604081901b6001600160e01b03191660a0840152602081901b6001600160e01b03191660c08401526001600160e01b03191660e0830152565b019401920185929391612607565b908160209103126102b5575190565b5f546001600160a01b031633148015612863575b1561283157565b60405162461bcd60e51b815260206004820152600a60248201526937b7363c9037bbb732b960b11b6044820152606490fd5b5030331461282a565b9061289e907f19457468657265756d205369676e6564204d6573736167653a0a3332000000005f52601c52603c5f2090565b5f546001600160a01b03166128cf6128c66128c0610e1161010087018761229e565b84612cf3565b90929192612d4b565b6001600160a01b0316146128e657610ab591612b45565b50505f90565b3d15612916573d906128fd82610a49565b9161290b6040519384610a16565b82523d5f602084013e565b606090565b337f00000000000000000000000000000000000000000000000000000000000000006001600160a01b0316148015612999575b1561295557565b606460405162461bcd60e51b815260206004820152602060248201527f6163636f756e743a206e6f74204f776e6572206f7220456e747279506f696e746044820152fd5b505f546001600160a01b0316331461294e565b925f939184939260208451940192f190565b3d604051906020818301016040528082525f602083013e90565b6129e06129be565b602081519101fd5b610ab5916128c691612cf3565b600c54620151808101809111611e7957421015612a40575b600b5490612a1b8183611e6c565b600a5410612a3157612a2c91611e6c565b600b55565b630652f4c560e21b5f5260045ffd5b5f600b5542600c55612a0d565b915f928392602083519301915af1612a636128ec565b90156129e05750565b5f80546001600160a01b0319166001600160a01b039283169081178255917f000000000000000000000000000000000000000000000000000000000000000016907f47e55c76e7a6f1fd8996a1da8008c1ea29699cca35e7bcd057f2dec313b6e5de9080a3565b906041116102b55790604190565b90929192836041116102b55783116102b557604101916040190190565b906004116102b55790600490565b90929192836004116102b55783116102b557600401916003190190565b359060208110612b37575090565b5f199060200360031b1b1690565b6101008101916061612b57848461229e565b905010612c4957612ba2612b94612b8e612b87612b80610e11612b7a898961229e565b90612ad3565b968661229e565b8091612ae1565b90612b29565b5f52600260205260405f2090565b92612bb4610889600586015460ff1690565b8015612c3c575b8015612c2f575b612c2657612bcf916129e8565b8254612be3906001600160a01b0316610ea4565b6001600160a01b0390911603612c1f5761088982612c0092612f7c565b612c19576003015460a01b65ffffffffffff60a01b1690565b50600190565b5050600190565b50505050600190565b5060048401544210612bc2565b5060038401544211612bbb565b505050600190565b90813b15612cd2575f5160206132545f395f51905f5280546001600160a01b0319166001600160a01b0384169081179091557fbc7cd75a20ee27fd9adebab32041f755214dbc6bffa90cc0225b39da2e5c2d3b5f80a2805115612cba57612cb7916130aa565b50565b505034612cc357565b63b398979f60e01b5f5260045ffd5b50634c9c8ce360e01b5f9081526001600160a01b0391909116600452602490fd5b8151919060418303612d2357612d1c9250602082015190606060408401519301515f1a906130c7565b9192909190565b50505f9160029190565b60041115612d3757565b634e487b7160e01b5f52602160045260245ffd5b612d5481612d2d565b80612d5d575050565b612d6681612d2d565b60018103612d7d5763f645eedf60e01b5f5260045ffd5b612d8681612d2d565b60028103612da1575063fce698f760e01b5f5260045260245ffd5b80612dad600392612d2d565b14612db55750565b6335e2f38360e21b5f5260045260245ffd5b356001600160e01b0319811692919060048210612de2575050565b6001600160e01b031960049290920360031b82901b16169150565b9080601f830112156102b5578135612e1481611e8d565b92612e226040519485610a16565b81845260208085019260051b820101918383116102b55760208201905b838210612e4e57505050505090565b81356001600160401b0381116102b557602091612e7087848094880101610a9a565b815201910190612e3f565b916060838303126102b55782356001600160401b0381116102b557830182601f820112156102b55782816020612eb393359101611ea4565b9260208101356001600160401b0381116102b557810183601f820112156102b557803590612ee082611e8d565b91612eee6040519384610a16565b80835260208084019160051b830101918683116102b557602001905b828210612f32575050509260408201356001600160401b0381116102b557610ab59201612dfd565b8135815260209182019101612f0a565b916060838303126102b5578235612f5881610484565b9260208101359260408201356001600160401b0381116102b557610ab59201610a9a565b606081016004612f8c828461229e565b9050106130a35781612fbb612fab612fa584879661229e565b90612afe565b6001600160e01b03199291612dc7565b16635b0e93fb60e11b81036130145750612fe5612fde612fff93612fed9361229e565b8091612b0c565b810190612f42565b94916001600160a01b03169050613149565b918261300a57505090565b610ab59250613186565b9092506337ce784560e21b1461302b575050505f90565b612fde61303b916130439361229e565b810190612e7b565b919290505f5b8351811015612c265761306b61088983613066610e97858961240a565b613149565b8015613086575b61307e57600101613049565b505050505f90565b5061309e61088983613098848761240a565b51613186565b613072565b5050505f90565b5f80610ab593602081519101845af46130c16128ec565b916131f5565b91907f7fffffffffffffffffffffffffffffff5d576e7357a4501ddfe92f46681b20a0841161313e579160209360809260ff5f9560405194855216868401526040830152606082015282805260015afa15610942575f516001600160a01b0381161561313457905f905f90565b505f906001905f90565b5050505f9160039190565b5f5b60068301805482101561307e578161316291611814565b905460039190911b1c6001600160a01b0390811690831614612c495760010161314b565b60048151106128e657602001516001600160e01b0319165f5b60078301805482101561307e57805482101561180f575f52816131e86131db60205f208460031c01601c8560021b1690549060031b1c60e01b90565b6001600160e01b03191690565b14612c495760010161319f565b90613219575080511561320a57602081519101fd5b63d6bda27560e01b5f5260045ffd5b8151158061324a575b61322a575090565b639996b31560e01b5f9081526001600160a01b0391909116600452602490fd5b50803b1561322256fe360894a13ba1a3210667c828492db98dca3e2076cc3735a920a3ca505d382bbcf0c57e16840df040f15088dc2f81fe391c3923bec73e23a9662efc9c229c6a00f0c57e16840df040f15088dc2f81fe391c3923bec73e23a9662efc9c229c6a00","linkReferences":{}},"methodIdentifiers":{"accountCreationFee()":"a74d4389","accountImplementation()":"11464fbe","batchCreateAccounts(address[],uint256[])":"1620768f","createAccount(address,uint256)":"5fbfb9cf","createAccountWithSessionKey(address,uint256,address,uint256,uint256,address[],bytes4[])":"5d20c279","dashToken()":"88c8ec95","entryPoint()":"b0d691fe","generateSalt(address,uint256)":"99703adf","getAddress(address,uint256)":"8cb84e18","getCreationCost()":"a1786803","getFactoryStats()":"c9226445","getUserAccounts(address)":"ad872a86","implementation()":"5c60da1b","isAccount(address)":"25ca4c9c","isValidAccount(address)":"23cca69c","owner()":"8da5cb5b","previewAccountAddress(address,uint256)":"0fba1796","renounceOwnership()":"715018a6","senderCreator()":"09ccb880","setAccountCreationFee(uint256)":"0ab5555d","totalAccountsCreated()":"c785e1d6","transferOwnership(address)":"f2fde38b","userAccounts(address,uint256)":"83532d68","withdrawFees(address)":"164e68de"},"id":95}