{"abi":[{"type":"constructor","inputs":[],"stateMutability":"nonpayable"},{"type":"function","name":"createSender","inputs":[{"name":"initCode","type":"bytes","internalType":"bytes"}],"outputs":[{"name":"sender","type":"address","internalType":"address"}],"stateMutability":"nonpayable"},{"type":"function","name":"entryPoint","inputs":[],"outputs":[{"name":"","type":"address","internalType":"address"}],"stateMutability":"view"},{"type":"function","name":"initEip7702Sender","inputs":[{"name":"sender","type":"address","internalType":"address"},{"name":"initCallData","type":"bytes","internalType":"bytes"}],"outputs":[],"stateMutability":"nonpayable"},{"type":"error","name":"FailedOpWithRevert","inputs":[{"name":"opIndex","type":"uint256","internalType":"uint256"},{"name":"reason","type":"string","internalType":"string"},{"name":"inner","type":"bytes","internalType":"bytes"}]}],"bytecode":{"object":"0x60a08060405234602f573360805261034e9081610034823960805181818160990152818161019101526102170152f35b5f80fdfe60806040526004361015610011575f80fd5b5f3560e01c8063570e1a36146101c0578063b0d691fe1461017c5763c09ad0d91461003a575f80fd5b34610178576040366003190112610178576004356001600160a01b03811681036101785760243567ffffffffffffffff81116101785736602382011215610178575f9161009283923690602481600401359101610297565b906100c7337f00000000000000000000000000000000000000000000000000000000000000006001600160a01b031614610303565b82602083519301915af1156100d857005b3d610800811161016f575b60c460405160208382010160405282815260208101925f843e6040519283916365c8fd4d60e01b83525f600484015260606024840152601f60648401527f4141313320454950373730322073656e64657220696e6974206661696c656400608484015260a060448401525180918160a48501528484015e5f828201840152601f01601f19168101030190fd5b506108006100e3565b5f80fd5b34610178575f366003190112610178576040517f00000000000000000000000000000000000000000000000000000000000000006001600160a01b03168152602090f35b346101785760203660031901126101785760043567ffffffffffffffff811161017857366023820112156101785780600401359067ffffffffffffffff8211610178573660248383010111610178575f91610245337f00000000000000000000000000000000000000000000000000000000000000006001600160a01b031614610303565b80601411610178576020916102645f9236906013190160388401610297565b90826024858451940192013560601c5af161028f575b6040516001600160a01b039091168152602090f35b505f5161027a565b92919267ffffffffffffffff82116102ef5760405191601f8101601f19908116603f0116830167ffffffffffffffff8111848210176102ef57604052829481845281830111610178578281602093845f960137010152565b634e487b7160e01b5f52604160045260245ffd5b1561030a57565b606460405162461bcd60e51b815260206004820152602060248201527f414139372073686f756c642063616c6c2066726f6d20456e747279506f696e746044820152fd","linkReferences":{}},"methodIdentifiers":{"createSender(bytes)":"570e1a36","entryPoint()":"b0d691fe","initEip7702Sender(address,bytes)":"c09ad0d9"},"id":8}