{"abi":[{"type":"constructor","inputs":[{"name":"_dashToken","type":"address","internalType":"contract DashToken"},{"name":"_dashPool","type":"address","internalType":"contract SimpleLiquidityPool"},{"name":"_smartRouter","type":"address","internalType":"contract DashSmartRouter"},{"name":"initialOwner","type":"address","internalType":"address"}],"stateMutability":"nonpayable"},{"type":"function","name":"MAX_SIMULATION_STEPS","inputs":[],"outputs":[{"name":"","type":"uint256","internalType":"uint256"}],"stateMutability":"view"},{"type":"function","name":"MEV_THRESHOLD","inputs":[],"outputs":[{"name":"","type":"uint256","internalType":"uint256"}],"stateMutability":"view"},{"type":"function","name":"PRICE_IMPACT_THRESHOLD","inputs":[],"outputs":[{"name":"","type":"uint256","internalType":"uint256"}],"stateMutability":"view"},{"type":"function","name":"batchSimulate","inputs":[{"name":"tokenIns","type":"address[]","internalType":"address[]"},{"name":"tokenOuts","type":"address[]","internalType":"address[]"},{"name":"amountsIn","type":"uint256[]","internalType":"uint256[]"},{"name":"user","type":"address","internalType":"address"}],"outputs":[{"name":"results","type":"tuple[]","internalType":"struct TransactionSimulator.SimulationResult[]","components":[{"name":"outputAmount","type":"uint256","internalType":"uint256"},{"name":"priceImpact","type":"uint256","internalType":"uint256"},{"name":"gasEstimate","type":"uint256","internalType":"uint256"},{"name":"optimalSlippage","type":"uint256","internalType":"uint256"},{"name":"mevRisk","type":"bool","internalType":"bool"},{"name":"routeData","type":"bytes","internalType":"bytes"},{"name":"warnings","type":"string[]","internalType":"string[]"}]}],"stateMutability":"nonpayable"},{"type":"function","name":"dashPool","inputs":[],"outputs":[{"name":"","type":"address","internalType":"contract SimpleLiquidityPool"}],"stateMutability":"view"},{"type":"function","name":"dashToken","inputs":[],"outputs":[{"name":"","type":"address","internalType":"contract DashToken"}],"stateMutability":"view"},{"type":"function","name":"getMarketConditions","inputs":[],"outputs":[{"name":"","type":"tuple","internalType":"struct TransactionSimulator.MarketConditions","components":[{"name":"currentGasPrice","type":"uint256","internalType":"uint256"},{"name":"networkCongestion","type":"uint256","internalType":"uint256"},{"name":"volatility","type":"uint256","internalType":"uint256"},{"name":"liquidityDepth","type":"uint256","internalType":"uint256"}]}],"stateMutability":"view"},{"type":"function","name":"getPoolInfo","inputs":[],"outputs":[{"name":"reserveA","type":"uint256","internalType":"uint256"},{"name":"reserveB","type":"uint256","internalType":"uint256"},{"name":"totalSupply","type":"uint256","internalType":"uint256"},{"name":"price","type":"uint256","internalType":"uint256"},{"name":"tvl","type":"uint256","internalType":"uint256"}],"stateMutability":"view"},{"type":"function","name":"owner","inputs":[],"outputs":[{"name":"","type":"address","internalType":"address"}],"stateMutability":"view"},{"type":"function","name":"renounceOwnership","inputs":[],"outputs":[],"stateMutability":"nonpayable"},{"type":"function","name":"simulateLiquidityAddition","inputs":[{"name":"amountA","type":"uint256","internalType":"uint256"},{"name":"amountB","type":"uint256","internalType":"uint256"}],"outputs":[{"name":"simulation","type":"tuple","internalType":"struct TransactionSimulator.LiquiditySimulation","components":[{"name":"newReserveA","type":"uint256","internalType":"uint256"},{"name":"newReserveB","type":"uint256","internalType":"uint256"},{"name":"newPrice","type":"uint256","internalType":"uint256"},{"name":"lpTokensIssued","type":"uint256","internalType":"uint256"},{"name":"impermanentLoss","type":"uint256","internalType":"uint256"}]}],"stateMutability":"view"},{"type":"function","name":"simulateMultiHop","inputs":[{"name":"path","type":"address[]","internalType":"address[]"},{"name":"amountIn","type":"uint256","internalType":"uint256"},{"name":"user","type":"address","internalType":"address"}],"outputs":[{"name":"amounts","type":"uint256[]","internalType":"uint256[]"},{"name":"totalGas","type":"uint256","internalType":"uint256"}],"stateMutability":"view"},{"type":"function","name":"simulateSwap","inputs":[{"name":"tokenIn","type":"address","internalType":"address"},{"name":"tokenOut","type":"address","internalType":"address"},{"name":"amountIn","type":"uint256","internalType":"uint256"},{"name":"user","type":"address","internalType":"address"}],"outputs":[{"name":"result","type":"tuple","internalType":"struct TransactionSimulator.SimulationResult","components":[{"name":"outputAmount","type":"uint256","internalType":"uint256"},{"name":"priceImpact","type":"uint256","internalType":"uint256"},{"name":"gasEstimate","type":"uint256","internalType":"uint256"},{"name":"optimalSlippage","type":"uint256","internalType":"uint256"},{"name":"mevRisk","type":"bool","internalType":"bool"},{"name":"routeData","type":"bytes","internalType":"bytes"},{"name":"warnings","type":"string[]","internalType":"string[]"}]}],"stateMutability":"nonpayable"},{"type":"function","name":"smartRouter","inputs":[],"outputs":[{"name":"","type":"address","internalType":"contract DashSmartRouter"}],"stateMutability":"view"},{"type":"function","name":"transferOwnership","inputs":[{"name":"newOwner","type":"address","internalType":"address"}],"outputs":[],"stateMutability":"nonpayable"},{"type":"function","name":"updateThresholds","inputs":[{"name":"newPriceImpactThreshold","type":"uint256","internalType":"uint256"},{"name":"newMEVThreshold","type":"uint256","internalType":"uint256"}],"outputs":[],"stateMutability":"nonpayable"},{"type":"function","name":"wouldExceedSlippage","inputs":[{"name":"tokenIn","type":"address","internalType":"address"},{"name":"tokenOut","type":"address","internalType":"address"},{"name":"amountIn","type":"uint256","internalType":"uint256"},{"name":"amountOutMin","type":"uint256","internalType":"uint256"},{"name":"user","type":"address","internalType":"address"}],"outputs":[{"name":"exceeds","type":"bool","internalType":"bool"},{"name":"actualOutput","type":"uint256","internalType":"uint256"}],"stateMutability":"view"},{"type":"event","name":"MEVDetected","inputs":[{"name":"user","type":"address","indexed":true,"internalType":"address"},{"name":"txHash","type":"bytes32","indexed":false,"internalType":"bytes32"},{"name":"riskLevel","type":"uint256","indexed":false,"internalType":"uint256"}],"anonymous":false},{"type":"event","name":"OwnershipTransferred","inputs":[{"name":"previousOwner","type":"address","indexed":true,"internalType":"address"},{"name":"newOwner","type":"address","indexed":true,"internalType":"address"}],"anonymous":false},{"type":"event","name":"SimulationCompleted","inputs":[{"name":"user","type":"address","indexed":true,"internalType":"address"},{"name":"tokenIn","type":"address","indexed":false,"internalType":"address"},{"name":"tokenOut","type":"address","indexed":false,"internalType":"address"},{"name":"amountIn","type":"uint256","indexed":false,"internalType":"uint256"},{"name":"estimatedOut","type":"uint256","indexed":false,"internalType":"uint256"},{"name":"priceImpact","type":"uint256","indexed":false,"internalType":"uint256"}],"anonymous":false},{"type":"error","name":"OwnableInvalidOwner","inputs":[{"name":"owner","type":"address","internalType":"address"}]},{"type":"error","name":"OwnableUnauthorizedAccount","inputs":[{"name":"account","type":"address","internalType":"address"}]}],"bytecode":{"object":"0x60e03461016157601f611d8538819003918201601f19168301916001600160401b0383118484101761016557808492608094604052833981010312610161578051906001600160a01b03821682036101615760208101516001600160a01b0381168103610161576040820151916001600160a01b038316830361016157606001516001600160a01b038116939084900361016157831561014e575f80546001600160a01b031981168617825560405195916001600160a01b03909116907f8be0079c531659141344cd1fd0a4f28419497f9722a3daafe3b4186f6b6457e09080a360805260a05260c052611c0b908161017a82396080518181816107530152818161171d015281816118460152611b98015260a0518181816103e7015281816104c001528181610cb301528181611538015281816116aa0152611809015260c05181818160ec01526116140152f35b631e4fbdf760e01b5f525f60045260245ffd5b5f80fd5b634e487b7160e01b5f52604160045260245ffdfe6080806040526004361015610012575f80fd5b5f3560e01c90816301b013e1146111d457508063053951c41461118a57806309a69d6c1461116f5780634ffbcc6f14610de257806360246c8814610c94578063715018a614610c3d5780637a68ff691461079e5780637f33cba11461078257806388c8ec951461073e5780638da5cb5b1461071757806394f46eca1461046b578063a41cdeef14610416578063a8d19020146103d2578063c14b8e9c146103b8578063f25a7a70146101a4578063f2fde38b1461011f5763f5450783146100d7575f80fd5b3461011b575f36600319011261011b576040517f00000000000000000000000000000000000000000000000000000000000000006001600160a01b03168152602090f35b5f80fd5b3461011b57602036600319011261011b57610138611233565b6101406115a5565b6001600160a01b03168015610191575f80546001600160a01b03198116831782556001600160a01b0316907f8be0079c531659141344cd1fd0a4f28419497f9722a3daafe3b4186f6b6457e09080a3005b631e4fbdf760e01b5f525f60045260245ffd5b3461011b57606036600319011261011b576004356001600160401b03811161011b576101d49036906004016111ed565b60443591906001600160a01b038316830361011b575f6002821061038457600a821161034f5791610204826113b4565b91610212604051938461135f565b80835261021e816113b4565b602084019290601f19013684376024356102378561147e565b525f925f19830183811196875b6102f257818610156103065761026361025e878787611401565b611425565b9060018701908188116102f2576102e386888b6102da8f6102d461025e8f92996102ac6102e99b60019d61029b61025e858c8e611401565b6102a5888b61148b565b51916115cb565b6102b6828861148b565b526102bf611505565b966102ce61025e86838c611401565b98611401565b9261148b565b5191519261199d565b906114eb565b95019487610244565b634e487b7160e01b5f52601160045260245ffd5b869083604051916040830193604084525180945260608301915f945b80861061033757505082935060208301520390f35b90926020806001928651815201940195019490610322565b60405162461bcd60e51b815260206004820152600d60248201526c5061746820746f6f206c6f6e6760981b6044820152606490fd5b60405162461bcd60e51b815260206004820152600c60248201526b092dcecc2d8d2c840e0c2e8d60a31b6044820152606490fd5b3461011b576103c63661132e565b50506103d06115a5565b005b3461011b575f36600319011261011b576040517f00000000000000000000000000000000000000000000000000000000000000006001600160a01b03168152602090f35b3461011b5760a036600319011261011b5761042f611233565b610437611249565b6084356001600160a01b038116810361011b5760409261045a92604435916115cb565b815190606435811082526020820152f35b3461011b576104793661132e565b6040519060a082018281106001600160401b03821117610703576040525f8252602082015f8152604083015f815260608401915f835260808501935f855260018060a01b037f0000000000000000000000000000000000000000000000000000000000000000169660405191630240bc6b60e21b83526060836004818c5afa98891561063b575f935f9a6106cb575b5082918a858295811515806106c2575b610681575b5061052b92508491506114eb565b8952610537838b6114eb565b8086528951610646575b506020600491604051928380926318160ddd60e01b82525afa90811561063b575f91610609575b50806105c757506105819161057c916114ba565b611a94565b6103e7198101919082116102f25760a0976105a49286525b875190845192611ada565b845260405194518552516020850152516040840152516060830152516080820152f35b916105f18a6105e6856105eb8860a09f976105a49a996105e6916114ba565b6114cd565b946114ba565b8082101561060257505b8652610599565b90506105fb565b90506020813d602011610633575b816106246020938361135f565b8101031261011b57518a610568565b3d9150610617565b6040513d5f823e3d90fd5b670de0b6b3a7640000810290808204670de0b6b3a764000014901517156102f2576004916106786020928c51906114cd565b88529150610541565b816105e68461069393999697996114ba565b938085116106aa5750505050915b8a8a858261051d565b6105e692939695506106bc94506114ba565b906106a1565b50821515610518565b9099506106f191935060603d6060116106fc575b6106e9818361135f565b81019061149f565b50929092988a610508565b503d6106df565b634e487b7160e01b5f52604160045260245ffd5b3461011b575f36600319011261011b575f546040516001600160a01b039091168152602090f35b3461011b575f36600319011261011b576040517f00000000000000000000000000000000000000000000000000000000000000006001600160a01b03168152602090f35b3461011b575f36600319011261011b5760206040516101f48152f35b3461011b57608036600319011261011b576107b7611233565b6107bf611249565b90604435916107cc61121d565b6107d46113cb565b928415610c07576107e3611505565b946107f0838286856115cb565b85526107fd8185846117e0565b9060208601918252610812875182878661199d565b96604087019788528251604082019081518160011b91808304600214901517156102f25761083f916114eb565b60328110610bff575b6101f48111610bf6575b60608901526108648451848988611a2c565b98608089019915158a526040519560018060a01b03169788602088015260018060a01b031695866040820152846060820152608080820152600760a08201526613d4151253505360ca1b60c082015260c081526108c260e08261135f565b60a08a01525f926040519a6101606108da818e61135f565b600a8d528c9190601f19015f5b818110610be05750506101f4885111610b88575b51610b29575b506020605091015111610ac5575b670de0b6b3a7640000905111610a68575b6103e8905111610a13575b610934816113b4565b90610942604051928361135f565b808252601f19610951826113b4565b015f5b818110610a025750505f5b8181106109d8576109d489897f8bf074da339854150c288d4d098f4137bad4220ef1f2ef78a275c329bf22123860a08b8b8b8b8b60c089015287519151926040519788526020880152604087015260608601526080850152600180831b031692a2604051918291602083526020830190611283565b0390f35b806109e56001928c61148b565b516109f0828661148b565b526109fb818561148b565b500161095f565b806060602080938701015201610954565b610a6390604051610a2560408261135f565b601681527548696768206d61726b657420766f6c6174696c69747960501b6020820152610a52828b61148b565b52610a5d818a61148b565b50611a86565b61092b565b90610abd6103e891604051610a7e60408261135f565b601781527f486967682067617320636f737420657374696d617465640000000000000000006020820152610ab2828d61148b565b52610a5d818c61148b565b919050610920565b91610b21670de0b6b3a7640000918b610b168260405192610ae760408561135f565b601a84527f4e6574776f726b20636f6e67657374696f6e2069732068696768000000000000602085015261148b565b52610a5d818d61148b565b92905061090f565b610b7e85610a5d60509497602094604051610b4560408261135f565b601881527f4d45562061747461636b207269736b206465746563746564000000000000000087820152610b78838361148b565b5261148b565b949150508a610901565b945050604051610b9960408261135f565b601a81527f4869676820707269636520696d706163742064657465637465640000000000006020820152610bcc8c61147e565b52610bd68b61147e565b508a6001946108fb565b60606020828194959601015201908d92916108e7565b506101f4610852565b506032610848565b60405162461bcd60e51b815260206004820152600e60248201526d125b9d985b1a5908185b5bdd5b9d60921b6044820152606490fd5b3461011b575f36600319011261011b57610c556115a5565b5f80546001600160a01b0319811682556001600160a01b03167f8be0079c531659141344cd1fd0a4f28419497f9722a3daafe3b4186f6b6457e08280a3005b3461011b575f36600319011261011b57604051630240bc6b60e21b81527f00000000000000000000000000000000000000000000000000000000000000006001600160a01b0316905f606082600481865afa90811561063b576004935f935f93610db9575b50602090604051958680926318160ddd60e01b82525afa93841561063b575f94610d85575b5082610d4f575b60a093610d3283856114eb565b926040519485526020850152604084015260608301526080820152f35b50670de0b6b3a7640000810292818404670de0b6b3a764000014821517156102f257610d7d8360a0956114cd565b909350610d25565b9093506020813d602011610db1575b81610da16020938361135f565b8101031261011b57519284610d1e565b3d9150610d94565b60209450610dd791935060603d6060116106fc576106e9818361135f565b509390939290610cf9565b3461011b57608036600319011261011b576004356001600160401b03811161011b57610e129036906004016111ed565b6024356001600160401b03811161011b57610e319036906004016111ed565b6044356001600160401b03811161011b57610e509036906004016111ed565b94610e5961121d565b9483811480611166575b1561112957610e74819694966113b4565b96610e82604051988961135f565b818852601f19610e91836113b4565b015f5b81811061110c5750506001600160a01b03909416935f5b828110610f1957886040518091602082016020835281518091526040830190602060408260051b8601019301915f905b828210610eea57505050500390f35b91936001919395506020610f098192603f198a82030186528851611283565b9601920192018594939192610edb565b610f2761025e828587611401565b90610f3661025e828b8b611401565b610f41828589611401565b604051637a68ff6960e01b81526001600160a01b039485166004820152939091166024840152356044830152606482018790525f8260848183305af1801561063b575f90610faa575b60019250610f98828c61148b565b52610fa3818b61148b565b5001610eab565b50903d805f833e610fbb818361135f565b81019060208183031261011b578051906001600160401b03821161011b57019060e08282031261011b5760405191610ff283611344565b805183526020810151602084015260408101516040840152606081015160608401526080810151801515810361011b57608084015260a08101516001600160401b03811161011b57810182601f8201121561011b578281602061105793519101611439565b60a084015260c0810151906001600160401b03821161011b570181601f8201121561011b57805190611088826113b4565b92611096604051948561135f565b82845260208085019360051b8301019181831161011b5760208101935b8385106110ce575050505050906001929160c0820152610f8a565b84516001600160401b03811161011b57820183603f8201121561011b576020916111018583604086809601519101611439565b8152019401936110b3565b60209061111a9997996113cb565b82828d01015201979597610e94565b60405162461bcd60e51b8152602060048201526015602482015274082e4e4c2f240d8cadccee8d040dad2e6dac2e8c6d605b1b6044820152606490fd5b50868414610e63565b3461011b575f36600319011261011b57602060405160648152f35b3461011b575f36600319011261011b576111a2611380565b5060806111ad611505565b60606040519180518352602081015160208401526040810151604084015201516060820152f35b3461011b575f36600319011261011b5780600a60209252f35b9181601f8401121561011b578235916001600160401b03831161011b576020808501948460051b01011161011b57565b606435906001600160a01b038216820361011b57565b600435906001600160a01b038216820361011b57565b602435906001600160a01b038216820361011b57565b805180835260209291819084018484015e5f828201840152601f01601f1916010190565b8051825260208101516020830152604081015160408301526060810151606083015260808101511515608083015260c06112cc60a083015160e060a086015260e085019061125f565b9101519160c0818303910152815180825260208201916020808360051b8301019401925f915b83831061130157505050505090565b909192939460208061131f600193601f19868203018752895161125f565b970193019301919392906112f2565b604090600319011261011b576004359060243590565b60e081019081106001600160401b0382111761070357604052565b90601f801991011681019081106001600160401b0382111761070357604052565b60405190608082018281106001600160401b03821117610703576040525f6060838281528260208201528260408201520152565b6001600160401b0381116107035760051b60200190565b604051906113d882611344565b606060c0835f81525f60208201525f60408201525f838201525f60808201528260a08201520152565b91908110156114115760051b0190565b634e487b7160e01b5f52603260045260245ffd5b356001600160a01b038116810361011b5790565b9291926001600160401b0382116107035760405191611462601f8201601f19166020018461135f565b82948184528183011161011b578281602093845f96015e010152565b8051156114115760200190565b80518210156114115760209160051b010190565b9081606091031261011b578051916040602083015192015190565b818102929181159184041417156102f257565b81156114d7570490565b634e487b7160e01b5f52601260045260245ffd5b919082018092116102f257565b919082039182116102f257565b61150d611380565b3a81526032602082015260c860408083019190915251630240bc6b60e21b81529091906060816004817f00000000000000000000000000000000000000000000000000000000000000006001600160a01b03165afa801561063b5761157b915f905f92611582575b506114eb565b6060830152565b905061159d915060603d6060116106fc576106e9818361135f565b50905f611575565b5f546001600160a01b031633036115b857565b63118cdaa760e01b5f523360045260245ffd5b91926115d78284611b8b565b611697575060408051632550332960e11b81526001600160a01b0393841660048201529183166024830152604482018490529091829060649082907f0000000000000000000000000000000000000000000000000000000000000000165afa5f9181611663575b5061165e57506061810290808204606114901517156102f2576064900490565b905090565b9091506040813d60401161168f575b8161167f6040938361135f565b8101031261011b5751905f61163e565b3d9150611672565b604051630240bc6b60e21b8152909291507f00000000000000000000000000000000000000000000000000000000000000006001600160a01b031690606081600481855afa90811561063b575f905f926117bd575b50159081156117b4575b5061179757604051634adf8a8160e11b815260048101949094526001600160a01b039182167f0000000000000000000000000000000000000000000000000000000000000000831614602485015291166044830152602090829060649082905afa90811561063b575f91611768575090565b90506020813d60201161178f575b816117836020938361135f565b8101031261011b575190565b3d9150611776565b5050506061810290808204606114901517156102f2576064900490565b9050155f6116f6565b90506117d8915060603d6060116106fc576106e9818361135f565b50905f6116ec565b5f9392916117ee9082611b8b565b1561199657604051630240bc6b60e21b8152906060826004817f00000000000000000000000000000000000000000000000000000000000000006001600160a01b03165afa90811561063b575f925f92611971575b507f00000000000000000000000000000000000000000000000000000000000000006001600160a01b0390811691161491821561196a5780925b156119625750905b8015801561195a575b61195257670de0b6b3a7640000820290828204670de0b6b3a764000014831517156102f2576118e76118c3826118ed946114cd565b946118e16118d186836114ba565b6118db83866114eb565b906114cd565b926114eb565b926114f8565b90670de0b6b3a7640000820291808304670de0b6b3a764000014901517156102f257611918916114cd565b808211611923575050565b81611930929394506114f8565b9061271082029180830461271014901517156102f25761194f916114cd565b90565b505f93505050565b50811561188e565b905090611885565b819261187d565b90925061198d915060603d6060116106fc576106e9818361135f565b5090915f611843565b505f925050565b919291615208916001600160a01b0390911615908115611a1a575b5015611a0f5761753081018091116102f257915b82620186a084018094116102f257683635c9adc5dea000008492116119f7575b5061194f92506114ba565b6201d4c09150018092116102f25761194f915f6119ec565b5062011558916119cc565b6001600160a01b03161590505f6119b8565b919092606410611a7e5768056bc75e2d6310000010611a77576001600160a01b031615908115611a65575b50611a60575f90565b600190565b6001600160a01b03161590505f611a57565b5050600190565b505050600190565b5f1981146102f25760010190565b8015611ad557600181018082116102f25760011c815b828210611ab657505090565b909150611acc82611ac781846114cd565b6114eb565b60011c90611aaa565b505f90565b908115808015611b83575b611b7a57670de0b6b3a76400008302928304670de0b6b3a76400001417156102f257611b10916114cd565b91670de0b6b3a7640000820291808304670de0b6b3a764000014901517156102f257611b3b916114cd565b8180821115611b7057611b4d916114f8565b6064810290808204606414901517156102f257600a91611b6c916114cd565b0490565b90611b4d916114f8565b50505050505f90565b508115611ae5565b6001600160a01b039081167f0000000000000000000000000000000000000000000000000000000000000000909116818114929183611bf9575b8315611bd2575b50505090565b1592509082611be6575b50505f8080611bcc565b6001600160a01b03161490505f80611bdc565b6001600160a01b038316159350611bc556","linkReferences":{}},"methodIdentifiers":{"MAX_SIMULATION_STEPS()":"01b013e1","MEV_THRESHOLD()":"09a69d6c","PRICE_IMPACT_THRESHOLD()":"7f33cba1","batchSimulate(address[],address[],uint256[],address)":"4ffbcc6f","dashPool()":"a8d19020","dashToken()":"88c8ec95","getMarketConditions()":"053951c4","getPoolInfo()":"60246c88","owner()":"8da5cb5b","renounceOwnership()":"715018a6","simulateLiquidityAddition(uint256,uint256)":"94f46eca","simulateMultiHop(address[],uint256,address)":"f25a7a70","simulateSwap(address,address,uint256,address)":"7a68ff69","smartRouter()":"f5450783","transferOwnership(address)":"f2fde38b","updateThresholds(uint256,uint256)":"c14b8e9c","wouldExceedSlippage(address,address,uint256,uint256,address)":"a41cdeef"},"id":102}