{"abi":[{"type":"constructor","inputs":[{"name":"_dashToken","type":"address","internalType":"contract DashToken"},{"name":"_dashPool","type":"address","internalType":"contract SimpleLiquidityPool"},{"name":"_smartRouter","type":"address","internalType":"contract DashSmartRouter"},{"name":"initialOwner","type":"address","internalType":"address"}],"stateMutability":"nonpayable"},{"type":"function","name":"MAX_SIMULATION_STEPS","inputs":[],"outputs":[{"name":"","type":"uint256","internalType":"uint256"}],"stateMutability":"view"},{"type":"function","name":"MEV_THRESHOLD","inputs":[],"outputs":[{"name":"","type":"uint256","internalType":"uint256"}],"stateMutability":"view"},{"type":"function","name":"PRICE_IMPACT_THRESHOLD","inputs":[],"outputs":[{"name":"","type":"uint256","internalType":"uint256"}],"stateMutability":"view"},{"type":"function","name":"batchSimulate","inputs":[{"name":"tokenIns","type":"address[]","internalType":"address[]"},{"name":"tokenOuts","type":"address[]","internalType":"address[]"},{"name":"amountsIn","type":"uint256[]","internalType":"uint256[]"},{"name":"user","type":"address","internalType":"address"}],"outputs":[{"name":"results","type":"tuple[]","internalType":"struct TransactionSimulator.SimulationResult[]","components":[{"name":"outputAmount","type":"uint256","internalType":"uint256"},{"name":"priceImpact","type":"uint256","internalType":"uint256"},{"name":"gasEstimate","type":"uint256","internalType":"uint256"},{"name":"optimalSlippage","type":"uint256","internalType":"uint256"},{"name":"mevRisk","type":"bool","internalType":"bool"},{"name":"routeData","type":"bytes","internalType":"bytes"},{"name":"warnings","type":"string[]","internalType":"string[]"}]}],"stateMutability":"nonpayable"},{"type":"function","name":"dashPool","inputs":[],"outputs":[{"name":"","type":"address","internalType":"contract SimpleLiquidityPool"}],"stateMutability":"view"},{"type":"function","name":"dashToken","inputs":[],"outputs":[{"name":"","type":"address","internalType":"contract DashToken"}],"stateMutability":"view"},{"type":"function","name":"getMarketConditions","inputs":[],"outputs":[{"name":"","type":"tuple","internalType":"struct TransactionSimulator.MarketConditions","components":[{"name":"currentGasPrice","type":"uint256","internalType":"uint256"},{"name":"networkCongestion","type":"uint256","internalType":"uint256"},{"name":"volatility","type":"uint256","internalType":"uint256"},{"name":"liquidityDepth","type":"uint256","internalType":"uint256"}]}],"stateMutability":"view"},{"type":"function","name":"getPoolInfo","inputs":[],"outputs":[{"name":"reserveA","type":"uint256","internalType":"uint256"},{"name":"reserveB","type":"uint256","internalType":"uint256"},{"name":"totalSupply","type":"uint256","internalType":"uint256"},{"name":"price","type":"uint256","internalType":"uint256"},{"name":"tvl","type":"uint256","internalType":"uint256"}],"stateMutability":"view"},{"type":"function","name":"owner","inputs":[],"outputs":[{"name":"","type":"address","internalType":"address"}],"stateMutability":"view"},{"type":"function","name":"renounceOwnership","inputs":[],"outputs":[],"stateMutability":"nonpayable"},{"type":"function","name":"simulateLiquidityAddition","inputs":[{"name":"amountA","type":"uint256","internalType":"uint256"},{"name":"amountB","type":"uint256","internalType":"uint256"}],"outputs":[{"name":"simulation","type":"tuple","internalType":"struct TransactionSimulator.LiquiditySimulation","components":[{"name":"newReserveA","type":"uint256","internalType":"uint256"},{"name":"newReserveB","type":"uint256","internalType":"uint256"},{"name":"newPrice","type":"uint256","internalType":"uint256"},{"name":"lpTokensIssued","type":"uint256","internalType":"uint256"},{"name":"impermanentLoss","type":"uint256","internalType":"uint256"}]}],"stateMutability":"view"},{"type":"function","name":"simulateMultiHop","inputs":[{"name":"path","type":"address[]","internalType":"address[]"},{"name":"amountIn","type":"uint256","internalType":"uint256"},{"name":"user","type":"address","internalType":"address"}],"outputs":[{"name":"amounts","type":"uint256[]","internalType":"uint256[]"},{"name":"totalGas","type":"uint256","internalType":"uint256"}],"stateMutability":"view"},{"type":"function","name":"simulateSwap","inputs":[{"name":"tokenIn","type":"address","internalType":"address"},{"name":"tokenOut","type":"address","internalType":"address"},{"name":"amountIn","type":"uint256","internalType":"uint256"},{"name":"user","type":"address","internalType":"address"}],"outputs":[{"name":"result","type":"tuple","internalType":"struct TransactionSimulator.SimulationResult","components":[{"name":"outputAmount","type":"uint256","internalType":"uint256"},{"name":"priceImpact","type":"uint256","internalType":"uint256"},{"name":"gasEstimate","type":"uint256","internalType":"uint256"},{"name":"optimalSlippage","type":"uint256","internalType":"uint256"},{"name":"mevRisk","type":"bool","internalType":"bool"},{"name":"routeData","type":"bytes","internalType":"bytes"},{"name":"warnings","type":"string[]","internalType":"string[]"}]}],"stateMutability":"nonpayable"},{"type":"function","name":"smartRouter","inputs":[],"outputs":[{"name":"","type":"address","internalType":"contract DashSmartRouter"}],"stateMutability":"view"},{"type":"function","name":"transferOwnership","inputs":[{"name":"newOwner","type":"address","internalType":"address"}],"outputs":[],"stateMutability":"nonpayable"},{"type":"function","name":"updateThresholds","inputs":[{"name":"newPriceImpactThreshold","type":"uint256","internalType":"uint256"},{"name":"newMEVThreshold","type":"uint256","internalType":"uint256"}],"outputs":[],"stateMutability":"nonpayable"},{"type":"function","name":"wouldExceedSlippage","inputs":[{"name":"tokenIn","type":"address","internalType":"address"},{"name":"tokenOut","type":"address","internalType":"address"},{"name":"amountIn","type":"uint256","internalType":"uint256"},{"name":"amountOutMin","type":"uint256","internalType":"uint256"},{"name":"user","type":"address","internalType":"address"}],"outputs":[{"name":"exceeds","type":"bool","internalType":"bool"},{"name":"actualOutput","type":"uint256","internalType":"uint256"}],"stateMutability":"view"},{"type":"event","name":"MEVDetected","inputs":[{"name":"user","type":"address","indexed":true,"internalType":"address"},{"name":"txHash","type":"bytes32","indexed":false,"internalType":"bytes32"},{"name":"riskLevel","type":"uint256","indexed":false,"internalType":"uint256"}],"anonymous":false},{"type":"event","name":"OwnershipTransferred","inputs":[{"name":"previousOwner","type":"address","indexed":true,"internalType":"address"},{"name":"newOwner","type":"address","indexed":true,"internalType":"address"}],"anonymous":false},{"type":"event","name":"SimulationCompleted","inputs":[{"name":"user","type":"address","indexed":true,"internalType":"address"},{"name":"tokenIn","type":"address","indexed":false,"internalType":"address"},{"name":"tokenOut","type":"address","indexed":false,"internalType":"address"},{"name":"amountIn","type":"uint256","indexed":false,"internalType":"uint256"},{"name":"estimatedOut","type":"uint256","indexed":false,"internalType":"uint256"},{"name":"priceImpact","type":"uint256","indexed":false,"internalType":"uint256"}],"anonymous":false},{"type":"error","name":"OwnableInvalidOwner","inputs":[{"name":"owner","type":"address","internalType":"address"}]},{"type":"error","name":"OwnableUnauthorizedAccount","inputs":[{"name":"account","type":"address","internalType":"address"}]}],"bytecode":{"object":"0x60e060405234801561000f575f5ffd5b5060405161222e38038061222e83398101604081905261002e916100ea565b806001600160a01b03811661005c57604051631e4fbdf760e01b81525f600482015260240160405180910390fd5b61006581610084565b50506001600160a01b0392831660805290821660a0521660c052610146565b5f80546001600160a01b038381166001600160a01b0319831681178455604051919092169283917f8be0079c531659141344cd1fd0a4f28419497f9722a3daafe3b4186f6b6457e09190a35050565b6001600160a01b03811681146100e7575f5ffd5b50565b5f5f5f5f608085870312156100fd575f5ffd5b8451610108816100d3565b6020860151909450610119816100d3565b604086015190935061012a816100d3565b606086015190925061013b816100d3565b939692955090935050565b60805160a05160c0516120636101cb5f395f818161032b01526110e601525f81816102bd015281816105920152818161061b015281816108ea01528181610a1201528181610e2201528181610f3a01528181611043015261119001525f81816101f00152818161100f015281816112160152818161189a01526118fa01526120635ff3fe608060405234801561000f575f5ffd5b5060043610610106575f3560e01c806388c8ec951161009e578063a8d190201161006e578063a8d19020146102b8578063c14b8e9c146102df578063f25a7a70146102f2578063f2fde38b14610313578063f545078314610326575f5ffd5b806388c8ec95146101eb5780638da5cb5b1461022a57806394f46eca1461023a578063a41cdeef1461028e575f5ffd5b806360246c88116100d957806360246c8814610188578063715018a6146101b85780637a68ff69146101c25780637f33cba1146101e2575f5ffd5b806301b013e11461010a578063053951c41461012557806309a69d6c146101605780634ffbcc6f14610168575b5f5ffd5b610112600a81565b6040519081526020015b60405180910390f35b61012d61034d565b60405161011c91908151815260208083015190820152604080830151908201526060918201519181019190915260800190565b610112606481565b61017b610176366004611997565b610381565b60405161011c9190611b16565b61019061058b565b604080519586526020860194909452928401919091526060830152608082015260a00161011c565b6101c06106d4565b005b6101d56101d0366004611b79565b6106e7565b60405161011c9190611bc3565b6101126101f481565b6102127f000000000000000000000000000000000000000000000000000000000000000081565b6040516001600160a01b03909116815260200161011c565b5f546001600160a01b0316610212565b61024d610248366004611bd5565b6108b9565b60405161011c91905f60a082019050825182526020830151602083015260408301516040830152606083015160608301526080830151608083015292915050565b6102a161029c366004611bf5565b610b1e565b60408051921515835260208301919091520161011c565b6102127f000000000000000000000000000000000000000000000000000000000000000081565b6101c06102ed366004611bd5565b610b3c565b610305610300366004611c48565b610b48565b60405161011c929190611c95565b6101c0610321366004611ce1565b610d8d565b6102127f000000000000000000000000000000000000000000000000000000000000000081565b61037460405180608001604052805f81526020015f81526020015f81526020015f81525090565b61037c610dca565b905090565b6060868514801561039157508483145b6103da5760405162461bcd60e51b8152602060048201526015602482015274082e4e4c2f240d8cadccee8d040dad2e6dac2e8c6d605b1b60448201526064015b60405180910390fd5b866001600160401b038111156103f2576103f2611cfa565b60405190808252806020026020018201604052801561046057816020015b61044d6040518060e001604052805f81526020015f81526020015f81526020015f81526020015f1515815260200160608152602001606081525090565b8152602001906001900390816104105790505b5090505f5b8781101561057f5730637a68ff698a8a8481811061048557610485611d0e565b905060200201602081019061049a9190611ce1565b8989858181106104ac576104ac611d0e565b90506020020160208101906104c19190611ce1565b8888868181106104d3576104d3611d0e565b6040516001600160e01b031960e088901b1681526001600160a01b0395861660048201529385166024850152602002919091013560448301525090861660648201526084015f604051808303815f875af1158015610533573d5f5f3e3d5ffd5b505050506040513d5f823e601f3d908101601f1916820160405261055a9190810190611eaa565b82828151811061056c5761056c611d0e565b6020908102919091010152600101610465565b50979650505050505050565b5f5f5f5f5f7f00000000000000000000000000000000000000000000000000000000000000006001600160a01b0316630902f1ac6040518163ffffffff1660e01b8152600401606060405180830381865afa1580156105ec573d5f5f3e3d5ffd5b505050506040513d601f19601f820116820180604052508101906106109190611f77565b5080955081965050507f00000000000000000000000000000000000000000000000000000000000000006001600160a01b03166318160ddd6040518163ffffffff1660e01b8152600401602060405180830381865afa158015610675573d5f5f3e3d5ffd5b505050506040513d601f19601f820116820180604052508101906106999190611fa2565b925084156106c157846106b485670de0b6b3a7640000611fcd565b6106be9190611fe4565b91505b6106cb8486612003565b90509091929394565b6106dc610eab565b6106e55f610ed7565b565b6107246040518060e001604052805f81526020015f81526020015f81526020015f81526020015f1515815260200160608152602001606081525090565b5f83116107645760405162461bcd60e51b815260206004820152600e60248201526d125b9d985b1a5908185b5bdd5b9d60921b60448201526064016103d1565b5f61076d610dca565b905061077b86868686610f26565b8252610788868686611176565b6020830152805161079e90879087908790611341565b8260400181815250506107b9826020015182604001516113cc565b8260600181815250506107d28686868560200151611408565b15156080830152610836868686604080516001600160a01b03948516602082015292909316828401526060820152608080820152600760a08201526613d4151253505360ca1b60c0808301919091528251808303909101815260e090910190915290565b60a08301526108458282611467565b60c08301528151602080840151604080516001600160a01b038b811682528a811694820194909452908101889052606081019390935260808301528416907f8bf074da339854150c288d4d098f4137bad4220ef1f2ef78a275c329bf2212389060a00160405180910390a250949350505050565b6108e66040518060a001604052805f81526020015f81526020015f81526020015f81526020015f81525090565b5f5f7f00000000000000000000000000000000000000000000000000000000000000006001600160a01b0316630902f1ac6040518163ffffffff1660e01b8152600401606060405180830381865afa158015610944573d5f5f3e3d5ffd5b505050506040513d601f19601f820116820180604052508101906109689190611f77565b5090925090508484831580159061097e57505f83115b156109c4575f8461098f858a611fcd565b6109999190611fe4565b90508681116109aa578091506109c2565b836109b58689611fcd565b6109bf9190611fe4565b92505b505b6109ce8285612003565b85526109da8184612003565b6020860152845115610a0f57845160208601516109ff90670de0b6b3a7640000611fcd565b610a099190611fe4565b60408601525b5f7f00000000000000000000000000000000000000000000000000000000000000006001600160a01b03166318160ddd6040518163ffffffff1660e01b8152600401602060405180830381865afa158015610a6c573d5f5f3e3d5ffd5b505050506040513d601f19601f82011682018060405250810190610a909190611fa2565b9050805f03610ac2576103e8610aae610aa98486611fcd565b611765565b610ab89190612016565b6060870152610afa565b610af485610ad08386611fcd565b610ada9190611fe4565b85610ae58486611fcd565b610aef9190611fe4565b6117c2565b60608701525b610b0d8585885f015189602001516117d7565b608087015250939695505050505050565b5f5f610b2c87878786610f26565b9384109793965092945050505050565b610b44610eab565b5050565b60605f6002851015610b8b5760405162461bcd60e51b815260206004820152600c60248201526b092dcecc2d8d2c840e0c2e8d60a31b60448201526064016103d1565b600a851115610bcc5760405162461bcd60e51b815260206004820152600d60248201526c5061746820746f6f206c6f6e6760981b60448201526064016103d1565b846001600160401b03811115610be457610be4611cfa565b604051908082528060200260200182016040528015610c0d578160200160208202803683370190505b50915083825f81518110610c2357610c23611d0e565b60209081029190910101525f5b610c3b600187612016565b811015610d8357610cbd878783818110610c5757610c57611d0e565b9050602002016020810190610c6c9190611ce1565b8888610c79856001612003565b818110610c8857610c88611d0e565b9050602002016020810190610c9d9190611ce1565b858481518110610caf57610caf611d0e565b602002602001015187610f26565b83610cc9836001612003565b81518110610cd957610cd9611d0e565b6020026020010181815250505f610cee610dca565b9050610d6e888884818110610d0557610d05611d0e565b9050602002016020810190610d1a9190611ce1565b8989610d27866001612003565b818110610d3657610d36611d0e565b9050602002016020810190610d4b9190611ce1565b868581518110610d5d57610d5d611d0e565b6020026020010151845f0151611341565b610d789084612003565b925050600101610c30565b5094509492505050565b610d95610eab565b6001600160a01b038116610dbe57604051631e4fbdf760e01b81525f60048201526024016103d1565b610dc781610ed7565b50565b610df160405180608001604052805f81526020015f81526020015f81526020015f81525090565b3a81526032602082015260c86040808301919091528051630240bc6b60e21b815290515f9182916001600160a01b037f00000000000000000000000000000000000000000000000000000000000000001691630902f1ac9160048083019260609291908290030181865afa158015610e6b573d5f5f3e3d5ffd5b505050506040513d601f19601f82011682018060405250810190610e8f9190611f77565b509092509050610e9f8183612003565b60608401525090919050565b5f546001600160a01b031633146106e55760405163118cdaa760e01b81523360048201526024016103d1565b5f80546001600160a01b038381166001600160a01b0319831681178455604051919092169283917f8be0079c531659141344cd1fd0a4f28419497f9722a3daafe3b4186f6b6457e09190a35050565b5f610f318585611897565b156110b8575f5f7f00000000000000000000000000000000000000000000000000000000000000006001600160a01b0316630902f1ac6040518163ffffffff1660e01b8152600401606060405180830381865afa158015610f94573d5f5f3e3d5ffd5b505050506040513d601f19601f82011682018060405250810190610fb89190611f77565b5091509150815f1480610fc9575080155b15610fee576064610fdb866061611fcd565b610fe59190611fe4565b9250505061116e565b604051634adf8a8160e11b8152600481018690526001600160a01b038881167f0000000000000000000000000000000000000000000000000000000000000000821614602483018190528682166044840152917f0000000000000000000000000000000000000000000000000000000000000000909116906395bf150290606401602060405180830381865afa15801561108a573d5f5f3e3d5ffd5b505050506040513d601f19601f820116820180604052508101906110ae9190611fa2565b935050505061116e565b604051632550332960e11b81526001600160a01b0386811660048301528581166024830152604482018590527f00000000000000000000000000000000000000000000000000000000000000001690634aa06652906064016040805180830381865afa925050508015611148575060408051601f3d908101601f1916820190925261114591810190612029565b60015b61116a576064611159846061611fcd565b6111639190611fe4565b905061116e565b5090505b949350505050565b5f6111818484611897565b61118c57505f61133a565b5f5f7f00000000000000000000000000000000000000000000000000000000000000006001600160a01b0316630902f1ac6040518163ffffffff1660e01b8152600401606060405180830381865afa1580156111ea573d5f5f3e3d5ffd5b505050506040513d601f19601f8201168201806040525081019061120e9190611f77565b50915091505f7f00000000000000000000000000000000000000000000000000000000000000006001600160a01b0316876001600160a01b03161490505f816112575782611259565b835b90505f826112675784611269565b835b9050811580611276575080155b15611288575f9550505050505061133a565b5f8261129c83670de0b6b3a7640000611fcd565b6112a69190611fe4565b90505f6112b38985612003565b6112bd848b611fcd565b6112c79190611fe4565b90505f6112d48a86612003565b90505f6112e18386612016565b90505f826112f783670de0b6b3a7640000611fcd565b6113019190611fe4565b90508085111561132f57846113168282612016565b61132290612710611fcd565b61132c9190611fe4565b9a505b505050505050505050505b9392505050565b5f6152086001600160a01b038616158061136257506001600160a01b038516155b1561137a5761137361753082612003565b9050611389565b61138661c35082612003565b90505b611396620186a082612003565b9050683635c9adc5dea000008411156113b8576113b5614e2082612003565b90505b6113c28382611fcd565b9695505050505050565b5f6113d8836002611fcd565b90506113e48282612003565b905060328110156113f3575060325b6101f481111561140257506101f45b92915050565b5f606482111561141a5750600161116e565b68056bc75e2d631000008311156114335750600161116e565b6001600160a01b038516158061145057506001600160a01b038416155b1561145d5750600161116e565b505f949350505050565b60408051600a80825261016082019092526060915f918291816020015b60608152602001906001900390816114845790505090506101f48560200151111561150b576040518060400160405280601a81526020017f4869676820707269636520696d706163742064657465637465640000000000008152508183815181106114f1576114f1611d0e565b602002602001018190525081806115079061204b565b9250505b846080015115611577576040518060400160405280601881526020017f4d45562061747461636b207269736b206465746563746564000000000000000081525081838151811061155d5761155d611d0e565b602002602001018190525081806115739061204b565b9250505b6050846020015111156115e6576040518060400160405280601a81526020017f4e6574776f726b20636f6e67657374696f6e20697320686967680000000000008152508183815181106115cc576115cc611d0e565b602002602001018190525081806115e29061204b565b9250505b670de0b6b3a76400008560400151111561165c576040518060400160405280601781526020017f486967682067617320636f737420657374696d6174656400000000000000000081525081838151811061164257611642611d0e565b602002602001018190525081806116589061204b565b9250505b6103e8846040015111156116c5576040518060400160405280601681526020017548696768206d61726b657420766f6c6174696c69747960501b8152508183815181106116ab576116ab611d0e565b602002602001018190525081806116c19061204b565b9250505b816001600160401b038111156116dd576116dd611cfa565b60405190808252806020026020018201604052801561171057816020015b60608152602001906001900390816116fb5790505b5092505f5b8281101561175c5781818151811061172f5761172f611d0e565b602002602001015184828151811061174957611749611d0e565b6020908102919091010152600101611715565b50505092915050565b5f815f0361177457505f919050565b5f6002611782846001612003565b61178c9190611fe4565b9050825b8082101561133a5750806002816117a78187611fe4565b6117b19190612003565b6117bb9190611fe4565b9150611790565b5f8183106117d0578161133a565b5090919050565b5f8415806117e3575083155b156117ef57505f61116e565b5f8461180387670de0b6b3a7640000611fcd565b61180d9190611fe4565b90505f8361182386670de0b6b3a7640000611fcd565b61182d9190611fe4565b90508181111561185e57816118428183612016565b61184d906064611fcd565b6118579190611fe4565b9250611881565b816118698282612016565b611874906064611fcd565b61187e9190611fe4565b92505b61188c600a84611fe4565b979650505050505050565b5f7f00000000000000000000000000000000000000000000000000000000000000006001600160a01b0316836001600160a01b03161480156118e057506001600160a01b038216155b8061133a57506001600160a01b03831615801561133a57507f00000000000000000000000000000000000000000000000000000000000000006001600160a01b0316826001600160a01b031614905092915050565b5f5f83601f840112611945575f5ffd5b5081356001600160401b0381111561195b575f5ffd5b6020830191508360208260051b8501011115611975575f5ffd5b9250929050565b80356001600160a01b0381168114611992575f5ffd5b919050565b5f5f5f5f5f5f5f6080888a0312156119ad575f5ffd5b87356001600160401b038111156119c2575f5ffd5b6119ce8a828b01611935565b90985096505060208801356001600160401b038111156119ec575f5ffd5b6119f88a828b01611935565b90965094505060408801356001600160401b03811115611a16575f5ffd5b611a228a828b01611935565b9094509250611a3590506060890161197c565b905092959891949750929550565b5f81518084528060208401602086015e5f602082860101526020601f19601f83011685010191505092915050565b805182526020810151602083015260408101516040830152606081015160608301526080810151151560808301525f60a082015160e060a0850152611ab960e0850182611a43565b905060c083015184820360c086015281815180845260208401915060208160051b8501016020840193505f5b8281101561057f57601f19868303018452611b01828651611a43565b60209586019594909401939150600101611ae5565b5f602082016020835280845180835260408501915060408160051b8601019250602086015f5b82811015611b6d57603f19878603018452611b58858351611a71565b94506020938401939190910190600101611b3c565b50929695505050505050565b5f5f5f5f60808587031215611b8c575f5ffd5b611b958561197c565b9350611ba36020860161197c565b925060408501359150611bb86060860161197c565b905092959194509250565b602081525f61133a6020830184611a71565b5f5f60408385031215611be6575f5ffd5b50508035926020909101359150565b5f5f5f5f5f60a08688031215611c09575f5ffd5b611c128661197c565b9450611c206020870161197c565b93506040860135925060608601359150611c3c6080870161197c565b90509295509295909350565b5f5f5f5f60608587031215611c5b575f5ffd5b84356001600160401b03811115611c70575f5ffd5b611c7c87828801611935565b90955093505060208501359150611bb86040860161197c565b604080825283519082018190525f9060208501906060840190835b81811015611cce578351835260209384019390920191600101611cb0565b5050602093909301939093525092915050565b5f60208284031215611cf1575f5ffd5b61133a8261197c565b634e487b7160e01b5f52604160045260245ffd5b634e487b7160e01b5f52603260045260245ffd5b60405160e081016001600160401b0381118282101715611d4457611d44611cfa565b60405290565b604051601f8201601f191681016001600160401b0381118282101715611d7257611d72611cfa565b604052919050565b80518015158114611992575f5ffd5b5f5f6001600160401b03841115611da257611da2611cfa565b50601f8301601f1916602001611db781611d4a565b915050828152838383011115611dcb575f5ffd5b8282602083015e5f602084830101529392505050565b5f82601f830112611df0575f5ffd5b61133a83835160208501611d89565b5f82601f830112611e0e575f5ffd5b81516001600160401b03811115611e2757611e27611cfa565b8060051b611e3760208201611d4a565b91825260208185018101929081019086841115611e52575f5ffd5b6020860192505b838310156113c25782516001600160401b03811115611e76575f5ffd5b8601603f81018813611e86575f5ffd5b611e9888602083015160408401611d89565b83525060209283019290910190611e59565b5f60208284031215611eba575f5ffd5b81516001600160401b03811115611ecf575f5ffd5b820160e08185031215611ee0575f5ffd5b611ee8611d22565b81518152602080830151908201526040808301519082015260608083015190820152611f1660808301611d7a565b608082015260a08201516001600160401b03811115611f33575f5ffd5b611f3f86828501611de1565b60a08301525060c08201516001600160401b03811115611f5d575f5ffd5b611f6986828501611dff565b60c083015250949350505050565b5f5f5f60608486031215611f89575f5ffd5b5050815160208301516040909301519094929350919050565b5f60208284031215611fb2575f5ffd5b5051919050565b634e487b7160e01b5f52601160045260245ffd5b808202811582820484141761140257611402611fb9565b5f82611ffe57634e487b7160e01b5f52601260045260245ffd5b500490565b8082018082111561140257611402611fb9565b8181038181111561140257611402611fb9565b5f5f6040838503121561203a575f5ffd5b505080516020909101519092909150565b5f6001820161205c5761205c611fb9565b506001019056","linkReferences":{}},"methodIdentifiers":{"MAX_SIMULATION_STEPS()":"01b013e1","MEV_THRESHOLD()":"09a69d6c","PRICE_IMPACT_THRESHOLD()":"7f33cba1","batchSimulate(address[],address[],uint256[],address)":"4ffbcc6f","dashPool()":"a8d19020","dashToken()":"88c8ec95","getMarketConditions()":"053951c4","getPoolInfo()":"60246c88","owner()":"8da5cb5b","renounceOwnership()":"715018a6","simulateLiquidityAddition(uint256,uint256)":"94f46eca","simulateMultiHop(address[],uint256,address)":"f25a7a70","simulateSwap(address,address,uint256,address)":"7a68ff69","smartRouter()":"f5450783","transferOwnership(address)":"f2fde38b","updateThresholds(uint256,uint256)":"c14b8e9c","wouldExceedSlippage(address,address,uint256,uint256,address)":"a41cdeef"},"id":99}