{"abi":[{"type":"constructor","inputs":[],"stateMutability":"nonpayable"},{"type":"receive","stateMutability":"payable"},{"type":"function","name":"addStake","inputs":[{"name":"unstakeDelaySec","type":"uint32","internalType":"uint32"}],"outputs":[],"stateMutability":"payable"},{"type":"function","name":"balanceOf","inputs":[{"name":"account","type":"address","internalType":"address"}],"outputs":[{"name":"","type":"uint256","internalType":"uint256"}],"stateMutability":"view"},{"type":"function","name":"delegateAndRevert","inputs":[{"name":"target","type":"address","internalType":"address"},{"name":"data","type":"bytes","internalType":"bytes"}],"outputs":[],"stateMutability":"nonpayable"},{"type":"function","name":"depositTo","inputs":[{"name":"account","type":"address","internalType":"address"}],"outputs":[],"stateMutability":"payable"},{"type":"function","name":"eip712Domain","inputs":[],"outputs":[{"name":"fields","type":"bytes1","internalType":"bytes1"},{"name":"name","type":"string","internalType":"string"},{"name":"version","type":"string","internalType":"string"},{"name":"chainId","type":"uint256","internalType":"uint256"},{"name":"verifyingContract","type":"address","internalType":"address"},{"name":"salt","type":"bytes32","internalType":"bytes32"},{"name":"extensions","type":"uint256[]","internalType":"uint256[]"}],"stateMutability":"view"},{"type":"function","name":"getDepositInfo","inputs":[{"name":"account","type":"address","internalType":"address"}],"outputs":[{"name":"info","type":"tuple","internalType":"struct IStakeManager.DepositInfo","components":[{"name":"deposit","type":"uint256","internalType":"uint256"},{"name":"staked","type":"bool","internalType":"bool"},{"name":"stake","type":"uint112","internalType":"uint112"},{"name":"unstakeDelaySec","type":"uint32","internalType":"uint32"},{"name":"withdrawTime","type":"uint48","internalType":"uint48"}]}],"stateMutability":"view"},{"type":"function","name":"getDomainSeparatorV4","inputs":[],"outputs":[{"name":"","type":"bytes32","internalType":"bytes32"}],"stateMutability":"view"},{"type":"function","name":"getNonce","inputs":[{"name":"sender","type":"address","internalType":"address"},{"name":"key","type":"uint192","internalType":"uint192"}],"outputs":[{"name":"nonce","type":"uint256","internalType":"uint256"}],"stateMutability":"view"},{"type":"function","name":"getPackedUserOpTypeHash","inputs":[],"outputs":[{"name":"","type":"bytes32","internalType":"bytes32"}],"stateMutability":"pure"},{"type":"function","name":"getSenderAddress","inputs":[{"name":"initCode","type":"bytes","internalType":"bytes"}],"outputs":[],"stateMutability":"nonpayable"},{"type":"function","name":"getUserOpHash","inputs":[{"name":"userOp","type":"tuple","internalType":"struct PackedUserOperation","components":[{"name":"sender","type":"address","internalType":"address"},{"name":"nonce","type":"uint256","internalType":"uint256"},{"name":"initCode","type":"bytes","internalType":"bytes"},{"name":"callData","type":"bytes","internalType":"bytes"},{"name":"accountGasLimits","type":"bytes32","internalType":"bytes32"},{"name":"preVerificationGas","type":"uint256","internalType":"uint256"},{"name":"gasFees","type":"bytes32","internalType":"bytes32"},{"name":"paymasterAndData","type":"bytes","internalType":"bytes"},{"name":"signature","type":"bytes","internalType":"bytes"}]}],"outputs":[{"name":"","type":"bytes32","internalType":"bytes32"}],"stateMutability":"view"},{"type":"function","name":"handleAggregatedOps","inputs":[{"name":"opsPerAggregator","type":"tuple[]","internalType":"struct IEntryPoint.UserOpsPerAggregator[]","components":[{"name":"userOps","type":"tuple[]","internalType":"struct PackedUserOperation[]","components":[{"name":"sender","type":"address","internalType":"address"},{"name":"nonce","type":"uint256","internalType":"uint256"},{"name":"initCode","type":"bytes","internalType":"bytes"},{"name":"callData","type":"bytes","internalType":"bytes"},{"name":"accountGasLimits","type":"bytes32","internalType":"bytes32"},{"name":"preVerificationGas","type":"uint256","internalType":"uint256"},{"name":"gasFees","type":"bytes32","internalType":"bytes32"},{"name":"paymasterAndData","type":"bytes","internalType":"bytes"},{"name":"signature","type":"bytes","internalType":"bytes"}]},{"name":"aggregator","type":"address","internalType":"contract IAggregator"},{"name":"signature","type":"bytes","internalType":"bytes"}]},{"name":"beneficiary","type":"address","internalType":"address payable"}],"outputs":[],"stateMutability":"nonpayable"},{"type":"function","name":"handleOps","inputs":[{"name":"ops","type":"tuple[]","internalType":"struct PackedUserOperation[]","components":[{"name":"sender","type":"address","internalType":"address"},{"name":"nonce","type":"uint256","internalType":"uint256"},{"name":"initCode","type":"bytes","internalType":"bytes"},{"name":"callData","type":"bytes","internalType":"bytes"},{"name":"accountGasLimits","type":"bytes32","internalType":"bytes32"},{"name":"preVerificationGas","type":"uint256","internalType":"uint256"},{"name":"gasFees","type":"bytes32","internalType":"bytes32"},{"name":"paymasterAndData","type":"bytes","internalType":"bytes"},{"name":"signature","type":"bytes","internalType":"bytes"}]},{"name":"beneficiary","type":"address","internalType":"address payable"}],"outputs":[],"stateMutability":"nonpayable"},{"type":"function","name":"incrementNonce","inputs":[{"name":"key","type":"uint192","internalType":"uint192"}],"outputs":[],"stateMutability":"nonpayable"},{"type":"function","name":"innerHandleOp","inputs":[{"name":"callData","type":"bytes","internalType":"bytes"},{"name":"opInfo","type":"tuple","internalType":"struct EntryPoint.UserOpInfo","components":[{"name":"mUserOp","type":"tuple","internalType":"struct EntryPoint.MemoryUserOp","components":[{"name":"sender","type":"address","internalType":"address"},{"name":"nonce","type":"uint256","internalType":"uint256"},{"name":"verificationGasLimit","type":"uint256","internalType":"uint256"},{"name":"callGasLimit","type":"uint256","internalType":"uint256"},{"name":"paymasterVerificationGasLimit","type":"uint256","internalType":"uint256"},{"name":"paymasterPostOpGasLimit","type":"uint256","internalType":"uint256"},{"name":"preVerificationGas","type":"uint256","internalType":"uint256"},{"name":"paymaster","type":"address","internalType":"address"},{"name":"maxFeePerGas","type":"uint256","internalType":"uint256"},{"name":"maxPriorityFeePerGas","type":"uint256","internalType":"uint256"}]},{"name":"userOpHash","type":"bytes32","internalType":"bytes32"},{"name":"prefund","type":"uint256","internalType":"uint256"},{"name":"contextOffset","type":"uint256","internalType":"uint256"},{"name":"preOpGas","type":"uint256","internalType":"uint256"}]},{"name":"context","type":"bytes","internalType":"bytes"}],"outputs":[{"name":"actualGasCost","type":"uint256","internalType":"uint256"}],"stateMutability":"nonpayable"},{"type":"function","name":"nonceSequenceNumber","inputs":[{"name":"","type":"address","internalType":"address"},{"name":"","type":"uint192","internalType":"uint192"}],"outputs":[{"name":"","type":"uint256","internalType":"uint256"}],"stateMutability":"view"},{"type":"function","name":"senderCreator","inputs":[],"outputs":[{"name":"","type":"address","internalType":"contract ISenderCreator"}],"stateMutability":"view"},{"type":"function","name":"supportsInterface","inputs":[{"name":"interfaceId","type":"bytes4","internalType":"bytes4"}],"outputs":[{"name":"","type":"bool","internalType":"bool"}],"stateMutability":"view"},{"type":"function","name":"unlockStake","inputs":[],"outputs":[],"stateMutability":"nonpayable"},{"type":"function","name":"withdrawStake","inputs":[{"name":"withdrawAddress","type":"address","internalType":"address payable"}],"outputs":[],"stateMutability":"nonpayable"},{"type":"function","name":"withdrawTo","inputs":[{"name":"withdrawAddress","type":"address","internalType":"address payable"},{"name":"withdrawAmount","type":"uint256","internalType":"uint256"}],"outputs":[],"stateMutability":"nonpayable"},{"type":"event","name":"AccountDeployed","inputs":[{"name":"userOpHash","type":"bytes32","indexed":true,"internalType":"bytes32"},{"name":"sender","type":"address","indexed":true,"internalType":"address"},{"name":"factory","type":"address","indexed":false,"internalType":"address"},{"name":"paymaster","type":"address","indexed":false,"internalType":"address"}],"anonymous":false},{"type":"event","name":"BeforeExecution","inputs":[],"anonymous":false},{"type":"event","name":"Deposited","inputs":[{"name":"account","type":"address","indexed":true,"internalType":"address"},{"name":"totalDeposit","type":"uint256","indexed":false,"internalType":"uint256"}],"anonymous":false},{"type":"event","name":"EIP712DomainChanged","inputs":[],"anonymous":false},{"type":"event","name":"PostOpRevertReason","inputs":[{"name":"userOpHash","type":"bytes32","indexed":true,"internalType":"bytes32"},{"name":"sender","type":"address","indexed":true,"internalType":"address"},{"name":"nonce","type":"uint256","indexed":false,"internalType":"uint256"},{"name":"revertReason","type":"bytes","indexed":false,"internalType":"bytes"}],"anonymous":false},{"type":"event","name":"SignatureAggregatorChanged","inputs":[{"name":"aggregator","type":"address","indexed":true,"internalType":"address"}],"anonymous":false},{"type":"event","name":"StakeLocked","inputs":[{"name":"account","type":"address","indexed":true,"internalType":"address"},{"name":"totalStaked","type":"uint256","indexed":false,"internalType":"uint256"},{"name":"unstakeDelaySec","type":"uint256","indexed":false,"internalType":"uint256"}],"anonymous":false},{"type":"event","name":"StakeUnlocked","inputs":[{"name":"account","type":"address","indexed":true,"internalType":"address"},{"name":"withdrawTime","type":"uint256","indexed":false,"internalType":"uint256"}],"anonymous":false},{"type":"event","name":"StakeWithdrawn","inputs":[{"name":"account","type":"address","indexed":true,"internalType":"address"},{"name":"withdrawAddress","type":"address","indexed":false,"internalType":"address"},{"name":"amount","type":"uint256","indexed":false,"internalType":"uint256"}],"anonymous":false},{"type":"event","name":"UserOperationEvent","inputs":[{"name":"userOpHash","type":"bytes32","indexed":true,"internalType":"bytes32"},{"name":"sender","type":"address","indexed":true,"internalType":"address"},{"name":"paymaster","type":"address","indexed":true,"internalType":"address"},{"name":"nonce","type":"uint256","indexed":false,"internalType":"uint256"},{"name":"success","type":"bool","indexed":false,"internalType":"bool"},{"name":"actualGasCost","type":"uint256","indexed":false,"internalType":"uint256"},{"name":"actualGasUsed","type":"uint256","indexed":false,"internalType":"uint256"}],"anonymous":false},{"type":"event","name":"UserOperationPrefundTooLow","inputs":[{"name":"userOpHash","type":"bytes32","indexed":true,"internalType":"bytes32"},{"name":"sender","type":"address","indexed":true,"internalType":"address"},{"name":"nonce","type":"uint256","indexed":false,"internalType":"uint256"}],"anonymous":false},{"type":"event","name":"UserOperationRevertReason","inputs":[{"name":"userOpHash","type":"bytes32","indexed":true,"internalType":"bytes32"},{"name":"sender","type":"address","indexed":true,"internalType":"address"},{"name":"nonce","type":"uint256","indexed":false,"internalType":"uint256"},{"name":"revertReason","type":"bytes","indexed":false,"internalType":"bytes"}],"anonymous":false},{"type":"event","name":"Withdrawn","inputs":[{"name":"account","type":"address","indexed":true,"internalType":"address"},{"name":"withdrawAddress","type":"address","indexed":false,"internalType":"address"},{"name":"amount","type":"uint256","indexed":false,"internalType":"uint256"}],"anonymous":false},{"type":"error","name":"DelegateAndRevert","inputs":[{"name":"success","type":"bool","internalType":"bool"},{"name":"ret","type":"bytes","internalType":"bytes"}]},{"type":"error","name":"FailedOp","inputs":[{"name":"opIndex","type":"uint256","internalType":"uint256"},{"name":"reason","type":"string","internalType":"string"}]},{"type":"error","name":"FailedOpWithRevert","inputs":[{"name":"opIndex","type":"uint256","internalType":"uint256"},{"name":"reason","type":"string","internalType":"string"},{"name":"inner","type":"bytes","internalType":"bytes"}]},{"type":"error","name":"InvalidShortString","inputs":[]},{"type":"error","name":"PostOpReverted","inputs":[{"name":"returnData","type":"bytes","internalType":"bytes"}]},{"type":"error","name":"ReentrancyGuardReentrantCall","inputs":[]},{"type":"error","name":"SenderAddressResult","inputs":[{"name":"sender","type":"address","internalType":"address"}]},{"type":"error","name":"SignatureValidationFailed","inputs":[{"name":"aggregator","type":"address","internalType":"address"}]},{"type":"error","name":"StringTooLong","inputs":[{"name":"str","type":"string","internalType":"string"}]}],"bytecode":{"object":"0x610180604052604051610011906101a7565b604051809103905ff08015801561002a573d5f5f3e3d5ffd5b506001600160a01b031661016052348015610043575f5ffd5b5060408051808201825260078152664552433433333760c81b602080830191909152825180840190935260018352603160f81b908301529061008682600261012f565b6101205261009581600361012f565b61014052815160208084019190912060e052815190820120610100524660a05261012160e05161010051604080517f8b73c3c69bb8fe3d512ecc4cf759cc79239f7b179b0ffacaa9a75d522b39400f60208201529081019290925260608201524660808201523060a08201525f9060c00160405160208183030381529060405280519060200120905090565b60805250503060c05261035e565b5f60208351101561014a5761014383610161565b905061015b565b81610155848261024c565b5060ff90505b92915050565b5f5f829050601f81511115610194578260405163305a27a960e01b815260040161018b9190610306565b60405180910390fd5b805161019f8261033b565b179392505050565b61050c8061425b83390190565b634e487b7160e01b5f52604160045260245ffd5b600181811c908216806101dc57607f821691505b6020821081036101fa57634e487b7160e01b5f52602260045260245ffd5b50919050565b601f82111561024757805f5260205f20601f840160051c810160208510156102255750805b601f840160051c820191505b81811015610244575f8155600101610231565b50505b505050565b81516001600160401b03811115610265576102656101b4565b6102798161027384546101c8565b84610200565b6020601f8211600181146102ab575f83156102945750848201515b5f19600385901b1c1916600184901b178455610244565b5f84815260208120601f198516915b828110156102da57878501518255602094850194600190920191016102ba565b50848210156102f757868401515f19600387901b60f8161c191681555b50505050600190811b01905550565b602081525f82518060208401528060208501604085015e5f604082850101526040601f19601f83011684010191505092915050565b805160208083015191908110156101fa575f1960209190910360031b1b16919050565b60805160a05160c05160e05161010051610120516101405161016051613e8d6103ce5f395f81816101c901528181610e1501528181612ad50152612c1d01525f611e6601525f611e3901525f61184301525f61181b01525f61177601525f6117a001525f6117ca0152613e8d5ff3fe608060405260043610610128575f3560e01c806335567e1a116100a8578063850aaf621161006d578063850aaf62146104b85780639b249f69146104d7578063b760faf9146104f6578063bb9fe6bf14610509578063c23a5cea1461051d578063dbed18e01461053c575f5ffd5b806335567e1a146102cc5780635287ce121461032a57806370a082311461043e578063765e827f1461047257806384b0196e14610491575f5ffd5b806313c65a6e116100ee57806313c65a6e14610212578063154e58dc146102265780631b2e01b814610258578063205c28781461028e57806322cdde4c146102ad575f5ffd5b806242dc531461013c57806301ffc9a71461016e5780630396cb601461019d57806309ccb880146101b05780630bd28e3b146101f3575f5ffd5b36610138576101363361055b565b005b5f5ffd5b348015610147575f5ffd5b5061015b6101563660046133b9565b6105b4565b6040519081526020015b60405180910390f35b348015610179575f5ffd5b5061018d61018836600461348a565b610748565b6040519015158152602001610165565b6101366101ab3660046134b1565b6107cf565b3480156101bb575f5ffd5b506040516001600160a01b037f0000000000000000000000000000000000000000000000000000000000000000168152602001610165565b3480156101fe575f5ffd5b5061013661020d3660046134ea565b610a5a565b34801561021d575f5ffd5b5061015b610a90565b348015610231575f5ffd5b507f29a0bca4af4be3421398da00295e58e6d7de38cb492214754cb6a47507dd6f8e61015b565b348015610263575f5ffd5b5061015b610272366004613503565b600160209081525f928352604080842090915290825290205481565b348015610299575f5ffd5b506101366102a8366004613536565b610a9e565b3480156102b8575f5ffd5b5061015b6102c7366004613560565b610be9565b3480156102d7575f5ffd5b5061015b6102e6366004613503565b6001600160a01b0382165f9081526001602090815260408083206001600160c01b038516845290915290819020549082901b67ffffffffffffffff19161792915050565b348015610335575f5ffd5b506103e4610344366004613597565b6040805160a0810182525f80825260208201819052918101829052606081018290526080810191909152506001600160a01b03165f9081526020818152604091829020825160a0810184528154815260019091015460ff811615159282019290925261010082046001600160701b031692810192909252600160781b810463ffffffff166060830152600160981b900465ffffffffffff16608082015290565b60405161016591905f60a082019050825182526020830151151560208301526001600160701b03604084015116604083015263ffffffff606084015116606083015265ffffffffffff608084015116608083015292915050565b348015610449575f5ffd5b5061015b610458366004613597565b6001600160a01b03165f9081526020819052604090205490565b34801561047d575f5ffd5b5061013661048c3660046135f2565b610c31565b34801561049c575f5ffd5b506104a5610d3f565b6040516101659796959493929190613672565b3480156104c3575f5ffd5b506101366104d2366004613708565b610d81565b3480156104e2575f5ffd5b506101366104f1366004613758565b610dfc565b610136610504366004613597565b61055b565b348015610514575f5ffd5b50610136610eb3565b348015610528575f5ffd5b50610136610537366004613597565b610fdd565b348015610547575f5ffd5b506101366105563660046135f2565b611202565b6001600160a01b0381165f8181526020818152604091829020805434019081905591518281529192917f2da466a7b24304f47e87fa2e1e5a81b9831ce54fec19055ce277ca2f39ba42c491015b60405180910390a25050565b5f5f5a905033301461060d5760405162461bcd60e51b815260206004820152601760248201527f4141393220696e7465726e616c2063616c6c206f6e6c7900000000000000000060448201526064015b60405180910390fd5b8451606081015160a082015181016127100160405a603f028161063257610632613796565b0410156106485763deaddead60e01b5f5260205ffd5b87515f90156106ec575f610661845f01515f8c86611542565b9050806106ea575f61067260405190565b90505f610680610800611558565b8051909150156106da57855f01516001600160a01b03168b602001517f1c4fada7374c0a9ee8841fc38afe82932dc0f8e69012e927f061a8bae611a2018860200151846040516106d19291906137aa565b60405180910390a35b6106e382604052565b6001935050505b505b5f88608001515a860301905061073a828a8a8a8080601f0160208091040260200160405190810160405280939291908181526020018383808284375f92019190915250879250611589915050565b9a9950505050505050505050565b5f6001600160e01b0319821663349869f760e11b148061077857506001600160e01b03198216631313998b60e31b145b8061079357506001600160e01b0319821663cf28ef9760e01b145b806107ae57506001600160e01b03198216633e84f02160e01b145b806107c957506301ffc9a760e01b6001600160e01b03198316145b92915050565b335f90815260208190526040902063ffffffff82166108305760405162461bcd60e51b815260206004820152601a60248201527f6d757374207370656369667920756e7374616b652064656c61790000000000006044820152606401610604565b600181015463ffffffff600160781b909104811690831610156108955760405162461bcd60e51b815260206004820152601c60248201527f63616e6e6f7420646563726561736520756e7374616b652074696d65000000006044820152606401610604565b60018101545f906108b590349061010090046001600160701b03166137d6565b90505f81116108fb5760405162461bcd60e51b81526020600482015260126024820152711b9bc81cdd185ad9481cdc1958da599a595960721b6044820152606401610604565b6001600160701b038111156109435760405162461bcd60e51b815260206004820152600e60248201526d7374616b65206f766572666c6f7760901b6044820152606401610604565b6040805160a08101825283548152600160208083018281526001600160701b0386811685870190815263ffffffff8a8116606088018181525f60808a0181815233808352828a52918c90209a518b55965199909801805494519151965165ffffffffffff16600160981b0265ffffffffffff60981b1997909416600160781b029690961669ffffffffffffffffffff60781b1991909516610100026effffffffffffffffffffffffffff0019991515999099166effffffffffffffffffffffffffffff1990941693909317979097179190911691909117179055835185815290810192909252917fa5ae833d0bb1dcd632d98a8b70973e8516812898e19bf27b70071ebc8dc52c01910160405180910390a2505050565b335f9081526001602090815260408083206001600160c01b03851684529091528120805491610a88836137e9565b919050555050565b5f610a9961176a565b905090565b335f908152602081905260409020805480831115610afe5760405162461bcd60e51b815260206004820152601960248201527f576974686472617720616d6f756e7420746f6f206c61726765000000000000006044820152606401610604565b610b088382613801565b8255604080516001600160a01b03861681526020810185905233917fd1c19fbcd4551a5edfb66d43d2e337c04837afda3482b42bdf569a8fccdae5fb910160405180910390a25f846001600160a01b0316846040515f6040518083038185875af1925050503d805f8114610b97576040519150601f19603f3d011682016040523d82523d5f602084013e610b9c565b606091505b5050905080610be25760405162461bcd60e51b81526020600482015260126024820152716661696c656420746f20776974686472617760701b6044820152606401610604565b5050505050565b5f5f610bf483611893565b9050610c2a610c01610a90565b610c0b8584611939565b60405161190160f01b8152600281019290925260228201526042902090565b9392505050565b610c39611953565b815f816001600160401b03811115610c5357610c536131ea565b604051908082528060200260200182016040528015610c8c57816020015b610c79613163565b815260200190600190039081610c715790505b509050610c9c8585835f5f6119c2565b506040515f907fbb47ee3e183a558b1a2ff0874b079f3fc5478b7454eacf2bfc5af2ff5878f972908290a15f5b83811015610d2457610d1881888884818110610ce757610ce7613814565b9050602002810190610cf99190613828565b858481518110610d0b57610d0b613814565b6020026020010151611a45565b90910190600101610cc9565b50610d2f8482611d13565b505050610d3a611e08565b505050565b5f6060805f5f5f6060610d50611e32565b610d58611e5f565b604080515f80825260208201909252600f60f81b9b939a50919850469750309650945092509050565b5f5f846001600160a01b03168484604051610d9d929190613847565b5f60405180830381855af49150503d805f8114610dd5576040519150601f19603f3d011682016040523d82523d5f602084013e610dda565b606091505b50915091508181604051632650415560e21b8152600401610604929190613856565b604051632b870d1b60e11b81525f906001600160a01b037f0000000000000000000000000000000000000000000000000000000000000000169063570e1a3690610e4c9086908690600401613898565b6020604051808303815f875af1158015610e68573d5f5f3e3d5ffd5b505050506040513d601f19601f82011682018060405250810190610e8c91906138ab565b604051633653dc0360e11b81526001600160a01b0382166004820152909150602401610604565b335f90815260208190526040812060018101549091600160781b90910463ffffffff169003610f115760405162461bcd60e51b815260206004820152600a6024820152691b9bdd081cdd185ad95960b21b6044820152606401610604565b600181015460ff16610f595760405162461bcd60e51b8152602060048201526011602482015270616c726561647920756e7374616b696e6760781b6044820152606401610604565b60018101545f90610f7790600160781b900463ffffffff16426138c6565b60018301805460ff65ffffffffffff60981b011916600160981b65ffffffffffff841690810260ff19169190911790915560405190815290915033907ffa9b3c14cc825c412c9ed81b3ba365a5b459439403f18829e572ed53a4180f0a906020016105a8565b335f908152602081905260409020600181015461010090046001600160701b0316806110425760405162461bcd60e51b81526020600482015260146024820152734e6f207374616b6520746f20776974686472617760601b6044820152606401610604565b6001820154600160981b900465ffffffffffff166110a25760405162461bcd60e51b815260206004820152601d60248201527f6d7573742063616c6c20756e6c6f636b5374616b6528292066697273740000006044820152606401610604565b600182015442600160981b90910465ffffffffffff1611156111065760405162461bcd60e51b815260206004820152601b60248201527f5374616b65207769746864726177616c206973206e6f742064756500000000006044820152606401610604565b600182018054610100600160c81b0319169055604080516001600160a01b03851681526020810183905233917fb7c918e0e249f999e965cafeb6c664271b3f4317d296461500e71da39f0cbda3910160405180910390a25f836001600160a01b0316826040515f6040518083038185875af1925050503d805f81146111a6576040519150601f19603f3d011682016040523d82523d5f602084013e6111ab565b606091505b50509050806111fc5760405162461bcd60e51b815260206004820152601860248201527f6661696c656420746f207769746864726177207374616b6500000000000000006044820152606401610604565b50505050565b61120a611953565b815f805b82811015611345573686868381811061122957611229613814565b905060200281019061123b91906138e4565b9050365f61124983806138f8565b90925090505f61125f6040850160208601613597565b9050806001600160a01b0381166001036112985760405163086a9f7560e41b81526001600160a01b039091166004820152602401610604565b506001600160a01b03811615611335576001600160a01b038116632dd8113384846112c6604089018961393d565b6040518563ffffffff1660e01b81526004016112e59493929190613a9f565b5f604051808303815f87803b1580156112fc575f5ffd5b505af192505050801561130d575060015b6113355760405163086a9f7560e41b81526001600160a01b0382166004820152602401610604565b509390930192505060010161120e565b505f816001600160401b0381111561135f5761135f6131ea565b60405190808252806020026020018201604052801561139857816020015b611385613163565b81526020019060019003908161137d5790505b5090505f805b8481101561141257368888838181106113b9576113b9613814565b90506020028101906113cb91906138e4565b9050365f6113d983806138f8565b90925090505f6113ef6040850160208601613597565b90506113fe838389848a6119c2565b9095019450506001909201915061139e9050565b506040517fbb47ee3e183a558b1a2ff0874b079f3fc5478b7454eacf2bfc5af2ff5878f972905f90a1505f80805b8581101561152a573689898381811061145b5761145b613814565b905060200281019061146d91906138e4565b905061147f6040820160208301613597565b6001600160a01b03167f575ff3acadd5ab348fe1855e217e0f3678f8d767d7494c9f9fefbee2e17cca4d60405160405180910390a2365f6114c083806138f8565b9092509050805f5b818110156115195761150a888585848181106114e6576114e6613814565b90506020028101906114f89190613828565b8b8b81518110610d0b57610d0b613814565b600198890198970196016114c8565b505060019093019250611440915050565b506115358682611d13565b5050505050610d3a611e08565b5f5f5f845160208601878987f195945050505050565b60603d821561156c578281111561156c5750815b604051602082018101604052818152815f602083013e9392505050565b5f5f5a85519091505f908161159d82611e8c565b90505f8260e0015190505f8960800151880390506115bf818560600151611eaf565b90970196505f6001600160a01b0382166115dc57835194506116b0565b8194505f895111156116b05782880296505f5a905060028c600281111561160557611605613b2a565b1461169757826001600160a01b0316637c627b218660a001518e8d8c896040518663ffffffff1660e01b81526004016116419493929190613b3e565b5f604051808303815f88803b158015611658575f5ffd5b5087f19350505050801561166a575060015b611697575f61167a610800611558565b905080604051632b5e552f60e21b81526004016106049190613b85565b5f5a820390506116ab818760a00151611eaf565b925050505b805a8703018801975082880296505f8a604001519050878110156117135760028c60028111156116e2576116e2613b2a565b03611704578097506116f38b611ecf565b6116ff8b5f8a8c611f1e565b61175b565b63deadaa5160e01b5f5260205ffd5b6001600160a01b0386165f90815260208190526040812080548a840390810190915590808e600281111561174957611749613b2a565b1490506117588d828c8e611f1e565b50505b50505050505050949350505050565b5f306001600160a01b037f0000000000000000000000000000000000000000000000000000000000000000161480156117c257507f000000000000000000000000000000000000000000000000000000000000000046145b156117ec57507f000000000000000000000000000000000000000000000000000000000000000090565b610a99604080517f8b73c3c69bb8fe3d512ecc4cf759cc79239f7b179b0ffacaa9a75d522b39400f60208201527f0000000000000000000000000000000000000000000000000000000000000000918101919091527f000000000000000000000000000000000000000000000000000000000000000060608201524660808201523060a08201525f9060c00160405160208183030381529060405280519060200120905090565b5f36816118a3604085018561393d565b915091506118b18282611f99565b6118be57505f9392505050565b5f6118d46118cf6020870187613597565b611fc2565b905060148211611919576040516001600160601b0319606083901b1660208201526034015b604051602081830303815290604052805190602001209350505050919050565b806119278360148187613b97565b6040516020016118f993929190613bbe565b5f611944838361208b565b80519060200120905092915050565b7f9b779b17422d0df92223018b32b4d1fa46e071723d6817e2486d003becc55f005c1561199357604051633ee5aeb560e01b815260040160405180910390fd5b6119c060017f9b779b17422d0df92223018b32b4d1fa46e071723d6817e2486d003becc55f005b90612184565b565b835f5b81811015611a3b575f85828501815181106119e2576119e2613814565b602002602001015190505f5f611a1e8487018b8b87818110611a0657611a06613814565b9050602002810190611a189190613828565b8561218b565b91509150611a3084870183838a6123ac565b5050506001016119c5565b5095945050505050565b5f5f5a90505f611a56846060015190565b90505f5f611a6360405190565b9050365f611a7460608a018a61393d565b9150915060605f826003811115611a8a57843591505b506372288ed160e01b6001600160e01b0319821601611b37575f8b8b60200151604051602401611abb929190613be4565b60408051601f198184030181529181526020820180516001600160e01b0316638dd7712f60e01b1790525190915030906242dc5390611b029084908f908d90602401613caf565b604051602081830303815290604052915060e01b6020820180516001600160e01b038381831617835250505050925050611b8c565b306001600160a01b03166242dc5385858d8b604051602401611b5c9493929190613ce3565b604051602081830303815290604052915060e01b6020820180516001600160e01b03838183161783525050505091505b60205f8351602085015f305af195505f519850611ba885604052565b505050505080611d09575f3d80602003611bc65760205f5f3e5f5191505b5063deaddead60e01b8103611c195787604051631101335b60e11b8152600401610604918152604060208201819052600f908201526e41413935206f7574206f662067617360881b606082015260800190565b63deadaa5160e01b8103611c68575f86608001515a611c389087613801565b611c4291906137d6565b6040880151909150611c5388611ecf565b611c5f885f8385611f1e565b9550611d079050565b5f611c7260405190565b875180516020808b01519201519293506001600160a01b0316917ff62676f440ff169a3a9afdbf812e89e7f95975ee8e5c31214ffdef631c5f479290611cb9610800611558565b604051611cc79291906137aa565b60405180910390a3611cd881604052565b5f87608001515a611ce99088613801565b611cf391906137d6565b9050611d026002898784611589565b965050505b505b5050509392505050565b6001600160a01b038216611d695760405162461bcd60e51b815260206004820152601860248201527f4141393020696e76616c69642062656e656669636961727900000000000000006044820152606401610604565b5f826001600160a01b0316826040515f6040518083038185875af1925050503d805f8114611db2576040519150601f19603f3d011682016040523d82523d5f602084013e611db7565b606091505b5050905080610d3a5760405162461bcd60e51b815260206004820152601f60248201527f41413931206661696c65642073656e6420746f2062656e6566696369617279006044820152606401610604565b6119c05f7f9b779b17422d0df92223018b32b4d1fa46e071723d6817e2486d003becc55f006119ba565b6060610a997f00000000000000000000000000000000000000000000000000000000000000006002612546565b6060610a997f00000000000000000000000000000000000000000000000000000000000000006003612546565b6101008101516101208201515f9190611ea7824883016125ef565b949350505050565b5f619c4083018211611ec257505f6107c9565b506064919003600a020490565b80518051602080840151928101516040519081526001600160a01b0390921692917f67b4fa9642f42120bf031f3051d1824b0fe25627945b27b8a6a65d5761d5482e910160405180910390a350565b835160e081015181516020808801519301516040516001600160a01b039384169492909316927f49628fd1471006c1482da88028e9ce4dbb080b815c9b0344d39e5a8e6ec1419f91611f8b9189908990899093845291151560208401526040830152606082015260800190565b60405180910390a450505050565b5f6002821015611faa57505f6107c9565b5050613b8160f11b90356001600160601b0319161490565b5f5f60175f5f853c505f516001600160e81b0319811661ef0160f01b14612079575f836001600160a01b03163b116120315760405162461bcd60e51b815260206004820152601260248201527173656e64657220686173206e6f20636f646560701b6044820152606401610604565b60405162461bcd60e51b815260206004820152601860248201527f6e6f7420616e204549502d373730322064656c656761746500000000000000006044820152606401610604565b60481c6001600160a01b031692915050565b60605f61209b6020850185613597565b905060208401355f8481036120c4576120bf6120ba604088018861393d565b612604565b6120c6565b845b90505f6120d96120ba606089018961393d565b9050608087013560a088013560c08901355f6120fb6120ba60e08d018d61393d565b604080517f29a0bca4af4be3421398da00295e58e6d7de38cb492214754cb6a47507dd6f8e60208201526001600160a01b039a909a168a82015260608a019890985260808901969096525060a087019390935260c086019190915260e0850152610100840152610120808401919091528151808403909101815261014090920190529392505050565b80825d5050565b5f5f5f5a845190915061219e8682612616565b5f6121a860405190565b90506121b387610be9565b60208701526121c181604052565b604082015161012083015161010084015160a08501516080860151606087015160c088015186171717171717896effffffffffffffffffffffffffffff8211156122555760408051631101335b60e11b815260048101929092526024820152601860448201527f41413934206761732076616c756573206f766572666c6f7700000000000000006064820152608401610604565b505f6122848560c081015160a08201516080830151606084015160408501516101009095015194010101010290565b60408a0181905290506122998b8b8b8461275a565b97506122ac855f01518660200151612841565b8b906123025760408051631101335b60e11b815260048101929092526024820152601a60448201527f4141323520696e76616c6964206163636f756e74206e6f6e63650000000000006064820152608401610604565b50825a8703111561235f578a604051631101335b60e11b8152600401610604918152604060208201819052601e908201527f41413236206f76657220766572696669636174696f6e4761734c696d69740000606082015260800190565b60e08501516060906001600160a01b031615612385576123808c8c8c61288d565b985090505b8060608b015260a08b01355a8803018a608001818152505050505050505050935093915050565b5f5f6123b785612991565b91509150816001600160a01b0316836001600160a01b03161461241d5785604051631101335b60e11b81526004016106049181526040602082018190526014908201527320a0991a1039b4b3b730ba3ab9329032b93937b960611b606082015260800190565b80156124755785604051631101335b60e11b81526004016106049181526040602082018190526017908201527f414132322065787069726564206f72206e6f7420647565000000000000000000606082015260800190565b5f61247f85612991565b925090506001600160a01b038116156124db5786604051631101335b60e11b81526004016106049181526040602082018190526014908201527320a0999a1039b4b3b730ba3ab9329032b93937b960611b606082015260800190565b811561253d5786604051631101335b60e11b81526004016106049181526040602082018190526021908201527f41413332207061796d61737465722065787069726564206f72206e6f742064756060820152606560f81b608082015260a00190565b50505050505050565b606060ff831461256057612559836129e1565b90506107c9565b81805461256c90613d18565b80601f016020809104026020016040519081016040528092919081815260200182805461259890613d18565b80156125e35780601f106125ba576101008083540402835291602001916125e3565b820191905f5260205f20905b8154815290600101906020018083116125c657829003601f168201915b505050505090506107c9565b5f8183106125fd5781610c2a565b5090919050565b5f604051828085833790209392505050565b6126236020830183613597565b6001600160a01b03168152602080830135908201526126456080830135612a1e565b6060830152604082015260a082013560c08083019190915261266990830135612a1e565b610100830152610120820152365f61268460e085018561393d565b909250905080156111fc5760348110156126e05760405162461bcd60e51b815260206004820152601d60248201527f4141393320696e76616c6964207061796d6173746572416e64446174610000006044820152606401610604565b5f6126eb8383612a3d565b60a0870152608086015290506001600160a01b0381166127465760405162461bcd60e51b815260206004820152601660248201527520a09c9c1034b73b30b634b2103830bcb6b0b9ba32b960511b6044820152606401610604565b6001600160a01b031660e084015250505050565b815180515f9190612778878661277360408a018a61393d565b612aa4565b60e08201515f6001600160a01b0382166127b9576001600160a01b0383165f908152602081905260409020548681116127b3578087036127b5565b5f5b9150505b6127c589898984612e69565b94506001600160a01b038216612835576127df8387612f8b565b6128355788604051631101335b60e11b81526004016106049181526040602082018190526017908201527f41413231206469646e2774207061792070726566756e64000000000000000000606082015260800190565b50505050949350505050565b6001600160a01b0382165f90815260016020908152604080832084821c80855292528220805484916001600160401b03831691908561287f836137e9565b909155501495945050505050565b60605f5f5a845160e0810151604087015192935090916128ad8282612f8b565b6129035788604051631101335b60e11b8152600401610604918152604060208201819052601e908201527f41413331207061796d6173746572206465706f73697420746f6f206c6f770000606082015260800190565b60808301516129138a8a8a612fc4565b9097509550805a860311156129845789604051631101335b60e11b81526004016106049181526040602082018190526027908201527f41413336206f766572207061796d6173746572566572696669636174696f6e47606082015266185cd31a5b5a5d60ca1b608082015260a00190565b5050505050935093915050565b5f5f825f036129a457505f928392509050565b5f6129ae846130cd565b9050806040015165ffffffffffff164211806129d65750806020015165ffffffffffff164211155b905194909350915050565b60605f6129ed8361313c565b6040805160208082528183019092529192505f91906020820181803683375050509182525060208101929092525090565b5f5f612a2a8360801c90565b6001600160801b03841691509150915091565b5f8080612a4d6014828688613b97565b612a5691613d50565b60601c612a67602460148789613b97565b612a7091613d8e565b60801c612a8160346024888a613b97565b612a8a91613d8e565b9194506001600160801b0316925060801c90509250925092565b80156111fc57825151612ab78383611f99565b15612b5d576014821115612b57578351604001516001600160a01b037f0000000000000000000000000000000000000000000000000000000000000000169063c09ad0d99083612b0a866014818a613b97565b6040518563ffffffff1660e01b8152600401612b2893929190613dc4565b5f604051808303815f88803b158015612b3f575f5ffd5b5087f1158015612b51573d5f5f3e3d5ffd5b50505050505b506111fc565b6001600160a01b0381163b15612bbf5784604051631101335b60e11b8152600401610604918152604060208201819052601f908201527f414131302073656e64657220616c726561647920636f6e737472756374656400606082015260800190565b6014821015612c1a5784604051631101335b60e11b81526004016106049181526040602082018190526017908201527f4141393920696e6974436f646520746f6f20736d616c6c000000000000000000606082015260800190565b5f7f00000000000000000000000000000000000000000000000000000000000000006001600160a01b031663570e1a36865f01516040015186866040518463ffffffff1660e01b8152600401612c71929190613898565b6020604051808303815f8887f1158015612c8d573d5f5f3e3d5ffd5b50505050506040513d601f19601f82011682018060405250810190612cb291906138ab565b90506001600160a01b038116612d145785604051631101335b60e11b8152600401610604918152604060208201819052601b908201527f4141313320696e6974436f6465206661696c6564206f72204f4f470000000000606082015260800190565b816001600160a01b0316816001600160a01b031614612d7e5785604051631101335b60e11b815260040161060491815260406020808301829052908201527f4141313420696e6974436f6465206d7573742072657475726e2073656e646572606082015260800190565b806001600160a01b03163b5f03612de05785604051631101335b60e11b815260040161060491815260406020808301829052908201527f4141313520696e6974436f6465206d757374206372656174652073656e646572606082015260800190565b5f612dee6014828688613b97565b612df791613d50565b60601c9050826001600160a01b031686602001517fd51a9c61267aa6196961883ecf5ff2da6619c37dac0fa92122513fb32c032d2d83895f015160e00151604051612e589291906001600160a01b0392831681529116602082015260400190565b60405180910390a350505050505050565b8151604081015190515f91908280612e8060405190565b90505f88886020015188604051602401612e9c93929190613df1565b60408051601f19818403018152919052602080820180516001600160e01b03166306608bdf60e21b178152825192935090915f9182888af192505f51955060203d14612ee6575f92505b612eef82604052565b505080612f8057816001600160a01b03163b5f03612f595787604051631101335b60e11b81526004016106049181526040602082018190526019908201527f41413230206163636f756e74206e6f74206465706c6f79656400000000000000606082015260800190565b87612f65610800611558565b6040516365c8fd4d60e01b8152600401610604929190613e15565b505050949350505050565b6001600160a01b0382165f908152602081905260408120805483811015612fb6575f925050506107c9565b839003905550600192915050565b60605f5f612fd160405190565b90505f8585602001518660400151604051602401612ff193929190613df1565b60408051601f198184030181529190526020810180516001600160e01b03166314add44b60e21b178152865160e08101516080909101518351939450909290915f9182918291829182918291829190828b8bf194503d9050805f8a3e6020890151995088519250606081039150604089019a508a519350841580613076575082604014155b8061308357508184601f01105b156130af578d613094610800611558565b6040516365c8fd4d60e01b8152600401610604929190613e51565b601f8101601f19168901604052505050505050505050935093915050565b604080516060810182525f80825260208201819052918101919091528160a081901c65ffffffffffff81165f03613107575065ffffffffffff5b604080516060810182526001600160a01b03909316835260d09490941c602083015265ffffffffffff16928101929092525090565b5f60ff8216601f8111156107c957604051632cd44ac360e21b815260040160405180910390fd5b6040518060a001604052806131cc6040518061014001604052805f6001600160a01b031681526020015f81526020015f81526020015f81526020015f81526020015f81526020015f81526020015f6001600160a01b031681526020015f81526020015f81525090565b81526020015f81526020015f81526020015f81526020015f81525090565b634e487b7160e01b5f52604160045260245ffd5b60405160a081016001600160401b0381118282101715613220576132206131ea565b60405290565b60405161014081016001600160401b0381118282101715613220576132206131ea565b604051601f8201601f191681016001600160401b0381118282101715613271576132716131ea565b604052919050565b6001600160a01b038116811461328d575f5ffd5b50565b803561329b81613279565b919050565b5f8183036101c08112156132b2575f5ffd5b6132ba6131fe565b91506101408112156132ca575f5ffd5b506132d3613226565b6132dc83613290565b81526020838101359082015260408084013590820152606080840135908201526080808401359082015260a0808401359082015260c0808401359082015261332660e08401613290565b60e08201526101008381013590820152610120808401359082015281526101408201356020820152610160820135604082015261018082013560608201526101a0909101356080820152919050565b5f5f83601f840112613385575f5ffd5b5081356001600160401b0381111561339b575f5ffd5b6020830191508360208285010111156133b2575f5ffd5b9250929050565b5f5f5f5f61020085870312156133cd575f5ffd5b84356001600160401b038111156133e2575f5ffd5b8501601f810187136133f2575f5ffd5b80356001600160401b0381111561340b5761340b6131ea565b61341e601f8201601f1916602001613249565b818152886020838501011115613432575f5ffd5b816020840160208301375f6020838301015280965050505061345786602087016132a0565b92506101e08501356001600160401b03811115613472575f5ffd5b61347e87828801613375565b95989497509550505050565b5f6020828403121561349a575f5ffd5b81356001600160e01b031981168114610c2a575f5ffd5b5f602082840312156134c1575f5ffd5b813563ffffffff81168114610c2a575f5ffd5b80356001600160c01b038116811461329b575f5ffd5b5f602082840312156134fa575f5ffd5b610c2a826134d4565b5f5f60408385031215613514575f5ffd5b823561351f81613279565b915061352d602084016134d4565b90509250929050565b5f5f60408385031215613547575f5ffd5b823561355281613279565b946020939093013593505050565b5f60208284031215613570575f5ffd5b81356001600160401b03811115613585575f5ffd5b82016101208185031215610c2a575f5ffd5b5f602082840312156135a7575f5ffd5b8135610c2a81613279565b5f5f83601f8401126135c2575f5ffd5b5081356001600160401b038111156135d8575f5ffd5b6020830191508360208260051b85010111156133b2575f5ffd5b5f5f5f60408486031215613604575f5ffd5b83356001600160401b03811115613619575f5ffd5b613625868287016135b2565b909450925050602084013561363981613279565b809150509250925092565b5f81518084528060208401602086015e5f602082860101526020601f19601f83011685010191505092915050565b60ff60f81b8816815260e060208201525f61369060e0830189613644565b82810360408401526136a28189613644565b606084018890526001600160a01b038716608085015260a0840186905283810360c0850152845180825260208087019350909101905f5b818110156136f75783518352602093840193909201916001016136d9565b50909b9a5050505050505050505050565b5f5f5f6040848603121561371a575f5ffd5b833561372581613279565b925060208401356001600160401b0381111561373f575f5ffd5b61374b86828701613375565b9497909650939450505050565b5f5f60208385031215613769575f5ffd5b82356001600160401b0381111561377e575f5ffd5b61378a85828601613375565b90969095509350505050565b634e487b7160e01b5f52601260045260245ffd5b828152604060208201525f611ea76040830184613644565b634e487b7160e01b5f52601160045260245ffd5b808201808211156107c9576107c96137c2565b5f600182016137fa576137fa6137c2565b5060010190565b818103818111156107c9576107c96137c2565b634e487b7160e01b5f52603260045260245ffd5b5f823561011e1983360301811261383d575f5ffd5b9190910192915050565b818382375f9101908152919050565b8215158152604060208201525f611ea76040830184613644565b81835281816020850137505f828201602090810191909152601f909101601f19169091010190565b602081525f611ea7602083018486613870565b5f602082840312156138bb575f5ffd5b8151610c2a81613279565b65ffffffffffff81811683821601908111156107c9576107c96137c2565b5f8235605e1983360301811261383d575f5ffd5b5f5f8335601e1984360301811261390d575f5ffd5b8301803591506001600160401b03821115613926575f5ffd5b6020019150600581901b36038213156133b2575f5ffd5b5f5f8335601e19843603018112613952575f5ffd5b8301803591506001600160401b0382111561396b575f5ffd5b6020019150368190038213156133b2575f5ffd5b5f5f8335601e19843603018112613994575f5ffd5b83016020810192503590506001600160401b038111156139b2575f5ffd5b8036038213156133b2575f5ffd5b6139da826139cd83613290565b6001600160a01b03169052565b602081810135908301525f6139f2604083018361397f565b6101206040860152613a0961012086018284613870565b915050613a19606084018461397f565b8583036060870152613a2c838284613870565b6080868101359088015260a0808701359088015260c080870135908801529250613a5c91505060e084018461397f565b85830360e0870152613a6f838284613870565b92505050613a8161010084018461397f565b858303610100870152613a95838284613870565b9695505050505050565b604080825281018490525f6060600586901b83018101908301878361011e1936839003015b89821015613b0857868503605f190184528235818112613ae2575f5ffd5b613aee868d83016139c0565b955050602083019250602084019350600182019150613ac4565b505050508281036020840152613b1f818587613870565b979650505050505050565b634e487b7160e01b5f52602160045260245ffd5b5f60038610613b5b57634e487b7160e01b5f52602160045260245ffd5b85825260806020830152613b726080830186613644565b6040830194909452506060015292915050565b602081525f610c2a6020830184613644565b5f5f85851115613ba5575f5ffd5b83861115613bb1575f5ffd5b5050820193919092039150565b6001600160601b03198460601b168152818360148301375f910160140190815292915050565b604081525f613bf660408301856139c0565b90508260208301529392505050565b805180516001600160a01b031683526020810151602084015260408101516040840152606081015160608401526080810151608084015260a081015160a084015260c081015160c084015260e0810151613c6a60e08501826001600160a01b03169052565b5061010081810151908401526101209081015190830152602081015161014083015260408101516101608301526060810151610180830152608001516101a090910152565b61020081525f613cc3610200830186613644565b613cd06020840186613c05565b8281036101e0840152613a958185613644565b61020081525f613cf861020083018688613870565b613d056020840186613c05565b8281036101e0840152613b1f8185613644565b600181811c90821680613d2c57607f821691505b602082108103613d4a57634e487b7160e01b5f52602260045260245ffd5b50919050565b80356001600160601b03198116906014841015613d87576001600160601b03196001600160601b03198560140360031b1b82161691505b5092915050565b80356001600160801b03198116906010841015613d87576001600160801b031960109490940360031b84901b1690921692915050565b6001600160a01b03841681526040602082018190525f90613de89083018486613870565b95945050505050565b606081525f613e0360608301866139c0565b60208301949094525060400152919050565b82815260606020820152600d60608201526c10504c8cc81c995d995c9d1959609a1b608082015260a060408201525f611ea760a0830184613644565b82815260606020820152600d60608201526c10504cccc81c995d995c9d1959609a1b608082015260a060408201525f611ea760a08301846136445660a0604052348015600e575f5ffd5b50336080526080516104d56100375f395f818160770152818160ba01526101bc01526104d55ff3fe608060405234801561000f575f5ffd5b506004361061003f575f3560e01c8063570e1a3614610043578063b0d691fe14610072578063c09ad0d914610099575b5f5ffd5b61005661005136600461029e565b6100ae565b6040516001600160a01b03909116815260200160405180910390f35b6100567f000000000000000000000000000000000000000000000000000000000000000081565b6100ac6100a7366004610320565b6101b1565b005b5f336001600160a01b037f0000000000000000000000000000000000000000000000000000000000000000161461012c5760405162461bcd60e51b815260206004820181905260248201527f414139372073686f756c642063616c6c2066726f6d20456e747279506f696e7460448201526064015b60405180910390fd5b5f61013a60148285876103f1565b61014391610418565b60601c90505f61015684601481886103f1565b8080601f0160208091040260200160405190810160405280939291908181526020018383808284375f92018290525084519495509360209350849250905082850182875af1905080156101a8575f5193505b50505092915050565b336001600160a01b037f000000000000000000000000000000000000000000000000000000000000000016146102295760405162461bcd60e51b815260206004820181905260248201527f414139372073686f756c642063616c6c2066726f6d20456e747279506f696e746044820152606401610123565b5f5f5f8351602085015f875af1905080610268575f61024961080061026d565b90505f816040516365c8fd4d60e01b8152600401610123929190610465565b505050565b60603d821561028157828111156102815750815b604051602082018101604052818152815f602083013e9392505050565b5f5f602083850312156102af575f5ffd5b823567ffffffffffffffff8111156102c5575f5ffd5b8301601f810185136102d5575f5ffd5b803567ffffffffffffffff8111156102eb575f5ffd5b8560208284010111156102fc575f5ffd5b6020919091019590945092505050565b634e487b7160e01b5f52604160045260245ffd5b5f5f60408385031215610331575f5ffd5b82356001600160a01b0381168114610347575f5ffd5b9150602083013567ffffffffffffffff811115610362575f5ffd5b8301601f81018513610372575f5ffd5b803567ffffffffffffffff81111561038c5761038c61030c565b604051601f8201601f19908116603f0116810167ffffffffffffffff811182821017156103bb576103bb61030c565b6040528181528282016020018710156103d2575f5ffd5b816020840160208301375f602083830101528093505050509250929050565b5f5f858511156103ff575f5ffd5b8386111561040b575f5ffd5b5050820193919092039150565b80356bffffffffffffffffffffffff19811690601484101561045e576bffffffffffffffffffffffff196bffffffffffffffffffffffff198560140360031b1b82161691505b5092915050565b82815260606020820152601f60608201527f4141313320454950373730322073656e64657220696e6974206661696c656400608082015260a060408201525f82518060a0840152806020850160c085015e5f60c0828501015260c0601f19601f830116840101915050939250505056","linkReferences":{}},"methodIdentifiers":{"addStake(uint32)":"0396cb60","balanceOf(address)":"70a08231","delegateAndRevert(address,bytes)":"850aaf62","depositTo(address)":"b760faf9","eip712Domain()":"84b0196e","getDepositInfo(address)":"5287ce12","getDomainSeparatorV4()":"13c65a6e","getNonce(address,uint192)":"35567e1a","getPackedUserOpTypeHash()":"154e58dc","getSenderAddress(bytes)":"9b249f69","getUserOpHash((address,uint256,bytes,bytes,bytes32,uint256,bytes32,bytes,bytes))":"22cdde4c","handleAggregatedOps(((address,uint256,bytes,bytes,bytes32,uint256,bytes32,bytes,bytes)[],address,bytes)[],address)":"dbed18e0","handleOps((address,uint256,bytes,bytes,bytes32,uint256,bytes32,bytes,bytes)[],address)":"765e827f","incrementNonce(uint192)":"0bd28e3b","innerHandleOp(bytes,((address,uint256,uint256,uint256,uint256,uint256,uint256,address,uint256,uint256),bytes32,uint256,uint256,uint256),bytes)":"0042dc53","nonceSequenceNumber(address,uint192)":"1b2e01b8","senderCreator()":"09ccb880","supportsInterface(bytes4)":"01ffc9a7","unlockStake()":"bb9fe6bf","withdrawStake(address)":"c23a5cea","withdrawTo(address,uint256)":"205c2878"},"id":5}