{"abi":[{"type":"constructor","inputs":[{"name":"anEntryPoint","type":"address","internalType":"contract IEntryPoint"},{"name":"_dashToken","type":"address","internalType":"contract DashToken"}],"stateMutability":"nonpayable"},{"type":"receive","stateMutability":"payable"},{"type":"function","name":"MAX_SESSION_DURATION","inputs":[],"outputs":[{"name":"","type":"uint256","internalType":"uint256"}],"stateMutability":"view"},{"type":"function","name":"MAX_SESSION_SPENDING","inputs":[],"outputs":[{"name":"","type":"uint256","internalType":"uint256"}],"stateMutability":"view"},{"type":"function","name":"MIN_RECOVERY_DELAY","inputs":[],"outputs":[{"name":"","type":"uint256","internalType":"uint256"}],"stateMutability":"view"},{"type":"function","name":"UPGRADE_INTERFACE_VERSION","inputs":[],"outputs":[{"name":"","type":"string","internalType":"string"}],"stateMutability":"view"},{"type":"function","name":"addDeposit","inputs":[],"outputs":[],"stateMutability":"payable"},{"type":"function","name":"cancelRecovery","inputs":[],"outputs":[],"stateMutability":"nonpayable"},{"type":"function","name":"createSessionKey","inputs":[{"name":"signer","type":"address","internalType":"address"},{"name":"spendingLimit","type":"uint256","internalType":"uint256"},{"name":"duration","type":"uint256","internalType":"uint256"},{"name":"allowedTargets","type":"address[]","internalType":"address[]"},{"name":"allowedSelectors","type":"bytes4[]","internalType":"bytes4[]"}],"outputs":[{"name":"sessionId","type":"bytes32","internalType":"bytes32"}],"stateMutability":"nonpayable"},{"type":"function","name":"dailySpendingLimit","inputs":[],"outputs":[{"name":"","type":"uint256","internalType":"uint256"}],"stateMutability":"view"},{"type":"function","name":"dailySpent","inputs":[],"outputs":[{"name":"","type":"uint256","internalType":"uint256"}],"stateMutability":"view"},{"type":"function","name":"dashToken","inputs":[],"outputs":[{"name":"","type":"address","internalType":"contract DashToken"}],"stateMutability":"view"},{"type":"function","name":"entryPoint","inputs":[],"outputs":[{"name":"","type":"address","internalType":"contract IEntryPoint"}],"stateMutability":"view"},{"type":"function","name":"execute","inputs":[{"name":"dest","type":"address","internalType":"address"},{"name":"value","type":"uint256","internalType":"uint256"},{"name":"func","type":"bytes","internalType":"bytes"}],"outputs":[],"stateMutability":"nonpayable"},{"type":"function","name":"executeBatch","inputs":[{"name":"calls","type":"tuple[]","internalType":"struct BaseAccount.Call[]","components":[{"name":"target","type":"address","internalType":"address"},{"name":"value","type":"uint256","internalType":"uint256"},{"name":"data","type":"bytes","internalType":"bytes"}]}],"outputs":[],"stateMutability":"nonpayable"},{"type":"function","name":"executeBatchTransactions","inputs":[{"name":"targets","type":"address[]","internalType":"address[]"},{"name":"values","type":"uint256[]","internalType":"uint256[]"},{"name":"calldatas","type":"bytes[]","internalType":"bytes[]"}],"outputs":[],"stateMutability":"payable"},{"type":"function","name":"executeRecovery","inputs":[],"outputs":[],"stateMutability":"nonpayable"},{"type":"function","name":"getDashFeeDiscount","inputs":[],"outputs":[{"name":"discount","type":"uint256","internalType":"uint256"}],"stateMutability":"view"},{"type":"function","name":"getDeposit","inputs":[],"outputs":[{"name":"","type":"uint256","internalType":"uint256"}],"stateMutability":"view"},{"type":"function","name":"getNonce","inputs":[],"outputs":[{"name":"","type":"uint256","internalType":"uint256"}],"stateMutability":"view"},{"type":"function","name":"getSecurityInfo","inputs":[],"outputs":[{"name":"_dailySpendingLimit","type":"uint256","internalType":"uint256"},{"name":"_dailySpent","type":"uint256","internalType":"uint256"},{"name":"_lastReset","type":"uint256","internalType":"uint256"},{"name":"_guardianCount","type":"uint256","internalType":"uint256"},{"name":"_recoveryThreshold","type":"uint256","internalType":"uint256"},{"name":"_hasActiveRecovery","type":"bool","internalType":"bool"}],"stateMutability":"view"},{"type":"function","name":"getSessionKey","inputs":[{"name":"sessionId","type":"bytes32","internalType":"bytes32"}],"outputs":[{"name":"","type":"tuple","internalType":"struct DashAccount.SessionKey","components":[{"name":"signer","type":"address","internalType":"address"},{"name":"spendingLimit","type":"uint256","internalType":"uint256"},{"name":"spentAmount","type":"uint256","internalType":"uint256"},{"name":"validUntil","type":"uint256","internalType":"uint256"},{"name":"validAfter","type":"uint256","internalType":"uint256"},{"name":"isActive","type":"bool","internalType":"bool"},{"name":"allowedTargets","type":"address[]","internalType":"address[]"},{"name":"allowedSelectors","type":"bytes4[]","internalType":"bytes4[]"}]}],"stateMutability":"view"},{"type":"function","name":"getSessionKeys","inputs":[{"name":"signer","type":"address","internalType":"address"}],"outputs":[{"name":"","type":"bytes32[]","internalType":"bytes32[]"}],"stateMutability":"view"},{"type":"function","name":"initialize","inputs":[{"name":"anOwner","type":"address","internalType":"address"}],"outputs":[],"stateMutability":"nonpayable"},{"type":"function","name":"initializeRecovery","inputs":[{"name":"guardians","type":"address[]","internalType":"address[]"},{"name":"threshold","type":"uint256","internalType":"uint256"}],"outputs":[],"stateMutability":"nonpayable"},{"type":"function","name":"initiateRecovery","inputs":[{"name":"newOwner","type":"address","internalType":"address"},{"name":"signatures","type":"bytes[]","internalType":"bytes[]"}],"outputs":[],"stateMutability":"nonpayable"},{"type":"function","name":"isGuardian","inputs":[{"name":"","type":"address","internalType":"address"}],"outputs":[{"name":"","type":"bool","internalType":"bool"}],"stateMutability":"view"},{"type":"function","name":"lastSpendingReset","inputs":[],"outputs":[{"name":"","type":"uint256","internalType":"uint256"}],"stateMutability":"view"},{"type":"function","name":"onERC1155BatchReceived","inputs":[{"name":"","type":"address","internalType":"address"},{"name":"","type":"address","internalType":"address"},{"name":"","type":"uint256[]","internalType":"uint256[]"},{"name":"","type":"uint256[]","internalType":"uint256[]"},{"name":"","type":"bytes","internalType":"bytes"}],"outputs":[{"name":"","type":"bytes4","internalType":"bytes4"}],"stateMutability":"pure"},{"type":"function","name":"onERC1155Received","inputs":[{"name":"","type":"address","internalType":"address"},{"name":"","type":"address","internalType":"address"},{"name":"","type":"uint256","internalType":"uint256"},{"name":"","type":"uint256","internalType":"uint256"},{"name":"","type":"bytes","internalType":"bytes"}],"outputs":[{"name":"","type":"bytes4","internalType":"bytes4"}],"stateMutability":"pure"},{"type":"function","name":"onERC721Received","inputs":[{"name":"","type":"address","internalType":"address"},{"name":"","type":"address","internalType":"address"},{"name":"","type":"uint256","internalType":"uint256"},{"name":"","type":"bytes","internalType":"bytes"}],"outputs":[{"name":"","type":"bytes4","internalType":"bytes4"}],"stateMutability":"pure"},{"type":"function","name":"owner","inputs":[],"outputs":[{"name":"","type":"address","internalType":"address"}],"stateMutability":"view"},{"type":"function","name":"proxiableUUID","inputs":[],"outputs":[{"name":"","type":"bytes32","internalType":"bytes32"}],"stateMutability":"view"},{"type":"function","name":"recoveryConfig","inputs":[],"outputs":[{"name":"threshold","type":"uint256","internalType":"uint256"},{"name":"recoveryDelay","type":"uint256","internalType":"uint256"},{"name":"recoveryRequest","type":"uint256","internalType":"uint256"},{"name":"newOwner","type":"address","internalType":"address"}],"stateMutability":"view"},{"type":"function","name":"revokeSessionKey","inputs":[{"name":"sessionId","type":"bytes32","internalType":"bytes32"}],"outputs":[],"stateMutability":"nonpayable"},{"type":"function","name":"sessionKeys","inputs":[{"name":"","type":"bytes32","internalType":"bytes32"}],"outputs":[{"name":"signer","type":"address","internalType":"address"},{"name":"spendingLimit","type":"uint256","internalType":"uint256"},{"name":"spentAmount","type":"uint256","internalType":"uint256"},{"name":"validUntil","type":"uint256","internalType":"uint256"},{"name":"validAfter","type":"uint256","internalType":"uint256"},{"name":"isActive","type":"bool","internalType":"bool"}],"stateMutability":"view"},{"type":"function","name":"setDailySpendingLimit","inputs":[{"name":"newLimit","type":"uint256","internalType":"uint256"}],"outputs":[],"stateMutability":"nonpayable"},{"type":"function","name":"supportsInterface","inputs":[{"name":"interfaceId","type":"bytes4","internalType":"bytes4"}],"outputs":[{"name":"","type":"bool","internalType":"bool"}],"stateMutability":"view"},{"type":"function","name":"upgradeToAndCall","inputs":[{"name":"newImplementation","type":"address","internalType":"address"},{"name":"data","type":"bytes","internalType":"bytes"}],"outputs":[],"stateMutability":"payable"},{"type":"function","name":"userSessionKeys","inputs":[{"name":"","type":"address","internalType":"address"},{"name":"","type":"uint256","internalType":"uint256"}],"outputs":[{"name":"","type":"bytes32","internalType":"bytes32"}],"stateMutability":"view"},{"type":"function","name":"validateUserOp","inputs":[{"name":"userOp","type":"tuple","internalType":"struct PackedUserOperation","components":[{"name":"sender","type":"address","internalType":"address"},{"name":"nonce","type":"uint256","internalType":"uint256"},{"name":"initCode","type":"bytes","internalType":"bytes"},{"name":"callData","type":"bytes","internalType":"bytes"},{"name":"accountGasLimits","type":"bytes32","internalType":"bytes32"},{"name":"preVerificationGas","type":"uint256","internalType":"uint256"},{"name":"gasFees","type":"bytes32","internalType":"bytes32"},{"name":"paymasterAndData","type":"bytes","internalType":"bytes"},{"name":"signature","type":"bytes","internalType":"bytes"}]},{"name":"userOpHash","type":"bytes32","internalType":"bytes32"},{"name":"missingAccountFunds","type":"uint256","internalType":"uint256"}],"outputs":[{"name":"validationData","type":"uint256","internalType":"uint256"}],"stateMutability":"nonpayable"},{"type":"function","name":"withdrawDepositTo","inputs":[{"name":"withdrawAddress","type":"address","internalType":"address payable"},{"name":"amount","type":"uint256","internalType":"uint256"}],"outputs":[],"stateMutability":"nonpayable"},{"type":"event","name":"GuardianAdded","inputs":[{"name":"guardian","type":"address","indexed":true,"internalType":"address"}],"anonymous":false},{"type":"event","name":"GuardianRemoved","inputs":[{"name":"guardian","type":"address","indexed":true,"internalType":"address"}],"anonymous":false},{"type":"event","name":"Initialized","inputs":[{"name":"version","type":"uint64","indexed":false,"internalType":"uint64"}],"anonymous":false},{"type":"event","name":"RecoveryCancelled","inputs":[],"anonymous":false},{"type":"event","name":"RecoveryExecuted","inputs":[{"name":"oldOwner","type":"address","indexed":true,"internalType":"address"},{"name":"newOwner","type":"address","indexed":true,"internalType":"address"}],"anonymous":false},{"type":"event","name":"RecoveryInitiated","inputs":[{"name":"newOwner","type":"address","indexed":true,"internalType":"address"},{"name":"effectiveTime","type":"uint256","indexed":false,"internalType":"uint256"}],"anonymous":false},{"type":"event","name":"SessionKeyCreated","inputs":[{"name":"sessionId","type":"bytes32","indexed":true,"internalType":"bytes32"},{"name":"signer","type":"address","indexed":true,"internalType":"address"},{"name":"spendingLimit","type":"uint256","indexed":false,"internalType":"uint256"},{"name":"validUntil","type":"uint256","indexed":false,"internalType":"uint256"},{"name":"allowedTargets","type":"address[]","indexed":false,"internalType":"address[]"}],"anonymous":false},{"type":"event","name":"SessionKeyRevoked","inputs":[{"name":"sessionId","type":"bytes32","indexed":true,"internalType":"bytes32"},{"name":"signer","type":"address","indexed":true,"internalType":"address"}],"anonymous":false},{"type":"event","name":"SessionKeyUsed","inputs":[{"name":"sessionId","type":"bytes32","indexed":true,"internalType":"bytes32"},{"name":"amount","type":"uint256","indexed":false,"internalType":"uint256"},{"name":"target","type":"address","indexed":false,"internalType":"address"}],"anonymous":false},{"type":"event","name":"SimpleAccountInitialized","inputs":[{"name":"entryPoint","type":"address","indexed":true,"internalType":"contract IEntryPoint"},{"name":"owner","type":"address","indexed":true,"internalType":"address"}],"anonymous":false},{"type":"event","name":"SpendingLimitUpdated","inputs":[{"name":"oldLimit","type":"uint256","indexed":false,"internalType":"uint256"},{"name":"newLimit","type":"uint256","indexed":false,"internalType":"uint256"}],"anonymous":false},{"type":"event","name":"Upgraded","inputs":[{"name":"implementation","type":"address","indexed":true,"internalType":"address"}],"anonymous":false},{"type":"error","name":"AddressEmptyCode","inputs":[{"name":"target","type":"address","internalType":"address"}]},{"type":"error","name":"DailyLimitExceeded","inputs":[]},{"type":"error","name":"ECDSAInvalidSignature","inputs":[]},{"type":"error","name":"ECDSAInvalidSignatureLength","inputs":[{"name":"length","type":"uint256","internalType":"uint256"}]},{"type":"error","name":"ECDSAInvalidSignatureS","inputs":[{"name":"s","type":"bytes32","internalType":"bytes32"}]},{"type":"error","name":"ERC1967InvalidImplementation","inputs":[{"name":"implementation","type":"address","internalType":"address"}]},{"type":"error","name":"ERC1967NonPayable","inputs":[]},{"type":"error","name":"ExecuteError","inputs":[{"name":"index","type":"uint256","internalType":"uint256"},{"name":"error","type":"bytes","internalType":"bytes"}]},{"type":"error","name":"FailedCall","inputs":[]},{"type":"error","name":"InsufficientGuardians","inputs":[]},{"type":"error","name":"InvalidInitialization","inputs":[]},{"type":"error","name":"InvalidRecoveryConfig","inputs":[]},{"type":"error","name":"InvalidSessionKey","inputs":[]},{"type":"error","name":"NotInitializing","inputs":[]},{"type":"error","name":"RecoveryDelayNotMet","inputs":[]},{"type":"error","name":"ReentrancyGuardReentrantCall","inputs":[]},{"type":"error","name":"SessionKeyExpired","inputs":[]},{"type":"error","name":"SessionKeyNotActive","inputs":[]},{"type":"error","name":"SpendingLimitExceeded","inputs":[]},{"type":"error","name":"UUPSUnauthorizedCallContext","inputs":[]},{"type":"error","name":"UUPSUnsupportedProxiableUUID","inputs":[{"name":"slot","type":"bytes32","internalType":"bytes32"}]},{"type":"error","name":"UnauthorizedSelector","inputs":[]},{"type":"error","name":"UnauthorizedTarget","inputs":[]}],"bytecode":{"object":"0x60e03461018157601f61344e38819003918201601f19168301916001600160401b03831184841017610185578084926040948552833981010312610181578051906001600160a01b03821682036101815760200151906001600160a01b0382168203610181573060805260a0525f51602061342e5f395f51905f525460ff8160401c16610172576002600160401b03196001600160401b0382160161011c575b5060018055678ac7230489e80000600a5560c052604051613294908161019a8239608051818181610afa0152610c22015260a051818181610597015281816108da015281816109730152818161126801528181611598015281816118d30152818161291e0152612a8c015260c051818181610f1b01526117980152f35b6001600160401b0319166001600160401b039081175f51602061342e5f395f51905f52556040519081527fc7f505b2f371ae2175ee4913f4499e1f2633a7b5936321eed1cdaeb6115181d290602090a15f61009f565b63f92ee8a960e01b5f5260045ffd5b5f80fd5b634e487b7160e01b5f52604160045260245ffdfe6080604052600436101561001a575b3615610018575f80fd5b005b5f3560e01c80628ac91d1461029857806301ffc9a71461029357806306f6e7c01461028e578063076cc519146102895780630ba234d6146102845780630bc6b89c1461027f5780630c3b1ae91461027a5780630c68ba2114610275578063150b7a021461027057806319822f7c1461026b5780631d173de81461026657806320c5a3e1146102615780632a776cef1461025c57806334fcd5be146102575780634a58db19146102525780634d44560d1461024d5780634f1ef2861461024857806352d1902d1461024357806359b3e0cc1461023e5780635b8d60a4146102395780638711a7191461023457806388c8ec951461022f5780638da5cb5b1461022a57806390112777146102255780639a56f4fb14610220578063ad1171c71461021b578063ad3cb1cc14610216578063b0d691fe14610211578063b61d27f61461020c578063bc197c8114610207578063c2288c1a14610202578063c399ec88146101fd578063c4d66de8146101f8578063c86ede5b146101f3578063c9a087fc146101ee578063cd8cd4ad146101e9578063d087d288146101e4578063df39e114146101df578063f23a6e61146101da5763fde5354d0361000e57611ae4565b611a51565b61191e565b6118a2565b611885565b611829565b61176d565b611602565b61156d565b61148e565b6112f4565b611297565b611253565b61120c565b6111c5565b6110f2565b610f71565b610f4a565b610f06565b610ebd565b610ca5565b610c67565b610c10565b610ab8565b610947565b6108cc565b610804565b6107e7565b610701565b61067e565b61055c565b610502565b610495565b610416565b6103f9565b610398565b610344565b610327565b6102b9565b346102b5575f3660031901126102b5576020600a54604051908152f35b5f80fd5b346102b55760203660031901126102b55760043563ffffffff60e01b81168091036102b557602090630a85bd0160e11b8114908115610316575b8115610305575b506040519015158152f35b6301ffc9a760e01b1490505f6102fa565b630271189760e51b811491506102f3565b346102b5575f3660031901126102b5576020600c54604051908152f35b346102b55760203660031901126102b5577fe4e627ad82929f8d194bebc5ba30f5f581551ec9e848938c8d2291e1e5536bc36040600435610383612816565b600a549080600a5582519182526020820152a1005b346102b5575f3660031901126102b5576103b0612816565b6103bd6008541515611b65565b5f6008556001600160601b0360a01b600954166009557fedd770ee01b7c0ef4f503125eafdc2725536cbf32342dffcaa300d95a7cafce35f80a1005b346102b5575f3660031901126102b5576020600b54604051908152f35b346102b55760203660031901126102b5576004355f52600260205260c060405f2060018060a01b0381541690600181015490600281015460038201549060ff6005600485015494015416936040519586526020860152604085015260608401526080830152151560a0820152f35b6001600160a01b038116036102b557565b346102b55760203660031901126102b5576004356104b281610484565b60018060a01b03165f526004602052602060ff60405f2054166040519015158152f35b9181601f840112156102b5578235916001600160401b0383116102b557602083818601950101116102b557565b346102b55760803660031901126102b55761051e600435610484565b610529602435610484565b6064356001600160401b0381116102b5576105489036906004016104d5565b5050604051630a85bd0160e11b8152602090f35b346102b55760603660031901126102b5576004356001600160401b0381116102b55761012060031982360301126102b55760243590604435907f00000000000000000000000000000000000000000000000000000000000000006001600160a01b03163303610609576105ed926105d59160040161286c565b90806105f1575b506040519081529081906020820190565b0390f35b5f80808093335af1506106026128ec565b505f6105dc565b60405162461bcd60e51b815260206004820152601c60248201527f6163636f756e743a206e6f742066726f6d20456e747279506f696e74000000006044820152606490fd5b9181601f840112156102b5578235916001600160401b0383116102b5576020808501948460051b0101116102b557565b346102b55760a03660031901126102b55760043561069b81610484565b604435906024356064356001600160401b0381116102b5576106c190369060040161064e565b60843593916001600160401b0385116102b5576105ed956106e96106f196369060040161064e565b959094611ba6565b6040519081529081906020820190565b346102b5575f3660031901126102b55761072b600854610722811515611b65565b60075490611e6c565b42106107a9575f80546009546001600160a01b031982166001600160a01b03918216179092551661075b5f600855565b600980546001600160a01b03191690555f546001600160a01b0390811616906001600160a01b03167f60f9f98be64687700419cfa6fdd7877bc88c6daeb10bc664a2be9fdd6b0c79215f80a3005b60405162461bcd60e51b8152602060048201526016602482015275149958dbdd995c9e4819195b185e481b9bdd081b595d60521b6044820152606490fd5b346102b5575f3660031901126102b55760206040516202a3008152f35b346102b55760203660031901126102b5576004356001600160401b0381116102b55761083490369060040161064e565b61083c61291b565b5f5b81811061084757005b61088d61088961088361085b848688612272565b61086481612294565b90610878602082013591604081019061229e565b93905a943691610a64565b916129ac565b1590565b6108995760010161083e565b600182145f036129d8576108ab6129be565b604051635a15467560e01b81529182916108c891600484016122d0565b0390fd5b5f5f6003193601126102b5577f00000000000000000000000000000000000000000000000000000000000000006001600160a01b0316803b156102b5575f6024916040519283809263b760faf960e01b825230600483015234905af1801561094257610936575080f35b61001891505f90610a16565b6122e7565b346102b5575f60403660031901126102b55760043561096581610484565b60243590610971612816565b7f00000000000000000000000000000000000000000000000000000000000000006001600160a01b031691823b156102b55760405163040b850f60e31b81526001600160a01b0390921660048301526024820152905f908290604490829084905af1801561094257610936575080f35b634e487b7160e01b5f52604160045260245ffd5b61010081019081106001600160401b03821117610a1157604052565b6109e1565b90601f801991011681019081106001600160401b03821117610a1157604052565b60405190610a4761010083610a16565b565b6001600160401b038111610a1157601f01601f191660200190565b929192610a7082610a49565b91610a7e6040519384610a16565b8294818452818301116102b5578281602093845f960137010152565b9080601f830112156102b557816020610ab593359101610a64565b90565b60403660031901126102b557600435610ad081610484565b6024356001600160401b0381116102b557610aef903690600401610a9a565b906001600160a01b037f000000000000000000000000000000000000000000000000000000000000000016308114908115610bee575b50610bdf57610b32612816565b6040516352d1902d60e01b8152916020836004816001600160a01b0386165afa5f9381610bae575b50610b7b57634c9c8ce360e01b5f526001600160a01b03821660045260245ffd5b905f5160206132545f395f51905f528303610b9a576100189250612c51565b632a87526960e21b5f52600483905260245ffd5b610bd191945060203d602011610bd8575b610bc98183610a16565b810190612807565b925f610b5a565b503d610bbf565b63703e46dd60e11b5f5260045ffd5b5f5160206132545f395f51905f52546001600160a01b0316141590505f610b25565b346102b5575f3660031901126102b5577f00000000000000000000000000000000000000000000000000000000000000006001600160a01b03163003610bdf5760206040515f5160206132545f395f51905f528152f35b346102b5575f3660031901126102b557608060065460075460085460018060a01b036009541691604051938452602084015260408301526060820152f35b346102b55760403660031901126102b557600435610cc281610484565b6024356001600160401b0381116102b557610ce190369060040161064e565b6001600160a01b0383169291610cf88415156122f2565b610d06600654831015612332565b604051675245434f5645525960c01b602082019081526bffffffffffffffffffffffff1930606090811b8216602885015286901b16603c83015242605080840191909152825290610d58607082610a16565b51902090610d658361237e565b925f5b818110610dcf5786610d9a87610d7d42600855565b60018060a01b03166001600160601b0360a01b6009541617600955565b7f8a9bdbd6fa6536bd7e02875d089a0604de2d92780294abc78536d93fd6c95b7c610dca6106f160075442611e6c565b0390a2005b610e1e610e03857f19457468657265756d205369676e6564204d6573736167653a0a3332000000005f52601c52603c5f2090565b610e18610e118486886123b0565b3691610a64565b906129e8565b6001600160a01b0381165f90815260046020526040902054610e429060ff166123cb565b6001600160a01b0381165f5b87848210610e8057610e7a925084600195949250610e6b9161240a565b6001600160a01b039091169052565b01610d68565b90610eb783610eb0610ea4610e978560019761240a565b516001600160a01b031690565b6001600160a01b031690565b141561241e565b01610e4e565b346102b5575f3660031901126102b55760c0600a54600b54600c5460055460065491600854151593604051958652602086015260408501526060840152608083015260a0820152f35b346102b5575f3660031901126102b5576040517f00000000000000000000000000000000000000000000000000000000000000006001600160a01b03168152602090f35b346102b5575f3660031901126102b5575f546040516001600160a01b039091168152602090f35b346102b55760403660031901126102b5576004356001600160401b0381116102b557610fa190369060040161064e565b60243591610fad612816565b82821015806110e9575b610fc09061245d565b610fcd600a83111561249d565b5f5b60055481101561102c578061102661101c611003610fee6001956117f7565b905460039190911b1c6001600160a01b031690565b6001600160a01b03165f90815260046020526040902090565b805460ff19169055565b01610fcf565b50906110366124de565b5f5b8181106110545761104884600655565b6100186202a300600755565b80611077611070610ea461106b600195878961251f565b612294565b15156123cb565b61108d61108861106b83868861251f565b61252f565b6110ae6110a161100361106b84878961251f565b805460ff19166001179055565b6110bf610ea461106b83868861251f565b7f038596bb31e2e7d3d9f184d4c98b310103f6d7f5830e5eec32bffe6f1728f9695f80a201611038565b50821515610fb7565b346102b55760203660031901126102b55760043561110e612816565b805f52600260205260ff600560405f200154161561118757611148600561113d835f52600260205260405f2090565b01805460ff19169055565b5f818152600260205260408120546001600160a01b031691907fc240baaf2b7ecd3a8a4389c800eae96d53b8945f894787277cec33f693d820da9080a3005b60405162461bcd60e51b815260206004820152601660248201527553657373696f6e206b6579206e6f742061637469766560501b6044820152606490fd5b346102b5575f3660031901126102b5576020604051683635c9adc5dea000008152f35b805180835260209291819084018484015e5f828201840152601f01601f1916010190565b346102b5575f3660031901126102b5576105ed60405161122d604082610a16565b60058152640352e302e360dc1b60208201526040519182916020835260208301906111e8565b346102b5575f3660031901126102b5576040517f00000000000000000000000000000000000000000000000000000000000000006001600160a01b03168152602090f35b346102b55760603660031901126102b5576004356112b481610484565b604435906024356001600160401b0383116102b5576112ee6112dd6100189436906004016104d5565b6112e561291b565b610e11846129f5565b91612a4d565b346102b55760a03660031901126102b557611310600435610484565b61131b602435610484565b6044356001600160401b0381116102b55761133a90369060040161064e565b50506064356001600160401b0381116102b55761135b90369060040161064e565b50506084356001600160401b0381116102b55761137c9036906004016104d5565b505060405163bc197c8160e01b8152602090f35b90602080835192838152019201905f5b8181106113ad5750505090565b82516001600160a01b03168452602093840193909201916001016113a0565b90602080835192838152019201905f5b8181106113e95750505090565b82516001600160e01b0319168452602093840193909201916001016113dc565b90610ab5916020815260018060a01b038251166020820152602082015160408201526040820151606082015260608201516080820152608082015160a082015261145c60a083015160c083019015159052565b60e061147860c084015161010083850152610120840190611390565b92015190610100601f19828503019101526113cc565b346102b55760203660031901126102b557600435606060e06040516114b2816109f5565b5f81525f60208201525f60408201525f838201525f60808201525f60a08201528260c082015201525f5260026020526105ed60405f2061155c60076114f5610a37565b83546001600160a01b03168152926001810154602085015260028101546040850152600381015460608501526004810154608085015261154561153c600583015460ff1690565b151560a0860152565b61155160068201612594565b60c0850152016125e5565b60e082015260405191829182611409565b346102b5575f3660031901126102b5576040516370a0823160e01b81523060048201526020816024817f00000000000000000000000000000000000000000000000000000000000000006001600160a01b03165afa8015610942576105ed915f916115e357506040519081529081906020820190565b6115fc915060203d602011610bd857610bc98183610a16565b5f6105dc565b346102b55760203660031901126102b55760043561161f81610484565b5f5160206132745f395f51905f5254906001600160401b0361165060ff604085901c1615936001600160401b031690565b1680159081611765575b600114908161175b575b159081611752575b50611743576116af90826116a660016001600160401b03195f5160206132745f395f51905f525416175f5160206132745f395f51905f5255565b61170e57612a6c565b6116b557005b6116df60ff60401b195f5160206132745f395f51905f5254165f5160206132745f395f51905f5255565b604051600181527fc7f505b2f371ae2175ee4913f4499e1f2633a7b5936321eed1cdaeb6115181d290602090a1005b61173e600160401b60ff60401b195f5160206132745f395f51905f525416175f5160206132745f395f51905f5255565b612a6c565b63f92ee8a960e01b5f5260045ffd5b9050155f61166c565b303b159150611664565b83915061165a565b346102b5575f3660031901126102b557604051632dfe9f3f60e21b81523060048201526020816024817f00000000000000000000000000000000000000000000000000000000000000006001600160a01b03165afa8015610942576105ed915f916115e357506040519081529081906020820190565b634e487b7160e01b5f52603260045260245ffd5b60055481101561180f5760055f5260205f2001905f90565b6117e3565b805482101561180f575f5260205f2001905f90565b346102b55760403660031901126102b55760043561184681610484565b6001600160a01b03165f908152600360205260409020805460243591908210156102b55760209161187691611814565b90549060031b1c604051908152f35b346102b5575f3660031901126102b557602060405162278d008152f35b346102b5575f3660031901126102b557604051631aab3f0d60e11b81523060048201525f60248201526020816044817f00000000000000000000000000000000000000000000000000000000000000006001600160a01b03165afa8015610942576105ed915f916115e357506040519081529081906020820190565b60603660031901126102b5576004356001600160401b0381116102b55761194990369060040161064e565b6024356001600160401b0381116102b55761196890369060040161064e565b92906044356001600160401b0381116102b55761198990369060040161064e565b9285851480611a48575b15611a0b575f805b8782106119eb576119ac91506129f5565b5f5b8581106119b757005b806119e56119cb61106b6001948a8761251f565b6119d6838b8961251f565b356112ee610e11858b8a6123b0565b016119ae565b611a036001916119fc848b8961251f565b3590611e6c565b91019061199b565b60405162461bcd60e51b8152602060048201526015602482015274082e4e4c2f240d8cadccee8d040dad2e6dac2e8c6d605b1b6044820152606490fd5b50838514611993565b346102b55760a03660031901126102b557611a6d600435610484565b611a78602435610484565b6084356001600160401b0381116102b557611a979036906004016104d5565b505060405163f23a6e6160e01b8152602090f35b60206040818301928281528451809452019201905f5b818110611ace5750505090565b8251845260209384019390920191600101611ac1565b346102b55760203660031901126102b557600435611b0181610484565b60018060a01b03165f52600360205260405f206040519081602082549182815201915f5260205f20905f5b818110611b4f576105ed85611b4381870382610a16565b60405191829182611aab565b8254845260209093019260019283019201611b2c565b15611b6c57565b60405162461bcd60e51b81526020600482015260126024820152714e6f20616374697665207265636f7665727960701b6044820152606490fd5b959391611bb1612816565b6001600160a01b03871695611bc7871515611d04565b611bdc683635c9adc5dea00000841115611d41565b611beb62278d00831115611d8d565b611bf6841515611dcd565b604051602081019080611c0d878988428f88611e0e565b03601f1981018252611c1f9082610a16565b5190209788968792611c318542611e6c565b91611c3a610a37565b6001600160a01b038516815292602084018890525f60408501526060840152426080840152600160a0840152611c7136898b611ea4565b60c08401523690611c8192611efa565b60e0820152611c98835f52600260205260405f2090565b90611ca29161215b565b6001600160a01b03165f90815260036020526040902090611cc2916121e8565b611ccc9042611e6c565b91604051938493611cdd938561221c565b037fd4d35b5daaefdb7aedf04df9bb8c8d487b1fa4fd5cffa99940ca655ca0ea2d3891a390565b15611d0b57565b60405162461bcd60e51b815260206004820152600e60248201526d24b73b30b634b21039b4b3b732b960911b6044820152606490fd5b15611d4857565b60405162461bcd60e51b815260206004820152601760248201527f5370656e64696e67206c696d697420746f6f20686967680000000000000000006044820152606490fd5b15611d9457565b60405162461bcd60e51b81526020600482015260116024820152704475726174696f6e20746f6f206c6f6e6760781b6044820152606490fd5b15611dd457565b60405162461bcd60e51b81526020600482015260126024820152714e6f20616c6c6f776564207461726765747360701b6044820152606490fd5b91605493919594956001600160601b03199060601b168352601483015260348201520191905f5b818110611e425750505090565b9091926020806001928635611e5681610484565b848060a01b031681520194019101919091611e35565b91908201809211611e7957565b634e487b7160e01b5f52601160045260245ffd5b6001600160401b038111610a115760051b60200190565b929190611eb081611e8d565b93611ebe6040519586610a16565b602085838152019160051b81019283116102b557905b828210611ee057505050565b602080918335611eef81610484565b815201910190611ed4565b9291611f0582611e8d565b93611f136040519586610a16565b602085848152019260051b81019182116102b557915b818310611f3557505050565b82356001600160e01b0319811681036102b557815260209283019201611f29565b818110611f61575050565b5f8155600101611f56565b8151916001600160401b038311610a1157600160401b8311610a11576020908254848455808510611fcd575b5001905f5260205f205f5b838110611fb05750505050565b82516001600160a01b031681830155602090920191600101611fa3565b611fe290845f5285845f209182019101611f56565b5f611f98565b90600160401b8111610a1157815481835580821061200557505050565b610a47925f52600760205f2091601c82850160031c84019460021b1680612033575b500160031c0190611f56565b5f198501908154905f199060200360031b1c1690555f612027565b908051906001600160401b038211610a1157602061207b916120708486611fe8565b01925f5260205f2090565b8160031c915f5b8381106121015750600719811690038061209d575b50505050565b925f935f5b8181106120b75750505001555f808080612097565b90919460206120f76001926120dc6120d68a5163ffffffff60e01b1690565b60e01c90565b908560021b63ffffffff809160031b9316831b921b19161790565b96019291016120a2565b5f5f5b60088110612119575083820155600101612082565b959060206121526001926121376120d6865163ffffffff60e01b1690565b908a60021b63ffffffff809160031b9316831b921b19161790565b92019601612104565b815181546001600160a01b0319166001600160a01b03909116178155610a479160079060e090602081015160018501556040810151600285015560608101516003850155608081015160048501556121ce6121b960a0830151151590565b600586019060ff801983541691151516179055565b6121df60c082015160068601611f6c565b0151910161204e565b8054600160401b811015610a115761220591600182018155611814565b819291549060031b91821b915f19901b1916179055565b90815260208101919091526060604082018190528101839052608001915f5b8181106122485750505090565b909192602080600192863561225c81610484565b848060a01b03168152019401910191909161223b565b919081101561180f5760051b81013590605e19813603018212156102b5570190565b35610ab581610484565b903590601e19813603018212156102b557018035906001600160401b0382116102b5576020019181360383136102b557565b604090610ab59392815281602082015201906111e8565b6040513d5f823e3d90fd5b156122f957565b60405162461bcd60e51b815260206004820152601160248201527024b73b30b634b2103732bb9037bbb732b960791b6044820152606490fd5b1561233957565b60405162461bcd60e51b815260206004820152601760248201527f496e73756666696369656e74207369676e6174757265730000000000000000006044820152606490fd5b9061238882611e8d565b6123956040519182610a16565b82815280926123a6601f1991611e8d565b0190602036910137565b9082101561180f576123c79160051b81019061229e565b9091565b156123d257565b60405162461bcd60e51b815260206004820152601060248201526f24b73b30b634b21033bab0b93234b0b760811b6044820152606490fd5b805182101561180f5760209160051b010190565b1561242557565b60405162461bcd60e51b815260206004820152601060248201526f223ab83634b1b0ba329039b4b3b732b960811b6044820152606490fd5b1561246457565b60405162461bcd60e51b8152602060048201526011602482015270125b9d985b1a59081d1a1c995cda1bdb19607a1b6044820152606490fd5b156124a457565b60405162461bcd60e51b8152602060048201526012602482015271546f6f206d616e7920677561726469616e7360701b6044820152606490fd5b6005545f600555806124ed5750565b60055f52610a47907f036b6384b5eca791c62761152d0c79bb0604c104a5fb6f4eb0703f3154bb3db090810190611f56565b919081101561180f5760051b0190565b600554600160401b811015610a11576001810160055560055481101561180f5760055f527f036b6384b5eca791c62761152d0c79bb0604c104a5fb6f4eb0703f3154bb3db00180546001600160a01b0319166001600160a01b03909216919091179055565b90604051918281549182825260208201905f5260205f20925f5b8181106125c3575050610a4792500383610a16565b84546001600160a01b03168352600194850194879450602090930192016125ae565b6040518154808252909291839061260360208301915f5260205f2090565b925f905b80600783011061274a57610a4794549181811061272b575b81811061270c575b8181106126ed575b8181106126ce575b8181106126af575b818110612690575b818110612672575b1061265d575b500383610a16565b6001600160e01b03191681526020015f612655565b602083811b6001600160e01b0319168552909360019101930161264f565b604083901b6001600160e01b0319168452926001906020019301612647565b606083901b6001600160e01b031916845292600190602001930161263f565b608083901b6001600160e01b0319168452926001906020019301612637565b60a083901b6001600160e01b031916845292600190602001930161262f565b60c083901b6001600160e01b0319168452926001906020019301612627565b6001600160e01b031960e084901b16845292600190602001930161261f565b9160089193506101006001916127f98754612770838260e01b63ffffffff60e01b169052565b60c081901b6001600160e01b031916602084015260a081901b6001600160e01b0319166040840152608081901b6001600160e01b0319166060840152606081901b6001600160e01b0319166080840152604081901b6001600160e01b03191660a0840152602081901b6001600160e01b03191660c08401526001600160e01b03191660e0830152565b019401920185929391612607565b908160209103126102b5575190565b5f546001600160a01b031633148015612863575b1561283157565b60405162461bcd60e51b815260206004820152600a60248201526937b7363c9037bbb732b960b11b6044820152606490fd5b5030331461282a565b9061289e907f19457468657265756d205369676e6564204d6573736167653a0a3332000000005f52601c52603c5f2090565b5f546001600160a01b03166128cf6128c66128c0610e1161010087018761229e565b84612cf3565b90929192612d4b565b6001600160a01b0316146128e657610ab591612b45565b50505f90565b3d15612916573d906128fd82610a49565b9161290b6040519384610a16565b82523d5f602084013e565b606090565b337f00000000000000000000000000000000000000000000000000000000000000006001600160a01b0316148015612999575b1561295557565b606460405162461bcd60e51b815260206004820152602060248201527f6163636f756e743a206e6f74204f776e6572206f7220456e747279506f696e746044820152fd5b505f546001600160a01b0316331461294e565b925f939184939260208451940192f190565b3d604051906020818301016040528082525f602083013e90565b6129e06129be565b602081519101fd5b610ab5916128c691612cf3565b600c54620151808101809111611e7957421015612a40575b600b5490612a1b8183611e6c565b600a5410612a3157612a2c91611e6c565b600b55565b630652f4c560e21b5f5260045ffd5b5f600b5542600c55612a0d565b915f928392602083519301915af1612a636128ec565b90156129e05750565b5f80546001600160a01b0319166001600160a01b039283169081178255917f000000000000000000000000000000000000000000000000000000000000000016907f47e55c76e7a6f1fd8996a1da8008c1ea29699cca35e7bcd057f2dec313b6e5de9080a3565b906041116102b55790604190565b90929192836041116102b55783116102b557604101916040190190565b906004116102b55790600490565b90929192836004116102b55783116102b557600401916003190190565b359060208110612b37575090565b5f199060200360031b1b1690565b6101008101916061612b57848461229e565b905010612c4957612ba2612b94612b8e612b87612b80610e11612b7a898961229e565b90612ad3565b968661229e565b8091612ae1565b90612b29565b5f52600260205260405f2090565b92612bb4610889600586015460ff1690565b8015612c3c575b8015612c2f575b612c2657612bcf916129e8565b8254612be3906001600160a01b0316610ea4565b6001600160a01b0390911603612c1f5761088982612c0092612f7c565b612c19576003015460a01b65ffffffffffff60a01b1690565b50600190565b5050600190565b50505050600190565b5060048401544210612bc2565b5060038401544211612bbb565b505050600190565b90813b15612cd2575f5160206132545f395f51905f5280546001600160a01b0319166001600160a01b0384169081179091557fbc7cd75a20ee27fd9adebab32041f755214dbc6bffa90cc0225b39da2e5c2d3b5f80a2805115612cba57612cb7916130aa565b50565b505034612cc357565b63b398979f60e01b5f5260045ffd5b50634c9c8ce360e01b5f9081526001600160a01b0391909116600452602490fd5b8151919060418303612d2357612d1c9250602082015190606060408401519301515f1a906130c7565b9192909190565b50505f9160029190565b60041115612d3757565b634e487b7160e01b5f52602160045260245ffd5b612d5481612d2d565b80612d5d575050565b612d6681612d2d565b60018103612d7d5763f645eedf60e01b5f5260045ffd5b612d8681612d2d565b60028103612da1575063fce698f760e01b5f5260045260245ffd5b80612dad600392612d2d565b14612db55750565b6335e2f38360e21b5f5260045260245ffd5b356001600160e01b0319811692919060048210612de2575050565b6001600160e01b031960049290920360031b82901b16169150565b9080601f830112156102b5578135612e1481611e8d565b92612e226040519485610a16565b81845260208085019260051b820101918383116102b55760208201905b838210612e4e57505050505090565b81356001600160401b0381116102b557602091612e7087848094880101610a9a565b815201910190612e3f565b916060838303126102b55782356001600160401b0381116102b557830182601f820112156102b55782816020612eb393359101611ea4565b9260208101356001600160401b0381116102b557810183601f820112156102b557803590612ee082611e8d565b91612eee6040519384610a16565b80835260208084019160051b830101918683116102b557602001905b828210612f32575050509260408201356001600160401b0381116102b557610ab59201612dfd565b8135815260209182019101612f0a565b916060838303126102b5578235612f5881610484565b9260208101359260408201356001600160401b0381116102b557610ab59201610a9a565b606081016004612f8c828461229e565b9050106130a35781612fbb612fab612fa584879661229e565b90612afe565b6001600160e01b03199291612dc7565b16635b0e93fb60e11b81036130145750612fe5612fde612fff93612fed9361229e565b8091612b0c565b810190612f42565b94916001600160a01b03169050613149565b918261300a57505090565b610ab59250613186565b9092506337ce784560e21b1461302b575050505f90565b612fde61303b916130439361229e565b810190612e7b565b919290505f5b8351811015612c265761306b61088983613066610e97858961240a565b613149565b8015613086575b61307e57600101613049565b505050505f90565b5061309e61088983613098848761240a565b51613186565b613072565b5050505f90565b5f80610ab593602081519101845af46130c16128ec565b916131f5565b91907f7fffffffffffffffffffffffffffffff5d576e7357a4501ddfe92f46681b20a0841161313e579160209360809260ff5f9560405194855216868401526040830152606082015282805260015afa15610942575f516001600160a01b0381161561313457905f905f90565b505f906001905f90565b5050505f9160039190565b5f5b60068301805482101561307e578161316291611814565b905460039190911b1c6001600160a01b0390811690831614612c495760010161314b565b60048151106128e657602001516001600160e01b0319165f5b60078301805482101561307e57805482101561180f575f52816131e86131db60205f208460031c01601c8560021b1690549060031b1c60e01b90565b6001600160e01b03191690565b14612c495760010161319f565b90613219575080511561320a57602081519101fd5b63d6bda27560e01b5f5260045ffd5b8151158061324a575b61322a575090565b639996b31560e01b5f9081526001600160a01b0391909116600452602490fd5b50803b1561322256fe360894a13ba1a3210667c828492db98dca3e2076cc3735a920a3ca505d382bbcf0c57e16840df040f15088dc2f81fe391c3923bec73e23a9662efc9c229c6a00f0c57e16840df040f15088dc2f81fe391c3923bec73e23a9662efc9c229c6a00","linkReferences":{}},"methodIdentifiers":{"MAX_SESSION_DURATION()":"cd8cd4ad","MAX_SESSION_SPENDING()":"ad1171c7","MIN_RECOVERY_DELAY()":"2a776cef","UPGRADE_INTERFACE_VERSION()":"ad3cb1cc","addDeposit()":"4a58db19","cancelRecovery()":"0ba234d6","createSessionKey(address,uint256,uint256,address[],bytes4[])":"1d173de8","dailySpendingLimit()":"008ac91d","dailySpent()":"0bc6b89c","dashToken()":"88c8ec95","entryPoint()":"b0d691fe","execute(address,uint256,bytes)":"b61d27f6","executeBatch((address,uint256,bytes)[])":"34fcd5be","executeBatchTransactions(address[],uint256[],bytes[])":"df39e114","executeRecovery()":"20c5a3e1","getDashFeeDiscount()":"c86ede5b","getDeposit()":"c399ec88","getNonce()":"d087d288","getSecurityInfo()":"8711a719","getSessionKey(bytes32)":"c2288c1a","getSessionKeys(address)":"fde5354d","initialize(address)":"c4d66de8","initializeRecovery(address[],uint256)":"90112777","initiateRecovery(address,bytes[])":"5b8d60a4","isGuardian(address)":"0c68ba21","lastSpendingReset()":"06f6e7c0","onERC1155BatchReceived(address,address,uint256[],uint256[],bytes)":"bc197c81","onERC1155Received(address,address,uint256,uint256,bytes)":"f23a6e61","onERC721Received(address,address,uint256,bytes)":"150b7a02","owner()":"8da5cb5b","proxiableUUID()":"52d1902d","recoveryConfig()":"59b3e0cc","revokeSessionKey(bytes32)":"9a56f4fb","sessionKeys(bytes32)":"0c3b1ae9","setDailySpendingLimit(uint256)":"076cc519","supportsInterface(bytes4)":"01ffc9a7","upgradeToAndCall(address,bytes)":"4f1ef286","userSessionKeys(address,uint256)":"c9a087fc","validateUserOp((address,uint256,bytes,bytes,bytes32,uint256,bytes32,bytes,bytes),bytes32,uint256)":"19822f7c","withdrawDepositTo(address,uint256)":"4d44560d"},"id":94}