{"abi":[{"type":"constructor","inputs":[{"name":"_token0","type":"address","internalType":"address"},{"name":"_token1","type":"address","internalType":"address"},{"name":"_dashToken","type":"address","internalType":"address"},{"name":"_feeCollector","type":"address","internalType":"address"},{"name":"initialOwner","type":"address","internalType":"address"}],"stateMutability":"nonpayable"},{"type":"function","name":"BASE_FEE","inputs":[],"outputs":[{"name":"","type":"uint256","internalType":"uint256"}],"stateMutability":"view"},{"type":"function","name":"FEE_DENOMINATOR","inputs":[],"outputs":[{"name":"","type":"uint256","internalType":"uint256"}],"stateMutability":"view"},{"type":"function","name":"MINIMUM_LIQUIDITY","inputs":[],"outputs":[{"name":"","type":"uint256","internalType":"uint256"}],"stateMutability":"view"},{"type":"function","name":"PRECISION","inputs":[],"outputs":[{"name":"","type":"uint256","internalType":"uint256"}],"stateMutability":"view"},{"type":"function","name":"TWAP_PERIOD","inputs":[],"outputs":[{"name":"","type":"uint256","internalType":"uint256"}],"stateMutability":"view"},{"type":"function","name":"addLiquidity","inputs":[{"name":"token0Amount","type":"uint256","internalType":"uint256"},{"name":"token1Amount","type":"uint256","internalType":"uint256"},{"name":"token0AmountMin","type":"uint256","internalType":"uint256"},{"name":"token1AmountMin","type":"uint256","internalType":"uint256"},{"name":"to","type":"address","internalType":"address"},{"name":"deadline","type":"uint256","internalType":"uint256"}],"outputs":[{"name":"amountA","type":"uint256","internalType":"uint256"},{"name":"amountB","type":"uint256","internalType":"uint256"},{"name":"liquidity","type":"uint256","internalType":"uint256"}],"stateMutability":"nonpayable"},{"type":"function","name":"allowance","inputs":[{"name":"owner","type":"address","internalType":"address"},{"name":"spender","type":"address","internalType":"address"}],"outputs":[{"name":"","type":"uint256","internalType":"uint256"}],"stateMutability":"view"},{"type":"function","name":"approve","inputs":[{"name":"spender","type":"address","internalType":"address"},{"name":"value","type":"uint256","internalType":"uint256"}],"outputs":[{"name":"","type":"bool","internalType":"bool"}],"stateMutability":"nonpayable"},{"type":"function","name":"balanceOf","inputs":[{"name":"account","type":"address","internalType":"address"}],"outputs":[{"name":"","type":"uint256","internalType":"uint256"}],"stateMutability":"view"},{"type":"function","name":"burn","inputs":[{"name":"to","type":"address","internalType":"address"}],"outputs":[{"name":"amount0","type":"uint256","internalType":"uint256"},{"name":"amount1","type":"uint256","internalType":"uint256"}],"stateMutability":"nonpayable"},{"type":"function","name":"dashToken","inputs":[],"outputs":[{"name":"","type":"address","internalType":"contract DashToken"}],"stateMutability":"view"},{"type":"function","name":"decimals","inputs":[],"outputs":[{"name":"","type":"uint8","internalType":"uint8"}],"stateMutability":"view"},{"type":"function","name":"factory","inputs":[],"outputs":[{"name":"","type":"address","internalType":"address"}],"stateMutability":"view"},{"type":"function","name":"feeCollector","inputs":[],"outputs":[{"name":"","type":"address","internalType":"address"}],"stateMutability":"view"},{"type":"function","name":"flashLoan","inputs":[{"name":"recipient","type":"address","internalType":"address"},{"name":"amount0","type":"uint256","internalType":"uint256"},{"name":"amount1","type":"uint256","internalType":"uint256"},{"name":"data","type":"bytes","internalType":"bytes"}],"outputs":[],"stateMutability":"nonpayable"},{"type":"function","name":"flashLoanFee","inputs":[],"outputs":[{"name":"","type":"uint256","internalType":"uint256"}],"stateMutability":"view"},{"type":"function","name":"flashLoansEnabled","inputs":[],"outputs":[{"name":"","type":"bool","internalType":"bool"}],"stateMutability":"view"},{"type":"function","name":"getAmountIn","inputs":[{"name":"amountOut","type":"uint256","internalType":"uint256"},{"name":"reserveIn","type":"uint256","internalType":"uint256"},{"name":"reserveOut","type":"uint256","internalType":"uint256"},{"name":"trader","type":"address","internalType":"address"}],"outputs":[{"name":"amountIn","type":"uint256","internalType":"uint256"}],"stateMutability":"view"},{"type":"function","name":"getAmountOut","inputs":[{"name":"amountIn","type":"uint256","internalType":"uint256"},{"name":"reserveIn","type":"uint256","internalType":"uint256"},{"name":"reserveOut","type":"uint256","internalType":"uint256"},{"name":"trader","type":"address","internalType":"address"}],"outputs":[{"name":"amountOut","type":"uint256","internalType":"uint256"}],"stateMutability":"view"},{"type":"function","name":"getPrice","inputs":[],"outputs":[{"name":"price","type":"uint256","internalType":"uint256"}],"stateMutability":"view"},{"type":"function","name":"getReserves","inputs":[],"outputs":[{"name":"_reserve0","type":"uint112","internalType":"uint112"},{"name":"_reserve1","type":"uint112","internalType":"uint112"},{"name":"_blockTimestampLast","type":"uint32","internalType":"uint32"}],"stateMutability":"view"},{"type":"function","name":"getTWAPPrice","inputs":[{"name":"period","type":"uint256","internalType":"uint256"}],"outputs":[{"name":"price0Average","type":"uint256","internalType":"uint256"},{"name":"price1Average","type":"uint256","internalType":"uint256"}],"stateMutability":"view"},{"type":"function","name":"lastRewardTime","inputs":[{"name":"","type":"address","internalType":"address"}],"outputs":[{"name":"","type":"uint256","internalType":"uint256"}],"stateMutability":"view"},{"type":"function","name":"maxSwapImpact","inputs":[],"outputs":[{"name":"","type":"uint256","internalType":"uint256"}],"stateMutability":"view"},{"type":"function","name":"mint","inputs":[{"name":"to","type":"address","internalType":"address"}],"outputs":[{"name":"liquidity","type":"uint256","internalType":"uint256"}],"stateMutability":"nonpayable"},{"type":"function","name":"name","inputs":[],"outputs":[{"name":"","type":"string","internalType":"string"}],"stateMutability":"view"},{"type":"function","name":"owner","inputs":[],"outputs":[{"name":"","type":"address","internalType":"address"}],"stateMutability":"view"},{"type":"function","name":"paused","inputs":[],"outputs":[{"name":"","type":"bool","internalType":"bool"}],"stateMutability":"view"},{"type":"function","name":"pendingRewards","inputs":[{"name":"","type":"address","internalType":"address"}],"outputs":[{"name":"","type":"uint256","internalType":"uint256"}],"stateMutability":"view"},{"type":"function","name":"protocolFee","inputs":[],"outputs":[{"name":"","type":"uint256","internalType":"uint256"}],"stateMutability":"view"},{"type":"function","name":"removeLiquidity","inputs":[{"name":"liquidity","type":"uint256","internalType":"uint256"},{"name":"token0AmountMin","type":"uint256","internalType":"uint256"},{"name":"token1AmountMin","type":"uint256","internalType":"uint256"},{"name":"to","type":"address","internalType":"address"},{"name":"deadline","type":"uint256","internalType":"uint256"}],"outputs":[{"name":"amount0","type":"uint256","internalType":"uint256"},{"name":"amount1","type":"uint256","internalType":"uint256"}],"stateMutability":"nonpayable"},{"type":"function","name":"renounceOwnership","inputs":[],"outputs":[],"stateMutability":"nonpayable"},{"type":"function","name":"reserves","inputs":[],"outputs":[{"name":"reserve0","type":"uint112","internalType":"uint112"},{"name":"reserve1","type":"uint112","internalType":"uint112"},{"name":"blockTimestampLast","type":"uint32","internalType":"uint32"}],"stateMutability":"view"},{"type":"function","name":"rewardRate","inputs":[],"outputs":[{"name":"","type":"uint256","internalType":"uint256"}],"stateMutability":"view"},{"type":"function","name":"setFlashLoanFee","inputs":[{"name":"newFee","type":"uint256","internalType":"uint256"}],"outputs":[],"stateMutability":"nonpayable"},{"type":"function","name":"setFlashLoansEnabled","inputs":[{"name":"enabled","type":"bool","internalType":"bool"}],"outputs":[],"stateMutability":"nonpayable"},{"type":"function","name":"setMaxSwapImpact","inputs":[{"name":"newImpact","type":"uint256","internalType":"uint256"}],"outputs":[],"stateMutability":"nonpayable"},{"type":"function","name":"setPaused","inputs":[{"name":"paused","type":"bool","internalType":"bool"}],"outputs":[],"stateMutability":"nonpayable"},{"type":"function","name":"setProtocolFee","inputs":[{"name":"newFee","type":"uint256","internalType":"uint256"}],"outputs":[],"stateMutability":"nonpayable"},{"type":"function","name":"skim","inputs":[{"name":"to","type":"address","internalType":"address"}],"outputs":[],"stateMutability":"nonpayable"},{"type":"function","name":"swap","inputs":[{"name":"amount0Out","type":"uint256","internalType":"uint256"},{"name":"amount1Out","type":"uint256","internalType":"uint256"},{"name":"to","type":"address","internalType":"address"},{"name":"data","type":"bytes","internalType":"bytes"}],"outputs":[],"stateMutability":"nonpayable"},{"type":"function","name":"swapExactTokensForTokens","inputs":[{"name":"amountIn","type":"uint256","internalType":"uint256"},{"name":"amountOutMin","type":"uint256","internalType":"uint256"},{"name":"tokenIn","type":"address","internalType":"address"},{"name":"to","type":"address","internalType":"address"},{"name":"deadline","type":"uint256","internalType":"uint256"}],"outputs":[{"name":"amountOut","type":"uint256","internalType":"uint256"}],"stateMutability":"nonpayable"},{"type":"function","name":"symbol","inputs":[],"outputs":[{"name":"","type":"string","internalType":"string"}],"stateMutability":"view"},{"type":"function","name":"sync","inputs":[],"outputs":[],"stateMutability":"nonpayable"},{"type":"function","name":"token0","inputs":[],"outputs":[{"name":"","type":"address","internalType":"contract IERC20"}],"stateMutability":"view"},{"type":"function","name":"token1","inputs":[],"outputs":[{"name":"","type":"address","internalType":"contract IERC20"}],"stateMutability":"view"},{"type":"function","name":"totalRewardsDistributed","inputs":[],"outputs":[{"name":"","type":"uint256","internalType":"uint256"}],"stateMutability":"view"},{"type":"function","name":"totalSupply","inputs":[],"outputs":[{"name":"","type":"uint256","internalType":"uint256"}],"stateMutability":"view"},{"type":"function","name":"transfer","inputs":[{"name":"to","type":"address","internalType":"address"},{"name":"value","type":"uint256","internalType":"uint256"}],"outputs":[{"name":"","type":"bool","internalType":"bool"}],"stateMutability":"nonpayable"},{"type":"function","name":"transferFrom","inputs":[{"name":"from","type":"address","internalType":"address"},{"name":"to","type":"address","internalType":"address"},{"name":"value","type":"uint256","internalType":"uint256"}],"outputs":[{"name":"","type":"bool","internalType":"bool"}],"stateMutability":"nonpayable"},{"type":"function","name":"transferOwnership","inputs":[{"name":"newOwner","type":"address","internalType":"address"}],"outputs":[],"stateMutability":"nonpayable"},{"type":"function","name":"twapData","inputs":[],"outputs":[{"name":"price0CumulativeLast","type":"uint256","internalType":"uint256"},{"name":"price1CumulativeLast","type":"uint256","internalType":"uint256"},{"name":"kLast","type":"uint256","internalType":"uint256"}],"stateMutability":"view"},{"type":"event","name":"Approval","inputs":[{"name":"owner","type":"address","indexed":true,"internalType":"address"},{"name":"spender","type":"address","indexed":true,"internalType":"address"},{"name":"value","type":"uint256","indexed":false,"internalType":"uint256"}],"anonymous":false},{"type":"event","name":"Burn","inputs":[{"name":"sender","type":"address","indexed":true,"internalType":"address"},{"name":"amount0","type":"uint256","indexed":false,"internalType":"uint256"},{"name":"amount1","type":"uint256","indexed":false,"internalType":"uint256"},{"name":"to","type":"address","indexed":true,"internalType":"address"}],"anonymous":false},{"type":"event","name":"FlashLoan","inputs":[{"name":"borrower","type":"address","indexed":true,"internalType":"address"},{"name":"amount","type":"uint256","indexed":false,"internalType":"uint256"},{"name":"fee","type":"uint256","indexed":false,"internalType":"uint256"}],"anonymous":false},{"type":"event","name":"Mint","inputs":[{"name":"sender","type":"address","indexed":true,"internalType":"address"},{"name":"amount0","type":"uint256","indexed":false,"internalType":"uint256"},{"name":"amount1","type":"uint256","indexed":false,"internalType":"uint256"}],"anonymous":false},{"type":"event","name":"OwnershipTransferred","inputs":[{"name":"previousOwner","type":"address","indexed":true,"internalType":"address"},{"name":"newOwner","type":"address","indexed":true,"internalType":"address"}],"anonymous":false},{"type":"event","name":"Paused","inputs":[{"name":"account","type":"address","indexed":false,"internalType":"address"}],"anonymous":false},{"type":"event","name":"Swap","inputs":[{"name":"sender","type":"address","indexed":true,"internalType":"address"},{"name":"amount0In","type":"uint256","indexed":false,"internalType":"uint256"},{"name":"amount1In","type":"uint256","indexed":false,"internalType":"uint256"},{"name":"amount0Out","type":"uint256","indexed":false,"internalType":"uint256"},{"name":"amount1Out","type":"uint256","indexed":false,"internalType":"uint256"},{"name":"to","type":"address","indexed":true,"internalType":"address"}],"anonymous":false},{"type":"event","name":"Sync","inputs":[{"name":"reserve0","type":"uint112","indexed":false,"internalType":"uint112"},{"name":"reserve1","type":"uint112","indexed":false,"internalType":"uint112"}],"anonymous":false},{"type":"event","name":"Transfer","inputs":[{"name":"from","type":"address","indexed":true,"internalType":"address"},{"name":"to","type":"address","indexed":true,"internalType":"address"},{"name":"value","type":"uint256","indexed":false,"internalType":"uint256"}],"anonymous":false},{"type":"event","name":"Unpaused","inputs":[{"name":"account","type":"address","indexed":false,"internalType":"address"}],"anonymous":false},{"type":"error","name":"ERC20InsufficientAllowance","inputs":[{"name":"spender","type":"address","internalType":"address"},{"name":"allowance","type":"uint256","internalType":"uint256"},{"name":"needed","type":"uint256","internalType":"uint256"}]},{"type":"error","name":"ERC20InsufficientBalance","inputs":[{"name":"sender","type":"address","internalType":"address"},{"name":"balance","type":"uint256","internalType":"uint256"},{"name":"needed","type":"uint256","internalType":"uint256"}]},{"type":"error","name":"ERC20InvalidApprover","inputs":[{"name":"approver","type":"address","internalType":"address"}]},{"type":"error","name":"ERC20InvalidReceiver","inputs":[{"name":"receiver","type":"address","internalType":"address"}]},{"type":"error","name":"ERC20InvalidSender","inputs":[{"name":"sender","type":"address","internalType":"address"}]},{"type":"error","name":"ERC20InvalidSpender","inputs":[{"name":"spender","type":"address","internalType":"address"}]},{"type":"error","name":"EnforcedPause","inputs":[]},{"type":"error","name":"ExcessivePriceImpact","inputs":[]},{"type":"error","name":"ExpectedPause","inputs":[]},{"type":"error","name":"FlashLoansDisabled","inputs":[]},{"type":"error","name":"InsufficientAmount","inputs":[]},{"type":"error","name":"InsufficientInputAmount","inputs":[]},{"type":"error","name":"InsufficientLiquidity","inputs":[]},{"type":"error","name":"InsufficientLiquidityBurned","inputs":[]},{"type":"error","name":"InsufficientLiquidityMinted","inputs":[]},{"type":"error","name":"InsufficientOutputAmount","inputs":[]},{"type":"error","name":"InvalidCallback","inputs":[]},{"type":"error","name":"InvalidTo","inputs":[]},{"type":"error","name":"K","inputs":[]},{"type":"error","name":"Overflow","inputs":[]},{"type":"error","name":"OwnableInvalidOwner","inputs":[{"name":"owner","type":"address","internalType":"address"}]},{"type":"error","name":"OwnableUnauthorizedAccount","inputs":[{"name":"account","type":"address","internalType":"address"}]},{"type":"error","name":"ReentrancyGuardReentrantCall","inputs":[]},{"type":"error","name":"SafeERC20FailedOperation","inputs":[{"name":"token","type":"address","internalType":"address"}]}],"bytecode":{"object":"0x6101006040523461050a5761391c60a0813803918261001d8161050e565b93849283398101031261050a5761003381610533565b9061004060208201610533565b61004c60408301610533565b90610065608061005e60608601610533565b9401610533565b61006f604061050e565b60118152702230b9b4102222ac102628102a37b5b2b760791b6020820152610097604061050e565b60078152660444445582d4c560cc1b6020820152815190916001600160401b03821161040d5760035490600182811c92168015610500575b60208310146103ef5781601f849311610492575b50602090601f831160011461042c575f92610421575b50508160011b915f199060031b1c1916176003555b8051906001600160401b03821161040d5760045490600182811c92168015610403575b60208310146103ef5781601f849311610381575b50602090601f831160011461031b575f92610310575b50508160011b915f199060031b1c1916176004555b60016005556001600160a01b03169384156102fd57600680546001600160a01b03198116871790915560405195906001600160a01b03167f8be0079c531659141344cd1fd0a4f28419497f9722a3daafe3b4186f6b6457e05f80a3610640600b556003600d5568056bc75e2d631000006010556103e86012556013805460ff191660011790556001600160a01b0390811660805290811660a05290811660c0523360e0908152600c80546001600160a01b03191693909216929092179055600780546001600160e01b03164290921b6001600160e01b0319169190911790556133d490816105488239608051818181610281015281816105e30152818161086101528181610cbe015281816111c70152818161154901528181611e5e01528181611ecf01526122fc015260a0518181816102d60152818161060f0152818161074e0152818161083f01528181610c9c0152818161121b015281816115a1015281816120d50152612325015260c05181818161100601526131d7015260e0518181816107b80152612f430152f35b631e4fbdf760e01b5f525f60045260245ffd5b015190505f8061015b565b60045f9081528281209350601f198516905b8181106103695750908460019594939210610351575b505050811b01600455610170565b01515f1960f88460031b161c191690555f8080610343565b9293602060018192878601518155019501930161032d565b60045f529091507f8a35acfbc15ff81a39ae7d344fd709f28e8600b4aa8c65c6b64bfe7fe36bd19b601f840160051c810191602085106103e5575b90601f859493920160051c01905b8181106103d75750610145565b5f81558493506001016103ca565b90915081906103bc565b634e487b7160e01b5f52602260045260245ffd5b91607f1691610131565b634e487b7160e01b5f52604160045260245ffd5b015190505f806100f9565b60035f9081528281209350601f198516905b81811061047a5750908460019594939210610462575b505050811b0160035561010e565b01515f1960f88460031b161c191690555f8080610454565b9293602060018192878601518155019501930161043e565b60035f529091507fc2575a0e9e593c00f959f8c92f12db2869c3395a3b0502d05e2516446f71f85b601f840160051c810191602085106104f6575b90601f859493920160051c01905b8181106104e857506100e3565b5f81558493506001016104db565b90915081906104cd565b91607f16916100cf565b5f80fd5b6040519190601f01601f191682016001600160401b0381118382101761040d57604052565b51906001600160a01b038216820361050a5756fe60806040526004361015610011575f80fd5b5f5f3560e01c8063022c0d9f1461226c57806306fdde03146121af5780630902f1ac146110a1578063095ea7b3146121045780630a9e24b114611e8d5780630dfe168114611e485780630fb28c0b14611dd35780631298094a14611db557806316c38b3c14611ce957806318160ddd14611ccb57806323b872dd14611be957806326d7a44114611bb7578063313ce56714611b9b57806331d7a26214611b625780633b5d441e14611b295780633d18651e14611b0d5780634847cdc814611aef57806348a8a32a1461198e5780635c975abb146119685780635f1ce6fa14611930578063679f0579146114de5780636a6278421461118057806370a0823114611148578063715018a6146110eb57806375172a8b146110a1578063787dce3d146110705780637b0a47ee146110525780637ca251841461103557806388c8ec9514610ff057806389afcb4414610c595780638da5cb5b14610c305780639470dbea14610b4f57806395d89b4114610a4257806398d5fdca14610a27578063a9059cbb146109f5578063aaf5eb68146109d2578063b0e21e8a146109b4578063ba9a7a5614610997578063bc25cf7714610810578063c415b95c146107e7578063c45a0155146107a2578063caced41b1461077d578063d21220a714610738578063d73792a91461071b578063dd62ed3e146106c8578063ded998b914610586578063e92d0d5d14610556578063ed856cdc1461047f578063ee17254614610461578063f2fde38b146103d8578063f67979e2146103b55763fff6cae914610256575f80fd5b346103b257806003193601126103b2576040516370a0823160e01b81523060048201526020816024817f00000000000000000000000000000000000000000000000000000000000000006001600160a01b03165afa9081156103a7578291610375575b506040516370a0823160e01b8152306004820152906020826024817f00000000000000000000000000000000000000000000000000000000000000006001600160a01b03165afa90811561036a578391610330575b61032d9250600754916001600160701b03808460701c16931691612ce2565b80f35b90506020823d602011610362575b8161034b602093836128ed565b8101031261035e5761032d91519061030e565b5f80fd5b3d915061033e565b6040513d85823e3d90fd5b90506020813d60201161039f575b81610390602093836128ed565b8101031261035e57515f6102b9565b3d9150610383565b6040513d84823e3d90fd5b80fd5b50346103b257806003193601126103b257602060ff601354166040519015158152f35b50346103b25760203660031901126103b2576103f2612809565b6103fa612e47565b6001600160a01b0316801561044d57600680546001600160a01b0319811683179091556001600160a01b03167f8be0079c531659141344cd1fd0a4f28419497f9722a3daafe3b4186f6b6457e08380a380f35b631e4fbdf760e01b82526004829052602482fd5b50346103b257806003193601126103b2576020601154604051908152f35b50346103b25760a03660031901126103b25761049961281f565b6104a7426084351015612977565b6104b46004353033612e6e565b6040805163226bf2d160e21b81526001600160a01b0390921660048301528160248185305af180156103a75782918391610515575b604083836104fb602435831015612bda565b610509604435821015612c1e565b82519182526020820152f35b9150506040813d60401161054e575b81610531604093836128ed565b8101031261054a5760409150602081519101515f6104e9565b5080fd5b3d9150610524565b50346103b25760203660031901126103b257600435610573612e47565b6105806064821115612a3e565b600d5580f35b50346103b25760c03660031901126103b2576084356001600160a01b03811691908290036103b2576105bc4260a4351015612977565b6105c4612c62565b6105d860643560443560243560043561326b565b9290916106078330337f0000000000000000000000000000000000000000000000000000000000000000612e03565b6106338430337f0000000000000000000000000000000000000000000000000000000000000000612e03565b604051916335313c2160e11b8352600483015260208260248184305af19081156106bc5790610688575b61068491506001600555604051938493846040919493926060820195825260208201520152565b0390f35b506020813d6020116106b4575b816106a2602093836128ed565b8101031261035e57610684905161065d565b3d9150610695565b604051903d90823e3d90fd5b50346103b25760403660031901126103b25760406106e4612809565b916106ed612835565b9260018060a01b031681526001602052209060018060a01b03165f52602052602060405f2054604051908152f35b50346103b257806003193601126103b25760206040516127108152f35b50346103b257806003193601126103b2576040517f00000000000000000000000000000000000000000000000000000000000000006001600160a01b03168152602090f35b50346103b257602061079a610791366128bf565b92919091612b15565b604051908152f35b50346103b257806003193601126103b2576040517f00000000000000000000000000000000000000000000000000000000000000006001600160a01b03168152602090f35b50346103b257806003193601126103b257600c546040516001600160a01b039091168152602090f35b50346103b25760203660031901126103b25761082a612809565b6040516370a0823160e01b81523060048201527f0000000000000000000000000000000000000000000000000000000000000000907f00000000000000000000000000000000000000000000000000000000000000006020826024816001600160a01b0385165afa91821561098c5784908693610954575b506108bc6108c2936001600160701b036007541690612943565b91612ca0565b6040516370a0823160e01b8152306004820152916020836024816001600160a01b0386165afa928315610949578493610913575b506108bc61032d936001600160701b0360075460701c1690612943565b92506020833d602011610941575b8161092e602093836128ed565b8101031261035e579151916108bc6108f6565b3d9150610921565b6040513d86823e3d90fd5b9250506020823d602011610984575b81610970602093836128ed565b8101031261035e57905190836108bc6108a2565b3d9150610963565b6040513d87823e3d90fd5b50346103b257806003193601126103b25760206040516103e88152f35b50346103b257806003193601126103b2576020600b54604051908152f35b50346103b257806003193601126103b2576020604051670de0b6b3a76400008152f35b50346103b25760403660031901126103b257610a1c610a12612809565b6024359033612e6e565b602060405160018152f35b50346103b257806003193601126103b257602061079a612abe565b50346103b257806003193601126103b2576040519080600454908160011c91600181168015610b45575b602084108114610b3157838652908115610b0a5750600114610aad575b61068484610a99818603826128ed565b604051918291602083526020830190612879565b600481527f8a35acfbc15ff81a39ae7d344fd709f28e8600b4aa8c65c6b64bfe7fe36bd19b939250905b808210610af057509091508101602001610a9982610a89565b919260018160209254838588010152019101909291610ad7565b60ff191660208087019190915292151560051b85019092019250610a999150839050610a89565b634e487b7160e01b83526022600452602483fd5b92607f1692610a6c565b50346103b257610b89610b61366128bf565b928092610b728296939615156129ad565b80151580610c27575b610b8490612a79565b612964565b926103e88402938085046103e81490151715610c1357610bb291610bac91612943565b916131ad565b6103e803906103e88211610bff57610bd49291610bce91612964565b90612a13565b9060018201809211610beb57602082604051908152f35b634e487b7160e01b81526011600452602490fd5b634e487b7160e01b84526011600452602484fd5b634e487b7160e01b85526011600452602485fd5b50818611610b7b565b50346103b257806003193601126103b2576006546040516001600160a01b039091168152602090f35b50346103b25760203660031901126103b257610c73612809565b90610c7c612c62565b610c8461289d565b506040516370a0823160e01b815230600482015291937f0000000000000000000000000000000000000000000000000000000000000000937f0000000000000000000000000000000000000000000000000000000000000000939192906001600160a01b038516602084602481845afa9384156103a7578294610fbc575b506040516370a0823160e01b8152306004820152966001600160a01b0381169190602089602481865afa988915610949578499610f88575b5030845283602052604084205497610d77610d55878d612f2b565b97610d6b610d708c610d6b600254948592612964565b612a13565b9c8c612964565b988a158015610f80575b610f71573015610f5d57308652856020526040862054818110610f445789602094610df98e838f95978c88610dfe9960249e9d9b308452838e5203604083205580600254036002556040519081527fddf252ad1be2c89b69c2b068fc378daa952ba7f163c4a11628f55a4df523b3ef8c3092a3612ca0565b612ca0565b6040516370a0823160e01b815230600482015293849182905afa91821561036a578392610f0f575b506020602491604051928380926370a0823160e01b82523060048301525afa9283156106bc5792610ed4575b5096610e619291604098612ce2565b610eb1575b83519083825282602083015260018060a01b0316907fdccd412f0b1252819cb1fd330b93224ca42612892bb3f4f789976e6d81936496853392a3600160055582519182526020820152f35b610ecc6007546001600160701b03808260701c169116612964565b600a55610e66565b929150966020833d602011610f07575b81610ef1602093836128ed565b8101031261035e57915191969091906040610e52565b3d9150610ee4565b9091506020813d602011610f3c575b81610f2b602093836128ed565b8101031261035e5751906020610e26565b3d9150610f1e565b63391434e360e21b875230600452602452604452606485fd5b634b637e8f60e11b86526004869052602486fd5b63749383ad60e01b8652600486fd5b508915610d81565b9098506020813d602011610fb4575b81610fa4602093836128ed565b8101031261035e5751975f610d3a565b3d9150610f97565b9093506020813d602011610fe8575b81610fd8602093836128ed565b8101031261035e5751925f610d02565b3d9150610fcb565b50346103b257806003193601126103b2576040517f00000000000000000000000000000000000000000000000000000000000000006001600160a01b03168152602090f35b50346103b257806003193601126103b25760206040516107088152f35b50346103b257806003193601126103b2576020601054604051908152f35b50346103b25760203660031901126103b25760043561108d612e47565b61109b6109c4821115612a3e565b600b5580f35b50346103b257806003193601126103b2576106846110bd61289d565b604080516001600160701b03948516815293909216602084015263ffffffff16908201529081906060820190565b50346103b257806003193601126103b257611104612e47565b600680546001600160a01b0319811690915581906001600160a01b03167f8be0079c531659141344cd1fd0a4f28419497f9722a3daafe3b4186f6b6457e08280a380f35b50346103b25760203660031901126103b2576020906040906001600160a01b03611170612809565b1681528083522054604051908152f35b50346103b25760203660031901126103b25761119a612809565b6111a2612c62565b6111aa61289d565b506040516370a0823160e01b8152306004820152926020846024817f00000000000000000000000000000000000000000000000000000000000000006001600160a01b03165afa93841561098c5785946114aa575b506040516370a0823160e01b81523060048201526020816024817f00000000000000000000000000000000000000000000000000000000000000006001600160a01b03165afa90811561149f57869161146d575b506001600160701b038416926112698487612943565b946001600160701b0382169261127f8482612943565b958761128b8585612f2b565b956002549283155f146114435750506112ae9150876112a991612964565b613072565b6103e719810190811161142f57976112c96103e86001613367565b881561142057906112e59392916112e08a88613194565b612ce2565b6113fd575b6001600160a01b031680855260208590526040852054909490611354575b6020948152600e8552604042912055604051918252838201527f4c209b5fc8ad50758f13e2e1088ba56a560dff690a1c6fef26394f4c03821c4f60403392a26001600555604051908152f35b848152600e60205261136a604082205442612943565b9480825281602052604082205460025496871515806113f4575b611392575b50509450611308565b90610b846113a39260105490612964565b86620151800296620151808804036113e0576020966113c191612a13565b818352600f87526113d760408420918254612a31565b90555f80611389565b634e487b7160e01b83526011600452602483fd5b50801515611384565b6114186007546001600160701b03808260701c169116612964565b600a556112ea565b633489be7560e21b8a5260048afd5b634e487b7160e01b8a52601160045260248afd5b611457610d6b91610d6b8661145e96612964565b938a612964565b908180821091180218976112c9565b90506020813d602011611497575b81611488602093836128ed565b8101031261035e57515f611253565b3d915061147b565b6040513d88823e3d90fd5b9093506020813d6020116114d6575b816114c6602093836128ed565b8101031261035e5751925f6111ff565b3d91506114b9565b50346103b25760803660031901126103b2576114f8612809565b60443560243560643567ffffffffffffffff811161192c5761151e90369060040161284b565b939092611529612c62565b60ff601354161561191d576040516370a0823160e01b81523060048201527f0000000000000000000000000000000000000000000000000000000000000000946001600160a01b038616602083602481845afa9283156119125789936118de575b506040516370a0823160e01b8152306004820152947f0000000000000000000000000000000000000000000000000000000000000000926001600160a01b038416918b9190602089602481875afa95861561036a578a9984976118a3575b50612710611605816115fd600d54809e612964565b049b8b612964565b049b8b8381611892575b90508a809250611881575b5050506001600160a01b03169a8b3b1561187d57888c89858d8f96611674908397604051998a9889978896639656c3fb60e01b8852600488015260248701526044860152606485015260a0608485015260a4840191612923565b03925af180156103a757611864575b50506020602492604051938480926370a0823160e01b82523060048301525afa918215611824578a9261182f575b506020602491604051928380926370a0823160e01b82523060048301525afa9384156118245786918b956117eb575b50906116eb91612a31565b1161179a57856116fa91612a31565b11611749577f31aaad38f00845a242d16ae90d7bd72fc68f0e22581470f9dc0de241210c28869361173061173692604095612a31565b92612a31565b82519182526020820152a2600160055580f35b60405162461bcd60e51b815260206004820152602360248201527f494e53554646494349454e545f464c4153485f4c4f414e5f52455041594d454e604482015262545f3160e81b6064820152608490fd5b60405162461bcd60e51b815260206004820152602360248201527f494e53554646494349454e545f464c4153485f4c4f414e5f52455041594d454e6044820152620545f360ec1b6064820152608490fd5b915093506020813d60201161181c575b81611808602093836128ed565b8101031261035e57519285906116eb6116e0565b3d91506117fb565b6040513d8c823e3d90fd5b9091506020813d60201161185c575b8161184b602093836128ed565b8101031261035e57519060206116b1565b3d915061183e565b8161186e916128ed565b61187957895f611683565b8980fd5b8280fd5b61188a92612ca0565b5f888261161a565b61189b92612ca0565b5f8b8361160f565b9350955097506020823d6020116118d6575b816118c2602093836128ed565b8101031261035e5788978c9251955f6115e8565b3d91506118b5565b9092506020813d60201161190a575b816118fa602093836128ed565b8101031261035e5751915f61158a565b3d91506118ed565b6040513d8b823e3d90fd5b63756bd4ef60e01b8652600486fd5b8480fd5b50346103b25760203660031901126103b25760043580151580910361054a57611957612e47565b60ff80196013541691161760135580f35b50346103b257806003193601126103b257602060ff60065460a01c166040519015158152f35b50346103b25760203660031901126103b257808161070860043511611ab85763ffffffff6119c360075460e01c8242166129f9565b1680611a9457506001600160701b036119da61289d565b509116801591821580611a82575b611a00575b5050506040925082519182526020820152f35b9092506001600160701b039193501692670de0b6b3a76400008402848104670de0b6b3a76400001485151715611a6e5782611a3a91612a13565b92670de0b6b3a76400008302928304670de0b6b3a7640000141715610beb5750604092611a6691612a13565b5f80806119ed565b634e487b7160e01b82526011600452602482fd5b506001600160701b03811615156119e8565b91505060409150611ab3611aaa82600854612a13565b91600954612a13565b610509565b60405162461bcd60e51b815260206004820152600f60248201526e504552494f445f544f4f5f4c4f4e4760881b6044820152606490fd5b50346103b257806003193601126103b2576020600d54604051908152f35b50346103b257806003193601126103b2576020604051601e8152f35b50346103b25760203660031901126103b2576020906040906001600160a01b03611b51612809565b168152600e83522054604051908152f35b50346103b25760203660031901126103b2576020906040906001600160a01b03611b8a612809565b168152600f83522054604051908152f35b50346103b257806003193601126103b257602060405160128152f35b50346103b257806003193601126103b257600854600954600a5460408051938452602084019290925290820152606090f35b50346103b25760603660031901126103b257611c03612809565b611c0b612835565b6001600160a01b038216808452600160209081526040808620335f908152925290205460443593915f198210611c48575b5050610a1c9350612e6e565b848210611cb0578015611c9c573315611c885785604091610a1c975260016020522060018060a01b0333165f526020528360405f20910390555f80611c3c565b634a1406b160e11b86526004869052602486fd5b63e602df0560e01b86526004869052602486fd5b6064868684637dc7a0d960e11b835233600452602452604452fd5b50346103b257806003193601126103b2576020600254604051908152f35b50346103b25760203660031901126103b257600435801515810361054a57611d0f612e47565b15611d5e57611d1c612c82565b6006805460ff60a01b1916600160a01b1790556040513381527f62e78cea01bee320cd4e420270b5ea74000d11b0c9f74754ebdbfc544b05a25890602090a180f35b60065460ff8160a01c1615611da65760ff60a01b19166006556040513381527f5db9ee0a495bf2e6ff9c91a7834c1ba4fdd244a5e8aa4e537bd38aeae4b073aa90602090a180f35b638dfc202b60e01b8252600482fd5b50346103b257806003193601126103b2576020601254604051908152f35b50346103b25760203660031901126103b257600435611df0612e47565b606481101580611e3c575b15611e065760125580f35b60405162461bcd60e51b815260206004820152600e60248201526d1253959053125117d253541050d560921b6044820152606490fd5b50611388811115611dfb565b50346103b257806003193601126103b2576040517f00000000000000000000000000000000000000000000000000000000000000006001600160a01b03168152602090f35b50346103b25760a03660031901126103b257602435600435611ead6127f3565b90611eb661281f565b91611ec5426084351015612977565b611ecd612c62565b7f00000000000000000000000000000000000000000000000000000000000000006001600160a01b039081169116908114908180156120d2575b1561209d5782611f1a9130903390612e03565b15611fe757611f41611f4a9160075433916001600160701b03808360701c16921690612b15565b928310156129ad565b82604051611f596020826128ed565b8181525f366020830137303b1561054a5760405163022c0d9f60e01b815260048101839052602481018590526001600160a01b0390931660448401526080606484015282908190611fae906084830190612879565b038183305af1801561036a57611fd2575b50602091505b6001600555604051908152f35b611fdd8380926128ed565b61054a5781611fbf565b611f416120099160075433916001600160701b038083169260701c1690612b15565b826040516120186020826128ed565b8181525f366020830137303b1561054a5760405163022c0d9f60e01b815260048101859052602481018390526001600160a01b039093166044840152608060648401528290819061206d906084830190612879565b038183305af1801561036a57612088575b5060209150611fc5565b6120938380926128ed565b61054a578161207e565b60405162461bcd60e51b815260206004820152600d60248201526c24a72b20a624a22faa27a5a2a760991b6044820152606490fd5b507f00000000000000000000000000000000000000000000000000000000000000006001600160a01b03168114611f07565b50346103b25760403660031901126103b25761211e612809565b60243590331561219b576001600160a01b031691821561218757604090338152600160205220825f526020528060405f20556040519081527f8c5be1e5ebec7d5bd14f71427d1e84f3dd0314c0f7b2291e5b200ac8c7c3b92560203392a3602060405160018152f35b634a1406b160e11b81526004819052602490fd5b63e602df0560e01b83526004839052602483fd5b50346103b257806003193601126103b2576040519080600354908160011c91600181168015612262575b602084108114610b3157838652908115610b0a57506001146122055761068484610a99818603826128ed565b600381527fc2575a0e9e593c00f959f8c92f12db2869c3395a3b0502d05e2516446f71f85b939250905b80821061224857509091508101602001610a9982610a89565b91926001816020925483858801015201910190929161222f565b92607f16926121d9565b503461035e57608036600319011261035e576004359060243561228d6127f3565b9060643567ffffffffffffffff811161035e576122ae90369060040161284b565b94906122b8612c62565b6122c0612c82565b81159384806127eb575b6127dc576122d661289d565b50916001600160701b038216938486108015906127c9575b6127ba576001600160a01b037f00000000000000000000000000000000000000000000000000000000000000008181169b918416997f00000000000000000000000000000000000000000000000000000000000000009491908b8e1480156127a8575b61279957828a9115612788575b5050508880612777575b5050806126df575b505060206024979899604051988980926370a0823160e01b82523060048301525afa9687156119125789976126aa575b506040516370a0823160e01b815230600482015290602090829060249082906001600160a01b03165afa908115611912578991612678575b506123e38585612943565b871115612671576123fd6123f78686612943565b88612943565b965b6001600160701b0384166124138882612943565b83111561266a5761242d6124278983612943565b84612943565b955b891580612662575b612653576103e861245061244a336131ad565b8c612964565b04916103e8612467612461336131ad565b8a612964565b04926103e885028581046103e8148615171561262a579061248791612943565b6103e88602938615948781046103e81486171561263e576124b292916124ac91612943565b90612964565b6124bc8284612964565b90620f4240820291808304620f4240149015171561262a571061261b57670de0b6b3a7640000810290808204670de0b6b3a76400001490151715612607579061250491612a13565b90670de0b6b3a7640000840290848204670de0b6b3a76400001417156125c5578261252e91612a13565b81808211156125d95761254091612943565b61271081029080820461271014901517156125c5579061255f91612a13565b601254106125b65790612573939291612ce2565b6040519384526020840152604083015260608201527fd78ad95fa46c994b6551d0da85fc275fe613ce37657fb8d5e3d130840159d82260803392a3600160055580f35b630988208760e41b8a5260048afd5b634e487b7160e01b8c52601160045260248cfd5b906125e391612943565b61271081029080820461271014901517156125c5579061260291612a13565b61255f565b634e487b7160e01b8d52601160045260248dfd5b63a932492f60e01b8d5260048dfd5b634e487b7160e01b8f52601160045260248ffd5b50634e487b7160e01b8f52601160045260248ffd5b63098fb56160e01b8c5260048cfd5b508615612437565b8a9561242f565b88966123ff565b90506020813d6020116126a2575b81612693602093836128ed565b8101031261035e57515f6123d8565b3d9150612686565b9096506020813d6020116126d7575b816126c6602093836128ed565b8101031261035e57519560206123a0565b3d91506126b9565b60ff601354161561276857883b1561035e5761272c915f9160405193849283926304347a1760e21b84523360048501528b60248501528c6044850152608060648501526084840191612923565b0381838c5af1801561275d57612743575b80612370565b60249798505f612752916128ed565b60205f98975061273d565b6040513d5f823e3d90fd5b63756bd4ef60e01b5f5260045ffd5b6127819185612ca0565b5f88612368565b61279192612ca0565b5f888261235e565b630521f43160e31b5f5260045ffd5b506001600160a01b0386168c14612351565b63bb55fd2760e01b5f5260045ffd5b506001600160701b0384168710156122ee565b6342301c2360e01b5f5260045ffd5b5083156122ca565b604435906001600160a01b038216820361035e57565b600435906001600160a01b038216820361035e57565b606435906001600160a01b038216820361035e57565b602435906001600160a01b038216820361035e57565b9181601f8401121561035e5782359167ffffffffffffffff831161035e576020838186019501011161035e57565b805180835260209291819084018484015e5f828201840152601f01601f1916010190565b6007546001600160701b038116916001600160701b038260701c169160e01c90565b608090600319011261035e576004359060243590604435906064356001600160a01b038116810361035e5790565b90601f8019910116810190811067ffffffffffffffff82111761290f57604052565b634e487b7160e01b5f52604160045260245ffd5b908060209392818452848401375f828201840152601f01601f1916010190565b9190820391821161295057565b634e487b7160e01b5f52601160045260245ffd5b8181029291811591840414171561295057565b1561297e57565b60405162461bcd60e51b81526020600482015260076024820152661156141254915160ca1b6044820152606490fd5b156129b457565b60405162461bcd60e51b815260206004820152601a60248201527f494e53554646494349454e545f4f55545055545f414d4f554e540000000000006044820152606490fd5b9063ffffffff8091169116039063ffffffff821161295057565b8115612a1d570490565b634e487b7160e01b5f52601260045260245ffd5b9190820180921161295057565b15612a4557565b60405162461bcd60e51b815260206004820152600c60248201526b08c8a8abea89e9ebe90928e960a31b6044820152606490fd5b15612a8057565b60405162461bcd60e51b8152602060048201526016602482015275494e53554646494349454e545f4c495155494449545960501b6044820152606490fd5b6001600160701b03612ace61289d565b509116908115612b0f576001600160701b031690670de0b6b3a7640000820291808304670de0b6b3a7640000149015171561295057612b0c91612a13565b90565b50505f90565b9291928015612b95576103e8612b46612b40841595861580612b8c575b612b3b90612a79565b6131ad565b83612964565b04906103e881029081046103e80361295057612b6c91612b6591612943565b9384612964565b916103e882029182046103e814171561295057612b0c92610bce91612a31565b50871515612b32565b60405162461bcd60e51b815260206004820152601960248201527f494e53554646494349454e545f494e5055545f414d4f554e54000000000000006044820152606490fd5b15612be157565b60405162461bcd60e51b8152602060048201526015602482015274125394d551919250d251539517d057d05353d55395605a1b6044820152606490fd5b15612c2557565b60405162461bcd60e51b8152602060048201526015602482015274125394d551919250d251539517d097d05353d55395605a1b6044820152606490fd5b600260055414612c73576002600555565b633ee5aeb560e01b5f5260045ffd5b60ff60065460a01c16612c9157565b63d93c066560e01b5f5260045ffd5b60405163a9059cbb60e01b60208201526001600160a01b039092166024830152604480830193909352918152612ce091612cdb6064836128ed565b61330f565b565b91926001600160701b0383118015612df3575b612de4576001600160701b0360409381927f1c411e9a96e071241c2f21f7726b17ae89e3cab4c78be50e062b03a9fffbbad19663ffffffff612d3e60075460e01c8242166129f9565b169081151580612dd9575b80612dce575b612d83575b505050169163ffffffff60e01b4260e01b16838360701b8360701b1617176007558351928352166020820152a1565b610d6b612dbb9286612dc3951692612db3612dab89612da28588612964565b93168093612a13565b600854612a31565b600855612964565b600954612a31565b6009555f8080612d54565b508483161515612d4f565b508481161515612d49565b631a93c68960e11b5f5260045ffd5b506001600160701b038211612cf5565b6040516323b872dd60e01b60208201526001600160a01b039283166024820152929091166044830152606480830193909352918152612ce091612cdb6084836128ed565b6006546001600160a01b03163303612e5b57565b63118cdaa760e01b5f523360045260245ffd5b6001600160a01b0316908115612f18576001600160a01b0316918215612f0557815f525f60205260405f2054818110612eec57817fddf252ad1be2c89b69c2b068fc378daa952ba7f163c4a11628f55a4df523b3ef92602092855f525f84520360405f2055845f525f825260405f20818154019055604051908152a3565b8263391434e360e21b5f5260045260245260445260645ffd5b63ec442f0560e01b5f525f60045260245ffd5b634b637e8f60e11b5f525f60045260245ffd5b604051622fcfcb60e31b8152919291906020826004817f00000000000000000000000000000000000000000000000000000000000000006001600160a01b03165afa91821561275d575f9261302e575b50600a546001600160a01b0383161580159591929061301e5782612fa0575b50505050565b6112a9612fbc916001600160701b0380612fc295169116612964565b91613072565b90818111612fd1575b80612f9a565b612fe16002546124ac8484612943565b906005810290808204600514901517156129505761300292610bce91612a31565b8061300e575b80612fcb565b61301791613194565b5f80613008565b5050905061302857565b5f600a55565b9091506020813d60201161306a575b8161304a602093836128ed565b8101031261035e57516001600160a01b038116810361035e57905f612f7b565b3d915061303d565b6001811115612b0c57806001600160801b821015613183575b600482600160401b613135941015613176575b640100000000811015613169575b6201000081101561315c575b610100811015613150575b6010811015613144575b101561313c575b60030260011c6130e48184612a13565b0160011c6130f28184612a13565b0160011c6131008184612a13565b0160011c61310e8184612a13565b0160011c61311c8184612a13565b0160011c61312a8184612a13565b0160011c8092612a13565b8111900390565b60011b6130d4565b811c9160021b916130cd565b60081c91811b916130c3565b60101c9160081b916130b8565b60201c9160101b916130ac565b60401c9160201b9161309e565b5050608081901c600160401b61308b565b906001600160a01b03821615612f0557612ce091613367565b604051632dfe9f3f60e21b81526001600160a01b03918216600482015290602090829060249082907f0000000000000000000000000000000000000000000000000000000000000000165afa90811561275d575f91613239575b50601e9080613214575090565b90506127100361271081116129505780601e0290601e82040361295057612710900490565b90506020813d602011613263575b81613254602093836128ed565b8101031261035e57515f613207565b3d9150613247565b91906001600160701b0394939161328061289d565b509616958615806132fe575b6132f5576001600160701b03166132a787610d6b8388612964565b968388116132c357505050506132bf90841015612c1e565b9190565b8397506132bf9450610d6b906132d99394612964565b9283111590816132ea575b50612bda565b90508210155f6132e4565b50509350509190565b506001600160701b0381161561328c565b905f602091828151910182855af11561275d575f513d61335e57506001600160a01b0381163b155b61333e5750565b635274afe760e01b5f9081526001600160a01b0391909116600452602490fd5b60011415613337565b7fddf252ad1be2c89b69c2b068fc378daa952ba7f163c4a11628f55a4df523b3ef60205f9261339885600254612a31565b6002556001600160a01b031693841584146133bf5780600254036002555b604051908152a3565b848452838252604084208181540190556133b656","linkReferences":{}},"methodIdentifiers":{"BASE_FEE()":"3d18651e","FEE_DENOMINATOR()":"d73792a9","MINIMUM_LIQUIDITY()":"ba9a7a56","PRECISION()":"aaf5eb68","TWAP_PERIOD()":"7ca25184","addLiquidity(uint256,uint256,uint256,uint256,address,uint256)":"ded998b9","allowance(address,address)":"dd62ed3e","approve(address,uint256)":"095ea7b3","balanceOf(address)":"70a08231","burn(address)":"89afcb44","dashToken()":"88c8ec95","decimals()":"313ce567","factory()":"c45a0155","feeCollector()":"c415b95c","flashLoan(address,uint256,uint256,bytes)":"679f0579","flashLoanFee()":"4847cdc8","flashLoansEnabled()":"f67979e2","getAmountIn(uint256,uint256,uint256,address)":"9470dbea","getAmountOut(uint256,uint256,uint256,address)":"caced41b","getPrice()":"98d5fdca","getReserves()":"0902f1ac","getTWAPPrice(uint256)":"48a8a32a","lastRewardTime(address)":"3b5d441e","maxSwapImpact()":"1298094a","mint(address)":"6a627842","name()":"06fdde03","owner()":"8da5cb5b","paused()":"5c975abb","pendingRewards(address)":"31d7a262","protocolFee()":"b0e21e8a","removeLiquidity(uint256,uint256,uint256,address,uint256)":"ed856cdc","renounceOwnership()":"715018a6","reserves()":"75172a8b","rewardRate()":"7b0a47ee","setFlashLoanFee(uint256)":"e92d0d5d","setFlashLoansEnabled(bool)":"5f1ce6fa","setMaxSwapImpact(uint256)":"0fb28c0b","setPaused(bool)":"16c38b3c","setProtocolFee(uint256)":"787dce3d","skim(address)":"bc25cf77","swap(uint256,uint256,address,bytes)":"022c0d9f","swapExactTokensForTokens(uint256,uint256,address,address,uint256)":"0a9e24b1","symbol()":"95d89b41","sync()":"fff6cae9","token0()":"0dfe1681","token1()":"d21220a7","totalRewardsDistributed()":"ee172546","totalSupply()":"18160ddd","transfer(address,uint256)":"a9059cbb","transferFrom(address,address,uint256)":"23b872dd","transferOwnership(address)":"f2fde38b","twapData()":"26d7a441"},"id":98}